{
	"Atelier 5/MiniSocial.sol": {
		"MiniSocial": {
			"abi": [
				{
					"anonymous": false,
					"inputs": [
						{
							"indexed": true,
							"internalType": "uint256",
							"name": "postId",
							"type": "uint256"
						},
						{
							"indexed": true,
							"internalType": "uint256",
							"name": "commentIndex",
							"type": "uint256"
						},
						{
							"indexed": true,
							"internalType": "address",
							"name": "commenter",
							"type": "address"
						},
						{
							"indexed": false,
							"internalType": "string",
							"name": "content",
							"type": "string"
						}
					],
					"name": "CommentAdded",
					"type": "event"
				},
				{
					"anonymous": false,
					"inputs": [
						{
							"indexed": true,
							"internalType": "uint256",
							"name": "postId",
							"type": "uint256"
						},
						{
							"indexed": true,
							"internalType": "address",
							"name": "author",
							"type": "address"
						},
						{
							"indexed": false,
							"internalType": "string",
							"name": "title",
							"type": "string"
						},
						{
							"indexed": false,
							"internalType": "uint256",
							"name": "timestamp",
							"type": "uint256"
						}
					],
					"name": "PostCreated",
					"type": "event"
				},
				{
					"anonymous": false,
					"inputs": [
						{
							"indexed": true,
							"internalType": "uint256",
							"name": "postId",
							"type": "uint256"
						},
						{
							"indexed": true,
							"internalType": "address",
							"name": "liker",
							"type": "address"
						}
					],
					"name": "PostLiked",
					"type": "event"
				},
				{
					"anonymous": false,
					"inputs": [
						{
							"indexed": true,
							"internalType": "uint256",
							"name": "postId",
							"type": "uint256"
						},
						{
							"indexed": true,
							"internalType": "address",
							"name": "unliker",
							"type": "address"
						}
					],
					"name": "PostUnliked",
					"type": "event"
				},
				{
					"inputs": [],
					"name": "activePostsCount",
					"outputs": [
						{
							"internalType": "uint256",
							"name": "",
							"type": "uint256"
						}
					],
					"stateMutability": "view",
					"type": "function"
				},
				{
					"inputs": [
						{
							"internalType": "uint256",
							"name": "_postId",
							"type": "uint256"
						},
						{
							"internalType": "string",
							"name": "_content",
							"type": "string"
						}
					],
					"name": "addComment",
					"outputs": [],
					"stateMutability": "nonpayable",
					"type": "function"
				},
				{
					"inputs": [
						{
							"internalType": "string",
							"name": "_title",
							"type": "string"
						},
						{
							"internalType": "string",
							"name": "_content",
							"type": "string"
						}
					],
					"name": "createPost",
					"outputs": [
						{
							"internalType": "uint256",
							"name": "",
							"type": "uint256"
						}
					],
					"stateMutability": "nonpayable",
					"type": "function"
				},
				{
					"inputs": [
						{
							"internalType": "uint256",
							"name": "_postId",
							"type": "uint256"
						}
					],
					"name": "deletePost",
					"outputs": [],
					"stateMutability": "nonpayable",
					"type": "function"
				},
				{
					"inputs": [],
					"name": "getAllPosts",
					"outputs": [
						{
							"internalType": "uint256[]",
							"name": "postIds",
							"type": "uint256[]"
						},
						{
							"internalType": "string[]",
							"name": "titles",
							"type": "string[]"
						},
						{
							"internalType": "string[]",
							"name": "contents",
							"type": "string[]"
						},
						{
							"internalType": "address[]",
							"name": "authors",
							"type": "address[]"
						},
						{
							"internalType": "uint256[]",
							"name": "timestamps",
							"type": "uint256[]"
						},
						{
							"internalType": "uint256[]",
							"name": "likeCounts",
							"type": "uint256[]"
						},
						{
							"internalType": "uint256[]",
							"name": "commentCounts",
							"type": "uint256[]"
						},
						{
							"internalType": "bool[]",
							"name": "isEdited",
							"type": "bool[]"
						},
						{
							"internalType": "bool[]",
							"name": "isActive",
							"type": "bool[]"
						}
					],
					"stateMutability": "view",
					"type": "function"
				},
				{
					"inputs": [
						{
							"internalType": "uint256",
							"name": "_postId",
							"type": "uint256"
						}
					],
					"name": "getPost",
					"outputs": [
						{
							"internalType": "string",
							"name": "title",
							"type": "string"
						},
						{
							"internalType": "string",
							"name": "content",
							"type": "string"
						},
						{
							"internalType": "address",
							"name": "author",
							"type": "address"
						},
						{
							"internalType": "uint256",
							"name": "timestamp",
							"type": "uint256"
						},
						{
							"internalType": "uint256",
							"name": "likesCount",
							"type": "uint256"
						},
						{
							"internalType": "address[]",
							"name": "likedBy",
							"type": "address[]"
						},
						{
							"internalType": "uint256",
							"name": "commentCount",
							"type": "uint256"
						},
						{
							"components": [
								{
									"internalType": "string",
									"name": "content",
									"type": "string"
								},
								{
									"internalType": "address",
									"name": "author",
									"type": "address"
								},
								{
									"internalType": "uint256",
									"name": "timestamp",
									"type": "uint256"
								}
							],
							"internalType": "struct MiniSocial.Comment[]",
							"name": "comments",
							"type": "tuple[]"
						}
					],
					"stateMutability": "view",
					"type": "function"
				},
				{
					"inputs": [],
					"name": "getTotalPosts",
					"outputs": [
						{
							"internalType": "uint256",
							"name": "",
							"type": "uint256"
						}
					],
					"stateMutability": "view",
					"type": "function"
				},
				{
					"inputs": [
						{
							"internalType": "uint256",
							"name": "_postId",
							"type": "uint256"
						},
						{
							"internalType": "address",
							"name": "_user",
							"type": "address"
						}
					],
					"name": "hasLiked",
					"outputs": [
						{
							"internalType": "bool",
							"name": "",
							"type": "bool"
						}
					],
					"stateMutability": "view",
					"type": "function"
				},
				{
					"inputs": [
						{
							"internalType": "uint256",
							"name": "_postId",
							"type": "uint256"
						}
					],
					"name": "toggleLike",
					"outputs": [],
					"stateMutability": "nonpayable",
					"type": "function"
				},
				{
					"inputs": [],
					"name": "totalPosts",
					"outputs": [
						{
							"internalType": "uint256",
							"name": "",
							"type": "uint256"
						}
					],
					"stateMutability": "view",
					"type": "function"
				}
			],
			"devdoc": {
				"kind": "dev",
				"methods": {},
				"version": 1
			},
			"evm": {
				"assembly": "    /* \"Atelier 5/MiniSocial.sol\":57:7882  contract MiniSocial {... */\n  mstore(0x40, 0x80)\n  callvalue\n  dup1\n  iszero\n  tag_1\n  jumpi\n  revert(0x00, 0x00)\ntag_1:\n  pop\n  dataSize(sub_0)\n  dup1\n  dataOffset(sub_0)\n  0x00\n  codecopy\n  0x00\n  return\nstop\n\nsub_0: assembly {\n        /* \"Atelier 5/MiniSocial.sol\":57:7882  contract MiniSocial {... */\n      mstore(0x40, 0x80)\n      callvalue\n      dup1\n      iszero\n      tag_1\n      jumpi\n      revert(0x00, 0x00)\n    tag_1:\n      pop\n      jumpi(tag_2, lt(calldatasize, 0x04))\n      shr(0xe0, calldataload(0x00))\n      dup1\n      0x54398d18\n      gt\n      tag_13\n      jumpi\n      dup1\n      0x54398d18\n      eq\n      tag_8\n      jumpi\n      dup1\n      0x5fe226b4\n      eq\n      tag_9\n      jumpi\n      dup1\n      0x8e53fb41\n      eq\n      tag_10\n      jumpi\n      dup1\n      0x8fb7092c\n      eq\n      tag_11\n      jumpi\n      dup1\n      0xaa7e5683\n      eq\n      tag_12\n      jumpi\n      jump(tag_2)\n    tag_13:\n      dup1\n      0x094cd5ee\n      eq\n      tag_3\n      jumpi\n      dup1\n      0x0fbbbfc3\n      eq\n      tag_4\n      jumpi\n      dup1\n      0x30561100\n      eq\n      tag_5\n      jumpi\n      dup1\n      0x392338f5\n      eq\n      tag_6\n      jumpi\n      dup1\n      0x40731c24\n      eq\n      tag_7\n      jumpi\n    tag_2:\n      revert(0x00, 0x00)\n        /* \"Atelier 5/MiniSocial.sol\":7646:7880  function deletePost(uint256 _postId) public postExists(_postId) {... */\n    tag_3:\n      tag_14\n      0x04\n      dup1\n      calldatasize\n      sub\n      dup2\n      add\n      swap1\n      tag_15\n      swap2\n      swap1\n      tag_16\n      jump\t// in\n    tag_15:\n      tag_17\n      jump\t// in\n    tag_14:\n      stop\n        /* \"Atelier 5/MiniSocial.sol\":847:878  uint256 public activePostsCount */\n    tag_4:\n      tag_18\n      tag_19\n      jump\t// in\n    tag_18:\n      mload(0x40)\n      tag_20\n      swap2\n      swap1\n      tag_21\n      jump\t// in\n    tag_20:\n      mload(0x40)\n      dup1\n      swap2\n      sub\n      swap1\n      return\n        /* \"Atelier 5/MiniSocial.sol\":5219:7229  function getAllPosts() public view returns (... */\n    tag_5:\n      tag_22\n      tag_23\n      jump\t// in\n    tag_22:\n      mload(0x40)\n      tag_24\n      swap10\n      swap9\n      swap8\n      swap7\n      swap6\n      swap5\n      swap4\n      swap3\n      swap2\n      swap1\n      tag_25\n      jump\t// in\n    tag_24:\n      mload(0x40)\n      dup1\n      swap2\n      sub\n      swap1\n      return\n        /* \"Atelier 5/MiniSocial.sol\":1530:2607  function createPost(... */\n    tag_6:\n      tag_26\n      0x04\n      dup1\n      calldatasize\n      sub\n      dup2\n      add\n      swap1\n      tag_27\n      swap2\n      swap1\n      tag_28\n      jump\t// in\n    tag_27:\n      tag_29\n      jump\t// in\n    tag_26:\n      mload(0x40)\n      tag_30\n      swap2\n      swap1\n      tag_21\n      jump\t// in\n    tag_30:\n      mload(0x40)\n      dup1\n      swap2\n      sub\n      swap1\n      return\n        /* \"Atelier 5/MiniSocial.sol\":4327:5173  function getPost(uint256 _postId) public view postExists(_postId) returns (... */\n    tag_7:\n      tag_31\n      0x04\n      dup1\n      calldatasize\n      sub\n      dup2\n      add\n      swap1\n      tag_32\n      swap2\n      swap1\n      tag_16\n      jump\t// in\n    tag_32:\n      tag_33\n      jump\t// in\n    tag_31:\n      mload(0x40)\n      tag_34\n      swap9\n      swap8\n      swap7\n      swap6\n      swap5\n      swap4\n      swap3\n      swap2\n      swap1\n      tag_35\n      jump\t// in\n    tag_34:\n      mload(0x40)\n      dup1\n      swap2\n      sub\n      swap1\n      return\n        /* \"Atelier 5/MiniSocial.sol\":3324:4280  function toggleLike(uint256 _postId) public postExists(_postId) {... */\n    tag_8:\n      tag_36\n      0x04\n      dup1\n      calldatasize\n      sub\n      dup2\n      add\n      swap1\n      tag_37\n      swap2\n      swap1\n      tag_16\n      jump\t// in\n    tag_37:\n      tag_38\n      jump\t// in\n    tag_36:\n      stop\n        /* \"Atelier 5/MiniSocial.sol\":7290:7385  function getTotalPosts() public view returns (uint256) {... */\n    tag_9:\n      tag_39\n      tag_40\n      jump\t// in\n    tag_39:\n      mload(0x40)\n      tag_41\n      swap2\n      swap1\n      tag_21\n      jump\t// in\n    tag_41:\n      mload(0x40)\n      dup1\n      swap2\n      sub\n      swap1\n      return\n        /* \"Atelier 5/MiniSocial.sol\":816:841  uint256 public totalPosts */\n    tag_10:\n      tag_42\n      tag_43\n      jump\t// in\n    tag_42:\n      mload(0x40)\n      tag_44\n      swap2\n      swap1\n      tag_21\n      jump\t// in\n    tag_44:\n      mload(0x40)\n      dup1\n      swap2\n      sub\n      swap1\n      return\n        /* \"Atelier 5/MiniSocial.sol\":7443:7589  function hasLiked(uint256 _postId, address _user) public view postExists(_postId) returns (bool) {... */\n    tag_11:\n      tag_45\n      0x04\n      dup1\n      calldatasize\n      sub\n      dup2\n      add\n      swap1\n      tag_46\n      swap2\n      swap1\n      tag_47\n      jump\t// in\n    tag_46:\n      tag_48\n      jump\t// in\n    tag_45:\n      mload(0x40)\n      tag_49\n      swap2\n      swap1\n      tag_50\n      jump\t// in\n    tag_49:\n      mload(0x40)\n      dup1\n      swap2\n      sub\n      swap1\n      return\n        /* \"Atelier 5/MiniSocial.sol\":2646:3273  function addComment(uint256 _postId, string memory _content) public postExists(_postId) {... */\n    tag_12:\n      tag_51\n      0x04\n      dup1\n      calldatasize\n      sub\n      dup2\n      add\n      swap1\n      tag_52\n      swap2\n      swap1\n      tag_53\n      jump\t// in\n    tag_52:\n      tag_54\n      jump\t// in\n    tag_51:\n      stop\n        /* \"Atelier 5/MiniSocial.sol\":7646:7880  function deletePost(uint256 _postId) public postExists(_postId) {... */\n    tag_17:\n        /* \"Atelier 5/MiniSocial.sol\":7701:7708  _postId */\n      dup1\n        /* \"Atelier 5/MiniSocial.sol\":1370:1375  posts */\n      0x00\n        /* \"Atelier 5/MiniSocial.sol\":1370:1382  posts.length */\n      dup1\n      sload\n      swap1\n      pop\n        /* \"Atelier 5/MiniSocial.sol\":1360:1367  _postId */\n      dup2\n        /* \"Atelier 5/MiniSocial.sol\":1360:1382  _postId < posts.length */\n      lt\n        /* \"Atelier 5/MiniSocial.sol\":1352:1406  require(_postId < posts.length, \"Post does not exist\") */\n      tag_56\n      jumpi\n      mload(0x40)\n      0x08c379a000000000000000000000000000000000000000000000000000000000\n      dup2\n      mstore\n      0x04\n      add\n      tag_57\n      swap1\n      tag_58\n      jump\t// in\n    tag_57:\n      mload(0x40)\n      dup1\n      swap2\n      sub\n      swap1\n      revert\n    tag_56:\n        /* \"Atelier 5/MiniSocial.sol\":1424:1429  posts */\n      0x00\n        /* \"Atelier 5/MiniSocial.sol\":1430:1437  _postId */\n      dup2\n        /* \"Atelier 5/MiniSocial.sol\":1424:1438  posts[_postId] */\n      dup2\n      sload\n      dup2\n      lt\n      tag_59\n      jumpi\n      tag_60\n      tag_61\n      jump\t// in\n    tag_60:\n    tag_59:\n      swap1\n      0x00\n      mstore\n      keccak256(0x00, 0x20)\n      swap1\n      0x0c\n      mul\n      add\n        /* \"Atelier 5/MiniSocial.sol\":1424:1447  posts[_postId].isActive */\n      0x0b\n      add\n      0x00\n      swap1\n      sload\n      swap1\n      0x0100\n      exp\n      swap1\n      div\n      0xff\n      and\n        /* \"Atelier 5/MiniSocial.sol\":1416:1473  require(posts[_postId].isActive, \"Post has been deleted\") */\n      tag_63\n      jumpi\n      mload(0x40)\n      0x08c379a000000000000000000000000000000000000000000000000000000000\n      dup2\n      mstore\n      0x04\n      add\n      tag_64\n      swap1\n      tag_65\n      jump\t// in\n    tag_64:\n      mload(0x40)\n      dup1\n      swap2\n      sub\n      swap1\n      revert\n    tag_63:\n        /* \"Atelier 5/MiniSocial.sol\":7742:7747  posts */\n      0x00\n        /* \"Atelier 5/MiniSocial.sol\":7748:7755  _postId */\n      dup3\n        /* \"Atelier 5/MiniSocial.sol\":7742:7756  posts[_postId] */\n      dup2\n      sload\n      dup2\n      lt\n      tag_67\n      jumpi\n      tag_68\n      tag_61\n      jump\t// in\n    tag_68:\n    tag_67:\n      swap1\n      0x00\n      mstore\n      keccak256(0x00, 0x20)\n      swap1\n      0x0c\n      mul\n      add\n        /* \"Atelier 5/MiniSocial.sol\":7742:7763  posts[_postId].author */\n      0x03\n      add\n      0x00\n      swap1\n      sload\n      swap1\n      0x0100\n      exp\n      swap1\n      div\n      0xffffffffffffffffffffffffffffffffffffffff\n      and\n        /* \"Atelier 5/MiniSocial.sol\":7728:7763  msg.sender == posts[_postId].author */\n      0xffffffffffffffffffffffffffffffffffffffff\n      and\n        /* \"Atelier 5/MiniSocial.sol\":7728:7738  msg.sender */\n      caller\n        /* \"Atelier 5/MiniSocial.sol\":7728:7763  msg.sender == posts[_postId].author */\n      0xffffffffffffffffffffffffffffffffffffffff\n      and\n      eq\n        /* \"Atelier 5/MiniSocial.sol\":7720:7804  require(msg.sender == posts[_postId].author, \"Seul l'auteur peut supprimer ce post\") */\n      tag_70\n      jumpi\n      mload(0x40)\n      0x08c379a000000000000000000000000000000000000000000000000000000000\n      dup2\n      mstore\n      0x04\n      add\n      tag_71\n      swap1\n      tag_72\n      jump\t// in\n    tag_71:\n      mload(0x40)\n      dup1\n      swap2\n      sub\n      swap1\n      revert\n    tag_70:\n        /* \"Atelier 5/MiniSocial.sol\":7840:7845  false */\n      0x00\n        /* \"Atelier 5/MiniSocial.sol\":7814:7819  posts */\n      0x00\n        /* \"Atelier 5/MiniSocial.sol\":7820:7827  _postId */\n      dup4\n        /* \"Atelier 5/MiniSocial.sol\":7814:7828  posts[_postId] */\n      dup2\n      sload\n      dup2\n      lt\n      tag_73\n      jumpi\n      tag_74\n      tag_61\n      jump\t// in\n    tag_74:\n    tag_73:\n      swap1\n      0x00\n      mstore\n      keccak256(0x00, 0x20)\n      swap1\n      0x0c\n      mul\n      add\n        /* \"Atelier 5/MiniSocial.sol\":7814:7837  posts[_postId].isActive */\n      0x0b\n      add\n      0x00\n        /* \"Atelier 5/MiniSocial.sol\":7814:7845  posts[_postId].isActive = false */\n      0x0100\n      exp\n      dup2\n      sload\n      dup2\n      0xff\n      mul\n      not\n      and\n      swap1\n      dup4\n      iszero\n      iszero\n      mul\n      or\n      swap1\n      sstore\n      pop\n        /* \"Atelier 5/MiniSocial.sol\":7855:7871  activePostsCount */\n      0x03\n      0x00\n        /* \"Atelier 5/MiniSocial.sol\":7855:7873  activePostsCount-- */\n      dup2\n      sload\n      dup1\n      swap3\n      swap2\n      swap1\n      tag_76\n      swap1\n      tag_77\n      jump\t// in\n    tag_76:\n      swap2\n      swap1\n      pop\n      sstore\n      pop\n        /* \"Atelier 5/MiniSocial.sol\":7646:7880  function deletePost(uint256 _postId) public postExists(_postId) {... */\n      pop\n      pop\n      jump\t// out\n        /* \"Atelier 5/MiniSocial.sol\":847:878  uint256 public activePostsCount */\n    tag_19:\n      sload(0x03)\n      dup2\n      jump\t// out\n        /* \"Atelier 5/MiniSocial.sol\":5219:7229  function getAllPosts() public view returns (... */\n    tag_23:\n        /* \"Atelier 5/MiniSocial.sol\":5272:5296  uint256[] memory postIds */\n      0x60\n        /* \"Atelier 5/MiniSocial.sol\":5306:5328  string[] memory titles */\n      dup1\n        /* \"Atelier 5/MiniSocial.sol\":5338:5362  string[] memory contents */\n      0x60\n        /* \"Atelier 5/MiniSocial.sol\":5372:5396  address[] memory authors */\n      dup1\n        /* \"Atelier 5/MiniSocial.sol\":5406:5433  uint256[] memory timestamps */\n      0x60\n        /* \"Atelier 5/MiniSocial.sol\":5443:5470  uint256[] memory likeCounts */\n      dup1\n        /* \"Atelier 5/MiniSocial.sol\":5480:5510  uint256[] memory commentCounts */\n      0x60\n        /* \"Atelier 5/MiniSocial.sol\":5520:5542  bool[] memory isEdited */\n      dup1\n        /* \"Atelier 5/MiniSocial.sol\":5552:5574  bool[] memory isActive */\n      0x60\n        /* \"Atelier 5/MiniSocial.sol\":5591:5614  uint256 activePostCount */\n      0x00\n        /* \"Atelier 5/MiniSocial.sol\":5617:5618  0 */\n      0x00\n        /* \"Atelier 5/MiniSocial.sol\":5591:5618  uint256 activePostCount = 0 */\n      swap1\n      pop\n        /* \"Atelier 5/MiniSocial.sol\":5642:5651  uint256 i */\n      0x00\n        /* \"Atelier 5/MiniSocial.sol\":5654:5655  0 */\n      0x00\n        /* \"Atelier 5/MiniSocial.sol\":5642:5655  uint256 i = 0 */\n      swap1\n      pop\n        /* \"Atelier 5/MiniSocial.sol\":5637:5777  for (uint256 i = 0; i < posts.length; i++) {... */\n    tag_79:\n        /* \"Atelier 5/MiniSocial.sol\":5661:5666  posts */\n      0x00\n        /* \"Atelier 5/MiniSocial.sol\":5661:5673  posts.length */\n      dup1\n      sload\n      swap1\n      pop\n        /* \"Atelier 5/MiniSocial.sol\":5657:5658  i */\n      dup2\n        /* \"Atelier 5/MiniSocial.sol\":5657:5673  i < posts.length */\n      lt\n        /* \"Atelier 5/MiniSocial.sol\":5637:5777  for (uint256 i = 0; i < posts.length; i++) {... */\n      iszero\n      tag_80\n      jumpi\n        /* \"Atelier 5/MiniSocial.sol\":5698:5703  posts */\n      0x00\n        /* \"Atelier 5/MiniSocial.sol\":5704:5705  i */\n      dup2\n        /* \"Atelier 5/MiniSocial.sol\":5698:5706  posts[i] */\n      dup2\n      sload\n      dup2\n      lt\n      tag_82\n      jumpi\n      tag_83\n      tag_61\n      jump\t// in\n    tag_83:\n    tag_82:\n      swap1\n      0x00\n      mstore\n      keccak256(0x00, 0x20)\n      swap1\n      0x0c\n      mul\n      add\n        /* \"Atelier 5/MiniSocial.sol\":5698:5715  posts[i].isActive */\n      0x0b\n      add\n      0x00\n      swap1\n      sload\n      swap1\n      0x0100\n      exp\n      swap1\n      div\n      0xff\n      and\n        /* \"Atelier 5/MiniSocial.sol\":5694:5767  if (posts[i].isActive) {... */\n      iszero\n      tag_85\n      jumpi\n        /* \"Atelier 5/MiniSocial.sol\":5735:5752  activePostCount++ */\n      dup2\n      dup1\n      tag_86\n      swap1\n      tag_87\n      jump\t// in\n    tag_86:\n      swap3\n      pop\n      pop\n        /* \"Atelier 5/MiniSocial.sol\":5694:5767  if (posts[i].isActive) {... */\n    tag_85:\n        /* \"Atelier 5/MiniSocial.sol\":5675:5678  i++ */\n      dup1\n      dup1\n      0x01\n      add\n      swap2\n      pop\n      pop\n        /* \"Atelier 5/MiniSocial.sol\":5637:5777  for (uint256 i = 0; i < posts.length; i++) {... */\n      jump(tag_79)\n    tag_80:\n      pop\n        /* \"Atelier 5/MiniSocial.sol\":5819:5834  activePostCount */\n      dup1\n        /* \"Atelier 5/MiniSocial.sol\":5805:5835  new uint256[](activePostCount) */\n      0xffffffffffffffff\n      dup2\n      gt\n      iszero\n      tag_88\n      jumpi\n      tag_89\n      tag_90\n      jump\t// in\n    tag_89:\n    tag_88:\n      mload(0x40)\n      swap1\n      dup1\n      dup3\n      mstore\n      dup1\n      0x20\n      mul\n      0x20\n      add\n      dup3\n      add\n      0x40\n      mstore\n      dup1\n      iszero\n      tag_91\n      jumpi\n      dup2\n      0x20\n      add\n      0x20\n      dup3\n      mul\n      dup1\n      calldatasize\n      dup4\n      calldatacopy\n      dup1\n      dup3\n      add\n      swap2\n      pop\n      pop\n      swap1\n      pop\n    tag_91:\n      pop\n        /* \"Atelier 5/MiniSocial.sol\":5795:5835  postIds = new uint256[](activePostCount) */\n      swap10\n      pop\n        /* \"Atelier 5/MiniSocial.sol\":5867:5882  activePostCount */\n      dup1\n        /* \"Atelier 5/MiniSocial.sol\":5854:5883  new string[](activePostCount) */\n      0xffffffffffffffff\n      dup2\n      gt\n      iszero\n      tag_92\n      jumpi\n      tag_93\n      tag_90\n      jump\t// in\n    tag_93:\n    tag_92:\n      mload(0x40)\n      swap1\n      dup1\n      dup3\n      mstore\n      dup1\n      0x20\n      mul\n      0x20\n      add\n      dup3\n      add\n      0x40\n      mstore\n      dup1\n      iszero\n      tag_94\n      jumpi\n      dup2\n      0x20\n      add\n    tag_95:\n      0x60\n      dup2\n      mstore\n      0x20\n      add\n      swap1\n      0x01\n      swap1\n      sub\n      swap1\n      dup2\n      tag_95\n      jumpi\n      swap1\n      pop\n    tag_94:\n      pop\n        /* \"Atelier 5/MiniSocial.sol\":5845:5883  titles = new string[](activePostCount) */\n      swap9\n      pop\n        /* \"Atelier 5/MiniSocial.sol\":5917:5932  activePostCount */\n      dup1\n        /* \"Atelier 5/MiniSocial.sol\":5904:5933  new string[](activePostCount) */\n      0xffffffffffffffff\n      dup2\n      gt\n      iszero\n      tag_96\n      jumpi\n      tag_97\n      tag_90\n      jump\t// in\n    tag_97:\n    tag_96:\n      mload(0x40)\n      swap1\n      dup1\n      dup3\n      mstore\n      dup1\n      0x20\n      mul\n      0x20\n      add\n      dup3\n      add\n      0x40\n      mstore\n      dup1\n      iszero\n      tag_98\n      jumpi\n      dup2\n      0x20\n      add\n    tag_99:\n      0x60\n      dup2\n      mstore\n      0x20\n      add\n      swap1\n      0x01\n      swap1\n      sub\n      swap1\n      dup2\n      tag_99\n      jumpi\n      swap1\n      pop\n    tag_98:\n      pop\n        /* \"Atelier 5/MiniSocial.sol\":5893:5933  contents = new string[](activePostCount) */\n      swap8\n      pop\n        /* \"Atelier 5/MiniSocial.sol\":5967:5982  activePostCount */\n      dup1\n        /* \"Atelier 5/MiniSocial.sol\":5953:5983  new address[](activePostCount) */\n      0xffffffffffffffff\n      dup2\n      gt\n      iszero\n      tag_100\n      jumpi\n      tag_101\n      tag_90\n      jump\t// in\n    tag_101:\n    tag_100:\n      mload(0x40)\n      swap1\n      dup1\n      dup3\n      mstore\n      dup1\n      0x20\n      mul\n      0x20\n      add\n      dup3\n      add\n      0x40\n      mstore\n      dup1\n      iszero\n      tag_102\n      jumpi\n      dup2\n      0x20\n      add\n      0x20\n      dup3\n      mul\n      dup1\n      calldatasize\n      dup4\n      calldatacopy\n      dup1\n      dup3\n      add\n      swap2\n      pop\n      pop\n      swap1\n      pop\n    tag_102:\n      pop\n        /* \"Atelier 5/MiniSocial.sol\":5943:5983  authors = new address[](activePostCount) */\n      swap7\n      pop\n        /* \"Atelier 5/MiniSocial.sol\":6020:6035  activePostCount */\n      dup1\n        /* \"Atelier 5/MiniSocial.sol\":6006:6036  new uint256[](activePostCount) */\n      0xffffffffffffffff\n      dup2\n      gt\n      iszero\n      tag_103\n      jumpi\n      tag_104\n      tag_90\n      jump\t// in\n    tag_104:\n    tag_103:\n      mload(0x40)\n      swap1\n      dup1\n      dup3\n      mstore\n      dup1\n      0x20\n      mul\n      0x20\n      add\n      dup3\n      add\n      0x40\n      mstore\n      dup1\n      iszero\n      tag_105\n      jumpi\n      dup2\n      0x20\n      add\n      0x20\n      dup3\n      mul\n      dup1\n      calldatasize\n      dup4\n      calldatacopy\n      dup1\n      dup3\n      add\n      swap2\n      pop\n      pop\n      swap1\n      pop\n    tag_105:\n      pop\n        /* \"Atelier 5/MiniSocial.sol\":5993:6036  timestamps = new uint256[](activePostCount) */\n      swap6\n      pop\n        /* \"Atelier 5/MiniSocial.sol\":6073:6088  activePostCount */\n      dup1\n        /* \"Atelier 5/MiniSocial.sol\":6059:6089  new uint256[](activePostCount) */\n      0xffffffffffffffff\n      dup2\n      gt\n      iszero\n      tag_106\n      jumpi\n      tag_107\n      tag_90\n      jump\t// in\n    tag_107:\n    tag_106:\n      mload(0x40)\n      swap1\n      dup1\n      dup3\n      mstore\n      dup1\n      0x20\n      mul\n      0x20\n      add\n      dup3\n      add\n      0x40\n      mstore\n      dup1\n      iszero\n      tag_108\n      jumpi\n      dup2\n      0x20\n      add\n      0x20\n      dup3\n      mul\n      dup1\n      calldatasize\n      dup4\n      calldatacopy\n      dup1\n      dup3\n      add\n      swap2\n      pop\n      pop\n      swap1\n      pop\n    tag_108:\n      pop\n        /* \"Atelier 5/MiniSocial.sol\":6046:6089  likeCounts = new uint256[](activePostCount) */\n      swap5\n      pop\n        /* \"Atelier 5/MiniSocial.sol\":6129:6144  activePostCount */\n      dup1\n        /* \"Atelier 5/MiniSocial.sol\":6115:6145  new uint256[](activePostCount) */\n      0xffffffffffffffff\n      dup2\n      gt\n      iszero\n      tag_109\n      jumpi\n      tag_110\n      tag_90\n      jump\t// in\n    tag_110:\n    tag_109:\n      mload(0x40)\n      swap1\n      dup1\n      dup3\n      mstore\n      dup1\n      0x20\n      mul\n      0x20\n      add\n      dup3\n      add\n      0x40\n      mstore\n      dup1\n      iszero\n      tag_111\n      jumpi\n      dup2\n      0x20\n      add\n      0x20\n      dup3\n      mul\n      dup1\n      calldatasize\n      dup4\n      calldatacopy\n      dup1\n      dup3\n      add\n      swap2\n      pop\n      pop\n      swap1\n      pop\n    tag_111:\n      pop\n        /* \"Atelier 5/MiniSocial.sol\":6099:6145  commentCounts = new uint256[](activePostCount) */\n      swap4\n      pop\n        /* \"Atelier 5/MiniSocial.sol\":6177:6192  activePostCount */\n      dup1\n        /* \"Atelier 5/MiniSocial.sol\":6166:6193  new bool[](activePostCount) */\n      0xffffffffffffffff\n      dup2\n      gt\n      iszero\n      tag_112\n      jumpi\n      tag_113\n      tag_90\n      jump\t// in\n    tag_113:\n    tag_112:\n      mload(0x40)\n      swap1\n      dup1\n      dup3\n      mstore\n      dup1\n      0x20\n      mul\n      0x20\n      add\n      dup3\n      add\n      0x40\n      mstore\n      dup1\n      iszero\n      tag_114\n      jumpi\n      dup2\n      0x20\n      add\n      0x20\n      dup3\n      mul\n      dup1\n      calldatasize\n      dup4\n      calldatacopy\n      dup1\n      dup3\n      add\n      swap2\n      pop\n      pop\n      swap1\n      pop\n    tag_114:\n      pop\n        /* \"Atelier 5/MiniSocial.sol\":6155:6193  isEdited = new bool[](activePostCount) */\n      swap3\n      pop\n        /* \"Atelier 5/MiniSocial.sol\":6225:6240  activePostCount */\n      dup1\n        /* \"Atelier 5/MiniSocial.sol\":6214:6241  new bool[](activePostCount) */\n      0xffffffffffffffff\n      dup2\n      gt\n      iszero\n      tag_115\n      jumpi\n      tag_116\n      tag_90\n      jump\t// in\n    tag_116:\n    tag_115:\n      mload(0x40)\n      swap1\n      dup1\n      dup3\n      mstore\n      dup1\n      0x20\n      mul\n      0x20\n      add\n      dup3\n      add\n      0x40\n      mstore\n      dup1\n      iszero\n      tag_117\n      jumpi\n      dup2\n      0x20\n      add\n      0x20\n      dup3\n      mul\n      dup1\n      calldatasize\n      dup4\n      calldatacopy\n      dup1\n      dup3\n      add\n      swap2\n      pop\n      pop\n      swap1\n      pop\n    tag_117:\n      pop\n        /* \"Atelier 5/MiniSocial.sol\":6203:6241  isActive = new bool[](activePostCount) */\n      swap2\n      pop\n        /* \"Atelier 5/MiniSocial.sol\":6260:6280  uint256 currentIndex */\n      0x00\n        /* \"Atelier 5/MiniSocial.sol\":6283:6284  0 */\n      0x00\n        /* \"Atelier 5/MiniSocial.sol\":6260:6284  uint256 currentIndex = 0 */\n      swap1\n      pop\n        /* \"Atelier 5/MiniSocial.sol\":6308:6317  uint256 i */\n      0x00\n        /* \"Atelier 5/MiniSocial.sol\":6320:6321  0 */\n      0x00\n        /* \"Atelier 5/MiniSocial.sol\":6308:6321  uint256 i = 0 */\n      swap1\n      pop\n        /* \"Atelier 5/MiniSocial.sol\":6303:6984  for (uint256 i = 0; i < posts.length; i++) {... */\n    tag_118:\n        /* \"Atelier 5/MiniSocial.sol\":6327:6332  posts */\n      0x00\n        /* \"Atelier 5/MiniSocial.sol\":6327:6339  posts.length */\n      dup1\n      sload\n      swap1\n      pop\n        /* \"Atelier 5/MiniSocial.sol\":6323:6324  i */\n      dup2\n        /* \"Atelier 5/MiniSocial.sol\":6323:6339  i < posts.length */\n      lt\n        /* \"Atelier 5/MiniSocial.sol\":6303:6984  for (uint256 i = 0; i < posts.length; i++) {... */\n      iszero\n      tag_119\n      jumpi\n        /* \"Atelier 5/MiniSocial.sol\":6364:6369  posts */\n      0x00\n        /* \"Atelier 5/MiniSocial.sol\":6370:6371  i */\n      dup2\n        /* \"Atelier 5/MiniSocial.sol\":6364:6372  posts[i] */\n      dup2\n      sload\n      dup2\n      lt\n      tag_121\n      jumpi\n      tag_122\n      tag_61\n      jump\t// in\n    tag_122:\n    tag_121:\n      swap1\n      0x00\n      mstore\n      keccak256(0x00, 0x20)\n      swap1\n      0x0c\n      mul\n      add\n        /* \"Atelier 5/MiniSocial.sol\":6364:6381  posts[i].isActive */\n      0x0b\n      add\n      0x00\n      swap1\n      sload\n      swap1\n      0x0100\n      exp\n      swap1\n      div\n      0xff\n      and\n        /* \"Atelier 5/MiniSocial.sol\":6360:6974  if (posts[i].isActive) {... */\n      iszero\n      tag_124\n      jumpi\n        /* \"Atelier 5/MiniSocial.sol\":6425:6430  posts */\n      0x00\n        /* \"Atelier 5/MiniSocial.sol\":6431:6432  i */\n      dup2\n        /* \"Atelier 5/MiniSocial.sol\":6425:6433  posts[i] */\n      dup2\n      sload\n      dup2\n      lt\n      tag_125\n      jumpi\n      tag_126\n      tag_61\n      jump\t// in\n    tag_126:\n    tag_125:\n      swap1\n      0x00\n      mstore\n      keccak256(0x00, 0x20)\n      swap1\n      0x0c\n      mul\n      add\n        /* \"Atelier 5/MiniSocial.sol\":6425:6440  posts[i].postId */\n      0x00\n      add\n      sload\n        /* \"Atelier 5/MiniSocial.sol\":6401:6408  postIds */\n      dup13\n        /* \"Atelier 5/MiniSocial.sol\":6409:6421  currentIndex */\n      dup4\n        /* \"Atelier 5/MiniSocial.sol\":6401:6422  postIds[currentIndex] */\n      dup2\n      mload\n      dup2\n      lt\n      tag_128\n      jumpi\n      tag_129\n      tag_61\n      jump\t// in\n    tag_129:\n    tag_128:\n      0x20\n      mul\n      0x20\n      add\n      add\n        /* \"Atelier 5/MiniSocial.sol\":6401:6440  postIds[currentIndex] = posts[i].postId */\n      dup2\n      dup2\n      mstore\n      pop\n      pop\n        /* \"Atelier 5/MiniSocial.sol\":6481:6486  posts */\n      0x00\n        /* \"Atelier 5/MiniSocial.sol\":6487:6488  i */\n      dup2\n        /* \"Atelier 5/MiniSocial.sol\":6481:6489  posts[i] */\n      dup2\n      sload\n      dup2\n      lt\n      tag_130\n      jumpi\n      tag_131\n      tag_61\n      jump\t// in\n    tag_131:\n    tag_130:\n      swap1\n      0x00\n      mstore\n      keccak256(0x00, 0x20)\n      swap1\n      0x0c\n      mul\n      add\n        /* \"Atelier 5/MiniSocial.sol\":6481:6495  posts[i].title */\n      0x01\n      add\n        /* \"Atelier 5/MiniSocial.sol\":6458:6495  titles[currentIndex] = posts[i].title */\n      dup1\n      sload\n      tag_133\n      swap1\n      tag_134\n      jump\t// in\n    tag_133:\n      dup1\n      0x1f\n      add\n      0x20\n      dup1\n      swap2\n      div\n      mul\n      0x20\n      add\n      mload(0x40)\n      swap1\n      dup2\n      add\n      0x40\n      mstore\n      dup1\n      swap3\n      swap2\n      swap1\n      dup2\n      dup2\n      mstore\n      0x20\n      add\n      dup3\n      dup1\n      sload\n      tag_135\n      swap1\n      tag_134\n      jump\t// in\n    tag_135:\n      dup1\n      iszero\n      tag_136\n      jumpi\n      dup1\n      0x1f\n      lt\n      tag_137\n      jumpi\n      0x0100\n      dup1\n      dup4\n      sload\n      div\n      mul\n      dup4\n      mstore\n      swap2\n      0x20\n      add\n      swap2\n      jump(tag_136)\n    tag_137:\n      dup3\n      add\n      swap2\n      swap1\n      0x00\n      mstore\n      keccak256(0x00, 0x20)\n      swap1\n    tag_138:\n      dup2\n      sload\n      dup2\n      mstore\n      swap1\n      0x01\n      add\n      swap1\n      0x20\n      add\n      dup1\n      dup4\n      gt\n      tag_138\n      jumpi\n      dup3\n      swap1\n      sub\n      0x1f\n      and\n      dup3\n      add\n      swap2\n    tag_136:\n      pop\n      pop\n      pop\n      pop\n      pop\n        /* \"Atelier 5/MiniSocial.sol\":6458:6464  titles */\n      dup12\n        /* \"Atelier 5/MiniSocial.sol\":6465:6477  currentIndex */\n      dup4\n        /* \"Atelier 5/MiniSocial.sol\":6458:6478  titles[currentIndex] */\n      dup2\n      mload\n      dup2\n      lt\n      tag_139\n      jumpi\n      tag_140\n      tag_61\n      jump\t// in\n    tag_140:\n    tag_139:\n      0x20\n      mul\n      0x20\n      add\n      add\n        /* \"Atelier 5/MiniSocial.sol\":6458:6495  titles[currentIndex] = posts[i].title */\n      dup2\n      swap1\n      mstore\n      pop\n        /* \"Atelier 5/MiniSocial.sol\":6538:6543  posts */\n      0x00\n        /* \"Atelier 5/MiniSocial.sol\":6544:6545  i */\n      dup2\n        /* \"Atelier 5/MiniSocial.sol\":6538:6546  posts[i] */\n      dup2\n      sload\n      dup2\n      lt\n      tag_141\n      jumpi\n      tag_142\n      tag_61\n      jump\t// in\n    tag_142:\n    tag_141:\n      swap1\n      0x00\n      mstore\n      keccak256(0x00, 0x20)\n      swap1\n      0x0c\n      mul\n      add\n        /* \"Atelier 5/MiniSocial.sol\":6538:6554  posts[i].content */\n      0x02\n      add\n        /* \"Atelier 5/MiniSocial.sol\":6513:6554  contents[currentIndex] = posts[i].content */\n      dup1\n      sload\n      tag_144\n      swap1\n      tag_134\n      jump\t// in\n    tag_144:\n      dup1\n      0x1f\n      add\n      0x20\n      dup1\n      swap2\n      div\n      mul\n      0x20\n      add\n      mload(0x40)\n      swap1\n      dup2\n      add\n      0x40\n      mstore\n      dup1\n      swap3\n      swap2\n      swap1\n      dup2\n      dup2\n      mstore\n      0x20\n      add\n      dup3\n      dup1\n      sload\n      tag_145\n      swap1\n      tag_134\n      jump\t// in\n    tag_145:\n      dup1\n      iszero\n      tag_146\n      jumpi\n      dup1\n      0x1f\n      lt\n      tag_147\n      jumpi\n      0x0100\n      dup1\n      dup4\n      sload\n      div\n      mul\n      dup4\n      mstore\n      swap2\n      0x20\n      add\n      swap2\n      jump(tag_146)\n    tag_147:\n      dup3\n      add\n      swap2\n      swap1\n      0x00\n      mstore\n      keccak256(0x00, 0x20)\n      swap1\n    tag_148:\n      dup2\n      sload\n      dup2\n      mstore\n      swap1\n      0x01\n      add\n      swap1\n      0x20\n      add\n      dup1\n      dup4\n      gt\n      tag_148\n      jumpi\n      dup3\n      swap1\n      sub\n      0x1f\n      and\n      dup3\n      add\n      swap2\n    tag_146:\n      pop\n      pop\n      pop\n      pop\n      pop\n        /* \"Atelier 5/MiniSocial.sol\":6513:6521  contents */\n      dup11\n        /* \"Atelier 5/MiniSocial.sol\":6522:6534  currentIndex */\n      dup4\n        /* \"Atelier 5/MiniSocial.sol\":6513:6535  contents[currentIndex] */\n      dup2\n      mload\n      dup2\n      lt\n      tag_149\n      jumpi\n      tag_150\n      tag_61\n      jump\t// in\n    tag_150:\n    tag_149:\n      0x20\n      mul\n      0x20\n      add\n      add\n        /* \"Atelier 5/MiniSocial.sol\":6513:6554  contents[currentIndex] = posts[i].content */\n      dup2\n      swap1\n      mstore\n      pop\n        /* \"Atelier 5/MiniSocial.sol\":6596:6601  posts */\n      0x00\n        /* \"Atelier 5/MiniSocial.sol\":6602:6603  i */\n      dup2\n        /* \"Atelier 5/MiniSocial.sol\":6596:6604  posts[i] */\n      dup2\n      sload\n      dup2\n      lt\n      tag_151\n      jumpi\n      tag_152\n      tag_61\n      jump\t// in\n    tag_152:\n    tag_151:\n      swap1\n      0x00\n      mstore\n      keccak256(0x00, 0x20)\n      swap1\n      0x0c\n      mul\n      add\n        /* \"Atelier 5/MiniSocial.sol\":6596:6611  posts[i].author */\n      0x03\n      add\n      0x00\n      swap1\n      sload\n      swap1\n      0x0100\n      exp\n      swap1\n      div\n      0xffffffffffffffffffffffffffffffffffffffff\n      and\n        /* \"Atelier 5/MiniSocial.sol\":6572:6579  authors */\n      dup10\n        /* \"Atelier 5/MiniSocial.sol\":6580:6592  currentIndex */\n      dup4\n        /* \"Atelier 5/MiniSocial.sol\":6572:6593  authors[currentIndex] */\n      dup2\n      mload\n      dup2\n      lt\n      tag_154\n      jumpi\n      tag_155\n      tag_61\n      jump\t// in\n    tag_155:\n    tag_154:\n      0x20\n      mul\n      0x20\n      add\n      add\n        /* \"Atelier 5/MiniSocial.sol\":6572:6611  authors[currentIndex] = posts[i].author */\n      swap1\n      0xffffffffffffffffffffffffffffffffffffffff\n      and\n      swap1\n      dup2\n      0xffffffffffffffffffffffffffffffffffffffff\n      and\n      dup2\n      mstore\n      pop\n      pop\n        /* \"Atelier 5/MiniSocial.sol\":6656:6661  posts */\n      0x00\n        /* \"Atelier 5/MiniSocial.sol\":6662:6663  i */\n      dup2\n        /* \"Atelier 5/MiniSocial.sol\":6656:6664  posts[i] */\n      dup2\n      sload\n      dup2\n      lt\n      tag_156\n      jumpi\n      tag_157\n      tag_61\n      jump\t// in\n    tag_157:\n    tag_156:\n      swap1\n      0x00\n      mstore\n      keccak256(0x00, 0x20)\n      swap1\n      0x0c\n      mul\n      add\n        /* \"Atelier 5/MiniSocial.sol\":6656:6674  posts[i].timestamp */\n      0x04\n      add\n      sload\n        /* \"Atelier 5/MiniSocial.sol\":6629:6639  timestamps */\n      dup9\n        /* \"Atelier 5/MiniSocial.sol\":6640:6652  currentIndex */\n      dup4\n        /* \"Atelier 5/MiniSocial.sol\":6629:6653  timestamps[currentIndex] */\n      dup2\n      mload\n      dup2\n      lt\n      tag_159\n      jumpi\n      tag_160\n      tag_61\n      jump\t// in\n    tag_160:\n    tag_159:\n      0x20\n      mul\n      0x20\n      add\n      add\n        /* \"Atelier 5/MiniSocial.sol\":6629:6674  timestamps[currentIndex] = posts[i].timestamp */\n      dup2\n      dup2\n      mstore\n      pop\n      pop\n        /* \"Atelier 5/MiniSocial.sol\":6719:6724  posts */\n      0x00\n        /* \"Atelier 5/MiniSocial.sol\":6725:6726  i */\n      dup2\n        /* \"Atelier 5/MiniSocial.sol\":6719:6727  posts[i] */\n      dup2\n      sload\n      dup2\n      lt\n      tag_161\n      jumpi\n      tag_162\n      tag_61\n      jump\t// in\n    tag_162:\n    tag_161:\n      swap1\n      0x00\n      mstore\n      keccak256(0x00, 0x20)\n      swap1\n      0x0c\n      mul\n      add\n        /* \"Atelier 5/MiniSocial.sol\":6719:6738  posts[i].likesCount */\n      0x05\n      add\n      sload\n        /* \"Atelier 5/MiniSocial.sol\":6692:6702  likeCounts */\n      dup8\n        /* \"Atelier 5/MiniSocial.sol\":6703:6715  currentIndex */\n      dup4\n        /* \"Atelier 5/MiniSocial.sol\":6692:6716  likeCounts[currentIndex] */\n      dup2\n      mload\n      dup2\n      lt\n      tag_164\n      jumpi\n      tag_165\n      tag_61\n      jump\t// in\n    tag_165:\n    tag_164:\n      0x20\n      mul\n      0x20\n      add\n      add\n        /* \"Atelier 5/MiniSocial.sol\":6692:6738  likeCounts[currentIndex] = posts[i].likesCount */\n      dup2\n      dup2\n      mstore\n      pop\n      pop\n        /* \"Atelier 5/MiniSocial.sol\":6786:6791  posts */\n      0x00\n        /* \"Atelier 5/MiniSocial.sol\":6792:6793  i */\n      dup2\n        /* \"Atelier 5/MiniSocial.sol\":6786:6794  posts[i] */\n      dup2\n      sload\n      dup2\n      lt\n      tag_166\n      jumpi\n      tag_167\n      tag_61\n      jump\t// in\n    tag_167:\n    tag_166:\n      swap1\n      0x00\n      mstore\n      keccak256(0x00, 0x20)\n      swap1\n      0x0c\n      mul\n      add\n        /* \"Atelier 5/MiniSocial.sol\":6786:6807  posts[i].commentCount */\n      0x08\n      add\n      sload\n        /* \"Atelier 5/MiniSocial.sol\":6756:6769  commentCounts */\n      dup7\n        /* \"Atelier 5/MiniSocial.sol\":6770:6782  currentIndex */\n      dup4\n        /* \"Atelier 5/MiniSocial.sol\":6756:6783  commentCounts[currentIndex] */\n      dup2\n      mload\n      dup2\n      lt\n      tag_169\n      jumpi\n      tag_170\n      tag_61\n      jump\t// in\n    tag_170:\n    tag_169:\n      0x20\n      mul\n      0x20\n      add\n      add\n        /* \"Atelier 5/MiniSocial.sol\":6756:6807  commentCounts[currentIndex] = posts[i].commentCount */\n      dup2\n      dup2\n      mstore\n      pop\n      pop\n        /* \"Atelier 5/MiniSocial.sol\":6850:6855  posts */\n      0x00\n        /* \"Atelier 5/MiniSocial.sol\":6856:6857  i */\n      dup2\n        /* \"Atelier 5/MiniSocial.sol\":6850:6858  posts[i] */\n      dup2\n      sload\n      dup2\n      lt\n      tag_171\n      jumpi\n      tag_172\n      tag_61\n      jump\t// in\n    tag_172:\n    tag_171:\n      swap1\n      0x00\n      mstore\n      keccak256(0x00, 0x20)\n      swap1\n      0x0c\n      mul\n      add\n        /* \"Atelier 5/MiniSocial.sol\":6850:6867  posts[i].isEdited */\n      0x09\n      add\n      0x00\n      swap1\n      sload\n      swap1\n      0x0100\n      exp\n      swap1\n      div\n      0xff\n      and\n        /* \"Atelier 5/MiniSocial.sol\":6825:6833  isEdited */\n      dup6\n        /* \"Atelier 5/MiniSocial.sol\":6834:6846  currentIndex */\n      dup4\n        /* \"Atelier 5/MiniSocial.sol\":6825:6847  isEdited[currentIndex] */\n      dup2\n      mload\n      dup2\n      lt\n      tag_174\n      jumpi\n      tag_175\n      tag_61\n      jump\t// in\n    tag_175:\n    tag_174:\n      0x20\n      mul\n      0x20\n      add\n      add\n        /* \"Atelier 5/MiniSocial.sol\":6825:6867  isEdited[currentIndex] = posts[i].isEdited */\n      swap1\n      iszero\n      iszero\n      swap1\n      dup2\n      iszero\n      iszero\n      dup2\n      mstore\n      pop\n      pop\n        /* \"Atelier 5/MiniSocial.sol\":6910:6915  posts */\n      0x00\n        /* \"Atelier 5/MiniSocial.sol\":6916:6917  i */\n      dup2\n        /* \"Atelier 5/MiniSocial.sol\":6910:6918  posts[i] */\n      dup2\n      sload\n      dup2\n      lt\n      tag_176\n      jumpi\n      tag_177\n      tag_61\n      jump\t// in\n    tag_177:\n    tag_176:\n      swap1\n      0x00\n      mstore\n      keccak256(0x00, 0x20)\n      swap1\n      0x0c\n      mul\n      add\n        /* \"Atelier 5/MiniSocial.sol\":6910:6927  posts[i].isActive */\n      0x0b\n      add\n      0x00\n      swap1\n      sload\n      swap1\n      0x0100\n      exp\n      swap1\n      div\n      0xff\n      and\n        /* \"Atelier 5/MiniSocial.sol\":6885:6893  isActive */\n      dup5\n        /* \"Atelier 5/MiniSocial.sol\":6894:6906  currentIndex */\n      dup4\n        /* \"Atelier 5/MiniSocial.sol\":6885:6907  isActive[currentIndex] */\n      dup2\n      mload\n      dup2\n      lt\n      tag_179\n      jumpi\n      tag_180\n      tag_61\n      jump\t// in\n    tag_180:\n    tag_179:\n      0x20\n      mul\n      0x20\n      add\n      add\n        /* \"Atelier 5/MiniSocial.sol\":6885:6927  isActive[currentIndex] = posts[i].isActive */\n      swap1\n      iszero\n      iszero\n      swap1\n      dup2\n      iszero\n      iszero\n      dup2\n      mstore\n      pop\n      pop\n        /* \"Atelier 5/MiniSocial.sol\":6945:6959  currentIndex++ */\n      dup2\n      dup1\n      tag_181\n      swap1\n      tag_87\n      jump\t// in\n    tag_181:\n      swap3\n      pop\n      pop\n        /* \"Atelier 5/MiniSocial.sol\":6360:6974  if (posts[i].isActive) {... */\n    tag_124:\n        /* \"Atelier 5/MiniSocial.sol\":6341:6344  i++ */\n      dup1\n      dup1\n      0x01\n      add\n      swap2\n      pop\n      pop\n        /* \"Atelier 5/MiniSocial.sol\":6303:6984  for (uint256 i = 0; i < posts.length; i++) {... */\n      jump(tag_118)\n    tag_119:\n      pop\n        /* \"Atelier 5/MiniSocial.sol\":7002:7222  return (... */\n      pop\n      pop\n        /* \"Atelier 5/MiniSocial.sol\":5219:7229  function getAllPosts() public view returns (... */\n      swap1\n      swap2\n      swap3\n      swap4\n      swap5\n      swap6\n      swap7\n      swap8\n      swap9\n      jump\t// out\n        /* \"Atelier 5/MiniSocial.sol\":1530:2607  function createPost(... */\n    tag_29:\n        /* \"Atelier 5/MiniSocial.sol\":1634:1641  uint256 */\n      0x00\n        /* \"Atelier 5/MiniSocial.sol\":1707:1708  0 */\n      0x00\n        /* \"Atelier 5/MiniSocial.sol\":1690:1696  _title */\n      dup4\n        /* \"Atelier 5/MiniSocial.sol\":1684:1704  bytes(_title).length */\n      mload\n        /* \"Atelier 5/MiniSocial.sol\":1684:1708  bytes(_title).length > 0 */\n      gt\n        /* \"Atelier 5/MiniSocial.sol\":1676:1734  require(bytes(_title).length > 0, \"Title cannot be empty\") */\n      tag_183\n      jumpi\n      mload(0x40)\n      0x08c379a000000000000000000000000000000000000000000000000000000000\n      dup2\n      mstore\n      0x04\n      add\n      tag_184\n      swap1\n      tag_185\n      jump\t// in\n    tag_184:\n      mload(0x40)\n      dup1\n      swap2\n      sub\n      swap1\n      revert\n    tag_183:\n        /* \"Atelier 5/MiniSocial.sol\":1776:1779  100 */\n      0x64\n        /* \"Atelier 5/MiniSocial.sol\":1758:1764  _title */\n      dup4\n        /* \"Atelier 5/MiniSocial.sol\":1752:1772  bytes(_title).length */\n      mload\n        /* \"Atelier 5/MiniSocial.sol\":1752:1779  bytes(_title).length <= 100 */\n      gt\n      iszero\n        /* \"Atelier 5/MiniSocial.sol\":1744:1798  require(bytes(_title).length <= 100, \"Title too long\") */\n      tag_186\n      jumpi\n      mload(0x40)\n      0x08c379a000000000000000000000000000000000000000000000000000000000\n      dup2\n      mstore\n      0x04\n      add\n      tag_187\n      swap1\n      tag_188\n      jump\t// in\n    tag_187:\n      mload(0x40)\n      dup1\n      swap2\n      sub\n      swap1\n      revert\n    tag_186:\n        /* \"Atelier 5/MiniSocial.sol\":1841:1842  0 */\n      0x00\n        /* \"Atelier 5/MiniSocial.sol\":1822:1830  _content */\n      dup3\n        /* \"Atelier 5/MiniSocial.sol\":1816:1838  bytes(_content).length */\n      mload\n        /* \"Atelier 5/MiniSocial.sol\":1816:1842  bytes(_content).length > 0 */\n      gt\n        /* \"Atelier 5/MiniSocial.sol\":1808:1870  require(bytes(_content).length > 0, \"Content cannot be empty\") */\n      tag_189\n      jumpi\n      mload(0x40)\n      0x08c379a000000000000000000000000000000000000000000000000000000000\n      dup2\n      mstore\n      0x04\n      add\n      tag_190\n      swap1\n      tag_191\n      jump\t// in\n    tag_190:\n      mload(0x40)\n      dup1\n      swap2\n      sub\n      swap1\n      revert\n    tag_189:\n        /* \"Atelier 5/MiniSocial.sol\":1914:1918  5000 */\n      0x1388\n        /* \"Atelier 5/MiniSocial.sol\":1894:1902  _content */\n      dup3\n        /* \"Atelier 5/MiniSocial.sol\":1888:1910  bytes(_content).length */\n      mload\n        /* \"Atelier 5/MiniSocial.sol\":1888:1918  bytes(_content).length <= 5000 */\n      gt\n      iszero\n        /* \"Atelier 5/MiniSocial.sol\":1880:1939  require(bytes(_content).length <= 5000, \"Content too long\") */\n      tag_192\n      jumpi\n      mload(0x40)\n      0x08c379a000000000000000000000000000000000000000000000000000000000\n      dup2\n      mstore\n      0x04\n      add\n      tag_193\n      swap1\n      tag_194\n      jump\t// in\n    tag_193:\n      mload(0x40)\n      dup1\n      swap2\n      sub\n      swap1\n      revert\n    tag_192:\n        /* \"Atelier 5/MiniSocial.sol\":1981:1998  uint256 newPostId */\n      0x00\n        /* \"Atelier 5/MiniSocial.sol\":2001:2011  totalPosts */\n      sload(0x02)\n        /* \"Atelier 5/MiniSocial.sol\":1981:2011  uint256 newPostId = totalPosts */\n      swap1\n      pop\n        /* \"Atelier 5/MiniSocial.sol\":2021:2041  Post storage newPost */\n      0x00\n        /* \"Atelier 5/MiniSocial.sol\":2044:2049  posts */\n      0x00\n        /* \"Atelier 5/MiniSocial.sol\":2044:2056  posts.push() */\n      0x01\n      dup2\n      0x01\n      dup2\n      sload\n      add\n      dup1\n      dup3\n      sstore\n      dup1\n      swap2\n      pop\n      pop\n      sub\n      swap1\n      0x00\n      mstore\n      keccak256(0x00, 0x20)\n      swap1\n      0x0c\n      mul\n      add\n        /* \"Atelier 5/MiniSocial.sol\":2021:2056  Post storage newPost = posts.push() */\n      swap1\n      pop\n        /* \"Atelier 5/MiniSocial.sol\":2083:2092  newPostId */\n      dup2\n        /* \"Atelier 5/MiniSocial.sol\":2066:2073  newPost */\n      dup2\n        /* \"Atelier 5/MiniSocial.sol\":2066:2080  newPost.postId */\n      0x00\n      add\n        /* \"Atelier 5/MiniSocial.sol\":2066:2092  newPost.postId = newPostId */\n      dup2\n      swap1\n      sstore\n      pop\n        /* \"Atelier 5/MiniSocial.sol\":2118:2124  _title */\n      dup5\n        /* \"Atelier 5/MiniSocial.sol\":2102:2109  newPost */\n      dup2\n        /* \"Atelier 5/MiniSocial.sol\":2102:2115  newPost.title */\n      0x01\n      add\n        /* \"Atelier 5/MiniSocial.sol\":2102:2124  newPost.title = _title */\n      swap1\n      dup2\n      tag_196\n      swap2\n      swap1\n      tag_197\n      jump\t// in\n    tag_196:\n      pop\n        /* \"Atelier 5/MiniSocial.sol\":2152:2160  _content */\n      dup4\n        /* \"Atelier 5/MiniSocial.sol\":2134:2141  newPost */\n      dup2\n        /* \"Atelier 5/MiniSocial.sol\":2134:2149  newPost.content */\n      0x02\n      add\n        /* \"Atelier 5/MiniSocial.sol\":2134:2160  newPost.content = _content */\n      swap1\n      dup2\n      tag_198\n      swap2\n      swap1\n      tag_197\n      jump\t// in\n    tag_198:\n      pop\n        /* \"Atelier 5/MiniSocial.sol\":2187:2197  msg.sender */\n      caller\n        /* \"Atelier 5/MiniSocial.sol\":2170:2177  newPost */\n      dup2\n        /* \"Atelier 5/MiniSocial.sol\":2170:2184  newPost.author */\n      0x03\n      add\n      0x00\n        /* \"Atelier 5/MiniSocial.sol\":2170:2197  newPost.author = msg.sender */\n      0x0100\n      exp\n      dup2\n      sload\n      dup2\n      0xffffffffffffffffffffffffffffffffffffffff\n      mul\n      not\n      and\n      swap1\n      dup4\n      0xffffffffffffffffffffffffffffffffffffffff\n      and\n      mul\n      or\n      swap1\n      sstore\n      pop\n        /* \"Atelier 5/MiniSocial.sol\":2227:2242  block.timestamp */\n      timestamp\n        /* \"Atelier 5/MiniSocial.sol\":2207:2214  newPost */\n      dup2\n        /* \"Atelier 5/MiniSocial.sol\":2207:2224  newPost.timestamp */\n      0x04\n      add\n        /* \"Atelier 5/MiniSocial.sol\":2207:2242  newPost.timestamp = block.timestamp */\n      dup2\n      swap1\n      sstore\n      pop\n        /* \"Atelier 5/MiniSocial.sol\":2273:2274  0 */\n      0x00\n        /* \"Atelier 5/MiniSocial.sol\":2252:2259  newPost */\n      dup2\n        /* \"Atelier 5/MiniSocial.sol\":2252:2270  newPost.likesCount */\n      0x05\n      add\n        /* \"Atelier 5/MiniSocial.sol\":2252:2274  newPost.likesCount = 0 */\n      dup2\n      swap1\n      sstore\n      pop\n        /* \"Atelier 5/MiniSocial.sol\":2307:2308  0 */\n      0x00\n        /* \"Atelier 5/MiniSocial.sol\":2284:2291  newPost */\n      dup2\n        /* \"Atelier 5/MiniSocial.sol\":2284:2304  newPost.commentCount */\n      0x08\n      add\n        /* \"Atelier 5/MiniSocial.sol\":2284:2308  newPost.commentCount = 0 */\n      dup2\n      swap1\n      sstore\n      pop\n        /* \"Atelier 5/MiniSocial.sol\":2337:2342  false */\n      0x00\n        /* \"Atelier 5/MiniSocial.sol\":2318:2325  newPost */\n      dup2\n        /* \"Atelier 5/MiniSocial.sol\":2318:2334  newPost.isEdited */\n      0x09\n      add\n      0x00\n        /* \"Atelier 5/MiniSocial.sol\":2318:2342  newPost.isEdited = false */\n      0x0100\n      exp\n      dup2\n      sload\n      dup2\n      0xff\n      mul\n      not\n      and\n      swap1\n      dup4\n      iszero\n      iszero\n      mul\n      or\n      swap1\n      sstore\n      pop\n        /* \"Atelier 5/MiniSocial.sol\":2375:2390  block.timestamp */\n      timestamp\n        /* \"Atelier 5/MiniSocial.sol\":2352:2359  newPost */\n      dup2\n        /* \"Atelier 5/MiniSocial.sol\":2352:2372  newPost.lastEditTime */\n      0x0a\n      add\n        /* \"Atelier 5/MiniSocial.sol\":2352:2390  newPost.lastEditTime = block.timestamp */\n      dup2\n      swap1\n      sstore\n      pop\n        /* \"Atelier 5/MiniSocial.sol\":2419:2423  true */\n      0x01\n        /* \"Atelier 5/MiniSocial.sol\":2400:2407  newPost */\n      dup2\n        /* \"Atelier 5/MiniSocial.sol\":2400:2416  newPost.isActive */\n      0x0b\n      add\n      0x00\n        /* \"Atelier 5/MiniSocial.sol\":2400:2423  newPost.isActive = true */\n      0x0100\n      exp\n      dup2\n      sload\n      dup2\n      0xff\n      mul\n      not\n      and\n      swap1\n      dup4\n      iszero\n      iszero\n      mul\n      or\n      swap1\n      sstore\n      pop\n        /* \"Atelier 5/MiniSocial.sol\":2442:2452  totalPosts */\n      0x02\n      0x00\n        /* \"Atelier 5/MiniSocial.sol\":2442:2454  totalPosts++ */\n      dup2\n      sload\n      dup1\n      swap3\n      swap2\n      swap1\n      tag_199\n      swap1\n      tag_87\n      jump\t// in\n    tag_199:\n      swap2\n      swap1\n      pop\n      sstore\n      pop\n        /* \"Atelier 5/MiniSocial.sol\":2464:2480  activePostsCount */\n      0x03\n      0x00\n        /* \"Atelier 5/MiniSocial.sol\":2464:2482  activePostsCount++ */\n      dup2\n      sload\n      dup1\n      swap3\n      swap2\n      swap1\n      tag_200\n      swap1\n      tag_87\n      jump\t// in\n    tag_200:\n      swap2\n      swap1\n      pop\n      sstore\n      pop\n        /* \"Atelier 5/MiniSocial.sol\":2529:2539  msg.sender */\n      caller\n        /* \"Atelier 5/MiniSocial.sol\":2506:2565  PostCreated(newPostId, msg.sender, _title, block.timestamp) */\n      0xffffffffffffffffffffffffffffffffffffffff\n      and\n        /* \"Atelier 5/MiniSocial.sol\":2518:2527  newPostId */\n      dup3\n        /* \"Atelier 5/MiniSocial.sol\":2506:2565  PostCreated(newPostId, msg.sender, _title, block.timestamp) */\n      0x285db98a4632176385795ddf0d2b67cef1a21f47eb2f5d06f786ab6b5147e200\n        /* \"Atelier 5/MiniSocial.sol\":2541:2547  _title */\n      dup8\n        /* \"Atelier 5/MiniSocial.sol\":2549:2564  block.timestamp */\n      timestamp\n        /* \"Atelier 5/MiniSocial.sol\":2506:2565  PostCreated(newPostId, msg.sender, _title, block.timestamp) */\n      mload(0x40)\n      tag_201\n      swap3\n      swap2\n      swap1\n      tag_202\n      jump\t// in\n    tag_201:\n      mload(0x40)\n      dup1\n      swap2\n      sub\n      swap1\n      log3\n        /* \"Atelier 5/MiniSocial.sol\":2591:2600  newPostId */\n      dup2\n        /* \"Atelier 5/MiniSocial.sol\":2584:2600  return newPostId */\n      swap3\n      pop\n      pop\n      pop\n        /* \"Atelier 5/MiniSocial.sol\":1530:2607  function createPost(... */\n      swap3\n      swap2\n      pop\n      pop\n      jump\t// out\n        /* \"Atelier 5/MiniSocial.sol\":4327:5173  function getPost(uint256 _postId) public view postExists(_postId) returns (... */\n    tag_33:\n        /* \"Atelier 5/MiniSocial.sol\":4411:4430  string memory title */\n      0x60\n        /* \"Atelier 5/MiniSocial.sol\":4440:4461  string memory content */\n      dup1\n        /* \"Atelier 5/MiniSocial.sol\":4471:4485  address author */\n      0x00\n        /* \"Atelier 5/MiniSocial.sol\":4495:4512  uint256 timestamp */\n      0x00\n        /* \"Atelier 5/MiniSocial.sol\":4522:4540  uint256 likesCount */\n      0x00\n        /* \"Atelier 5/MiniSocial.sol\":4550:4574  address[] memory likedBy */\n      0x60\n        /* \"Atelier 5/MiniSocial.sol\":4584:4604  uint256 commentCount */\n      0x00\n        /* \"Atelier 5/MiniSocial.sol\":4614:4639  Comment[] memory comments */\n      0x60\n        /* \"Atelier 5/MiniSocial.sol\":4384:4391  _postId */\n      dup9\n        /* \"Atelier 5/MiniSocial.sol\":1370:1375  posts */\n      0x00\n        /* \"Atelier 5/MiniSocial.sol\":1370:1382  posts.length */\n      dup1\n      sload\n      swap1\n      pop\n        /* \"Atelier 5/MiniSocial.sol\":1360:1367  _postId */\n      dup2\n        /* \"Atelier 5/MiniSocial.sol\":1360:1382  _postId < posts.length */\n      lt\n        /* \"Atelier 5/MiniSocial.sol\":1352:1406  require(_postId < posts.length, \"Post does not exist\") */\n      tag_204\n      jumpi\n      mload(0x40)\n      0x08c379a000000000000000000000000000000000000000000000000000000000\n      dup2\n      mstore\n      0x04\n      add\n      tag_205\n      swap1\n      tag_58\n      jump\t// in\n    tag_205:\n      mload(0x40)\n      dup1\n      swap2\n      sub\n      swap1\n      revert\n    tag_204:\n        /* \"Atelier 5/MiniSocial.sol\":1424:1429  posts */\n      0x00\n        /* \"Atelier 5/MiniSocial.sol\":1430:1437  _postId */\n      dup2\n        /* \"Atelier 5/MiniSocial.sol\":1424:1438  posts[_postId] */\n      dup2\n      sload\n      dup2\n      lt\n      tag_206\n      jumpi\n      tag_207\n      tag_61\n      jump\t// in\n    tag_207:\n    tag_206:\n      swap1\n      0x00\n      mstore\n      keccak256(0x00, 0x20)\n      swap1\n      0x0c\n      mul\n      add\n        /* \"Atelier 5/MiniSocial.sol\":1424:1447  posts[_postId].isActive */\n      0x0b\n      add\n      0x00\n      swap1\n      sload\n      swap1\n      0x0100\n      exp\n      swap1\n      div\n      0xff\n      and\n        /* \"Atelier 5/MiniSocial.sol\":1416:1473  require(posts[_postId].isActive, \"Post has been deleted\") */\n      tag_209\n      jumpi\n      mload(0x40)\n      0x08c379a000000000000000000000000000000000000000000000000000000000\n      dup2\n      mstore\n      0x04\n      add\n      tag_210\n      swap1\n      tag_65\n      jump\t// in\n    tag_210:\n      mload(0x40)\n      dup1\n      swap2\n      sub\n      swap1\n      revert\n    tag_209:\n        /* \"Atelier 5/MiniSocial.sol\":4656:4673  Post storage post */\n      0x00\n        /* \"Atelier 5/MiniSocial.sol\":4676:4681  posts */\n      0x00\n        /* \"Atelier 5/MiniSocial.sol\":4682:4689  _postId */\n      dup12\n        /* \"Atelier 5/MiniSocial.sol\":4676:4690  posts[_postId] */\n      dup2\n      sload\n      dup2\n      lt\n      tag_212\n      jumpi\n      tag_213\n      tag_61\n      jump\t// in\n    tag_213:\n    tag_212:\n      swap1\n      0x00\n      mstore\n      keccak256(0x00, 0x20)\n      swap1\n      0x0c\n      mul\n      add\n        /* \"Atelier 5/MiniSocial.sol\":4656:4690  Post storage post = posts[_postId] */\n      swap1\n      pop\n        /* \"Atelier 5/MiniSocial.sol\":4700:4728  Comment[] memory commentsArr */\n      0x00\n        /* \"Atelier 5/MiniSocial.sol\":4745:4749  post */\n      dup2\n        /* \"Atelier 5/MiniSocial.sol\":4745:4762  post.commentCount */\n      0x08\n      add\n      sload\n        /* \"Atelier 5/MiniSocial.sol\":4731:4763  new Comment[](post.commentCount) */\n      0xffffffffffffffff\n      dup2\n      gt\n      iszero\n      tag_215\n      jumpi\n      tag_216\n      tag_90\n      jump\t// in\n    tag_216:\n    tag_215:\n      mload(0x40)\n      swap1\n      dup1\n      dup3\n      mstore\n      dup1\n      0x20\n      mul\n      0x20\n      add\n      dup3\n      add\n      0x40\n      mstore\n      dup1\n      iszero\n      tag_217\n      jumpi\n      dup2\n      0x20\n      add\n    tag_218:\n      tag_219\n      tag_220\n      jump\t// in\n    tag_219:\n      dup2\n      mstore\n      0x20\n      add\n      swap1\n      0x01\n      swap1\n      sub\n      swap1\n      dup2\n      tag_218\n      jumpi\n      swap1\n      pop\n    tag_217:\n      pop\n        /* \"Atelier 5/MiniSocial.sol\":4700:4763  Comment[] memory commentsArr = new Comment[](post.commentCount) */\n      swap1\n      pop\n        /* \"Atelier 5/MiniSocial.sol\":4773:4793  uint256 commentIndex */\n      0x00\n        /* \"Atelier 5/MiniSocial.sol\":4796:4797  0 */\n      0x00\n        /* \"Atelier 5/MiniSocial.sol\":4773:4797  uint256 commentIndex = 0 */\n      swap1\n      pop\n        /* \"Atelier 5/MiniSocial.sol\":4812:4821  uint256 i */\n      0x00\n        /* \"Atelier 5/MiniSocial.sol\":4824:4825  0 */\n      0x00\n        /* \"Atelier 5/MiniSocial.sol\":4812:4825  uint256 i = 0 */\n      swap1\n      pop\n        /* \"Atelier 5/MiniSocial.sol\":4807:4926  for (uint256 i = 0; i < post.commentCount; i++) {... */\n    tag_221:\n        /* \"Atelier 5/MiniSocial.sol\":4831:4835  post */\n      dup4\n        /* \"Atelier 5/MiniSocial.sol\":4831:4848  post.commentCount */\n      0x08\n      add\n      sload\n        /* \"Atelier 5/MiniSocial.sol\":4827:4828  i */\n      dup2\n        /* \"Atelier 5/MiniSocial.sol\":4827:4848  i < post.commentCount */\n      lt\n        /* \"Atelier 5/MiniSocial.sol\":4807:4926  for (uint256 i = 0; i < post.commentCount; i++) {... */\n      iszero\n      tag_222\n      jumpi\n        /* \"Atelier 5/MiniSocial.sol\":4899:4903  post */\n      dup4\n        /* \"Atelier 5/MiniSocial.sol\":4899:4912  post.comments */\n      0x07\n      add\n        /* \"Atelier 5/MiniSocial.sol\":4899:4915  post.comments[i] */\n      0x00\n        /* \"Atelier 5/MiniSocial.sol\":4913:4914  i */\n      dup3\n        /* \"Atelier 5/MiniSocial.sol\":4899:4915  post.comments[i] */\n      dup2\n      mstore\n      0x20\n      add\n      swap1\n      dup2\n      mstore\n      0x20\n      add\n      0x00\n      keccak256\n        /* \"Atelier 5/MiniSocial.sol\":4869:4915  commentsArr[commentIndex++] = post.comments[i] */\n      mload(0x40)\n      dup1\n      0x60\n      add\n      0x40\n      mstore\n      swap1\n      dup2\n      0x00\n      dup3\n      add\n      dup1\n      sload\n      tag_224\n      swap1\n      tag_134\n      jump\t// in\n    tag_224:\n      dup1\n      0x1f\n      add\n      0x20\n      dup1\n      swap2\n      div\n      mul\n      0x20\n      add\n      mload(0x40)\n      swap1\n      dup2\n      add\n      0x40\n      mstore\n      dup1\n      swap3\n      swap2\n      swap1\n      dup2\n      dup2\n      mstore\n      0x20\n      add\n      dup3\n      dup1\n      sload\n      tag_225\n      swap1\n      tag_134\n      jump\t// in\n    tag_225:\n      dup1\n      iszero\n      tag_226\n      jumpi\n      dup1\n      0x1f\n      lt\n      tag_227\n      jumpi\n      0x0100\n      dup1\n      dup4\n      sload\n      div\n      mul\n      dup4\n      mstore\n      swap2\n      0x20\n      add\n      swap2\n      jump(tag_226)\n    tag_227:\n      dup3\n      add\n      swap2\n      swap1\n      0x00\n      mstore\n      keccak256(0x00, 0x20)\n      swap1\n    tag_228:\n      dup2\n      sload\n      dup2\n      mstore\n      swap1\n      0x01\n      add\n      swap1\n      0x20\n      add\n      dup1\n      dup4\n      gt\n      tag_228\n      jumpi\n      dup3\n      swap1\n      sub\n      0x1f\n      and\n      dup3\n      add\n      swap2\n    tag_226:\n      pop\n      pop\n      pop\n      pop\n      pop\n      dup2\n      mstore\n      0x20\n      add\n      0x01\n      dup3\n      add\n      0x00\n      swap1\n      sload\n      swap1\n      0x0100\n      exp\n      swap1\n      div\n      0xffffffffffffffffffffffffffffffffffffffff\n      and\n      0xffffffffffffffffffffffffffffffffffffffff\n      and\n      0xffffffffffffffffffffffffffffffffffffffff\n      and\n      dup2\n      mstore\n      0x20\n      add\n      0x02\n      dup3\n      add\n      sload\n      dup2\n      mstore\n      pop\n      pop\n        /* \"Atelier 5/MiniSocial.sol\":4869:4880  commentsArr */\n      dup4\n        /* \"Atelier 5/MiniSocial.sol\":4881:4895  commentIndex++ */\n      dup4\n      dup1\n      tag_229\n      swap1\n      tag_87\n      jump\t// in\n    tag_229:\n      swap5\n      pop\n        /* \"Atelier 5/MiniSocial.sol\":4869:4896  commentsArr[commentIndex++] */\n      dup2\n      mload\n      dup2\n      lt\n      tag_230\n      jumpi\n      tag_231\n      tag_61\n      jump\t// in\n    tag_231:\n    tag_230:\n      0x20\n      mul\n      0x20\n      add\n      add\n        /* \"Atelier 5/MiniSocial.sol\":4869:4915  commentsArr[commentIndex++] = post.comments[i] */\n      dup2\n      swap1\n      mstore\n      pop\n        /* \"Atelier 5/MiniSocial.sol\":4850:4853  i++ */\n      dup1\n      dup1\n      0x01\n      add\n      swap2\n      pop\n      pop\n        /* \"Atelier 5/MiniSocial.sol\":4807:4926  for (uint256 i = 0; i < post.commentCount; i++) {... */\n      jump(tag_221)\n    tag_222:\n      pop\n        /* \"Atelier 5/MiniSocial.sol\":4956:4960  post */\n      dup3\n        /* \"Atelier 5/MiniSocial.sol\":4956:4966  post.title */\n      0x01\n      add\n        /* \"Atelier 5/MiniSocial.sol\":4980:4984  post */\n      dup4\n        /* \"Atelier 5/MiniSocial.sol\":4980:4992  post.content */\n      0x02\n      add\n        /* \"Atelier 5/MiniSocial.sol\":5006:5010  post */\n      dup5\n        /* \"Atelier 5/MiniSocial.sol\":5006:5017  post.author */\n      0x03\n      add\n      0x00\n      swap1\n      sload\n      swap1\n      0x0100\n      exp\n      swap1\n      div\n      0xffffffffffffffffffffffffffffffffffffffff\n      and\n        /* \"Atelier 5/MiniSocial.sol\":5031:5035  post */\n      dup6\n        /* \"Atelier 5/MiniSocial.sol\":5031:5045  post.timestamp */\n      0x04\n      add\n      sload\n        /* \"Atelier 5/MiniSocial.sol\":5059:5063  post */\n      dup7\n        /* \"Atelier 5/MiniSocial.sol\":5059:5074  post.likesCount */\n      0x05\n      add\n      sload\n        /* \"Atelier 5/MiniSocial.sol\":5088:5092  post */\n      dup8\n        /* \"Atelier 5/MiniSocial.sol\":5088:5100  post.likedBy */\n      0x06\n      add\n        /* \"Atelier 5/MiniSocial.sol\":5114:5118  post */\n      dup9\n        /* \"Atelier 5/MiniSocial.sol\":5114:5131  post.commentCount */\n      0x08\n      add\n      sload\n        /* \"Atelier 5/MiniSocial.sol\":5145:5156  commentsArr */\n      dup9\n        /* \"Atelier 5/MiniSocial.sol\":4935:5166  return (... */\n      dup8\n      dup1\n      sload\n      tag_232\n      swap1\n      tag_134\n      jump\t// in\n    tag_232:\n      dup1\n      0x1f\n      add\n      0x20\n      dup1\n      swap2\n      div\n      mul\n      0x20\n      add\n      mload(0x40)\n      swap1\n      dup2\n      add\n      0x40\n      mstore\n      dup1\n      swap3\n      swap2\n      swap1\n      dup2\n      dup2\n      mstore\n      0x20\n      add\n      dup3\n      dup1\n      sload\n      tag_233\n      swap1\n      tag_134\n      jump\t// in\n    tag_233:\n      dup1\n      iszero\n      tag_234\n      jumpi\n      dup1\n      0x1f\n      lt\n      tag_235\n      jumpi\n      0x0100\n      dup1\n      dup4\n      sload\n      div\n      mul\n      dup4\n      mstore\n      swap2\n      0x20\n      add\n      swap2\n      jump(tag_234)\n    tag_235:\n      dup3\n      add\n      swap2\n      swap1\n      0x00\n      mstore\n      keccak256(0x00, 0x20)\n      swap1\n    tag_236:\n      dup2\n      sload\n      dup2\n      mstore\n      swap1\n      0x01\n      add\n      swap1\n      0x20\n      add\n      dup1\n      dup4\n      gt\n      tag_236\n      jumpi\n      dup3\n      swap1\n      sub\n      0x1f\n      and\n      dup3\n      add\n      swap2\n    tag_234:\n      pop\n      pop\n      pop\n      pop\n      pop\n      swap8\n      pop\n      dup7\n      dup1\n      sload\n      tag_237\n      swap1\n      tag_134\n      jump\t// in\n    tag_237:\n      dup1\n      0x1f\n      add\n      0x20\n      dup1\n      swap2\n      div\n      mul\n      0x20\n      add\n      mload(0x40)\n      swap1\n      dup2\n      add\n      0x40\n      mstore\n      dup1\n      swap3\n      swap2\n      swap1\n      dup2\n      dup2\n      mstore\n      0x20\n      add\n      dup3\n      dup1\n      sload\n      tag_238\n      swap1\n      tag_134\n      jump\t// in\n    tag_238:\n      dup1\n      iszero\n      tag_239\n      jumpi\n      dup1\n      0x1f\n      lt\n      tag_240\n      jumpi\n      0x0100\n      dup1\n      dup4\n      sload\n      div\n      mul\n      dup4\n      mstore\n      swap2\n      0x20\n      add\n      swap2\n      jump(tag_239)\n    tag_240:\n      dup3\n      add\n      swap2\n      swap1\n      0x00\n      mstore\n      keccak256(0x00, 0x20)\n      swap1\n    tag_241:\n      dup2\n      sload\n      dup2\n      mstore\n      swap1\n      0x01\n      add\n      swap1\n      0x20\n      add\n      dup1\n      dup4\n      gt\n      tag_241\n      jumpi\n      dup3\n      swap1\n      sub\n      0x1f\n      and\n      dup3\n      add\n      swap2\n    tag_239:\n      pop\n      pop\n      pop\n      pop\n      pop\n      swap7\n      pop\n      dup3\n      dup1\n      sload\n      dup1\n      0x20\n      mul\n      0x20\n      add\n      mload(0x40)\n      swap1\n      dup2\n      add\n      0x40\n      mstore\n      dup1\n      swap3\n      swap2\n      swap1\n      dup2\n      dup2\n      mstore\n      0x20\n      add\n      dup3\n      dup1\n      sload\n      dup1\n      iszero\n      tag_242\n      jumpi\n      0x20\n      mul\n      dup3\n      add\n      swap2\n      swap1\n      0x00\n      mstore\n      keccak256(0x00, 0x20)\n      swap1\n    tag_243:\n      dup2\n      0x00\n      swap1\n      sload\n      swap1\n      0x0100\n      exp\n      swap1\n      div\n      0xffffffffffffffffffffffffffffffffffffffff\n      and\n      0xffffffffffffffffffffffffffffffffffffffff\n      and\n      dup2\n      mstore\n      0x20\n      add\n      swap1\n      0x01\n      add\n      swap1\n      dup1\n      dup4\n      gt\n      tag_243\n      jumpi\n    tag_242:\n      pop\n      pop\n      pop\n      pop\n      pop\n      swap3\n      pop\n      swap12\n      pop\n      swap12\n      pop\n      swap12\n      pop\n      swap12\n      pop\n      swap12\n      pop\n      swap12\n      pop\n      swap12\n      pop\n      swap12\n      pop\n      pop\n      pop\n      pop\n        /* \"Atelier 5/MiniSocial.sol\":4327:5173  function getPost(uint256 _postId) public view postExists(_postId) returns (... */\n      pop\n      swap2\n      swap4\n      swap6\n      swap8\n      pop\n      swap2\n      swap4\n      swap6\n      swap8\n      jump\t// out\n        /* \"Atelier 5/MiniSocial.sol\":3324:4280  function toggleLike(uint256 _postId) public postExists(_postId) {... */\n    tag_38:\n        /* \"Atelier 5/MiniSocial.sol\":3379:3386  _postId */\n      dup1\n        /* \"Atelier 5/MiniSocial.sol\":1370:1375  posts */\n      0x00\n        /* \"Atelier 5/MiniSocial.sol\":1370:1382  posts.length */\n      dup1\n      sload\n      swap1\n      pop\n        /* \"Atelier 5/MiniSocial.sol\":1360:1367  _postId */\n      dup2\n        /* \"Atelier 5/MiniSocial.sol\":1360:1382  _postId < posts.length */\n      lt\n        /* \"Atelier 5/MiniSocial.sol\":1352:1406  require(_postId < posts.length, \"Post does not exist\") */\n      tag_245\n      jumpi\n      mload(0x40)\n      0x08c379a000000000000000000000000000000000000000000000000000000000\n      dup2\n      mstore\n      0x04\n      add\n      tag_246\n      swap1\n      tag_58\n      jump\t// in\n    tag_246:\n      mload(0x40)\n      dup1\n      swap2\n      sub\n      swap1\n      revert\n    tag_245:\n        /* \"Atelier 5/MiniSocial.sol\":1424:1429  posts */\n      0x00\n        /* \"Atelier 5/MiniSocial.sol\":1430:1437  _postId */\n      dup2\n        /* \"Atelier 5/MiniSocial.sol\":1424:1438  posts[_postId] */\n      dup2\n      sload\n      dup2\n      lt\n      tag_247\n      jumpi\n      tag_248\n      tag_61\n      jump\t// in\n    tag_248:\n    tag_247:\n      swap1\n      0x00\n      mstore\n      keccak256(0x00, 0x20)\n      swap1\n      0x0c\n      mul\n      add\n        /* \"Atelier 5/MiniSocial.sol\":1424:1447  posts[_postId].isActive */\n      0x0b\n      add\n      0x00\n      swap1\n      sload\n      swap1\n      0x0100\n      exp\n      swap1\n      div\n      0xff\n      and\n        /* \"Atelier 5/MiniSocial.sol\":1416:1473  require(posts[_postId].isActive, \"Post has been deleted\") */\n      tag_250\n      jumpi\n      mload(0x40)\n      0x08c379a000000000000000000000000000000000000000000000000000000000\n      dup2\n      mstore\n      0x04\n      add\n      tag_251\n      swap1\n      tag_65\n      jump\t// in\n    tag_251:\n      mload(0x40)\n      dup1\n      swap2\n      sub\n      swap1\n      revert\n    tag_250:\n        /* \"Atelier 5/MiniSocial.sol\":3420:3425  posts */\n      0x00\n        /* \"Atelier 5/MiniSocial.sol\":3426:3433  _postId */\n      dup3\n        /* \"Atelier 5/MiniSocial.sol\":3420:3434  posts[_postId] */\n      dup2\n      sload\n      dup2\n      lt\n      tag_253\n      jumpi\n      tag_254\n      tag_61\n      jump\t// in\n    tag_254:\n    tag_253:\n      swap1\n      0x00\n      mstore\n      keccak256(0x00, 0x20)\n      swap1\n      0x0c\n      mul\n      add\n        /* \"Atelier 5/MiniSocial.sol\":3420:3441  posts[_postId].author */\n      0x03\n      add\n      0x00\n      swap1\n      sload\n      swap1\n      0x0100\n      exp\n      swap1\n      div\n      0xffffffffffffffffffffffffffffffffffffffff\n      and\n        /* \"Atelier 5/MiniSocial.sol\":3406:3441  msg.sender != posts[_postId].author */\n      0xffffffffffffffffffffffffffffffffffffffff\n      and\n        /* \"Atelier 5/MiniSocial.sol\":3406:3416  msg.sender */\n      caller\n        /* \"Atelier 5/MiniSocial.sol\":3406:3441  msg.sender != posts[_postId].author */\n      0xffffffffffffffffffffffffffffffffffffffff\n      and\n      sub\n        /* \"Atelier 5/MiniSocial.sol\":3398:3488  require(msg.sender != posts[_postId].author, \"Vous ne pouvez pas liker votre propre post\") */\n      tag_256\n      jumpi\n      mload(0x40)\n      0x08c379a000000000000000000000000000000000000000000000000000000000\n      dup2\n      mstore\n      0x04\n      add\n      tag_257\n      swap1\n      tag_258\n      jump\t// in\n    tag_257:\n      mload(0x40)\n      dup1\n      swap2\n      sub\n      swap1\n      revert\n    tag_256:\n        /* \"Atelier 5/MiniSocial.sol\":3512:3521  postLikes */\n      0x01\n        /* \"Atelier 5/MiniSocial.sol\":3512:3530  postLikes[_postId] */\n      0x00\n        /* \"Atelier 5/MiniSocial.sol\":3522:3529  _postId */\n      dup4\n        /* \"Atelier 5/MiniSocial.sol\":3512:3530  postLikes[_postId] */\n      dup2\n      mstore\n      0x20\n      add\n      swap1\n      dup2\n      mstore\n      0x20\n      add\n      0x00\n      keccak256\n        /* \"Atelier 5/MiniSocial.sol\":3512:3542  postLikes[_postId][msg.sender] */\n      0x00\n        /* \"Atelier 5/MiniSocial.sol\":3531:3541  msg.sender */\n      caller\n        /* \"Atelier 5/MiniSocial.sol\":3512:3542  postLikes[_postId][msg.sender] */\n      0xffffffffffffffffffffffffffffffffffffffff\n      and\n      0xffffffffffffffffffffffffffffffffffffffff\n      and\n      dup2\n      mstore\n      0x20\n      add\n      swap1\n      dup2\n      mstore\n      0x20\n      add\n      0x00\n      keccak256\n      0x00\n      swap1\n      sload\n      swap1\n      0x0100\n      exp\n      swap1\n      div\n      0xff\n      and\n        /* \"Atelier 5/MiniSocial.sol\":3507:4274  if (!postLikes[_postId][msg.sender]) {... */\n      tag_259\n      jumpi\n        /* \"Atelier 5/MiniSocial.sol\":3591:3595  true */\n      0x01\n        /* \"Atelier 5/MiniSocial.sol\":3558:3567  postLikes */\n      dup1\n        /* \"Atelier 5/MiniSocial.sol\":3558:3576  postLikes[_postId] */\n      0x00\n        /* \"Atelier 5/MiniSocial.sol\":3568:3575  _postId */\n      dup5\n        /* \"Atelier 5/MiniSocial.sol\":3558:3576  postLikes[_postId] */\n      dup2\n      mstore\n      0x20\n      add\n      swap1\n      dup2\n      mstore\n      0x20\n      add\n      0x00\n      keccak256\n        /* \"Atelier 5/MiniSocial.sol\":3558:3588  postLikes[_postId][msg.sender] */\n      0x00\n        /* \"Atelier 5/MiniSocial.sol\":3577:3587  msg.sender */\n      caller\n        /* \"Atelier 5/MiniSocial.sol\":3558:3588  postLikes[_postId][msg.sender] */\n      0xffffffffffffffffffffffffffffffffffffffff\n      and\n      0xffffffffffffffffffffffffffffffffffffffff\n      and\n      dup2\n      mstore\n      0x20\n      add\n      swap1\n      dup2\n      mstore\n      0x20\n      add\n      0x00\n      keccak256\n      0x00\n        /* \"Atelier 5/MiniSocial.sol\":3558:3595  postLikes[_postId][msg.sender] = true */\n      0x0100\n      exp\n      dup2\n      sload\n      dup2\n      0xff\n      mul\n      not\n      and\n      swap1\n      dup4\n      iszero\n      iszero\n      mul\n      or\n      swap1\n      sstore\n      pop\n        /* \"Atelier 5/MiniSocial.sol\":3609:3614  posts */\n      0x00\n        /* \"Atelier 5/MiniSocial.sol\":3615:3622  _postId */\n      dup3\n        /* \"Atelier 5/MiniSocial.sol\":3609:3623  posts[_postId] */\n      dup2\n      sload\n      dup2\n      lt\n      tag_260\n      jumpi\n      tag_261\n      tag_61\n      jump\t// in\n    tag_261:\n    tag_260:\n      swap1\n      0x00\n      mstore\n      keccak256(0x00, 0x20)\n      swap1\n      0x0c\n      mul\n      add\n        /* \"Atelier 5/MiniSocial.sol\":3609:3634  posts[_postId].likesCount */\n      0x05\n      add\n      0x00\n        /* \"Atelier 5/MiniSocial.sol\":3609:3636  posts[_postId].likesCount++ */\n      dup2\n      sload\n      dup1\n      swap3\n      swap2\n      swap1\n      tag_263\n      swap1\n      tag_87\n      jump\t// in\n    tag_263:\n      swap2\n      swap1\n      pop\n      sstore\n      pop\n        /* \"Atelier 5/MiniSocial.sol\":3650:3655  posts */\n      0x00\n        /* \"Atelier 5/MiniSocial.sol\":3656:3663  _postId */\n      dup3\n        /* \"Atelier 5/MiniSocial.sol\":3650:3664  posts[_postId] */\n      dup2\n      sload\n      dup2\n      lt\n      tag_264\n      jumpi\n      tag_265\n      tag_61\n      jump\t// in\n    tag_265:\n    tag_264:\n      swap1\n      0x00\n      mstore\n      keccak256(0x00, 0x20)\n      swap1\n      0x0c\n      mul\n      add\n        /* \"Atelier 5/MiniSocial.sol\":3650:3672  posts[_postId].likedBy */\n      0x06\n      add\n        /* \"Atelier 5/MiniSocial.sol\":3678:3688  msg.sender */\n      caller\n        /* \"Atelier 5/MiniSocial.sol\":3650:3689  posts[_postId].likedBy.push(msg.sender) */\n      swap1\n      dup1\n      0x01\n      dup2\n      sload\n      add\n      dup1\n      dup3\n      sstore\n      dup1\n      swap2\n      pop\n      pop\n      0x01\n      swap1\n      sub\n      swap1\n      0x00\n      mstore\n      keccak256(0x00, 0x20)\n      add\n      0x00\n      swap1\n      swap2\n      swap1\n      swap2\n      swap1\n      swap2\n      0x0100\n      exp\n      dup2\n      sload\n      dup2\n      0xffffffffffffffffffffffffffffffffffffffff\n      mul\n      not\n      and\n      swap1\n      dup4\n      0xffffffffffffffffffffffffffffffffffffffff\n      and\n      mul\n      or\n      swap1\n      sstore\n      pop\n        /* \"Atelier 5/MiniSocial.sol\":3727:3737  msg.sender */\n      caller\n        /* \"Atelier 5/MiniSocial.sol\":3708:3738  PostLiked(_postId, msg.sender) */\n      0xffffffffffffffffffffffffffffffffffffffff\n      and\n        /* \"Atelier 5/MiniSocial.sol\":3718:3725  _postId */\n      dup3\n        /* \"Atelier 5/MiniSocial.sol\":3708:3738  PostLiked(_postId, msg.sender) */\n      0xcf765d6f163c9b0d832e2a94f4c8e9bffd32a2c3ca5fdbb8cc67b5fe1441f413\n      mload(0x40)\n      mload(0x40)\n      dup1\n      swap2\n      sub\n      swap1\n      log3\n        /* \"Atelier 5/MiniSocial.sol\":3507:4274  if (!postLikes[_postId][msg.sender]) {... */\n      jump(tag_268)\n    tag_259:\n        /* \"Atelier 5/MiniSocial.sol\":3802:3807  false */\n      0x00\n        /* \"Atelier 5/MiniSocial.sol\":3769:3778  postLikes */\n      0x01\n        /* \"Atelier 5/MiniSocial.sol\":3769:3787  postLikes[_postId] */\n      0x00\n        /* \"Atelier 5/MiniSocial.sol\":3779:3786  _postId */\n      dup5\n        /* \"Atelier 5/MiniSocial.sol\":3769:3787  postLikes[_postId] */\n      dup2\n      mstore\n      0x20\n      add\n      swap1\n      dup2\n      mstore\n      0x20\n      add\n      0x00\n      keccak256\n        /* \"Atelier 5/MiniSocial.sol\":3769:3799  postLikes[_postId][msg.sender] */\n      0x00\n        /* \"Atelier 5/MiniSocial.sol\":3788:3798  msg.sender */\n      caller\n        /* \"Atelier 5/MiniSocial.sol\":3769:3799  postLikes[_postId][msg.sender] */\n      0xffffffffffffffffffffffffffffffffffffffff\n      and\n      0xffffffffffffffffffffffffffffffffffffffff\n      and\n      dup2\n      mstore\n      0x20\n      add\n      swap1\n      dup2\n      mstore\n      0x20\n      add\n      0x00\n      keccak256\n      0x00\n        /* \"Atelier 5/MiniSocial.sol\":3769:3807  postLikes[_postId][msg.sender] = false */\n      0x0100\n      exp\n      dup2\n      sload\n      dup2\n      0xff\n      mul\n      not\n      and\n      swap1\n      dup4\n      iszero\n      iszero\n      mul\n      or\n      swap1\n      sstore\n      pop\n        /* \"Atelier 5/MiniSocial.sol\":3821:3826  posts */\n      0x00\n        /* \"Atelier 5/MiniSocial.sol\":3827:3834  _postId */\n      dup3\n        /* \"Atelier 5/MiniSocial.sol\":3821:3835  posts[_postId] */\n      dup2\n      sload\n      dup2\n      lt\n      tag_269\n      jumpi\n      tag_270\n      tag_61\n      jump\t// in\n    tag_270:\n    tag_269:\n      swap1\n      0x00\n      mstore\n      keccak256(0x00, 0x20)\n      swap1\n      0x0c\n      mul\n      add\n        /* \"Atelier 5/MiniSocial.sol\":3821:3846  posts[_postId].likesCount */\n      0x05\n      add\n      0x00\n        /* \"Atelier 5/MiniSocial.sol\":3821:3848  posts[_postId].likesCount-- */\n      dup2\n      sload\n      dup1\n      swap3\n      swap2\n      swap1\n      tag_272\n      swap1\n      tag_77\n      jump\t// in\n    tag_272:\n      swap2\n      swap1\n      pop\n      sstore\n      pop\n        /* \"Atelier 5/MiniSocial.sol\":3868:3874  uint i */\n      0x00\n        /* \"Atelier 5/MiniSocial.sol\":3877:3878  0 */\n      0x00\n        /* \"Atelier 5/MiniSocial.sol\":3868:3878  uint i = 0 */\n      swap1\n      pop\n        /* \"Atelier 5/MiniSocial.sol\":3863:4200  for (uint i = 0; i < posts[_postId].likedBy.length; i++) {... */\n    tag_273:\n        /* \"Atelier 5/MiniSocial.sol\":3884:3889  posts */\n      0x00\n        /* \"Atelier 5/MiniSocial.sol\":3890:3897  _postId */\n      dup4\n        /* \"Atelier 5/MiniSocial.sol\":3884:3898  posts[_postId] */\n      dup2\n      sload\n      dup2\n      lt\n      tag_276\n      jumpi\n      tag_277\n      tag_61\n      jump\t// in\n    tag_277:\n    tag_276:\n      swap1\n      0x00\n      mstore\n      keccak256(0x00, 0x20)\n      swap1\n      0x0c\n      mul\n      add\n        /* \"Atelier 5/MiniSocial.sol\":3884:3906  posts[_postId].likedBy */\n      0x06\n      add\n        /* \"Atelier 5/MiniSocial.sol\":3884:3913  posts[_postId].likedBy.length */\n      dup1\n      sload\n      swap1\n      pop\n        /* \"Atelier 5/MiniSocial.sol\":3880:3881  i */\n      dup2\n        /* \"Atelier 5/MiniSocial.sol\":3880:3913  i < posts[_postId].likedBy.length */\n      lt\n        /* \"Atelier 5/MiniSocial.sol\":3863:4200  for (uint i = 0; i < posts[_postId].likedBy.length; i++) {... */\n      iszero\n      tag_274\n      jumpi\n        /* \"Atelier 5/MiniSocial.sol\":3971:3981  msg.sender */\n      caller\n        /* \"Atelier 5/MiniSocial.sol\":3942:3981  posts[_postId].likedBy[i] == msg.sender */\n      0xffffffffffffffffffffffffffffffffffffffff\n      and\n        /* \"Atelier 5/MiniSocial.sol\":3942:3947  posts */\n      0x00\n        /* \"Atelier 5/MiniSocial.sol\":3948:3955  _postId */\n      dup5\n        /* \"Atelier 5/MiniSocial.sol\":3942:3956  posts[_postId] */\n      dup2\n      sload\n      dup2\n      lt\n      tag_279\n      jumpi\n      tag_280\n      tag_61\n      jump\t// in\n    tag_280:\n    tag_279:\n      swap1\n      0x00\n      mstore\n      keccak256(0x00, 0x20)\n      swap1\n      0x0c\n      mul\n      add\n        /* \"Atelier 5/MiniSocial.sol\":3942:3964  posts[_postId].likedBy */\n      0x06\n      add\n        /* \"Atelier 5/MiniSocial.sol\":3965:3966  i */\n      dup3\n        /* \"Atelier 5/MiniSocial.sol\":3942:3967  posts[_postId].likedBy[i] */\n      dup2\n      sload\n      dup2\n      lt\n      tag_282\n      jumpi\n      tag_283\n      tag_61\n      jump\t// in\n    tag_283:\n    tag_282:\n      swap1\n      0x00\n      mstore\n      keccak256(0x00, 0x20)\n      add\n      0x00\n      swap1\n      sload\n      swap1\n      0x0100\n      exp\n      swap1\n      div\n      0xffffffffffffffffffffffffffffffffffffffff\n      and\n        /* \"Atelier 5/MiniSocial.sol\":3942:3981  posts[_postId].likedBy[i] == msg.sender */\n      0xffffffffffffffffffffffffffffffffffffffff\n      and\n      sub\n        /* \"Atelier 5/MiniSocial.sol\":3938:4186  if (posts[_postId].likedBy[i] == msg.sender) {... */\n      tag_285\n      jumpi\n        /* \"Atelier 5/MiniSocial.sol\":4033:4038  posts */\n      0x00\n        /* \"Atelier 5/MiniSocial.sol\":4039:4046  _postId */\n      dup4\n        /* \"Atelier 5/MiniSocial.sol\":4033:4047  posts[_postId] */\n      dup2\n      sload\n      dup2\n      lt\n      tag_286\n      jumpi\n      tag_287\n      tag_61\n      jump\t// in\n    tag_287:\n    tag_286:\n      swap1\n      0x00\n      mstore\n      keccak256(0x00, 0x20)\n      swap1\n      0x0c\n      mul\n      add\n        /* \"Atelier 5/MiniSocial.sol\":4033:4055  posts[_postId].likedBy */\n      0x06\n      add\n        /* \"Atelier 5/MiniSocial.sol\":4088:4089  1 */\n      0x01\n        /* \"Atelier 5/MiniSocial.sol\":4056:4061  posts */\n      0x00\n        /* \"Atelier 5/MiniSocial.sol\":4062:4069  _postId */\n      dup6\n        /* \"Atelier 5/MiniSocial.sol\":4056:4070  posts[_postId] */\n      dup2\n      sload\n      dup2\n      lt\n      tag_289\n      jumpi\n      tag_290\n      tag_61\n      jump\t// in\n    tag_290:\n    tag_289:\n      swap1\n      0x00\n      mstore\n      keccak256(0x00, 0x20)\n      swap1\n      0x0c\n      mul\n      add\n        /* \"Atelier 5/MiniSocial.sol\":4056:4078  posts[_postId].likedBy */\n      0x06\n      add\n        /* \"Atelier 5/MiniSocial.sol\":4056:4085  posts[_postId].likedBy.length */\n      dup1\n      sload\n      swap1\n      pop\n        /* \"Atelier 5/MiniSocial.sol\":4056:4089  posts[_postId].likedBy.length - 1 */\n      tag_292\n      swap2\n      swap1\n      tag_293\n      jump\t// in\n    tag_292:\n        /* \"Atelier 5/MiniSocial.sol\":4033:4090  posts[_postId].likedBy[posts[_postId].likedBy.length - 1] */\n      dup2\n      sload\n      dup2\n      lt\n      tag_294\n      jumpi\n      tag_295\n      tag_61\n      jump\t// in\n    tag_295:\n    tag_294:\n      swap1\n      0x00\n      mstore\n      keccak256(0x00, 0x20)\n      add\n      0x00\n      swap1\n      sload\n      swap1\n      0x0100\n      exp\n      swap1\n      div\n      0xffffffffffffffffffffffffffffffffffffffff\n      and\n        /* \"Atelier 5/MiniSocial.sol\":4005:4010  posts */\n      0x00\n        /* \"Atelier 5/MiniSocial.sol\":4011:4018  _postId */\n      dup5\n        /* \"Atelier 5/MiniSocial.sol\":4005:4019  posts[_postId] */\n      dup2\n      sload\n      dup2\n      lt\n      tag_297\n      jumpi\n      tag_298\n      tag_61\n      jump\t// in\n    tag_298:\n    tag_297:\n      swap1\n      0x00\n      mstore\n      keccak256(0x00, 0x20)\n      swap1\n      0x0c\n      mul\n      add\n        /* \"Atelier 5/MiniSocial.sol\":4005:4027  posts[_postId].likedBy */\n      0x06\n      add\n        /* \"Atelier 5/MiniSocial.sol\":4028:4029  i */\n      dup3\n        /* \"Atelier 5/MiniSocial.sol\":4005:4030  posts[_postId].likedBy[i] */\n      dup2\n      sload\n      dup2\n      lt\n      tag_300\n      jumpi\n      tag_301\n      tag_61\n      jump\t// in\n    tag_301:\n    tag_300:\n      swap1\n      0x00\n      mstore\n      keccak256(0x00, 0x20)\n      add\n      0x00\n        /* \"Atelier 5/MiniSocial.sol\":4005:4090  posts[_postId].likedBy[i] = posts[_postId].likedBy[posts[_postId].likedBy.length - 1] */\n      0x0100\n      exp\n      dup2\n      sload\n      dup2\n      0xffffffffffffffffffffffffffffffffffffffff\n      mul\n      not\n      and\n      swap1\n      dup4\n      0xffffffffffffffffffffffffffffffffffffffff\n      and\n      mul\n      or\n      swap1\n      sstore\n      pop\n        /* \"Atelier 5/MiniSocial.sol\":4112:4117  posts */\n      0x00\n        /* \"Atelier 5/MiniSocial.sol\":4118:4125  _postId */\n      dup4\n        /* \"Atelier 5/MiniSocial.sol\":4112:4126  posts[_postId] */\n      dup2\n      sload\n      dup2\n      lt\n      tag_303\n      jumpi\n      tag_304\n      tag_61\n      jump\t// in\n    tag_304:\n    tag_303:\n      swap1\n      0x00\n      mstore\n      keccak256(0x00, 0x20)\n      swap1\n      0x0c\n      mul\n      add\n        /* \"Atelier 5/MiniSocial.sol\":4112:4134  posts[_postId].likedBy */\n      0x06\n      add\n        /* \"Atelier 5/MiniSocial.sol\":4112:4140  posts[_postId].likedBy.pop() */\n      dup1\n      sload\n      dup1\n      tag_306\n      jumpi\n      tag_307\n      tag_308\n      jump\t// in\n    tag_307:\n    tag_306:\n      0x01\n      swap1\n      sub\n      dup2\n      dup2\n      swap1\n      0x00\n      mstore\n      keccak256(0x00, 0x20)\n      add\n      exp(0x0100, 0x00)\n      dup2\n      sload\n      swap1\n      0xffffffffffffffffffffffffffffffffffffffff\n      mul\n      not\n      and\n      swap1\n      sstore\n      swap1\n      sstore\n        /* \"Atelier 5/MiniSocial.sol\":4162:4167  break */\n      jump(tag_274)\n        /* \"Atelier 5/MiniSocial.sol\":3938:4186  if (posts[_postId].likedBy[i] == msg.sender) {... */\n    tag_285:\n        /* \"Atelier 5/MiniSocial.sol\":3915:3918  i++ */\n      dup1\n      dup1\n      0x01\n      add\n      swap2\n      pop\n      pop\n        /* \"Atelier 5/MiniSocial.sol\":3863:4200  for (uint i = 0; i < posts[_postId].likedBy.length; i++) {... */\n      jump(tag_273)\n    tag_274:\n      pop\n        /* \"Atelier 5/MiniSocial.sol\":4252:4262  msg.sender */\n      caller\n        /* \"Atelier 5/MiniSocial.sol\":4231:4263  PostUnliked(_postId, msg.sender) */\n      0xffffffffffffffffffffffffffffffffffffffff\n      and\n        /* \"Atelier 5/MiniSocial.sol\":4243:4250  _postId */\n      dup3\n        /* \"Atelier 5/MiniSocial.sol\":4231:4263  PostUnliked(_postId, msg.sender) */\n      0x82092d1196022c48d901e5dc4b17451dbce942b8a9ded42fc6f2a4a5e8fd89b9\n      mload(0x40)\n      mload(0x40)\n      dup1\n      swap2\n      sub\n      swap1\n      log3\n        /* \"Atelier 5/MiniSocial.sol\":3507:4274  if (!postLikes[_postId][msg.sender]) {... */\n    tag_268:\n        /* \"Atelier 5/MiniSocial.sol\":3324:4280  function toggleLike(uint256 _postId) public postExists(_postId) {... */\n      pop\n      pop\n      jump\t// out\n        /* \"Atelier 5/MiniSocial.sol\":7290:7385  function getTotalPosts() public view returns (uint256) {... */\n    tag_40:\n        /* \"Atelier 5/MiniSocial.sol\":7336:7343  uint256 */\n      0x00\n        /* \"Atelier 5/MiniSocial.sol\":7362:7378  activePostsCount */\n      sload(0x03)\n        /* \"Atelier 5/MiniSocial.sol\":7355:7378  return activePostsCount */\n      swap1\n      pop\n        /* \"Atelier 5/MiniSocial.sol\":7290:7385  function getTotalPosts() public view returns (uint256) {... */\n      swap1\n      jump\t// out\n        /* \"Atelier 5/MiniSocial.sol\":816:841  uint256 public totalPosts */\n    tag_43:\n      sload(0x02)\n      dup2\n      jump\t// out\n        /* \"Atelier 5/MiniSocial.sol\":7443:7589  function hasLiked(uint256 _postId, address _user) public view postExists(_postId) returns (bool) {... */\n    tag_48:\n        /* \"Atelier 5/MiniSocial.sol\":7534:7538  bool */\n      0x00\n        /* \"Atelier 5/MiniSocial.sol\":7516:7523  _postId */\n      dup3\n        /* \"Atelier 5/MiniSocial.sol\":1370:1375  posts */\n      0x00\n        /* \"Atelier 5/MiniSocial.sol\":1370:1382  posts.length */\n      dup1\n      sload\n      swap1\n      pop\n        /* \"Atelier 5/MiniSocial.sol\":1360:1367  _postId */\n      dup2\n        /* \"Atelier 5/MiniSocial.sol\":1360:1382  _postId < posts.length */\n      lt\n        /* \"Atelier 5/MiniSocial.sol\":1352:1406  require(_postId < posts.length, \"Post does not exist\") */\n      tag_312\n      jumpi\n      mload(0x40)\n      0x08c379a000000000000000000000000000000000000000000000000000000000\n      dup2\n      mstore\n      0x04\n      add\n      tag_313\n      swap1\n      tag_58\n      jump\t// in\n    tag_313:\n      mload(0x40)\n      dup1\n      swap2\n      sub\n      swap1\n      revert\n    tag_312:\n        /* \"Atelier 5/MiniSocial.sol\":1424:1429  posts */\n      0x00\n        /* \"Atelier 5/MiniSocial.sol\":1430:1437  _postId */\n      dup2\n        /* \"Atelier 5/MiniSocial.sol\":1424:1438  posts[_postId] */\n      dup2\n      sload\n      dup2\n      lt\n      tag_314\n      jumpi\n      tag_315\n      tag_61\n      jump\t// in\n    tag_315:\n    tag_314:\n      swap1\n      0x00\n      mstore\n      keccak256(0x00, 0x20)\n      swap1\n      0x0c\n      mul\n      add\n        /* \"Atelier 5/MiniSocial.sol\":1424:1447  posts[_postId].isActive */\n      0x0b\n      add\n      0x00\n      swap1\n      sload\n      swap1\n      0x0100\n      exp\n      swap1\n      div\n      0xff\n      and\n        /* \"Atelier 5/MiniSocial.sol\":1416:1473  require(posts[_postId].isActive, \"Post has been deleted\") */\n      tag_317\n      jumpi\n      mload(0x40)\n      0x08c379a000000000000000000000000000000000000000000000000000000000\n      dup2\n      mstore\n      0x04\n      add\n      tag_318\n      swap1\n      tag_65\n      jump\t// in\n    tag_318:\n      mload(0x40)\n      dup1\n      swap2\n      sub\n      swap1\n      revert\n    tag_317:\n        /* \"Atelier 5/MiniSocial.sol\":7557:7566  postLikes */\n      0x01\n        /* \"Atelier 5/MiniSocial.sol\":7557:7575  postLikes[_postId] */\n      0x00\n        /* \"Atelier 5/MiniSocial.sol\":7567:7574  _postId */\n      dup6\n        /* \"Atelier 5/MiniSocial.sol\":7557:7575  postLikes[_postId] */\n      dup2\n      mstore\n      0x20\n      add\n      swap1\n      dup2\n      mstore\n      0x20\n      add\n      0x00\n      keccak256\n        /* \"Atelier 5/MiniSocial.sol\":7557:7582  postLikes[_postId][_user] */\n      0x00\n        /* \"Atelier 5/MiniSocial.sol\":7576:7581  _user */\n      dup5\n        /* \"Atelier 5/MiniSocial.sol\":7557:7582  postLikes[_postId][_user] */\n      0xffffffffffffffffffffffffffffffffffffffff\n      and\n      0xffffffffffffffffffffffffffffffffffffffff\n      and\n      dup2\n      mstore\n      0x20\n      add\n      swap1\n      dup2\n      mstore\n      0x20\n      add\n      0x00\n      keccak256\n      0x00\n      swap1\n      sload\n      swap1\n      0x0100\n      exp\n      swap1\n      div\n      0xff\n      and\n        /* \"Atelier 5/MiniSocial.sol\":7550:7582  return postLikes[_postId][_user] */\n      swap2\n      pop\n        /* \"Atelier 5/MiniSocial.sol\":7443:7589  function hasLiked(uint256 _postId, address _user) public view postExists(_postId) returns (bool) {... */\n      pop\n      swap3\n      swap2\n      pop\n      pop\n      jump\t// out\n        /* \"Atelier 5/MiniSocial.sol\":2646:3273  function addComment(uint256 _postId, string memory _content) public postExists(_postId) {... */\n    tag_54:\n        /* \"Atelier 5/MiniSocial.sol\":2725:2732  _postId */\n      dup2\n        /* \"Atelier 5/MiniSocial.sol\":1370:1375  posts */\n      0x00\n        /* \"Atelier 5/MiniSocial.sol\":1370:1382  posts.length */\n      dup1\n      sload\n      swap1\n      pop\n        /* \"Atelier 5/MiniSocial.sol\":1360:1367  _postId */\n      dup2\n        /* \"Atelier 5/MiniSocial.sol\":1360:1382  _postId < posts.length */\n      lt\n        /* \"Atelier 5/MiniSocial.sol\":1352:1406  require(_postId < posts.length, \"Post does not exist\") */\n      tag_321\n      jumpi\n      mload(0x40)\n      0x08c379a000000000000000000000000000000000000000000000000000000000\n      dup2\n      mstore\n      0x04\n      add\n      tag_322\n      swap1\n      tag_58\n      jump\t// in\n    tag_322:\n      mload(0x40)\n      dup1\n      swap2\n      sub\n      swap1\n      revert\n    tag_321:\n        /* \"Atelier 5/MiniSocial.sol\":1424:1429  posts */\n      0x00\n        /* \"Atelier 5/MiniSocial.sol\":1430:1437  _postId */\n      dup2\n        /* \"Atelier 5/MiniSocial.sol\":1424:1438  posts[_postId] */\n      dup2\n      sload\n      dup2\n      lt\n      tag_323\n      jumpi\n      tag_324\n      tag_61\n      jump\t// in\n    tag_324:\n    tag_323:\n      swap1\n      0x00\n      mstore\n      keccak256(0x00, 0x20)\n      swap1\n      0x0c\n      mul\n      add\n        /* \"Atelier 5/MiniSocial.sol\":1424:1447  posts[_postId].isActive */\n      0x0b\n      add\n      0x00\n      swap1\n      sload\n      swap1\n      0x0100\n      exp\n      swap1\n      div\n      0xff\n      and\n        /* \"Atelier 5/MiniSocial.sol\":1416:1473  require(posts[_postId].isActive, \"Post has been deleted\") */\n      tag_326\n      jumpi\n      mload(0x40)\n      0x08c379a000000000000000000000000000000000000000000000000000000000\n      dup2\n      mstore\n      0x04\n      add\n      tag_327\n      swap1\n      tag_65\n      jump\t// in\n    tag_327:\n      mload(0x40)\n      dup1\n      swap2\n      sub\n      swap1\n      revert\n    tag_326:\n        /* \"Atelier 5/MiniSocial.sol\":2777:2778  0 */\n      0x00\n        /* \"Atelier 5/MiniSocial.sol\":2758:2766  _content */\n      dup3\n        /* \"Atelier 5/MiniSocial.sol\":2752:2774  bytes(_content).length */\n      mload\n        /* \"Atelier 5/MiniSocial.sol\":2752:2778  bytes(_content).length > 0 */\n      gt\n        /* \"Atelier 5/MiniSocial.sol\":2744:2819  require(bytes(_content).length > 0, \"Le commentaire ne peut pas etre vide\") */\n      tag_329\n      jumpi\n      mload(0x40)\n      0x08c379a000000000000000000000000000000000000000000000000000000000\n      dup2\n      mstore\n      0x04\n      add\n      tag_330\n      swap1\n      tag_331\n      jump\t// in\n    tag_330:\n      mload(0x40)\n      dup1\n      swap2\n      sub\n      swap1\n      revert\n    tag_329:\n        /* \"Atelier 5/MiniSocial.sol\":2863:2866  280 */\n      0x0118\n        /* \"Atelier 5/MiniSocial.sol\":2843:2851  _content */\n      dup3\n        /* \"Atelier 5/MiniSocial.sol\":2837:2859  bytes(_content).length */\n      mload\n        /* \"Atelier 5/MiniSocial.sol\":2837:2866  bytes(_content).length <= 280 */\n      gt\n      iszero\n        /* \"Atelier 5/MiniSocial.sol\":2829:2899  require(bytes(_content).length <= 280, \"Le commentaire est trop long\") */\n      tag_332\n      jumpi\n      mload(0x40)\n      0x08c379a000000000000000000000000000000000000000000000000000000000\n      dup2\n      mstore\n      0x04\n      add\n      tag_333\n      swap1\n      tag_334\n      jump\t// in\n    tag_333:\n      mload(0x40)\n      dup1\n      swap2\n      sub\n      swap1\n      revert\n    tag_332:\n        /* \"Atelier 5/MiniSocial.sol\":2910:2927  Post storage post */\n      0x00\n        /* \"Atelier 5/MiniSocial.sol\":2930:2935  posts */\n      0x00\n        /* \"Atelier 5/MiniSocial.sol\":2936:2943  _postId */\n      dup5\n        /* \"Atelier 5/MiniSocial.sol\":2930:2944  posts[_postId] */\n      dup2\n      sload\n      dup2\n      lt\n      tag_335\n      jumpi\n      tag_336\n      tag_61\n      jump\t// in\n    tag_336:\n    tag_335:\n      swap1\n      0x00\n      mstore\n      keccak256(0x00, 0x20)\n      swap1\n      0x0c\n      mul\n      add\n        /* \"Atelier 5/MiniSocial.sol\":2910:2944  Post storage post = posts[_postId] */\n      swap1\n      pop\n        /* \"Atelier 5/MiniSocial.sol\":2954:2974  uint256 commentIndex */\n      0x00\n        /* \"Atelier 5/MiniSocial.sol\":2977:2981  post */\n      dup2\n        /* \"Atelier 5/MiniSocial.sol\":2977:2994  post.commentCount */\n      0x08\n      add\n      sload\n        /* \"Atelier 5/MiniSocial.sol\":2954:2994  uint256 commentIndex = post.commentCount */\n      swap1\n      pop\n        /* \"Atelier 5/MiniSocial.sol\":3034:3156  Comment({... */\n      mload(0x40)\n      dup1\n      0x60\n      add\n      0x40\n      mstore\n      dup1\n        /* \"Atelier 5/MiniSocial.sol\":3065:3073  _content */\n      dup6\n        /* \"Atelier 5/MiniSocial.sol\":3034:3156  Comment({... */\n      dup2\n      mstore\n      0x20\n      add\n        /* \"Atelier 5/MiniSocial.sol\":3095:3105  msg.sender */\n      caller\n        /* \"Atelier 5/MiniSocial.sol\":3034:3156  Comment({... */\n      0xffffffffffffffffffffffffffffffffffffffff\n      and\n      dup2\n      mstore\n      0x20\n      add\n        /* \"Atelier 5/MiniSocial.sol\":3130:3145  block.timestamp */\n      timestamp\n        /* \"Atelier 5/MiniSocial.sol\":3034:3156  Comment({... */\n      dup2\n      mstore\n      pop\n        /* \"Atelier 5/MiniSocial.sol\":3004:3008  post */\n      dup3\n        /* \"Atelier 5/MiniSocial.sol\":3004:3017  post.comments */\n      0x07\n      add\n        /* \"Atelier 5/MiniSocial.sol\":3004:3031  post.comments[commentIndex] */\n      0x00\n        /* \"Atelier 5/MiniSocial.sol\":3018:3030  commentIndex */\n      dup4\n        /* \"Atelier 5/MiniSocial.sol\":3004:3031  post.comments[commentIndex] */\n      dup2\n      mstore\n      0x20\n      add\n      swap1\n      dup2\n      mstore\n      0x20\n      add\n      0x00\n      keccak256\n        /* \"Atelier 5/MiniSocial.sol\":3004:3156  post.comments[commentIndex] = Comment({... */\n      0x00\n      dup3\n      add\n      mload\n      dup2\n      0x00\n      add\n      swap1\n      dup2\n      tag_338\n      swap2\n      swap1\n      tag_197\n      jump\t// in\n    tag_338:\n      pop\n      0x20\n      dup3\n      add\n      mload\n      dup2\n      0x01\n      add\n      exp(0x0100, 0x00)\n      dup2\n      sload\n      dup2\n      0xffffffffffffffffffffffffffffffffffffffff\n      mul\n      not\n      and\n      swap1\n      dup4\n      0xffffffffffffffffffffffffffffffffffffffff\n      and\n      mul\n      or\n      swap1\n      sstore\n      pop\n      0x40\n      dup3\n      add\n      mload\n      dup2\n      0x02\n      add\n      sstore\n      swap1\n      pop\n      pop\n        /* \"Atelier 5/MiniSocial.sol\":3166:3170  post */\n      dup2\n        /* \"Atelier 5/MiniSocial.sol\":3166:3183  post.commentCount */\n      0x08\n      add\n      0x00\n        /* \"Atelier 5/MiniSocial.sol\":3166:3185  post.commentCount++ */\n      dup2\n      sload\n      dup1\n      swap3\n      swap2\n      swap1\n      tag_339\n      swap1\n      tag_87\n      jump\t// in\n    tag_339:\n      swap2\n      swap1\n      pop\n      sstore\n      pop\n        /* \"Atelier 5/MiniSocial.sol\":3245:3255  msg.sender */\n      caller\n        /* \"Atelier 5/MiniSocial.sol\":3209:3266  CommentAdded(_postId, commentIndex, msg.sender, _content) */\n      0xffffffffffffffffffffffffffffffffffffffff\n      and\n        /* \"Atelier 5/MiniSocial.sol\":3231:3243  commentIndex */\n      dup2\n        /* \"Atelier 5/MiniSocial.sol\":3222:3229  _postId */\n      dup7\n        /* \"Atelier 5/MiniSocial.sol\":3209:3266  CommentAdded(_postId, commentIndex, msg.sender, _content) */\n      0x96d81cac001a263174d42d42cfad470fec9d863bcf6d52ba8b93d47c7ee00de3\n        /* \"Atelier 5/MiniSocial.sol\":3257:3265  _content */\n      dup8\n        /* \"Atelier 5/MiniSocial.sol\":3209:3266  CommentAdded(_postId, commentIndex, msg.sender, _content) */\n      mload(0x40)\n      tag_340\n      swap2\n      swap1\n      tag_341\n      jump\t// in\n    tag_340:\n      mload(0x40)\n      dup1\n      swap2\n      sub\n      swap1\n      log4\n        /* \"Atelier 5/MiniSocial.sol\":2734:3273  {... */\n      pop\n      pop\n        /* \"Atelier 5/MiniSocial.sol\":2646:3273  function addComment(uint256 _postId, string memory _content) public postExists(_postId) {... */\n      pop\n      pop\n      pop\n      jump\t// out\n    tag_220:\n      mload(0x40)\n      dup1\n      0x60\n      add\n      0x40\n      mstore\n      dup1\n      0x60\n      dup2\n      mstore\n      0x20\n      add\n      and(0xffffffffffffffffffffffffffffffffffffffff, 0x00)\n      dup2\n      mstore\n      0x20\n      add\n      0x00\n      dup2\n      mstore\n      pop\n      swap1\n      jump\t// out\n        /* \"#utility.yul\":7:82   */\n    tag_342:\n        /* \"#utility.yul\":40:46   */\n      0x00\n        /* \"#utility.yul\":73:75   */\n      0x40\n        /* \"#utility.yul\":67:76   */\n      mload\n        /* \"#utility.yul\":57:76   */\n      swap1\n      pop\n        /* \"#utility.yul\":7:82   */\n      swap1\n      jump\t// out\n        /* \"#utility.yul\":88:205   */\n    tag_343:\n        /* \"#utility.yul\":197:198   */\n      0x00\n        /* \"#utility.yul\":194:195   */\n      0x00\n        /* \"#utility.yul\":187:199   */\n      revert\n        /* \"#utility.yul\":211:328   */\n    tag_344:\n        /* \"#utility.yul\":320:321   */\n      0x00\n        /* \"#utility.yul\":317:318   */\n      0x00\n        /* \"#utility.yul\":310:322   */\n      revert\n        /* \"#utility.yul\":334:411   */\n    tag_345:\n        /* \"#utility.yul\":371:378   */\n      0x00\n        /* \"#utility.yul\":400:405   */\n      dup2\n        /* \"#utility.yul\":389:405   */\n      swap1\n      pop\n        /* \"#utility.yul\":334:411   */\n      swap2\n      swap1\n      pop\n      jump\t// out\n        /* \"#utility.yul\":417:539   */\n    tag_346:\n        /* \"#utility.yul\":490:514   */\n      tag_448\n        /* \"#utility.yul\":508:513   */\n      dup2\n        /* \"#utility.yul\":490:514   */\n      tag_345\n      jump\t// in\n    tag_448:\n        /* \"#utility.yul\":483:488   */\n      dup2\n        /* \"#utility.yul\":480:515   */\n      eq\n        /* \"#utility.yul\":470:533   */\n      tag_449\n      jumpi\n        /* \"#utility.yul\":529:530   */\n      0x00\n        /* \"#utility.yul\":526:527   */\n      0x00\n        /* \"#utility.yul\":519:531   */\n      revert\n        /* \"#utility.yul\":470:533   */\n    tag_449:\n        /* \"#utility.yul\":417:539   */\n      pop\n      jump\t// out\n        /* \"#utility.yul\":545:684   */\n    tag_347:\n        /* \"#utility.yul\":591:596   */\n      0x00\n        /* \"#utility.yul\":629:635   */\n      dup2\n        /* \"#utility.yul\":616:636   */\n      calldataload\n        /* \"#utility.yul\":607:636   */\n      swap1\n      pop\n        /* \"#utility.yul\":645:678   */\n      tag_451\n        /* \"#utility.yul\":672:677   */\n      dup2\n        /* \"#utility.yul\":645:678   */\n      tag_346\n      jump\t// in\n    tag_451:\n        /* \"#utility.yul\":545:684   */\n      swap3\n      swap2\n      pop\n      pop\n      jump\t// out\n        /* \"#utility.yul\":690:1019   */\n    tag_16:\n        /* \"#utility.yul\":749:755   */\n      0x00\n        /* \"#utility.yul\":798:800   */\n      0x20\n        /* \"#utility.yul\":786:795   */\n      dup3\n        /* \"#utility.yul\":777:784   */\n      dup5\n        /* \"#utility.yul\":773:796   */\n      sub\n        /* \"#utility.yul\":769:801   */\n      slt\n        /* \"#utility.yul\":766:885   */\n      iszero\n      tag_453\n      jumpi\n        /* \"#utility.yul\":804:883   */\n      tag_454\n      tag_343\n      jump\t// in\n    tag_454:\n        /* \"#utility.yul\":766:885   */\n    tag_453:\n        /* \"#utility.yul\":924:925   */\n      0x00\n        /* \"#utility.yul\":949:1002   */\n      tag_455\n        /* \"#utility.yul\":994:1001   */\n      dup5\n        /* \"#utility.yul\":985:991   */\n      dup3\n        /* \"#utility.yul\":974:983   */\n      dup6\n        /* \"#utility.yul\":970:992   */\n      add\n        /* \"#utility.yul\":949:1002   */\n      tag_347\n      jump\t// in\n    tag_455:\n        /* \"#utility.yul\":939:1002   */\n      swap2\n      pop\n        /* \"#utility.yul\":895:1012   */\n      pop\n        /* \"#utility.yul\":690:1019   */\n      swap3\n      swap2\n      pop\n      pop\n      jump\t// out\n        /* \"#utility.yul\":1025:1143   */\n    tag_348:\n        /* \"#utility.yul\":1112:1136   */\n      tag_457\n        /* \"#utility.yul\":1130:1135   */\n      dup2\n        /* \"#utility.yul\":1112:1136   */\n      tag_345\n      jump\t// in\n    tag_457:\n        /* \"#utility.yul\":1107:1110   */\n      dup3\n        /* \"#utility.yul\":1100:1137   */\n      mstore\n        /* \"#utility.yul\":1025:1143   */\n      pop\n      pop\n      jump\t// out\n        /* \"#utility.yul\":1149:1371   */\n    tag_21:\n        /* \"#utility.yul\":1242:1246   */\n      0x00\n        /* \"#utility.yul\":1280:1282   */\n      0x20\n        /* \"#utility.yul\":1269:1278   */\n      dup3\n        /* \"#utility.yul\":1265:1283   */\n      add\n        /* \"#utility.yul\":1257:1283   */\n      swap1\n      pop\n        /* \"#utility.yul\":1293:1364   */\n      tag_459\n        /* \"#utility.yul\":1361:1362   */\n      0x00\n        /* \"#utility.yul\":1350:1359   */\n      dup4\n        /* \"#utility.yul\":1346:1363   */\n      add\n        /* \"#utility.yul\":1337:1343   */\n      dup5\n        /* \"#utility.yul\":1293:1364   */\n      tag_348\n      jump\t// in\n    tag_459:\n        /* \"#utility.yul\":1149:1371   */\n      swap3\n      swap2\n      pop\n      pop\n      jump\t// out\n        /* \"#utility.yul\":1377:1491   */\n    tag_349:\n        /* \"#utility.yul\":1444:1450   */\n      0x00\n        /* \"#utility.yul\":1478:1483   */\n      dup2\n        /* \"#utility.yul\":1472:1484   */\n      mload\n        /* \"#utility.yul\":1462:1484   */\n      swap1\n      pop\n        /* \"#utility.yul\":1377:1491   */\n      swap2\n      swap1\n      pop\n      jump\t// out\n        /* \"#utility.yul\":1497:1681   */\n    tag_350:\n        /* \"#utility.yul\":1596:1607   */\n      0x00\n        /* \"#utility.yul\":1630:1636   */\n      dup3\n        /* \"#utility.yul\":1625:1628   */\n      dup3\n        /* \"#utility.yul\":1618:1637   */\n      mstore\n        /* \"#utility.yul\":1670:1674   */\n      0x20\n        /* \"#utility.yul\":1665:1668   */\n      dup3\n        /* \"#utility.yul\":1661:1675   */\n      add\n        /* \"#utility.yul\":1646:1675   */\n      swap1\n      pop\n        /* \"#utility.yul\":1497:1681   */\n      swap3\n      swap2\n      pop\n      pop\n      jump\t// out\n        /* \"#utility.yul\":1687:1819   */\n    tag_351:\n        /* \"#utility.yul\":1754:1758   */\n      0x00\n        /* \"#utility.yul\":1777:1780   */\n      dup2\n        /* \"#utility.yul\":1769:1780   */\n      swap1\n      pop\n        /* \"#utility.yul\":1807:1811   */\n      0x20\n        /* \"#utility.yul\":1802:1805   */\n      dup3\n        /* \"#utility.yul\":1798:1812   */\n      add\n        /* \"#utility.yul\":1790:1812   */\n      swap1\n      pop\n        /* \"#utility.yul\":1687:1819   */\n      swap2\n      swap1\n      pop\n      jump\t// out\n        /* \"#utility.yul\":1825:1933   */\n    tag_352:\n        /* \"#utility.yul\":1902:1926   */\n      tag_464\n        /* \"#utility.yul\":1920:1925   */\n      dup2\n        /* \"#utility.yul\":1902:1926   */\n      tag_345\n      jump\t// in\n    tag_464:\n        /* \"#utility.yul\":1897:1900   */\n      dup3\n        /* \"#utility.yul\":1890:1927   */\n      mstore\n        /* \"#utility.yul\":1825:1933   */\n      pop\n      pop\n      jump\t// out\n        /* \"#utility.yul\":1939:2118   */\n    tag_353:\n        /* \"#utility.yul\":2008:2018   */\n      0x00\n        /* \"#utility.yul\":2029:2075   */\n      tag_466\n        /* \"#utility.yul\":2071:2074   */\n      dup4\n        /* \"#utility.yul\":2063:2069   */\n      dup4\n        /* \"#utility.yul\":2029:2075   */\n      tag_352\n      jump\t// in\n    tag_466:\n        /* \"#utility.yul\":2107:2111   */\n      0x20\n        /* \"#utility.yul\":2102:2105   */\n      dup4\n        /* \"#utility.yul\":2098:2112   */\n      add\n        /* \"#utility.yul\":2084:2112   */\n      swap1\n      pop\n        /* \"#utility.yul\":1939:2118   */\n      swap3\n      swap2\n      pop\n      pop\n      jump\t// out\n        /* \"#utility.yul\":2124:2237   */\n    tag_354:\n        /* \"#utility.yul\":2194:2198   */\n      0x00\n        /* \"#utility.yul\":2226:2230   */\n      0x20\n        /* \"#utility.yul\":2221:2224   */\n      dup3\n        /* \"#utility.yul\":2217:2231   */\n      add\n        /* \"#utility.yul\":2209:2231   */\n      swap1\n      pop\n        /* \"#utility.yul\":2124:2237   */\n      swap2\n      swap1\n      pop\n      jump\t// out\n        /* \"#utility.yul\":2273:3005   */\n    tag_355:\n        /* \"#utility.yul\":2392:2395   */\n      0x00\n        /* \"#utility.yul\":2421:2475   */\n      tag_469\n        /* \"#utility.yul\":2469:2474   */\n      dup3\n        /* \"#utility.yul\":2421:2475   */\n      tag_349\n      jump\t// in\n    tag_469:\n        /* \"#utility.yul\":2491:2577   */\n      tag_470\n        /* \"#utility.yul\":2570:2576   */\n      dup2\n        /* \"#utility.yul\":2565:2568   */\n      dup6\n        /* \"#utility.yul\":2491:2577   */\n      tag_350\n      jump\t// in\n    tag_470:\n        /* \"#utility.yul\":2484:2577   */\n      swap4\n      pop\n        /* \"#utility.yul\":2601:2657   */\n      tag_471\n        /* \"#utility.yul\":2651:2656   */\n      dup4\n        /* \"#utility.yul\":2601:2657   */\n      tag_351\n      jump\t// in\n    tag_471:\n        /* \"#utility.yul\":2680:2687   */\n      dup1\n        /* \"#utility.yul\":2711:2712   */\n      0x00\n        /* \"#utility.yul\":2696:2980   */\n    tag_472:\n        /* \"#utility.yul\":2721:2727   */\n      dup4\n        /* \"#utility.yul\":2718:2719   */\n      dup2\n        /* \"#utility.yul\":2715:2728   */\n      lt\n        /* \"#utility.yul\":2696:2980   */\n      iszero\n      tag_474\n      jumpi\n        /* \"#utility.yul\":2797:2803   */\n      dup2\n        /* \"#utility.yul\":2791:2804   */\n      mload\n        /* \"#utility.yul\":2824:2887   */\n      tag_475\n        /* \"#utility.yul\":2883:2886   */\n      dup9\n        /* \"#utility.yul\":2868:2881   */\n      dup3\n        /* \"#utility.yul\":2824:2887   */\n      tag_353\n      jump\t// in\n    tag_475:\n        /* \"#utility.yul\":2817:2887   */\n      swap8\n      pop\n        /* \"#utility.yul\":2910:2970   */\n      tag_476\n        /* \"#utility.yul\":2963:2969   */\n      dup4\n        /* \"#utility.yul\":2910:2970   */\n      tag_354\n      jump\t// in\n    tag_476:\n        /* \"#utility.yul\":2900:2970   */\n      swap3\n      pop\n        /* \"#utility.yul\":2756:2980   */\n      pop\n        /* \"#utility.yul\":2743:2744   */\n      0x01\n        /* \"#utility.yul\":2740:2741   */\n      dup2\n        /* \"#utility.yul\":2736:2745   */\n      add\n        /* \"#utility.yul\":2731:2745   */\n      swap1\n      pop\n        /* \"#utility.yul\":2696:2980   */\n      jump(tag_472)\n    tag_474:\n        /* \"#utility.yul\":2700:2714   */\n      pop\n        /* \"#utility.yul\":2996:2999   */\n      dup6\n        /* \"#utility.yul\":2989:2999   */\n      swap4\n      pop\n        /* \"#utility.yul\":2397:3005   */\n      pop\n      pop\n      pop\n        /* \"#utility.yul\":2273:3005   */\n      swap3\n      swap2\n      pop\n      pop\n      jump\t// out\n        /* \"#utility.yul\":3011:3135   */\n    tag_356:\n        /* \"#utility.yul\":3088:3094   */\n      0x00\n        /* \"#utility.yul\":3122:3127   */\n      dup2\n        /* \"#utility.yul\":3116:3128   */\n      mload\n        /* \"#utility.yul\":3106:3128   */\n      swap1\n      pop\n        /* \"#utility.yul\":3011:3135   */\n      swap2\n      swap1\n      pop\n      jump\t// out\n        /* \"#utility.yul\":3141:3335   */\n    tag_357:\n        /* \"#utility.yul\":3250:3261   */\n      0x00\n        /* \"#utility.yul\":3284:3290   */\n      dup3\n        /* \"#utility.yul\":3279:3282   */\n      dup3\n        /* \"#utility.yul\":3272:3291   */\n      mstore\n        /* \"#utility.yul\":3324:3328   */\n      0x20\n        /* \"#utility.yul\":3319:3322   */\n      dup3\n        /* \"#utility.yul\":3315:3329   */\n      add\n        /* \"#utility.yul\":3300:3329   */\n      swap1\n      pop\n        /* \"#utility.yul\":3141:3335   */\n      swap3\n      swap2\n      pop\n      pop\n      jump\t// out\n        /* \"#utility.yul\":3341:3483   */\n    tag_358:\n        /* \"#utility.yul\":3418:3422   */\n      0x00\n        /* \"#utility.yul\":3441:3444   */\n      dup2\n        /* \"#utility.yul\":3433:3444   */\n      swap1\n      pop\n        /* \"#utility.yul\":3471:3475   */\n      0x20\n        /* \"#utility.yul\":3466:3469   */\n      dup3\n        /* \"#utility.yul\":3462:3476   */\n      add\n        /* \"#utility.yul\":3454:3476   */\n      swap1\n      pop\n        /* \"#utility.yul\":3341:3483   */\n      swap2\n      swap1\n      pop\n      jump\t// out\n        /* \"#utility.yul\":3489:3588   */\n    tag_359:\n        /* \"#utility.yul\":3541:3547   */\n      0x00\n        /* \"#utility.yul\":3575:3580   */\n      dup2\n        /* \"#utility.yul\":3569:3581   */\n      mload\n        /* \"#utility.yul\":3559:3581   */\n      swap1\n      pop\n        /* \"#utility.yul\":3489:3588   */\n      swap2\n      swap1\n      pop\n      jump\t// out\n        /* \"#utility.yul\":3594:3753   */\n    tag_360:\n        /* \"#utility.yul\":3668:3679   */\n      0x00\n        /* \"#utility.yul\":3702:3708   */\n      dup3\n        /* \"#utility.yul\":3697:3700   */\n      dup3\n        /* \"#utility.yul\":3690:3709   */\n      mstore\n        /* \"#utility.yul\":3742:3746   */\n      0x20\n        /* \"#utility.yul\":3737:3740   */\n      dup3\n        /* \"#utility.yul\":3733:3747   */\n      add\n        /* \"#utility.yul\":3718:3747   */\n      swap1\n      pop\n        /* \"#utility.yul\":3594:3753   */\n      swap3\n      swap2\n      pop\n      pop\n      jump\t// out\n        /* \"#utility.yul\":3759:3898   */\n    tag_361:\n        /* \"#utility.yul\":3848:3854   */\n      dup3\n        /* \"#utility.yul\":3843:3846   */\n      dup2\n        /* \"#utility.yul\":3838:3841   */\n      dup4\n        /* \"#utility.yul\":3832:3855   */\n      mcopy\n        /* \"#utility.yul\":3889:3890   */\n      0x00\n        /* \"#utility.yul\":3880:3886   */\n      dup4\n        /* \"#utility.yul\":3875:3878   */\n      dup4\n        /* \"#utility.yul\":3871:3887   */\n      add\n        /* \"#utility.yul\":3864:3891   */\n      mstore\n        /* \"#utility.yul\":3759:3898   */\n      pop\n      pop\n      pop\n      jump\t// out\n        /* \"#utility.yul\":3904:4006   */\n    tag_362:\n        /* \"#utility.yul\":3945:3951   */\n      0x00\n        /* \"#utility.yul\":3996:3998   */\n      0x1f\n        /* \"#utility.yul\":3992:3999   */\n      not\n        /* \"#utility.yul\":3987:3989   */\n      0x1f\n        /* \"#utility.yul\":3980:3985   */\n      dup4\n        /* \"#utility.yul\":3976:3990   */\n      add\n        /* \"#utility.yul\":3972:4000   */\n      and\n        /* \"#utility.yul\":3962:4000   */\n      swap1\n      pop\n        /* \"#utility.yul\":3904:4006   */\n      swap2\n      swap1\n      pop\n      jump\t// out\n        /* \"#utility.yul\":4012:4369   */\n    tag_363:\n        /* \"#utility.yul\":4090:4093   */\n      0x00\n        /* \"#utility.yul\":4118:4157   */\n      tag_485\n        /* \"#utility.yul\":4151:4156   */\n      dup3\n        /* \"#utility.yul\":4118:4157   */\n      tag_359\n      jump\t// in\n    tag_485:\n        /* \"#utility.yul\":4173:4234   */\n      tag_486\n        /* \"#utility.yul\":4227:4233   */\n      dup2\n        /* \"#utility.yul\":4222:4225   */\n      dup6\n        /* \"#utility.yul\":4173:4234   */\n      tag_360\n      jump\t// in\n    tag_486:\n        /* \"#utility.yul\":4166:4234   */\n      swap4\n      pop\n        /* \"#utility.yul\":4243:4308   */\n      tag_487\n        /* \"#utility.yul\":4301:4307   */\n      dup2\n        /* \"#utility.yul\":4296:4299   */\n      dup6\n        /* \"#utility.yul\":4289:4293   */\n      0x20\n        /* \"#utility.yul\":4282:4287   */\n      dup7\n        /* \"#utility.yul\":4278:4294   */\n      add\n        /* \"#utility.yul\":4243:4308   */\n      tag_361\n      jump\t// in\n    tag_487:\n        /* \"#utility.yul\":4333:4362   */\n      tag_488\n        /* \"#utility.yul\":4355:4361   */\n      dup2\n        /* \"#utility.yul\":4333:4362   */\n      tag_362\n      jump\t// in\n    tag_488:\n        /* \"#utility.yul\":4328:4331   */\n      dup5\n        /* \"#utility.yul\":4324:4363   */\n      add\n        /* \"#utility.yul\":4317:4363   */\n      swap2\n      pop\n        /* \"#utility.yul\":4094:4369   */\n      pop\n        /* \"#utility.yul\":4012:4369   */\n      swap3\n      swap2\n      pop\n      pop\n      jump\t// out\n        /* \"#utility.yul\":4375:4571   */\n    tag_364:\n        /* \"#utility.yul\":4464:4474   */\n      0x00\n        /* \"#utility.yul\":4499:4565   */\n      tag_490\n        /* \"#utility.yul\":4561:4564   */\n      dup4\n        /* \"#utility.yul\":4553:4559   */\n      dup4\n        /* \"#utility.yul\":4499:4565   */\n      tag_363\n      jump\t// in\n    tag_490:\n        /* \"#utility.yul\":4485:4565   */\n      swap1\n      pop\n        /* \"#utility.yul\":4375:4571   */\n      swap3\n      swap2\n      pop\n      pop\n      jump\t// out\n        /* \"#utility.yul\":4577:4700   */\n    tag_365:\n        /* \"#utility.yul\":4657:4661   */\n      0x00\n        /* \"#utility.yul\":4689:4693   */\n      0x20\n        /* \"#utility.yul\":4684:4687   */\n      dup3\n        /* \"#utility.yul\":4680:4694   */\n      add\n        /* \"#utility.yul\":4672:4694   */\n      swap1\n      pop\n        /* \"#utility.yul\":4577:4700   */\n      swap2\n      swap1\n      pop\n      jump\t// out\n        /* \"#utility.yul\":4734:5725   */\n    tag_366:\n        /* \"#utility.yul\":4873:4876   */\n      0x00\n        /* \"#utility.yul\":4902:4966   */\n      tag_493\n        /* \"#utility.yul\":4960:4965   */\n      dup3\n        /* \"#utility.yul\":4902:4966   */\n      tag_356\n      jump\t// in\n    tag_493:\n        /* \"#utility.yul\":4982:5078   */\n      tag_494\n        /* \"#utility.yul\":5071:5077   */\n      dup2\n        /* \"#utility.yul\":5066:5069   */\n      dup6\n        /* \"#utility.yul\":4982:5078   */\n      tag_357\n      jump\t// in\n    tag_494:\n        /* \"#utility.yul\":4975:5078   */\n      swap4\n      pop\n        /* \"#utility.yul\":5104:5107   */\n      dup4\n        /* \"#utility.yul\":5149:5153   */\n      0x20\n        /* \"#utility.yul\":5141:5147   */\n      dup3\n        /* \"#utility.yul\":5137:5154   */\n      mul\n        /* \"#utility.yul\":5132:5135   */\n      dup6\n        /* \"#utility.yul\":5128:5155   */\n      add\n        /* \"#utility.yul\":5179:5245   */\n      tag_495\n        /* \"#utility.yul\":5239:5244   */\n      dup6\n        /* \"#utility.yul\":5179:5245   */\n      tag_358\n      jump\t// in\n    tag_495:\n        /* \"#utility.yul\":5268:5275   */\n      dup1\n        /* \"#utility.yul\":5299:5300   */\n      0x00\n        /* \"#utility.yul\":5284:5680   */\n    tag_496:\n        /* \"#utility.yul\":5309:5315   */\n      dup6\n        /* \"#utility.yul\":5306:5307   */\n      dup2\n        /* \"#utility.yul\":5303:5316   */\n      lt\n        /* \"#utility.yul\":5284:5680   */\n      iszero\n      tag_498\n      jumpi\n        /* \"#utility.yul\":5380:5389   */\n      dup5\n        /* \"#utility.yul\":5374:5378   */\n      dup5\n        /* \"#utility.yul\":5370:5390   */\n      sub\n        /* \"#utility.yul\":5365:5368   */\n      dup10\n        /* \"#utility.yul\":5358:5391   */\n      mstore\n        /* \"#utility.yul\":5431:5437   */\n      dup2\n        /* \"#utility.yul\":5425:5438   */\n      mload\n        /* \"#utility.yul\":5459:5543   */\n      tag_499\n        /* \"#utility.yul\":5538:5542   */\n      dup6\n        /* \"#utility.yul\":5523:5536   */\n      dup3\n        /* \"#utility.yul\":5459:5543   */\n      tag_364\n      jump\t// in\n    tag_499:\n        /* \"#utility.yul\":5451:5543   */\n      swap5\n      pop\n        /* \"#utility.yul\":5566:5636   */\n      tag_500\n        /* \"#utility.yul\":5629:5635   */\n      dup4\n        /* \"#utility.yul\":5566:5636   */\n      tag_365\n      jump\t// in\n    tag_500:\n        /* \"#utility.yul\":5556:5636   */\n      swap3\n      pop\n        /* \"#utility.yul\":5665:5669   */\n      0x20\n        /* \"#utility.yul\":5660:5663   */\n      dup11\n        /* \"#utility.yul\":5656:5670   */\n      add\n        /* \"#utility.yul\":5649:5670   */\n      swap10\n      pop\n        /* \"#utility.yul\":5344:5680   */\n      pop\n        /* \"#utility.yul\":5331:5332   */\n      0x01\n        /* \"#utility.yul\":5328:5329   */\n      dup2\n        /* \"#utility.yul\":5324:5333   */\n      add\n        /* \"#utility.yul\":5319:5333   */\n      swap1\n      pop\n        /* \"#utility.yul\":5284:5680   */\n      jump(tag_496)\n    tag_498:\n        /* \"#utility.yul\":5288:5302   */\n      pop\n        /* \"#utility.yul\":5696:5700   */\n      dup3\n        /* \"#utility.yul\":5689:5700   */\n      swap8\n      pop\n        /* \"#utility.yul\":5716:5719   */\n      dup8\n        /* \"#utility.yul\":5709:5719   */\n      swap6\n      pop\n        /* \"#utility.yul\":4878:5725   */\n      pop\n      pop\n      pop\n      pop\n      pop\n        /* \"#utility.yul\":4734:5725   */\n      swap3\n      swap2\n      pop\n      pop\n      jump\t// out\n        /* \"#utility.yul\":5731:5845   */\n    tag_367:\n        /* \"#utility.yul\":5798:5804   */\n      0x00\n        /* \"#utility.yul\":5832:5837   */\n      dup2\n        /* \"#utility.yul\":5826:5838   */\n      mload\n        /* \"#utility.yul\":5816:5838   */\n      swap1\n      pop\n        /* \"#utility.yul\":5731:5845   */\n      swap2\n      swap1\n      pop\n      jump\t// out\n        /* \"#utility.yul\":5851:6035   */\n    tag_368:\n        /* \"#utility.yul\":5950:5961   */\n      0x00\n        /* \"#utility.yul\":5984:5990   */\n      dup3\n        /* \"#utility.yul\":5979:5982   */\n      dup3\n        /* \"#utility.yul\":5972:5991   */\n      mstore\n        /* \"#utility.yul\":6024:6028   */\n      0x20\n        /* \"#utility.yul\":6019:6022   */\n      dup3\n        /* \"#utility.yul\":6015:6029   */\n      add\n        /* \"#utility.yul\":6000:6029   */\n      swap1\n      pop\n        /* \"#utility.yul\":5851:6035   */\n      swap3\n      swap2\n      pop\n      pop\n      jump\t// out\n        /* \"#utility.yul\":6041:6173   */\n    tag_369:\n        /* \"#utility.yul\":6108:6112   */\n      0x00\n        /* \"#utility.yul\":6131:6134   */\n      dup2\n        /* \"#utility.yul\":6123:6134   */\n      swap1\n      pop\n        /* \"#utility.yul\":6161:6165   */\n      0x20\n        /* \"#utility.yul\":6156:6159   */\n      dup3\n        /* \"#utility.yul\":6152:6166   */\n      add\n        /* \"#utility.yul\":6144:6166   */\n      swap1\n      pop\n        /* \"#utility.yul\":6041:6173   */\n      swap2\n      swap1\n      pop\n      jump\t// out\n        /* \"#utility.yul\":6179:6305   */\n    tag_370:\n        /* \"#utility.yul\":6216:6223   */\n      0x00\n        /* \"#utility.yul\":6256:6298   */\n      0xffffffffffffffffffffffffffffffffffffffff\n        /* \"#utility.yul\":6249:6254   */\n      dup3\n        /* \"#utility.yul\":6245:6299   */\n      and\n        /* \"#utility.yul\":6234:6299   */\n      swap1\n      pop\n        /* \"#utility.yul\":6179:6305   */\n      swap2\n      swap1\n      pop\n      jump\t// out\n        /* \"#utility.yul\":6311:6407   */\n    tag_371:\n        /* \"#utility.yul\":6348:6355   */\n      0x00\n        /* \"#utility.yul\":6377:6401   */\n      tag_506\n        /* \"#utility.yul\":6395:6400   */\n      dup3\n        /* \"#utility.yul\":6377:6401   */\n      tag_370\n      jump\t// in\n    tag_506:\n        /* \"#utility.yul\":6366:6401   */\n      swap1\n      pop\n        /* \"#utility.yul\":6311:6407   */\n      swap2\n      swap1\n      pop\n      jump\t// out\n        /* \"#utility.yul\":6413:6521   */\n    tag_372:\n        /* \"#utility.yul\":6490:6514   */\n      tag_508\n        /* \"#utility.yul\":6508:6513   */\n      dup2\n        /* \"#utility.yul\":6490:6514   */\n      tag_371\n      jump\t// in\n    tag_508:\n        /* \"#utility.yul\":6485:6488   */\n      dup3\n        /* \"#utility.yul\":6478:6515   */\n      mstore\n        /* \"#utility.yul\":6413:6521   */\n      pop\n      pop\n      jump\t// out\n        /* \"#utility.yul\":6527:6706   */\n    tag_373:\n        /* \"#utility.yul\":6596:6606   */\n      0x00\n        /* \"#utility.yul\":6617:6663   */\n      tag_510\n        /* \"#utility.yul\":6659:6662   */\n      dup4\n        /* \"#utility.yul\":6651:6657   */\n      dup4\n        /* \"#utility.yul\":6617:6663   */\n      tag_372\n      jump\t// in\n    tag_510:\n        /* \"#utility.yul\":6695:6699   */\n      0x20\n        /* \"#utility.yul\":6690:6693   */\n      dup4\n        /* \"#utility.yul\":6686:6700   */\n      add\n        /* \"#utility.yul\":6672:6700   */\n      swap1\n      pop\n        /* \"#utility.yul\":6527:6706   */\n      swap3\n      swap2\n      pop\n      pop\n      jump\t// out\n        /* \"#utility.yul\":6712:6825   */\n    tag_374:\n        /* \"#utility.yul\":6782:6786   */\n      0x00\n        /* \"#utility.yul\":6814:6818   */\n      0x20\n        /* \"#utility.yul\":6809:6812   */\n      dup3\n        /* \"#utility.yul\":6805:6819   */\n      add\n        /* \"#utility.yul\":6797:6819   */\n      swap1\n      pop\n        /* \"#utility.yul\":6712:6825   */\n      swap2\n      swap1\n      pop\n      jump\t// out\n        /* \"#utility.yul\":6861:7593   */\n    tag_375:\n        /* \"#utility.yul\":6980:6983   */\n      0x00\n        /* \"#utility.yul\":7009:7063   */\n      tag_513\n        /* \"#utility.yul\":7057:7062   */\n      dup3\n        /* \"#utility.yul\":7009:7063   */\n      tag_367\n      jump\t// in\n    tag_513:\n        /* \"#utility.yul\":7079:7165   */\n      tag_514\n        /* \"#utility.yul\":7158:7164   */\n      dup2\n        /* \"#utility.yul\":7153:7156   */\n      dup6\n        /* \"#utility.yul\":7079:7165   */\n      tag_368\n      jump\t// in\n    tag_514:\n        /* \"#utility.yul\":7072:7165   */\n      swap4\n      pop\n        /* \"#utility.yul\":7189:7245   */\n      tag_515\n        /* \"#utility.yul\":7239:7244   */\n      dup4\n        /* \"#utility.yul\":7189:7245   */\n      tag_369\n      jump\t// in\n    tag_515:\n        /* \"#utility.yul\":7268:7275   */\n      dup1\n        /* \"#utility.yul\":7299:7300   */\n      0x00\n        /* \"#utility.yul\":7284:7568   */\n    tag_516:\n        /* \"#utility.yul\":7309:7315   */\n      dup4\n        /* \"#utility.yul\":7306:7307   */\n      dup2\n        /* \"#utility.yul\":7303:7316   */\n      lt\n        /* \"#utility.yul\":7284:7568   */\n      iszero\n      tag_518\n      jumpi\n        /* \"#utility.yul\":7385:7391   */\n      dup2\n        /* \"#utility.yul\":7379:7392   */\n      mload\n        /* \"#utility.yul\":7412:7475   */\n      tag_519\n        /* \"#utility.yul\":7471:7474   */\n      dup9\n        /* \"#utility.yul\":7456:7469   */\n      dup3\n        /* \"#utility.yul\":7412:7475   */\n      tag_373\n      jump\t// in\n    tag_519:\n        /* \"#utility.yul\":7405:7475   */\n      swap8\n      pop\n        /* \"#utility.yul\":7498:7558   */\n      tag_520\n        /* \"#utility.yul\":7551:7557   */\n      dup4\n        /* \"#utility.yul\":7498:7558   */\n      tag_374\n      jump\t// in\n    tag_520:\n        /* \"#utility.yul\":7488:7558   */\n      swap3\n      pop\n        /* \"#utility.yul\":7344:7568   */\n      pop\n        /* \"#utility.yul\":7331:7332   */\n      0x01\n        /* \"#utility.yul\":7328:7329   */\n      dup2\n        /* \"#utility.yul\":7324:7333   */\n      add\n        /* \"#utility.yul\":7319:7333   */\n      swap1\n      pop\n        /* \"#utility.yul\":7284:7568   */\n      jump(tag_516)\n    tag_518:\n        /* \"#utility.yul\":7288:7302   */\n      pop\n        /* \"#utility.yul\":7584:7587   */\n      dup6\n        /* \"#utility.yul\":7577:7587   */\n      swap4\n      pop\n        /* \"#utility.yul\":6985:7593   */\n      pop\n      pop\n      pop\n        /* \"#utility.yul\":6861:7593   */\n      swap3\n      swap2\n      pop\n      pop\n      jump\t// out\n        /* \"#utility.yul\":7599:7710   */\n    tag_376:\n        /* \"#utility.yul\":7663:7669   */\n      0x00\n        /* \"#utility.yul\":7697:7702   */\n      dup2\n        /* \"#utility.yul\":7691:7703   */\n      mload\n        /* \"#utility.yul\":7681:7703   */\n      swap1\n      pop\n        /* \"#utility.yul\":7599:7710   */\n      swap2\n      swap1\n      pop\n      jump\t// out\n        /* \"#utility.yul\":7716:7897   */\n    tag_377:\n        /* \"#utility.yul\":7812:7823   */\n      0x00\n        /* \"#utility.yul\":7846:7852   */\n      dup3\n        /* \"#utility.yul\":7841:7844   */\n      dup3\n        /* \"#utility.yul\":7834:7853   */\n      mstore\n        /* \"#utility.yul\":7886:7890   */\n      0x20\n        /* \"#utility.yul\":7881:7884   */\n      dup3\n        /* \"#utility.yul\":7877:7891   */\n      add\n        /* \"#utility.yul\":7862:7891   */\n      swap1\n      pop\n        /* \"#utility.yul\":7716:7897   */\n      swap3\n      swap2\n      pop\n      pop\n      jump\t// out\n        /* \"#utility.yul\":7903:8032   */\n    tag_378:\n        /* \"#utility.yul\":7967:7971   */\n      0x00\n        /* \"#utility.yul\":7990:7993   */\n      dup2\n        /* \"#utility.yul\":7982:7993   */\n      swap1\n      pop\n        /* \"#utility.yul\":8020:8024   */\n      0x20\n        /* \"#utility.yul\":8015:8018   */\n      dup3\n        /* \"#utility.yul\":8011:8025   */\n      add\n        /* \"#utility.yul\":8003:8025   */\n      swap1\n      pop\n        /* \"#utility.yul\":7903:8032   */\n      swap2\n      swap1\n      pop\n      jump\t// out\n        /* \"#utility.yul\":8038:8128   */\n    tag_379:\n        /* \"#utility.yul\":8072:8079   */\n      0x00\n        /* \"#utility.yul\":8115:8120   */\n      dup2\n        /* \"#utility.yul\":8108:8121   */\n      iszero\n        /* \"#utility.yul\":8101:8122   */\n      iszero\n        /* \"#utility.yul\":8090:8122   */\n      swap1\n      pop\n        /* \"#utility.yul\":8038:8128   */\n      swap2\n      swap1\n      pop\n      jump\t// out\n        /* \"#utility.yul\":8134:8233   */\n    tag_380:\n        /* \"#utility.yul\":8205:8226   */\n      tag_526\n        /* \"#utility.yul\":8220:8225   */\n      dup2\n        /* \"#utility.yul\":8205:8226   */\n      tag_379\n      jump\t// in\n    tag_526:\n        /* \"#utility.yul\":8200:8203   */\n      dup3\n        /* \"#utility.yul\":8193:8227   */\n      mstore\n        /* \"#utility.yul\":8134:8233   */\n      pop\n      pop\n      jump\t// out\n        /* \"#utility.yul\":8239:8406   */\n    tag_381:\n        /* \"#utility.yul\":8302:8312   */\n      0x00\n        /* \"#utility.yul\":8323:8363   */\n      tag_528\n        /* \"#utility.yul\":8359:8362   */\n      dup4\n        /* \"#utility.yul\":8351:8357   */\n      dup4\n        /* \"#utility.yul\":8323:8363   */\n      tag_380\n      jump\t// in\n    tag_528:\n        /* \"#utility.yul\":8395:8399   */\n      0x20\n        /* \"#utility.yul\":8390:8393   */\n      dup4\n        /* \"#utility.yul\":8386:8400   */\n      add\n        /* \"#utility.yul\":8372:8400   */\n      swap1\n      pop\n        /* \"#utility.yul\":8239:8406   */\n      swap3\n      swap2\n      pop\n      pop\n      jump\t// out\n        /* \"#utility.yul\":8412:8522   */\n    tag_382:\n        /* \"#utility.yul\":8479:8483   */\n      0x00\n        /* \"#utility.yul\":8511:8515   */\n      0x20\n        /* \"#utility.yul\":8506:8509   */\n      dup3\n        /* \"#utility.yul\":8502:8516   */\n      add\n        /* \"#utility.yul\":8494:8516   */\n      swap1\n      pop\n        /* \"#utility.yul\":8412:8522   */\n      swap2\n      swap1\n      pop\n      jump\t// out\n        /* \"#utility.yul\":8552:9260   */\n    tag_383:\n        /* \"#utility.yul\":8665:8668   */\n      0x00\n        /* \"#utility.yul\":8694:8745   */\n      tag_531\n        /* \"#utility.yul\":8739:8744   */\n      dup3\n        /* \"#utility.yul\":8694:8745   */\n      tag_376\n      jump\t// in\n    tag_531:\n        /* \"#utility.yul\":8761:8844   */\n      tag_532\n        /* \"#utility.yul\":8837:8843   */\n      dup2\n        /* \"#utility.yul\":8832:8835   */\n      dup6\n        /* \"#utility.yul\":8761:8844   */\n      tag_377\n      jump\t// in\n    tag_532:\n        /* \"#utility.yul\":8754:8844   */\n      swap4\n      pop\n        /* \"#utility.yul\":8868:8921   */\n      tag_533\n        /* \"#utility.yul\":8915:8920   */\n      dup4\n        /* \"#utility.yul\":8868:8921   */\n      tag_378\n      jump\t// in\n    tag_533:\n        /* \"#utility.yul\":8944:8951   */\n      dup1\n        /* \"#utility.yul\":8975:8976   */\n      0x00\n        /* \"#utility.yul\":8960:9235   */\n    tag_534:\n        /* \"#utility.yul\":8985:8991   */\n      dup4\n        /* \"#utility.yul\":8982:8983   */\n      dup2\n        /* \"#utility.yul\":8979:8992   */\n      lt\n        /* \"#utility.yul\":8960:9235   */\n      iszero\n      tag_536\n      jumpi\n        /* \"#utility.yul\":9061:9067   */\n      dup2\n        /* \"#utility.yul\":9055:9068   */\n      mload\n        /* \"#utility.yul\":9088:9145   */\n      tag_537\n        /* \"#utility.yul\":9141:9144   */\n      dup9\n        /* \"#utility.yul\":9126:9139   */\n      dup3\n        /* \"#utility.yul\":9088:9145   */\n      tag_381\n      jump\t// in\n    tag_537:\n        /* \"#utility.yul\":9081:9145   */\n      swap8\n      pop\n        /* \"#utility.yul\":9168:9225   */\n      tag_538\n        /* \"#utility.yul\":9218:9224   */\n      dup4\n        /* \"#utility.yul\":9168:9225   */\n      tag_382\n      jump\t// in\n    tag_538:\n        /* \"#utility.yul\":9158:9225   */\n      swap3\n      pop\n        /* \"#utility.yul\":9020:9235   */\n      pop\n        /* \"#utility.yul\":9007:9008   */\n      0x01\n        /* \"#utility.yul\":9004:9005   */\n      dup2\n        /* \"#utility.yul\":9000:9009   */\n      add\n        /* \"#utility.yul\":8995:9009   */\n      swap1\n      pop\n        /* \"#utility.yul\":8960:9235   */\n      jump(tag_534)\n    tag_536:\n        /* \"#utility.yul\":8964:8978   */\n      pop\n        /* \"#utility.yul\":9251:9254   */\n      dup6\n        /* \"#utility.yul\":9244:9254   */\n      swap4\n      pop\n        /* \"#utility.yul\":8670:9260   */\n      pop\n      pop\n      pop\n        /* \"#utility.yul\":8552:9260   */\n      swap3\n      swap2\n      pop\n      pop\n      jump\t// out\n        /* \"#utility.yul\":9266:11789   */\n    tag_25:\n        /* \"#utility.yul\":10061:10065   */\n      0x00\n        /* \"#utility.yul\":10099:10102   */\n      0x0120\n        /* \"#utility.yul\":10088:10097   */\n      dup3\n        /* \"#utility.yul\":10084:10103   */\n      add\n        /* \"#utility.yul\":10076:10103   */\n      swap1\n      pop\n        /* \"#utility.yul\":10149:10158   */\n      dup2\n        /* \"#utility.yul\":10143:10147   */\n      dup2\n        /* \"#utility.yul\":10139:10159   */\n      sub\n        /* \"#utility.yul\":10135:10136   */\n      0x00\n        /* \"#utility.yul\":10124:10133   */\n      dup4\n        /* \"#utility.yul\":10120:10137   */\n      add\n        /* \"#utility.yul\":10113:10160   */\n      mstore\n        /* \"#utility.yul\":10177:10285   */\n      tag_540\n        /* \"#utility.yul\":10280:10284   */\n      dup2\n        /* \"#utility.yul\":10271:10277   */\n      dup13\n        /* \"#utility.yul\":10177:10285   */\n      tag_355\n      jump\t// in\n    tag_540:\n        /* \"#utility.yul\":10169:10285   */\n      swap1\n      pop\n        /* \"#utility.yul\":10332:10341   */\n      dup2\n        /* \"#utility.yul\":10326:10330   */\n      dup2\n        /* \"#utility.yul\":10322:10342   */\n      sub\n        /* \"#utility.yul\":10317:10319   */\n      0x20\n        /* \"#utility.yul\":10306:10315   */\n      dup4\n        /* \"#utility.yul\":10302:10320   */\n      add\n        /* \"#utility.yul\":10295:10343   */\n      mstore\n        /* \"#utility.yul\":10360:10488   */\n      tag_541\n        /* \"#utility.yul\":10483:10487   */\n      dup2\n        /* \"#utility.yul\":10474:10480   */\n      dup12\n        /* \"#utility.yul\":10360:10488   */\n      tag_366\n      jump\t// in\n    tag_541:\n        /* \"#utility.yul\":10352:10488   */\n      swap1\n      pop\n        /* \"#utility.yul\":10535:10544   */\n      dup2\n        /* \"#utility.yul\":10529:10533   */\n      dup2\n        /* \"#utility.yul\":10525:10545   */\n      sub\n        /* \"#utility.yul\":10520:10522   */\n      0x40\n        /* \"#utility.yul\":10509:10518   */\n      dup4\n        /* \"#utility.yul\":10505:10523   */\n      add\n        /* \"#utility.yul\":10498:10546   */\n      mstore\n        /* \"#utility.yul\":10563:10691   */\n      tag_542\n        /* \"#utility.yul\":10686:10690   */\n      dup2\n        /* \"#utility.yul\":10677:10683   */\n      dup11\n        /* \"#utility.yul\":10563:10691   */\n      tag_366\n      jump\t// in\n    tag_542:\n        /* \"#utility.yul\":10555:10691   */\n      swap1\n      pop\n        /* \"#utility.yul\":10738:10747   */\n      dup2\n        /* \"#utility.yul\":10732:10736   */\n      dup2\n        /* \"#utility.yul\":10728:10748   */\n      sub\n        /* \"#utility.yul\":10723:10725   */\n      0x60\n        /* \"#utility.yul\":10712:10721   */\n      dup4\n        /* \"#utility.yul\":10708:10726   */\n      add\n        /* \"#utility.yul\":10701:10749   */\n      mstore\n        /* \"#utility.yul\":10766:10874   */\n      tag_543\n        /* \"#utility.yul\":10869:10873   */\n      dup2\n        /* \"#utility.yul\":10860:10866   */\n      dup10\n        /* \"#utility.yul\":10766:10874   */\n      tag_375\n      jump\t// in\n    tag_543:\n        /* \"#utility.yul\":10758:10874   */\n      swap1\n      pop\n        /* \"#utility.yul\":10922:10931   */\n      dup2\n        /* \"#utility.yul\":10916:10920   */\n      dup2\n        /* \"#utility.yul\":10912:10932   */\n      sub\n        /* \"#utility.yul\":10906:10909   */\n      0x80\n        /* \"#utility.yul\":10895:10904   */\n      dup4\n        /* \"#utility.yul\":10891:10910   */\n      add\n        /* \"#utility.yul\":10884:10933   */\n      mstore\n        /* \"#utility.yul\":10950:11058   */\n      tag_544\n        /* \"#utility.yul\":11053:11057   */\n      dup2\n        /* \"#utility.yul\":11044:11050   */\n      dup9\n        /* \"#utility.yul\":10950:11058   */\n      tag_355\n      jump\t// in\n    tag_544:\n        /* \"#utility.yul\":10942:11058   */\n      swap1\n      pop\n        /* \"#utility.yul\":11106:11115   */\n      dup2\n        /* \"#utility.yul\":11100:11104   */\n      dup2\n        /* \"#utility.yul\":11096:11116   */\n      sub\n        /* \"#utility.yul\":11090:11093   */\n      0xa0\n        /* \"#utility.yul\":11079:11088   */\n      dup4\n        /* \"#utility.yul\":11075:11094   */\n      add\n        /* \"#utility.yul\":11068:11117   */\n      mstore\n        /* \"#utility.yul\":11134:11242   */\n      tag_545\n        /* \"#utility.yul\":11237:11241   */\n      dup2\n        /* \"#utility.yul\":11228:11234   */\n      dup8\n        /* \"#utility.yul\":11134:11242   */\n      tag_355\n      jump\t// in\n    tag_545:\n        /* \"#utility.yul\":11126:11242   */\n      swap1\n      pop\n        /* \"#utility.yul\":11290:11299   */\n      dup2\n        /* \"#utility.yul\":11284:11288   */\n      dup2\n        /* \"#utility.yul\":11280:11300   */\n      sub\n        /* \"#utility.yul\":11274:11277   */\n      0xc0\n        /* \"#utility.yul\":11263:11272   */\n      dup4\n        /* \"#utility.yul\":11259:11278   */\n      add\n        /* \"#utility.yul\":11252:11301   */\n      mstore\n        /* \"#utility.yul\":11318:11426   */\n      tag_546\n        /* \"#utility.yul\":11421:11425   */\n      dup2\n        /* \"#utility.yul\":11412:11418   */\n      dup7\n        /* \"#utility.yul\":11318:11426   */\n      tag_355\n      jump\t// in\n    tag_546:\n        /* \"#utility.yul\":11310:11426   */\n      swap1\n      pop\n        /* \"#utility.yul\":11474:11483   */\n      dup2\n        /* \"#utility.yul\":11468:11472   */\n      dup2\n        /* \"#utility.yul\":11464:11484   */\n      sub\n        /* \"#utility.yul\":11458:11461   */\n      0xe0\n        /* \"#utility.yul\":11447:11456   */\n      dup4\n        /* \"#utility.yul\":11443:11462   */\n      add\n        /* \"#utility.yul\":11436:11485   */\n      mstore\n        /* \"#utility.yul\":11502:11604   */\n      tag_547\n        /* \"#utility.yul\":11599:11603   */\n      dup2\n        /* \"#utility.yul\":11590:11596   */\n      dup6\n        /* \"#utility.yul\":11502:11604   */\n      tag_383\n      jump\t// in\n    tag_547:\n        /* \"#utility.yul\":11494:11604   */\n      swap1\n      pop\n        /* \"#utility.yul\":11652:11661   */\n      dup2\n        /* \"#utility.yul\":11646:11650   */\n      dup2\n        /* \"#utility.yul\":11642:11662   */\n      sub\n        /* \"#utility.yul\":11636:11639   */\n      0x0100\n        /* \"#utility.yul\":11625:11634   */\n      dup4\n        /* \"#utility.yul\":11621:11640   */\n      add\n        /* \"#utility.yul\":11614:11663   */\n      mstore\n        /* \"#utility.yul\":11680:11782   */\n      tag_548\n        /* \"#utility.yul\":11777:11781   */\n      dup2\n        /* \"#utility.yul\":11768:11774   */\n      dup5\n        /* \"#utility.yul\":11680:11782   */\n      tag_383\n      jump\t// in\n    tag_548:\n        /* \"#utility.yul\":11672:11782   */\n      swap1\n      pop\n        /* \"#utility.yul\":9266:11789   */\n      swap11\n      swap10\n      pop\n      pop\n      pop\n      pop\n      pop\n      pop\n      pop\n      pop\n      pop\n      pop\n      jump\t// out\n        /* \"#utility.yul\":11795:11912   */\n    tag_384:\n        /* \"#utility.yul\":11904:11905   */\n      0x00\n        /* \"#utility.yul\":11901:11902   */\n      0x00\n        /* \"#utility.yul\":11894:11906   */\n      revert\n        /* \"#utility.yul\":11918:12035   */\n    tag_385:\n        /* \"#utility.yul\":12027:12028   */\n      0x00\n        /* \"#utility.yul\":12024:12025   */\n      0x00\n        /* \"#utility.yul\":12017:12029   */\n      revert\n        /* \"#utility.yul\":12041:12221   */\n    tag_90:\n        /* \"#utility.yul\":12089:12166   */\n      0x4e487b7100000000000000000000000000000000000000000000000000000000\n        /* \"#utility.yul\":12086:12087   */\n      0x00\n        /* \"#utility.yul\":12079:12167   */\n      mstore\n        /* \"#utility.yul\":12186:12190   */\n      0x41\n        /* \"#utility.yul\":12183:12184   */\n      0x04\n        /* \"#utility.yul\":12176:12191   */\n      mstore\n        /* \"#utility.yul\":12210:12214   */\n      0x24\n        /* \"#utility.yul\":12207:12208   */\n      0x00\n        /* \"#utility.yul\":12200:12215   */\n      revert\n        /* \"#utility.yul\":12227:12508   */\n    tag_386:\n        /* \"#utility.yul\":12310:12337   */\n      tag_553\n        /* \"#utility.yul\":12332:12336   */\n      dup3\n        /* \"#utility.yul\":12310:12337   */\n      tag_362\n      jump\t// in\n    tag_553:\n        /* \"#utility.yul\":12302:12308   */\n      dup2\n        /* \"#utility.yul\":12298:12338   */\n      add\n        /* \"#utility.yul\":12440:12446   */\n      dup2\n        /* \"#utility.yul\":12428:12438   */\n      dup2\n        /* \"#utility.yul\":12425:12447   */\n      lt\n        /* \"#utility.yul\":12404:12422   */\n      0xffffffffffffffff\n        /* \"#utility.yul\":12392:12402   */\n      dup3\n        /* \"#utility.yul\":12389:12423   */\n      gt\n        /* \"#utility.yul\":12386:12448   */\n      or\n        /* \"#utility.yul\":12383:12471   */\n      iszero\n      tag_554\n      jumpi\n        /* \"#utility.yul\":12451:12469   */\n      tag_555\n      tag_90\n      jump\t// in\n    tag_555:\n        /* \"#utility.yul\":12383:12471   */\n    tag_554:\n        /* \"#utility.yul\":12491:12501   */\n      dup1\n        /* \"#utility.yul\":12487:12489   */\n      0x40\n        /* \"#utility.yul\":12480:12502   */\n      mstore\n        /* \"#utility.yul\":12270:12508   */\n      pop\n        /* \"#utility.yul\":12227:12508   */\n      pop\n      pop\n      jump\t// out\n        /* \"#utility.yul\":12514:12643   */\n    tag_387:\n        /* \"#utility.yul\":12548:12554   */\n      0x00\n        /* \"#utility.yul\":12575:12595   */\n      tag_557\n      tag_342\n      jump\t// in\n    tag_557:\n        /* \"#utility.yul\":12565:12595   */\n      swap1\n      pop\n        /* \"#utility.yul\":12604:12637   */\n      tag_558\n        /* \"#utility.yul\":12632:12636   */\n      dup3\n        /* \"#utility.yul\":12624:12630   */\n      dup3\n        /* \"#utility.yul\":12604:12637   */\n      tag_386\n      jump\t// in\n    tag_558:\n        /* \"#utility.yul\":12514:12643   */\n      swap2\n      swap1\n      pop\n      jump\t// out\n        /* \"#utility.yul\":12649:12957   */\n    tag_388:\n        /* \"#utility.yul\":12711:12715   */\n      0x00\n        /* \"#utility.yul\":12801:12819   */\n      0xffffffffffffffff\n        /* \"#utility.yul\":12793:12799   */\n      dup3\n        /* \"#utility.yul\":12790:12820   */\n      gt\n        /* \"#utility.yul\":12787:12843   */\n      iszero\n      tag_560\n      jumpi\n        /* \"#utility.yul\":12823:12841   */\n      tag_561\n      tag_90\n      jump\t// in\n    tag_561:\n        /* \"#utility.yul\":12787:12843   */\n    tag_560:\n        /* \"#utility.yul\":12861:12890   */\n      tag_562\n        /* \"#utility.yul\":12883:12889   */\n      dup3\n        /* \"#utility.yul\":12861:12890   */\n      tag_362\n      jump\t// in\n    tag_562:\n        /* \"#utility.yul\":12853:12890   */\n      swap1\n      pop\n        /* \"#utility.yul\":12945:12949   */\n      0x20\n        /* \"#utility.yul\":12939:12943   */\n      dup2\n        /* \"#utility.yul\":12935:12950   */\n      add\n        /* \"#utility.yul\":12927:12950   */\n      swap1\n      pop\n        /* \"#utility.yul\":12649:12957   */\n      swap2\n      swap1\n      pop\n      jump\t// out\n        /* \"#utility.yul\":12963:13111   */\n    tag_389:\n        /* \"#utility.yul\":13061:13067   */\n      dup3\n        /* \"#utility.yul\":13056:13059   */\n      dup2\n        /* \"#utility.yul\":13051:13054   */\n      dup4\n        /* \"#utility.yul\":13038:13068   */\n      calldatacopy\n        /* \"#utility.yul\":13102:13103   */\n      0x00\n        /* \"#utility.yul\":13093:13099   */\n      dup4\n        /* \"#utility.yul\":13088:13091   */\n      dup4\n        /* \"#utility.yul\":13084:13100   */\n      add\n        /* \"#utility.yul\":13077:13104   */\n      mstore\n        /* \"#utility.yul\":12963:13111   */\n      pop\n      pop\n      pop\n      jump\t// out\n        /* \"#utility.yul\":13117:13542   */\n    tag_390:\n        /* \"#utility.yul\":13195:13200   */\n      0x00\n        /* \"#utility.yul\":13220:13286   */\n      tag_565\n        /* \"#utility.yul\":13236:13285   */\n      tag_566\n        /* \"#utility.yul\":13278:13284   */\n      dup5\n        /* \"#utility.yul\":13236:13285   */\n      tag_388\n      jump\t// in\n    tag_566:\n        /* \"#utility.yul\":13220:13286   */\n      tag_387\n      jump\t// in\n    tag_565:\n        /* \"#utility.yul\":13211:13286   */\n      swap1\n      pop\n        /* \"#utility.yul\":13309:13315   */\n      dup3\n        /* \"#utility.yul\":13302:13307   */\n      dup2\n        /* \"#utility.yul\":13295:13316   */\n      mstore\n        /* \"#utility.yul\":13347:13351   */\n      0x20\n        /* \"#utility.yul\":13340:13345   */\n      dup2\n        /* \"#utility.yul\":13336:13352   */\n      add\n        /* \"#utility.yul\":13385:13388   */\n      dup5\n        /* \"#utility.yul\":13376:13382   */\n      dup5\n        /* \"#utility.yul\":13371:13374   */\n      dup5\n        /* \"#utility.yul\":13367:13383   */\n      add\n        /* \"#utility.yul\":13364:13389   */\n      gt\n        /* \"#utility.yul\":13361:13473   */\n      iszero\n      tag_567\n      jumpi\n        /* \"#utility.yul\":13392:13471   */\n      tag_568\n      tag_385\n      jump\t// in\n    tag_568:\n        /* \"#utility.yul\":13361:13473   */\n    tag_567:\n        /* \"#utility.yul\":13482:13536   */\n      tag_569\n        /* \"#utility.yul\":13529:13535   */\n      dup5\n        /* \"#utility.yul\":13524:13527   */\n      dup3\n        /* \"#utility.yul\":13519:13522   */\n      dup6\n        /* \"#utility.yul\":13482:13536   */\n      tag_389\n      jump\t// in\n    tag_569:\n        /* \"#utility.yul\":13201:13542   */\n      pop\n        /* \"#utility.yul\":13117:13542   */\n      swap4\n      swap3\n      pop\n      pop\n      pop\n      jump\t// out\n        /* \"#utility.yul\":13562:13902   */\n    tag_391:\n        /* \"#utility.yul\":13618:13623   */\n      0x00\n        /* \"#utility.yul\":13667:13670   */\n      dup3\n        /* \"#utility.yul\":13660:13664   */\n      0x1f\n        /* \"#utility.yul\":13652:13658   */\n      dup4\n        /* \"#utility.yul\":13648:13665   */\n      add\n        /* \"#utility.yul\":13644:13671   */\n      slt\n        /* \"#utility.yul\":13634:13756   */\n      tag_571\n      jumpi\n        /* \"#utility.yul\":13675:13754   */\n      tag_572\n      tag_384\n      jump\t// in\n    tag_572:\n        /* \"#utility.yul\":13634:13756   */\n    tag_571:\n        /* \"#utility.yul\":13792:13798   */\n      dup2\n        /* \"#utility.yul\":13779:13799   */\n      calldataload\n        /* \"#utility.yul\":13817:13896   */\n      tag_573\n        /* \"#utility.yul\":13892:13895   */\n      dup5\n        /* \"#utility.yul\":13884:13890   */\n      dup3\n        /* \"#utility.yul\":13877:13881   */\n      0x20\n        /* \"#utility.yul\":13869:13875   */\n      dup7\n        /* \"#utility.yul\":13865:13882   */\n      add\n        /* \"#utility.yul\":13817:13896   */\n      tag_390\n      jump\t// in\n    tag_573:\n        /* \"#utility.yul\":13808:13896   */\n      swap2\n      pop\n        /* \"#utility.yul\":13624:13902   */\n      pop\n        /* \"#utility.yul\":13562:13902   */\n      swap3\n      swap2\n      pop\n      pop\n      jump\t// out\n        /* \"#utility.yul\":13908:14742   */\n    tag_28:\n        /* \"#utility.yul\":13996:14002   */\n      0x00\n        /* \"#utility.yul\":14004:14010   */\n      0x00\n        /* \"#utility.yul\":14053:14055   */\n      0x40\n        /* \"#utility.yul\":14041:14050   */\n      dup4\n        /* \"#utility.yul\":14032:14039   */\n      dup6\n        /* \"#utility.yul\":14028:14051   */\n      sub\n        /* \"#utility.yul\":14024:14056   */\n      slt\n        /* \"#utility.yul\":14021:14140   */\n      iszero\n      tag_575\n      jumpi\n        /* \"#utility.yul\":14059:14138   */\n      tag_576\n      tag_343\n      jump\t// in\n    tag_576:\n        /* \"#utility.yul\":14021:14140   */\n    tag_575:\n        /* \"#utility.yul\":14207:14208   */\n      0x00\n        /* \"#utility.yul\":14196:14205   */\n      dup4\n        /* \"#utility.yul\":14192:14209   */\n      add\n        /* \"#utility.yul\":14179:14210   */\n      calldataload\n        /* \"#utility.yul\":14237:14255   */\n      0xffffffffffffffff\n        /* \"#utility.yul\":14229:14235   */\n      dup2\n        /* \"#utility.yul\":14226:14256   */\n      gt\n        /* \"#utility.yul\":14223:14340   */\n      iszero\n      tag_577\n      jumpi\n        /* \"#utility.yul\":14259:14338   */\n      tag_578\n      tag_344\n      jump\t// in\n    tag_578:\n        /* \"#utility.yul\":14223:14340   */\n    tag_577:\n        /* \"#utility.yul\":14364:14427   */\n      tag_579\n        /* \"#utility.yul\":14419:14426   */\n      dup6\n        /* \"#utility.yul\":14410:14416   */\n      dup3\n        /* \"#utility.yul\":14399:14408   */\n      dup7\n        /* \"#utility.yul\":14395:14417   */\n      add\n        /* \"#utility.yul\":14364:14427   */\n      tag_391\n      jump\t// in\n    tag_579:\n        /* \"#utility.yul\":14354:14427   */\n      swap3\n      pop\n        /* \"#utility.yul\":14150:14437   */\n      pop\n        /* \"#utility.yul\":14504:14506   */\n      0x20\n        /* \"#utility.yul\":14493:14502   */\n      dup4\n        /* \"#utility.yul\":14489:14507   */\n      add\n        /* \"#utility.yul\":14476:14508   */\n      calldataload\n        /* \"#utility.yul\":14535:14553   */\n      0xffffffffffffffff\n        /* \"#utility.yul\":14527:14533   */\n      dup2\n        /* \"#utility.yul\":14524:14554   */\n      gt\n        /* \"#utility.yul\":14521:14638   */\n      iszero\n      tag_580\n      jumpi\n        /* \"#utility.yul\":14557:14636   */\n      tag_581\n      tag_344\n      jump\t// in\n    tag_581:\n        /* \"#utility.yul\":14521:14638   */\n    tag_580:\n        /* \"#utility.yul\":14662:14725   */\n      tag_582\n        /* \"#utility.yul\":14717:14724   */\n      dup6\n        /* \"#utility.yul\":14708:14714   */\n      dup3\n        /* \"#utility.yul\":14697:14706   */\n      dup7\n        /* \"#utility.yul\":14693:14715   */\n      add\n        /* \"#utility.yul\":14662:14725   */\n      tag_391\n      jump\t// in\n    tag_582:\n        /* \"#utility.yul\":14652:14725   */\n      swap2\n      pop\n        /* \"#utility.yul\":14447:14735   */\n      pop\n        /* \"#utility.yul\":13908:14742   */\n      swap3\n      pop\n      swap3\n      swap1\n      pop\n      jump\t// out\n        /* \"#utility.yul\":14748:14917   */\n    tag_392:\n        /* \"#utility.yul\":14832:14843   */\n      0x00\n        /* \"#utility.yul\":14866:14872   */\n      dup3\n        /* \"#utility.yul\":14861:14864   */\n      dup3\n        /* \"#utility.yul\":14854:14873   */\n      mstore\n        /* \"#utility.yul\":14906:14910   */\n      0x20\n        /* \"#utility.yul\":14901:14904   */\n      dup3\n        /* \"#utility.yul\":14897:14911   */\n      add\n        /* \"#utility.yul\":14882:14911   */\n      swap1\n      pop\n        /* \"#utility.yul\":14748:14917   */\n      swap3\n      swap2\n      pop\n      pop\n      jump\t// out\n        /* \"#utility.yul\":14923:15300   */\n    tag_393:\n        /* \"#utility.yul\":15011:15014   */\n      0x00\n        /* \"#utility.yul\":15039:15078   */\n      tag_585\n        /* \"#utility.yul\":15072:15077   */\n      dup3\n        /* \"#utility.yul\":15039:15078   */\n      tag_359\n      jump\t// in\n    tag_585:\n        /* \"#utility.yul\":15094:15165   */\n      tag_586\n        /* \"#utility.yul\":15158:15164   */\n      dup2\n        /* \"#utility.yul\":15153:15156   */\n      dup6\n        /* \"#utility.yul\":15094:15165   */\n      tag_392\n      jump\t// in\n    tag_586:\n        /* \"#utility.yul\":15087:15165   */\n      swap4\n      pop\n        /* \"#utility.yul\":15174:15239   */\n      tag_587\n        /* \"#utility.yul\":15232:15238   */\n      dup2\n        /* \"#utility.yul\":15227:15230   */\n      dup6\n        /* \"#utility.yul\":15220:15224   */\n      0x20\n        /* \"#utility.yul\":15213:15218   */\n      dup7\n        /* \"#utility.yul\":15209:15225   */\n      add\n        /* \"#utility.yul\":15174:15239   */\n      tag_361\n      jump\t// in\n    tag_587:\n        /* \"#utility.yul\":15264:15293   */\n      tag_588\n        /* \"#utility.yul\":15286:15292   */\n      dup2\n        /* \"#utility.yul\":15264:15293   */\n      tag_362\n      jump\t// in\n    tag_588:\n        /* \"#utility.yul\":15259:15262   */\n      dup5\n        /* \"#utility.yul\":15255:15294   */\n      add\n        /* \"#utility.yul\":15248:15294   */\n      swap2\n      pop\n        /* \"#utility.yul\":15015:15300   */\n      pop\n        /* \"#utility.yul\":14923:15300   */\n      swap3\n      swap2\n      pop\n      pop\n      jump\t// out\n        /* \"#utility.yul\":15306:15424   */\n    tag_394:\n        /* \"#utility.yul\":15393:15417   */\n      tag_590\n        /* \"#utility.yul\":15411:15416   */\n      dup2\n        /* \"#utility.yul\":15393:15417   */\n      tag_371\n      jump\t// in\n    tag_590:\n        /* \"#utility.yul\":15388:15391   */\n      dup3\n        /* \"#utility.yul\":15381:15418   */\n      mstore\n        /* \"#utility.yul\":15306:15424   */\n      pop\n      pop\n      jump\t// out\n        /* \"#utility.yul\":15430:15566   */\n    tag_395:\n        /* \"#utility.yul\":15519:15525   */\n      0x00\n        /* \"#utility.yul\":15553:15558   */\n      dup2\n        /* \"#utility.yul\":15547:15559   */\n      mload\n        /* \"#utility.yul\":15537:15559   */\n      swap1\n      pop\n        /* \"#utility.yul\":15430:15566   */\n      swap2\n      swap1\n      pop\n      jump\t// out\n        /* \"#utility.yul\":15572:15778   */\n    tag_396:\n        /* \"#utility.yul\":15693:15704   */\n      0x00\n        /* \"#utility.yul\":15727:15733   */\n      dup3\n        /* \"#utility.yul\":15722:15725   */\n      dup3\n        /* \"#utility.yul\":15715:15734   */\n      mstore\n        /* \"#utility.yul\":15767:15771   */\n      0x20\n        /* \"#utility.yul\":15762:15765   */\n      dup3\n        /* \"#utility.yul\":15758:15772   */\n      add\n        /* \"#utility.yul\":15743:15772   */\n      swap1\n      pop\n        /* \"#utility.yul\":15572:15778   */\n      swap3\n      swap2\n      pop\n      pop\n      jump\t// out\n        /* \"#utility.yul\":15784:15938   */\n    tag_397:\n        /* \"#utility.yul\":15873:15877   */\n      0x00\n        /* \"#utility.yul\":15896:15899   */\n      dup2\n        /* \"#utility.yul\":15888:15899   */\n      swap1\n      pop\n        /* \"#utility.yul\":15926:15930   */\n      0x20\n        /* \"#utility.yul\":15921:15924   */\n      dup3\n        /* \"#utility.yul\":15917:15931   */\n      add\n        /* \"#utility.yul\":15909:15931   */\n      swap1\n      pop\n        /* \"#utility.yul\":15784:15938   */\n      swap2\n      swap1\n      pop\n      jump\t// out\n        /* \"#utility.yul\":16006:16780   */\n    tag_398:\n        /* \"#utility.yul\":16109:16112   */\n      0x00\n        /* \"#utility.yul\":16145:16149   */\n      0x60\n        /* \"#utility.yul\":16140:16143   */\n      dup4\n        /* \"#utility.yul\":16136:16150   */\n      add\n        /* \"#utility.yul\":16235:16239   */\n      0x00\n        /* \"#utility.yul\":16228:16233   */\n      dup4\n        /* \"#utility.yul\":16224:16240   */\n      add\n        /* \"#utility.yul\":16218:16241   */\n      mload\n        /* \"#utility.yul\":16288:16291   */\n      dup5\n        /* \"#utility.yul\":16282:16286   */\n      dup3\n        /* \"#utility.yul\":16278:16292   */\n      sub\n        /* \"#utility.yul\":16271:16275   */\n      0x00\n        /* \"#utility.yul\":16266:16269   */\n      dup7\n        /* \"#utility.yul\":16262:16276   */\n      add\n        /* \"#utility.yul\":16255:16293   */\n      mstore\n        /* \"#utility.yul\":16314:16387   */\n      tag_595\n        /* \"#utility.yul\":16382:16386   */\n      dup3\n        /* \"#utility.yul\":16368:16380   */\n      dup3\n        /* \"#utility.yul\":16314:16387   */\n      tag_363\n      jump\t// in\n    tag_595:\n        /* \"#utility.yul\":16306:16387   */\n      swap2\n      pop\n        /* \"#utility.yul\":16160:16398   */\n      pop\n        /* \"#utility.yul\":16482:16486   */\n      0x20\n        /* \"#utility.yul\":16475:16480   */\n      dup4\n        /* \"#utility.yul\":16471:16487   */\n      add\n        /* \"#utility.yul\":16465:16488   */\n      mload\n        /* \"#utility.yul\":16501:16564   */\n      tag_596\n        /* \"#utility.yul\":16558:16562   */\n      0x20\n        /* \"#utility.yul\":16553:16556   */\n      dup7\n        /* \"#utility.yul\":16549:16563   */\n      add\n        /* \"#utility.yul\":16535:16547   */\n      dup3\n        /* \"#utility.yul\":16501:16564   */\n      tag_372\n      jump\t// in\n    tag_596:\n        /* \"#utility.yul\":16408:16574   */\n      pop\n        /* \"#utility.yul\":16661:16665   */\n      0x40\n        /* \"#utility.yul\":16654:16659   */\n      dup4\n        /* \"#utility.yul\":16650:16666   */\n      add\n        /* \"#utility.yul\":16644:16667   */\n      mload\n        /* \"#utility.yul\":16680:16743   */\n      tag_597\n        /* \"#utility.yul\":16737:16741   */\n      0x40\n        /* \"#utility.yul\":16732:16735   */\n      dup7\n        /* \"#utility.yul\":16728:16742   */\n      add\n        /* \"#utility.yul\":16714:16726   */\n      dup3\n        /* \"#utility.yul\":16680:16743   */\n      tag_352\n      jump\t// in\n    tag_597:\n        /* \"#utility.yul\":16584:16753   */\n      pop\n        /* \"#utility.yul\":16770:16774   */\n      dup1\n        /* \"#utility.yul\":16763:16774   */\n      swap2\n      pop\n        /* \"#utility.yul\":16114:16780   */\n      pop\n        /* \"#utility.yul\":16006:16780   */\n      swap3\n      swap2\n      pop\n      pop\n      jump\t// out\n        /* \"#utility.yul\":16786:17030   */\n    tag_399:\n        /* \"#utility.yul\":16899:16909   */\n      0x00\n        /* \"#utility.yul\":16934:17024   */\n      tag_599\n        /* \"#utility.yul\":17020:17023   */\n      dup4\n        /* \"#utility.yul\":17012:17018   */\n      dup4\n        /* \"#utility.yul\":16934:17024   */\n      tag_398\n      jump\t// in\n    tag_599:\n        /* \"#utility.yul\":16920:17024   */\n      swap1\n      pop\n        /* \"#utility.yul\":16786:17030   */\n      swap3\n      swap2\n      pop\n      pop\n      jump\t// out\n        /* \"#utility.yul\":17036:17171   */\n    tag_400:\n        /* \"#utility.yul\":17128:17132   */\n      0x00\n        /* \"#utility.yul\":17160:17164   */\n      0x20\n        /* \"#utility.yul\":17155:17158   */\n      dup3\n        /* \"#utility.yul\":17151:17165   */\n      add\n        /* \"#utility.yul\":17143:17165   */\n      swap1\n      pop\n        /* \"#utility.yul\":17036:17171   */\n      swap2\n      swap1\n      pop\n      jump\t// out\n        /* \"#utility.yul\":17243:18330   */\n    tag_401:\n        /* \"#utility.yul\":17406:17409   */\n      0x00\n        /* \"#utility.yul\":17435:17511   */\n      tag_602\n        /* \"#utility.yul\":17505:17510   */\n      dup3\n        /* \"#utility.yul\":17435:17511   */\n      tag_395\n      jump\t// in\n    tag_602:\n        /* \"#utility.yul\":17527:17635   */\n      tag_603\n        /* \"#utility.yul\":17628:17634   */\n      dup2\n        /* \"#utility.yul\":17623:17626   */\n      dup6\n        /* \"#utility.yul\":17527:17635   */\n      tag_396\n      jump\t// in\n    tag_603:\n        /* \"#utility.yul\":17520:17635   */\n      swap4\n      pop\n        /* \"#utility.yul\":17661:17664   */\n      dup4\n        /* \"#utility.yul\":17706:17710   */\n      0x20\n        /* \"#utility.yul\":17698:17704   */\n      dup3\n        /* \"#utility.yul\":17694:17711   */\n      mul\n        /* \"#utility.yul\":17689:17692   */\n      dup6\n        /* \"#utility.yul\":17685:17712   */\n      add\n        /* \"#utility.yul\":17736:17814   */\n      tag_604\n        /* \"#utility.yul\":17808:17813   */\n      dup6\n        /* \"#utility.yul\":17736:17814   */\n      tag_397\n      jump\t// in\n    tag_604:\n        /* \"#utility.yul\":17837:17844   */\n      dup1\n        /* \"#utility.yul\":17868:17869   */\n      0x00\n        /* \"#utility.yul\":17853:18285   */\n    tag_605:\n        /* \"#utility.yul\":17878:17884   */\n      dup6\n        /* \"#utility.yul\":17875:17876   */\n      dup2\n        /* \"#utility.yul\":17872:17885   */\n      lt\n        /* \"#utility.yul\":17853:18285   */\n      iszero\n      tag_607\n      jumpi\n        /* \"#utility.yul\":17949:17958   */\n      dup5\n        /* \"#utility.yul\":17943:17947   */\n      dup5\n        /* \"#utility.yul\":17939:17959   */\n      sub\n        /* \"#utility.yul\":17934:17937   */\n      dup10\n        /* \"#utility.yul\":17927:17960   */\n      mstore\n        /* \"#utility.yul\":18000:18006   */\n      dup2\n        /* \"#utility.yul\":17994:18007   */\n      mload\n        /* \"#utility.yul\":18028:18136   */\n      tag_608\n        /* \"#utility.yul\":18131:18135   */\n      dup6\n        /* \"#utility.yul\":18116:18129   */\n      dup3\n        /* \"#utility.yul\":18028:18136   */\n      tag_399\n      jump\t// in\n    tag_608:\n        /* \"#utility.yul\":18020:18136   */\n      swap5\n      pop\n        /* \"#utility.yul\":18159:18241   */\n      tag_609\n        /* \"#utility.yul\":18234:18240   */\n      dup4\n        /* \"#utility.yul\":18159:18241   */\n      tag_400\n      jump\t// in\n    tag_609:\n        /* \"#utility.yul\":18149:18241   */\n      swap3\n      pop\n        /* \"#utility.yul\":18270:18274   */\n      0x20\n        /* \"#utility.yul\":18265:18268   */\n      dup11\n        /* \"#utility.yul\":18261:18275   */\n      add\n        /* \"#utility.yul\":18254:18275   */\n      swap10\n      pop\n        /* \"#utility.yul\":17913:18285   */\n      pop\n        /* \"#utility.yul\":17900:17901   */\n      0x01\n        /* \"#utility.yul\":17897:17898   */\n      dup2\n        /* \"#utility.yul\":17893:17902   */\n      add\n        /* \"#utility.yul\":17888:17902   */\n      swap1\n      pop\n        /* \"#utility.yul\":17853:18285   */\n      jump(tag_605)\n    tag_607:\n        /* \"#utility.yul\":17857:17871   */\n      pop\n        /* \"#utility.yul\":18301:18305   */\n      dup3\n        /* \"#utility.yul\":18294:18305   */\n      swap8\n      pop\n        /* \"#utility.yul\":18321:18324   */\n      dup8\n        /* \"#utility.yul\":18314:18324   */\n      swap6\n      pop\n        /* \"#utility.yul\":17411:18330   */\n      pop\n      pop\n      pop\n      pop\n      pop\n        /* \"#utility.yul\":17243:18330   */\n      swap3\n      swap2\n      pop\n      pop\n      jump\t// out\n        /* \"#utility.yul\":18336:19905   */\n    tag_35:\n        /* \"#utility.yul\":18809:18813   */\n      0x00\n        /* \"#utility.yul\":18847:18850   */\n      0x0100\n        /* \"#utility.yul\":18836:18845   */\n      dup3\n        /* \"#utility.yul\":18832:18851   */\n      add\n        /* \"#utility.yul\":18824:18851   */\n      swap1\n      pop\n        /* \"#utility.yul\":18897:18906   */\n      dup2\n        /* \"#utility.yul\":18891:18895   */\n      dup2\n        /* \"#utility.yul\":18887:18907   */\n      sub\n        /* \"#utility.yul\":18883:18884   */\n      0x00\n        /* \"#utility.yul\":18872:18881   */\n      dup4\n        /* \"#utility.yul\":18868:18885   */\n      add\n        /* \"#utility.yul\":18861:18908   */\n      mstore\n        /* \"#utility.yul\":18925:19003   */\n      tag_611\n        /* \"#utility.yul\":18998:19002   */\n      dup2\n        /* \"#utility.yul\":18989:18995   */\n      dup12\n        /* \"#utility.yul\":18925:19003   */\n      tag_393\n      jump\t// in\n    tag_611:\n        /* \"#utility.yul\":18917:19003   */\n      swap1\n      pop\n        /* \"#utility.yul\":19050:19059   */\n      dup2\n        /* \"#utility.yul\":19044:19048   */\n      dup2\n        /* \"#utility.yul\":19040:19060   */\n      sub\n        /* \"#utility.yul\":19035:19037   */\n      0x20\n        /* \"#utility.yul\":19024:19033   */\n      dup4\n        /* \"#utility.yul\":19020:19038   */\n      add\n        /* \"#utility.yul\":19013:19061   */\n      mstore\n        /* \"#utility.yul\":19078:19156   */\n      tag_612\n        /* \"#utility.yul\":19151:19155   */\n      dup2\n        /* \"#utility.yul\":19142:19148   */\n      dup11\n        /* \"#utility.yul\":19078:19156   */\n      tag_393\n      jump\t// in\n    tag_612:\n        /* \"#utility.yul\":19070:19156   */\n      swap1\n      pop\n        /* \"#utility.yul\":19166:19238   */\n      tag_613\n        /* \"#utility.yul\":19234:19236   */\n      0x40\n        /* \"#utility.yul\":19223:19232   */\n      dup4\n        /* \"#utility.yul\":19219:19237   */\n      add\n        /* \"#utility.yul\":19210:19216   */\n      dup10\n        /* \"#utility.yul\":19166:19238   */\n      tag_394\n      jump\t// in\n    tag_613:\n        /* \"#utility.yul\":19248:19320   */\n      tag_614\n        /* \"#utility.yul\":19316:19318   */\n      0x60\n        /* \"#utility.yul\":19305:19314   */\n      dup4\n        /* \"#utility.yul\":19301:19319   */\n      add\n        /* \"#utility.yul\":19292:19298   */\n      dup9\n        /* \"#utility.yul\":19248:19320   */\n      tag_348\n      jump\t// in\n    tag_614:\n        /* \"#utility.yul\":19330:19403   */\n      tag_615\n        /* \"#utility.yul\":19398:19401   */\n      0x80\n        /* \"#utility.yul\":19387:19396   */\n      dup4\n        /* \"#utility.yul\":19383:19402   */\n      add\n        /* \"#utility.yul\":19374:19380   */\n      dup8\n        /* \"#utility.yul\":19330:19403   */\n      tag_348\n      jump\t// in\n    tag_615:\n        /* \"#utility.yul\":19451:19460   */\n      dup2\n        /* \"#utility.yul\":19445:19449   */\n      dup2\n        /* \"#utility.yul\":19441:19461   */\n      sub\n        /* \"#utility.yul\":19435:19438   */\n      0xa0\n        /* \"#utility.yul\":19424:19433   */\n      dup4\n        /* \"#utility.yul\":19420:19439   */\n      add\n        /* \"#utility.yul\":19413:19462   */\n      mstore\n        /* \"#utility.yul\":19479:19587   */\n      tag_616\n        /* \"#utility.yul\":19582:19586   */\n      dup2\n        /* \"#utility.yul\":19573:19579   */\n      dup7\n        /* \"#utility.yul\":19479:19587   */\n      tag_375\n      jump\t// in\n    tag_616:\n        /* \"#utility.yul\":19471:19587   */\n      swap1\n      pop\n        /* \"#utility.yul\":19597:19670   */\n      tag_617\n        /* \"#utility.yul\":19665:19668   */\n      0xc0\n        /* \"#utility.yul\":19654:19663   */\n      dup4\n        /* \"#utility.yul\":19650:19669   */\n      add\n        /* \"#utility.yul\":19641:19647   */\n      dup6\n        /* \"#utility.yul\":19597:19670   */\n      tag_348\n      jump\t// in\n    tag_617:\n        /* \"#utility.yul\":19718:19727   */\n      dup2\n        /* \"#utility.yul\":19712:19716   */\n      dup2\n        /* \"#utility.yul\":19708:19728   */\n      sub\n        /* \"#utility.yul\":19702:19705   */\n      0xe0\n        /* \"#utility.yul\":19691:19700   */\n      dup4\n        /* \"#utility.yul\":19687:19706   */\n      add\n        /* \"#utility.yul\":19680:19729   */\n      mstore\n        /* \"#utility.yul\":19746:19898   */\n      tag_618\n        /* \"#utility.yul\":19893:19897   */\n      dup2\n        /* \"#utility.yul\":19884:19890   */\n      dup5\n        /* \"#utility.yul\":19746:19898   */\n      tag_401\n      jump\t// in\n    tag_618:\n        /* \"#utility.yul\":19738:19898   */\n      swap1\n      pop\n        /* \"#utility.yul\":18336:19905   */\n      swap10\n      swap9\n      pop\n      pop\n      pop\n      pop\n      pop\n      pop\n      pop\n      pop\n      pop\n      jump\t// out\n        /* \"#utility.yul\":19911:20033   */\n    tag_402:\n        /* \"#utility.yul\":19984:20008   */\n      tag_620\n        /* \"#utility.yul\":20002:20007   */\n      dup2\n        /* \"#utility.yul\":19984:20008   */\n      tag_371\n      jump\t// in\n    tag_620:\n        /* \"#utility.yul\":19977:19982   */\n      dup2\n        /* \"#utility.yul\":19974:20009   */\n      eq\n        /* \"#utility.yul\":19964:20027   */\n      tag_621\n      jumpi\n        /* \"#utility.yul\":20023:20024   */\n      0x00\n        /* \"#utility.yul\":20020:20021   */\n      0x00\n        /* \"#utility.yul\":20013:20025   */\n      revert\n        /* \"#utility.yul\":19964:20027   */\n    tag_621:\n        /* \"#utility.yul\":19911:20033   */\n      pop\n      jump\t// out\n        /* \"#utility.yul\":20039:20178   */\n    tag_403:\n        /* \"#utility.yul\":20085:20090   */\n      0x00\n        /* \"#utility.yul\":20123:20129   */\n      dup2\n        /* \"#utility.yul\":20110:20130   */\n      calldataload\n        /* \"#utility.yul\":20101:20130   */\n      swap1\n      pop\n        /* \"#utility.yul\":20139:20172   */\n      tag_623\n        /* \"#utility.yul\":20166:20171   */\n      dup2\n        /* \"#utility.yul\":20139:20172   */\n      tag_402\n      jump\t// in\n    tag_623:\n        /* \"#utility.yul\":20039:20178   */\n      swap3\n      swap2\n      pop\n      pop\n      jump\t// out\n        /* \"#utility.yul\":20184:20658   */\n    tag_47:\n        /* \"#utility.yul\":20252:20258   */\n      0x00\n        /* \"#utility.yul\":20260:20266   */\n      0x00\n        /* \"#utility.yul\":20309:20311   */\n      0x40\n        /* \"#utility.yul\":20297:20306   */\n      dup4\n        /* \"#utility.yul\":20288:20295   */\n      dup6\n        /* \"#utility.yul\":20284:20307   */\n      sub\n        /* \"#utility.yul\":20280:20312   */\n      slt\n        /* \"#utility.yul\":20277:20396   */\n      iszero\n      tag_625\n      jumpi\n        /* \"#utility.yul\":20315:20394   */\n      tag_626\n      tag_343\n      jump\t// in\n    tag_626:\n        /* \"#utility.yul\":20277:20396   */\n    tag_625:\n        /* \"#utility.yul\":20435:20436   */\n      0x00\n        /* \"#utility.yul\":20460:20513   */\n      tag_627\n        /* \"#utility.yul\":20505:20512   */\n      dup6\n        /* \"#utility.yul\":20496:20502   */\n      dup3\n        /* \"#utility.yul\":20485:20494   */\n      dup7\n        /* \"#utility.yul\":20481:20503   */\n      add\n        /* \"#utility.yul\":20460:20513   */\n      tag_347\n      jump\t// in\n    tag_627:\n        /* \"#utility.yul\":20450:20513   */\n      swap3\n      pop\n        /* \"#utility.yul\":20406:20523   */\n      pop\n        /* \"#utility.yul\":20562:20564   */\n      0x20\n        /* \"#utility.yul\":20588:20641   */\n      tag_628\n        /* \"#utility.yul\":20633:20640   */\n      dup6\n        /* \"#utility.yul\":20624:20630   */\n      dup3\n        /* \"#utility.yul\":20613:20622   */\n      dup7\n        /* \"#utility.yul\":20609:20631   */\n      add\n        /* \"#utility.yul\":20588:20641   */\n      tag_403\n      jump\t// in\n    tag_628:\n        /* \"#utility.yul\":20578:20641   */\n      swap2\n      pop\n        /* \"#utility.yul\":20533:20651   */\n      pop\n        /* \"#utility.yul\":20184:20658   */\n      swap3\n      pop\n      swap3\n      swap1\n      pop\n      jump\t// out\n        /* \"#utility.yul\":20664:20773   */\n    tag_404:\n        /* \"#utility.yul\":20745:20766   */\n      tag_630\n        /* \"#utility.yul\":20760:20765   */\n      dup2\n        /* \"#utility.yul\":20745:20766   */\n      tag_379\n      jump\t// in\n    tag_630:\n        /* \"#utility.yul\":20740:20743   */\n      dup3\n        /* \"#utility.yul\":20733:20767   */\n      mstore\n        /* \"#utility.yul\":20664:20773   */\n      pop\n      pop\n      jump\t// out\n        /* \"#utility.yul\":20779:20989   */\n    tag_50:\n        /* \"#utility.yul\":20866:20870   */\n      0x00\n        /* \"#utility.yul\":20904:20906   */\n      0x20\n        /* \"#utility.yul\":20893:20902   */\n      dup3\n        /* \"#utility.yul\":20889:20907   */\n      add\n        /* \"#utility.yul\":20881:20907   */\n      swap1\n      pop\n        /* \"#utility.yul\":20917:20982   */\n      tag_632\n        /* \"#utility.yul\":20979:20980   */\n      0x00\n        /* \"#utility.yul\":20968:20977   */\n      dup4\n        /* \"#utility.yul\":20964:20981   */\n      add\n        /* \"#utility.yul\":20955:20961   */\n      dup5\n        /* \"#utility.yul\":20917:20982   */\n      tag_404\n      jump\t// in\n    tag_632:\n        /* \"#utility.yul\":20779:20989   */\n      swap3\n      swap2\n      pop\n      pop\n      jump\t// out\n        /* \"#utility.yul\":20995:21649   */\n    tag_53:\n        /* \"#utility.yul\":21073:21079   */\n      0x00\n        /* \"#utility.yul\":21081:21087   */\n      0x00\n        /* \"#utility.yul\":21130:21132   */\n      0x40\n        /* \"#utility.yul\":21118:21127   */\n      dup4\n        /* \"#utility.yul\":21109:21116   */\n      dup6\n        /* \"#utility.yul\":21105:21128   */\n      sub\n        /* \"#utility.yul\":21101:21133   */\n      slt\n        /* \"#utility.yul\":21098:21217   */\n      iszero\n      tag_634\n      jumpi\n        /* \"#utility.yul\":21136:21215   */\n      tag_635\n      tag_343\n      jump\t// in\n    tag_635:\n        /* \"#utility.yul\":21098:21217   */\n    tag_634:\n        /* \"#utility.yul\":21256:21257   */\n      0x00\n        /* \"#utility.yul\":21281:21334   */\n      tag_636\n        /* \"#utility.yul\":21326:21333   */\n      dup6\n        /* \"#utility.yul\":21317:21323   */\n      dup3\n        /* \"#utility.yul\":21306:21315   */\n      dup7\n        /* \"#utility.yul\":21302:21324   */\n      add\n        /* \"#utility.yul\":21281:21334   */\n      tag_347\n      jump\t// in\n    tag_636:\n        /* \"#utility.yul\":21271:21334   */\n      swap3\n      pop\n        /* \"#utility.yul\":21227:21344   */\n      pop\n        /* \"#utility.yul\":21411:21413   */\n      0x20\n        /* \"#utility.yul\":21400:21409   */\n      dup4\n        /* \"#utility.yul\":21396:21414   */\n      add\n        /* \"#utility.yul\":21383:21415   */\n      calldataload\n        /* \"#utility.yul\":21442:21460   */\n      0xffffffffffffffff\n        /* \"#utility.yul\":21434:21440   */\n      dup2\n        /* \"#utility.yul\":21431:21461   */\n      gt\n        /* \"#utility.yul\":21428:21545   */\n      iszero\n      tag_637\n      jumpi\n        /* \"#utility.yul\":21464:21543   */\n      tag_638\n      tag_344\n      jump\t// in\n    tag_638:\n        /* \"#utility.yul\":21428:21545   */\n    tag_637:\n        /* \"#utility.yul\":21569:21632   */\n      tag_639\n        /* \"#utility.yul\":21624:21631   */\n      dup6\n        /* \"#utility.yul\":21615:21621   */\n      dup3\n        /* \"#utility.yul\":21604:21613   */\n      dup7\n        /* \"#utility.yul\":21600:21622   */\n      add\n        /* \"#utility.yul\":21569:21632   */\n      tag_391\n      jump\t// in\n    tag_639:\n        /* \"#utility.yul\":21559:21632   */\n      swap2\n      pop\n        /* \"#utility.yul\":21354:21642   */\n      pop\n        /* \"#utility.yul\":20995:21649   */\n      swap3\n      pop\n      swap3\n      swap1\n      pop\n      jump\t// out\n        /* \"#utility.yul\":21655:21824   */\n    tag_405:\n        /* \"#utility.yul\":21795:21816   */\n      0x506f737420646f6573206e6f7420657869737400000000000000000000000000\n        /* \"#utility.yul\":21791:21792   */\n      0x00\n        /* \"#utility.yul\":21783:21789   */\n      dup3\n        /* \"#utility.yul\":21779:21793   */\n      add\n        /* \"#utility.yul\":21772:21817   */\n      mstore\n        /* \"#utility.yul\":21655:21824   */\n      pop\n      jump\t// out\n        /* \"#utility.yul\":21830:22196   */\n    tag_406:\n        /* \"#utility.yul\":21972:21975   */\n      0x00\n        /* \"#utility.yul\":21993:22060   */\n      tag_642\n        /* \"#utility.yul\":22057:22059   */\n      0x13\n        /* \"#utility.yul\":22052:22055   */\n      dup4\n        /* \"#utility.yul\":21993:22060   */\n      tag_392\n      jump\t// in\n    tag_642:\n        /* \"#utility.yul\":21986:22060   */\n      swap2\n      pop\n        /* \"#utility.yul\":22069:22162   */\n      tag_643\n        /* \"#utility.yul\":22158:22161   */\n      dup3\n        /* \"#utility.yul\":22069:22162   */\n      tag_405\n      jump\t// in\n    tag_643:\n        /* \"#utility.yul\":22187:22189   */\n      0x20\n        /* \"#utility.yul\":22182:22185   */\n      dup3\n        /* \"#utility.yul\":22178:22190   */\n      add\n        /* \"#utility.yul\":22171:22190   */\n      swap1\n      pop\n        /* \"#utility.yul\":21830:22196   */\n      swap2\n      swap1\n      pop\n      jump\t// out\n        /* \"#utility.yul\":22202:22621   */\n    tag_58:\n        /* \"#utility.yul\":22368:22372   */\n      0x00\n        /* \"#utility.yul\":22406:22408   */\n      0x20\n        /* \"#utility.yul\":22395:22404   */\n      dup3\n        /* \"#utility.yul\":22391:22409   */\n      add\n        /* \"#utility.yul\":22383:22409   */\n      swap1\n      pop\n        /* \"#utility.yul\":22455:22464   */\n      dup2\n        /* \"#utility.yul\":22449:22453   */\n      dup2\n        /* \"#utility.yul\":22445:22465   */\n      sub\n        /* \"#utility.yul\":22441:22442   */\n      0x00\n        /* \"#utility.yul\":22430:22439   */\n      dup4\n        /* \"#utility.yul\":22426:22443   */\n      add\n        /* \"#utility.yul\":22419:22466   */\n      mstore\n        /* \"#utility.yul\":22483:22614   */\n      tag_645\n        /* \"#utility.yul\":22609:22613   */\n      dup2\n        /* \"#utility.yul\":22483:22614   */\n      tag_406\n      jump\t// in\n    tag_645:\n        /* \"#utility.yul\":22475:22614   */\n      swap1\n      pop\n        /* \"#utility.yul\":22202:22621   */\n      swap2\n      swap1\n      pop\n      jump\t// out\n        /* \"#utility.yul\":22627:22807   */\n    tag_61:\n        /* \"#utility.yul\":22675:22752   */\n      0x4e487b7100000000000000000000000000000000000000000000000000000000\n        /* \"#utility.yul\":22672:22673   */\n      0x00\n        /* \"#utility.yul\":22665:22753   */\n      mstore\n        /* \"#utility.yul\":22772:22776   */\n      0x32\n        /* \"#utility.yul\":22769:22770   */\n      0x04\n        /* \"#utility.yul\":22762:22777   */\n      mstore\n        /* \"#utility.yul\":22796:22800   */\n      0x24\n        /* \"#utility.yul\":22793:22794   */\n      0x00\n        /* \"#utility.yul\":22786:22801   */\n      revert\n        /* \"#utility.yul\":22813:22984   */\n    tag_407:\n        /* \"#utility.yul\":22953:22976   */\n      0x506f737420686173206265656e2064656c657465640000000000000000000000\n        /* \"#utility.yul\":22949:22950   */\n      0x00\n        /* \"#utility.yul\":22941:22947   */\n      dup3\n        /* \"#utility.yul\":22937:22951   */\n      add\n        /* \"#utility.yul\":22930:22977   */\n      mstore\n        /* \"#utility.yul\":22813:22984   */\n      pop\n      jump\t// out\n        /* \"#utility.yul\":22990:23356   */\n    tag_408:\n        /* \"#utility.yul\":23132:23135   */\n      0x00\n        /* \"#utility.yul\":23153:23220   */\n      tag_649\n        /* \"#utility.yul\":23217:23219   */\n      0x15\n        /* \"#utility.yul\":23212:23215   */\n      dup4\n        /* \"#utility.yul\":23153:23220   */\n      tag_392\n      jump\t// in\n    tag_649:\n        /* \"#utility.yul\":23146:23220   */\n      swap2\n      pop\n        /* \"#utility.yul\":23229:23322   */\n      tag_650\n        /* \"#utility.yul\":23318:23321   */\n      dup3\n        /* \"#utility.yul\":23229:23322   */\n      tag_407\n      jump\t// in\n    tag_650:\n        /* \"#utility.yul\":23347:23349   */\n      0x20\n        /* \"#utility.yul\":23342:23345   */\n      dup3\n        /* \"#utility.yul\":23338:23350   */\n      add\n        /* \"#utility.yul\":23331:23350   */\n      swap1\n      pop\n        /* \"#utility.yul\":22990:23356   */\n      swap2\n      swap1\n      pop\n      jump\t// out\n        /* \"#utility.yul\":23362:23781   */\n    tag_65:\n        /* \"#utility.yul\":23528:23532   */\n      0x00\n        /* \"#utility.yul\":23566:23568   */\n      0x20\n        /* \"#utility.yul\":23555:23564   */\n      dup3\n        /* \"#utility.yul\":23551:23569   */\n      add\n        /* \"#utility.yul\":23543:23569   */\n      swap1\n      pop\n        /* \"#utility.yul\":23615:23624   */\n      dup2\n        /* \"#utility.yul\":23609:23613   */\n      dup2\n        /* \"#utility.yul\":23605:23625   */\n      sub\n        /* \"#utility.yul\":23601:23602   */\n      0x00\n        /* \"#utility.yul\":23590:23599   */\n      dup4\n        /* \"#utility.yul\":23586:23603   */\n      add\n        /* \"#utility.yul\":23579:23626   */\n      mstore\n        /* \"#utility.yul\":23643:23774   */\n      tag_652\n        /* \"#utility.yul\":23769:23773   */\n      dup2\n        /* \"#utility.yul\":23643:23774   */\n      tag_408\n      jump\t// in\n    tag_652:\n        /* \"#utility.yul\":23635:23774   */\n      swap1\n      pop\n        /* \"#utility.yul\":23362:23781   */\n      swap2\n      swap1\n      pop\n      jump\t// out\n        /* \"#utility.yul\":23787:24010   */\n    tag_409:\n        /* \"#utility.yul\":23927:23961   */\n      0x5365756c206c276175746575722070657574207375707072696d657220636520\n        /* \"#utility.yul\":23923:23924   */\n      0x00\n        /* \"#utility.yul\":23915:23921   */\n      dup3\n        /* \"#utility.yul\":23911:23925   */\n      add\n        /* \"#utility.yul\":23904:23962   */\n      mstore\n        /* \"#utility.yul\":23996:24002   */\n      0x706f737400000000000000000000000000000000000000000000000000000000\n        /* \"#utility.yul\":23991:23993   */\n      0x20\n        /* \"#utility.yul\":23983:23989   */\n      dup3\n        /* \"#utility.yul\":23979:23994   */\n      add\n        /* \"#utility.yul\":23972:24003   */\n      mstore\n        /* \"#utility.yul\":23787:24010   */\n      pop\n      jump\t// out\n        /* \"#utility.yul\":24016:24382   */\n    tag_410:\n        /* \"#utility.yul\":24158:24161   */\n      0x00\n        /* \"#utility.yul\":24179:24246   */\n      tag_655\n        /* \"#utility.yul\":24243:24245   */\n      0x24\n        /* \"#utility.yul\":24238:24241   */\n      dup4\n        /* \"#utility.yul\":24179:24246   */\n      tag_392\n      jump\t// in\n    tag_655:\n        /* \"#utility.yul\":24172:24246   */\n      swap2\n      pop\n        /* \"#utility.yul\":24255:24348   */\n      tag_656\n        /* \"#utility.yul\":24344:24347   */\n      dup3\n        /* \"#utility.yul\":24255:24348   */\n      tag_409\n      jump\t// in\n    tag_656:\n        /* \"#utility.yul\":24373:24375   */\n      0x40\n        /* \"#utility.yul\":24368:24371   */\n      dup3\n        /* \"#utility.yul\":24364:24376   */\n      add\n        /* \"#utility.yul\":24357:24376   */\n      swap1\n      pop\n        /* \"#utility.yul\":24016:24382   */\n      swap2\n      swap1\n      pop\n      jump\t// out\n        /* \"#utility.yul\":24388:24807   */\n    tag_72:\n        /* \"#utility.yul\":24554:24558   */\n      0x00\n        /* \"#utility.yul\":24592:24594   */\n      0x20\n        /* \"#utility.yul\":24581:24590   */\n      dup3\n        /* \"#utility.yul\":24577:24595   */\n      add\n        /* \"#utility.yul\":24569:24595   */\n      swap1\n      pop\n        /* \"#utility.yul\":24641:24650   */\n      dup2\n        /* \"#utility.yul\":24635:24639   */\n      dup2\n        /* \"#utility.yul\":24631:24651   */\n      sub\n        /* \"#utility.yul\":24627:24628   */\n      0x00\n        /* \"#utility.yul\":24616:24625   */\n      dup4\n        /* \"#utility.yul\":24612:24629   */\n      add\n        /* \"#utility.yul\":24605:24652   */\n      mstore\n        /* \"#utility.yul\":24669:24800   */\n      tag_658\n        /* \"#utility.yul\":24795:24799   */\n      dup2\n        /* \"#utility.yul\":24669:24800   */\n      tag_410\n      jump\t// in\n    tag_658:\n        /* \"#utility.yul\":24661:24800   */\n      swap1\n      pop\n        /* \"#utility.yul\":24388:24807   */\n      swap2\n      swap1\n      pop\n      jump\t// out\n        /* \"#utility.yul\":24813:24993   */\n    tag_411:\n        /* \"#utility.yul\":24861:24938   */\n      0x4e487b7100000000000000000000000000000000000000000000000000000000\n        /* \"#utility.yul\":24858:24859   */\n      0x00\n        /* \"#utility.yul\":24851:24939   */\n      mstore\n        /* \"#utility.yul\":24958:24962   */\n      0x11\n        /* \"#utility.yul\":24955:24956   */\n      0x04\n        /* \"#utility.yul\":24948:24963   */\n      mstore\n        /* \"#utility.yul\":24982:24986   */\n      0x24\n        /* \"#utility.yul\":24979:24980   */\n      0x00\n        /* \"#utility.yul\":24972:24987   */\n      revert\n        /* \"#utility.yul\":24999:25170   */\n    tag_77:\n        /* \"#utility.yul\":25038:25041   */\n      0x00\n        /* \"#utility.yul\":25061:25085   */\n      tag_661\n        /* \"#utility.yul\":25079:25084   */\n      dup3\n        /* \"#utility.yul\":25061:25085   */\n      tag_345\n      jump\t// in\n    tag_661:\n        /* \"#utility.yul\":25052:25085   */\n      swap2\n      pop\n        /* \"#utility.yul\":25107:25111   */\n      0x00\n        /* \"#utility.yul\":25100:25105   */\n      dup3\n        /* \"#utility.yul\":25097:25112   */\n      sub\n        /* \"#utility.yul\":25094:25135   */\n      tag_662\n      jumpi\n        /* \"#utility.yul\":25115:25133   */\n      tag_663\n      tag_411\n      jump\t// in\n    tag_663:\n        /* \"#utility.yul\":25094:25135   */\n    tag_662:\n        /* \"#utility.yul\":25162:25163   */\n      0x01\n        /* \"#utility.yul\":25155:25160   */\n      dup3\n        /* \"#utility.yul\":25151:25164   */\n      sub\n        /* \"#utility.yul\":25144:25164   */\n      swap1\n      pop\n        /* \"#utility.yul\":24999:25170   */\n      swap2\n      swap1\n      pop\n      jump\t// out\n        /* \"#utility.yul\":25176:25409   */\n    tag_87:\n        /* \"#utility.yul\":25215:25218   */\n      0x00\n        /* \"#utility.yul\":25238:25262   */\n      tag_665\n        /* \"#utility.yul\":25256:25261   */\n      dup3\n        /* \"#utility.yul\":25238:25262   */\n      tag_345\n      jump\t// in\n    tag_665:\n        /* \"#utility.yul\":25229:25262   */\n      swap2\n      pop\n        /* \"#utility.yul\":25284:25350   */\n      0xffffffffffffffffffffffffffffffffffffffffffffffffffffffffffffffff\n        /* \"#utility.yul\":25277:25282   */\n      dup3\n        /* \"#utility.yul\":25274:25351   */\n      sub\n        /* \"#utility.yul\":25271:25374   */\n      tag_666\n      jumpi\n        /* \"#utility.yul\":25354:25372   */\n      tag_667\n      tag_411\n      jump\t// in\n    tag_667:\n        /* \"#utility.yul\":25271:25374   */\n    tag_666:\n        /* \"#utility.yul\":25401:25402   */\n      0x01\n        /* \"#utility.yul\":25394:25399   */\n      dup3\n        /* \"#utility.yul\":25390:25403   */\n      add\n        /* \"#utility.yul\":25383:25403   */\n      swap1\n      pop\n        /* \"#utility.yul\":25176:25409   */\n      swap2\n      swap1\n      pop\n      jump\t// out\n        /* \"#utility.yul\":25415:25595   */\n    tag_412:\n        /* \"#utility.yul\":25463:25540   */\n      0x4e487b7100000000000000000000000000000000000000000000000000000000\n        /* \"#utility.yul\":25460:25461   */\n      0x00\n        /* \"#utility.yul\":25453:25541   */\n      mstore\n        /* \"#utility.yul\":25560:25564   */\n      0x22\n        /* \"#utility.yul\":25557:25558   */\n      0x04\n        /* \"#utility.yul\":25550:25565   */\n      mstore\n        /* \"#utility.yul\":25584:25588   */\n      0x24\n        /* \"#utility.yul\":25581:25582   */\n      0x00\n        /* \"#utility.yul\":25574:25589   */\n      revert\n        /* \"#utility.yul\":25601:25921   */\n    tag_134:\n        /* \"#utility.yul\":25645:25651   */\n      0x00\n        /* \"#utility.yul\":25682:25683   */\n      0x02\n        /* \"#utility.yul\":25676:25680   */\n      dup3\n        /* \"#utility.yul\":25672:25684   */\n      div\n        /* \"#utility.yul\":25662:25684   */\n      swap1\n      pop\n        /* \"#utility.yul\":25729:25730   */\n      0x01\n        /* \"#utility.yul\":25723:25727   */\n      dup3\n        /* \"#utility.yul\":25719:25731   */\n      and\n        /* \"#utility.yul\":25750:25768   */\n      dup1\n        /* \"#utility.yul\":25740:25821   */\n      tag_670\n      jumpi\n        /* \"#utility.yul\":25806:25810   */\n      0x7f\n        /* \"#utility.yul\":25798:25804   */\n      dup3\n        /* \"#utility.yul\":25794:25811   */\n      and\n        /* \"#utility.yul\":25784:25811   */\n      swap2\n      pop\n        /* \"#utility.yul\":25740:25821   */\n    tag_670:\n        /* \"#utility.yul\":25868:25870   */\n      0x20\n        /* \"#utility.yul\":25860:25866   */\n      dup3\n        /* \"#utility.yul\":25857:25871   */\n      lt\n        /* \"#utility.yul\":25837:25855   */\n      dup2\n        /* \"#utility.yul\":25834:25872   */\n      sub\n        /* \"#utility.yul\":25831:25915   */\n      tag_671\n      jumpi\n        /* \"#utility.yul\":25887:25905   */\n      tag_672\n      tag_412\n      jump\t// in\n    tag_672:\n        /* \"#utility.yul\":25831:25915   */\n    tag_671:\n        /* \"#utility.yul\":25652:25921   */\n      pop\n        /* \"#utility.yul\":25601:25921   */\n      swap2\n      swap1\n      pop\n      jump\t// out\n        /* \"#utility.yul\":25927:26098   */\n    tag_413:\n        /* \"#utility.yul\":26067:26090   */\n      0x5469746c652063616e6e6f7420626520656d7074790000000000000000000000\n        /* \"#utility.yul\":26063:26064   */\n      0x00\n        /* \"#utility.yul\":26055:26061   */\n      dup3\n        /* \"#utility.yul\":26051:26065   */\n      add\n        /* \"#utility.yul\":26044:26091   */\n      mstore\n        /* \"#utility.yul\":25927:26098   */\n      pop\n      jump\t// out\n        /* \"#utility.yul\":26104:26470   */\n    tag_414:\n        /* \"#utility.yul\":26246:26249   */\n      0x00\n        /* \"#utility.yul\":26267:26334   */\n      tag_675\n        /* \"#utility.yul\":26331:26333   */\n      0x15\n        /* \"#utility.yul\":26326:26329   */\n      dup4\n        /* \"#utility.yul\":26267:26334   */\n      tag_392\n      jump\t// in\n    tag_675:\n        /* \"#utility.yul\":26260:26334   */\n      swap2\n      pop\n        /* \"#utility.yul\":26343:26436   */\n      tag_676\n        /* \"#utility.yul\":26432:26435   */\n      dup3\n        /* \"#utility.yul\":26343:26436   */\n      tag_413\n      jump\t// in\n    tag_676:\n        /* \"#utility.yul\":26461:26463   */\n      0x20\n        /* \"#utility.yul\":26456:26459   */\n      dup3\n        /* \"#utility.yul\":26452:26464   */\n      add\n        /* \"#utility.yul\":26445:26464   */\n      swap1\n      pop\n        /* \"#utility.yul\":26104:26470   */\n      swap2\n      swap1\n      pop\n      jump\t// out\n        /* \"#utility.yul\":26476:26895   */\n    tag_185:\n        /* \"#utility.yul\":26642:26646   */\n      0x00\n        /* \"#utility.yul\":26680:26682   */\n      0x20\n        /* \"#utility.yul\":26669:26678   */\n      dup3\n        /* \"#utility.yul\":26665:26683   */\n      add\n        /* \"#utility.yul\":26657:26683   */\n      swap1\n      pop\n        /* \"#utility.yul\":26729:26738   */\n      dup2\n        /* \"#utility.yul\":26723:26727   */\n      dup2\n        /* \"#utility.yul\":26719:26739   */\n      sub\n        /* \"#utility.yul\":26715:26716   */\n      0x00\n        /* \"#utility.yul\":26704:26713   */\n      dup4\n        /* \"#utility.yul\":26700:26717   */\n      add\n        /* \"#utility.yul\":26693:26740   */\n      mstore\n        /* \"#utility.yul\":26757:26888   */\n      tag_678\n        /* \"#utility.yul\":26883:26887   */\n      dup2\n        /* \"#utility.yul\":26757:26888   */\n      tag_414\n      jump\t// in\n    tag_678:\n        /* \"#utility.yul\":26749:26888   */\n      swap1\n      pop\n        /* \"#utility.yul\":26476:26895   */\n      swap2\n      swap1\n      pop\n      jump\t// out\n        /* \"#utility.yul\":26901:27065   */\n    tag_415:\n        /* \"#utility.yul\":27041:27057   */\n      0x5469746c6520746f6f206c6f6e67000000000000000000000000000000000000\n        /* \"#utility.yul\":27037:27038   */\n      0x00\n        /* \"#utility.yul\":27029:27035   */\n      dup3\n        /* \"#utility.yul\":27025:27039   */\n      add\n        /* \"#utility.yul\":27018:27058   */\n      mstore\n        /* \"#utility.yul\":26901:27065   */\n      pop\n      jump\t// out\n        /* \"#utility.yul\":27071:27437   */\n    tag_416:\n        /* \"#utility.yul\":27213:27216   */\n      0x00\n        /* \"#utility.yul\":27234:27301   */\n      tag_681\n        /* \"#utility.yul\":27298:27300   */\n      0x0e\n        /* \"#utility.yul\":27293:27296   */\n      dup4\n        /* \"#utility.yul\":27234:27301   */\n      tag_392\n      jump\t// in\n    tag_681:\n        /* \"#utility.yul\":27227:27301   */\n      swap2\n      pop\n        /* \"#utility.yul\":27310:27403   */\n      tag_682\n        /* \"#utility.yul\":27399:27402   */\n      dup3\n        /* \"#utility.yul\":27310:27403   */\n      tag_415\n      jump\t// in\n    tag_682:\n        /* \"#utility.yul\":27428:27430   */\n      0x20\n        /* \"#utility.yul\":27423:27426   */\n      dup3\n        /* \"#utility.yul\":27419:27431   */\n      add\n        /* \"#utility.yul\":27412:27431   */\n      swap1\n      pop\n        /* \"#utility.yul\":27071:27437   */\n      swap2\n      swap1\n      pop\n      jump\t// out\n        /* \"#utility.yul\":27443:27862   */\n    tag_188:\n        /* \"#utility.yul\":27609:27613   */\n      0x00\n        /* \"#utility.yul\":27647:27649   */\n      0x20\n        /* \"#utility.yul\":27636:27645   */\n      dup3\n        /* \"#utility.yul\":27632:27650   */\n      add\n        /* \"#utility.yul\":27624:27650   */\n      swap1\n      pop\n        /* \"#utility.yul\":27696:27705   */\n      dup2\n        /* \"#utility.yul\":27690:27694   */\n      dup2\n        /* \"#utility.yul\":27686:27706   */\n      sub\n        /* \"#utility.yul\":27682:27683   */\n      0x00\n        /* \"#utility.yul\":27671:27680   */\n      dup4\n        /* \"#utility.yul\":27667:27684   */\n      add\n        /* \"#utility.yul\":27660:27707   */\n      mstore\n        /* \"#utility.yul\":27724:27855   */\n      tag_684\n        /* \"#utility.yul\":27850:27854   */\n      dup2\n        /* \"#utility.yul\":27724:27855   */\n      tag_416\n      jump\t// in\n    tag_684:\n        /* \"#utility.yul\":27716:27855   */\n      swap1\n      pop\n        /* \"#utility.yul\":27443:27862   */\n      swap2\n      swap1\n      pop\n      jump\t// out\n        /* \"#utility.yul\":27868:28041   */\n    tag_417:\n        /* \"#utility.yul\":28008:28033   */\n      0x436f6e74656e742063616e6e6f7420626520656d707479000000000000000000\n        /* \"#utility.yul\":28004:28005   */\n      0x00\n        /* \"#utility.yul\":27996:28002   */\n      dup3\n        /* \"#utility.yul\":27992:28006   */\n      add\n        /* \"#utility.yul\":27985:28034   */\n      mstore\n        /* \"#utility.yul\":27868:28041   */\n      pop\n      jump\t// out\n        /* \"#utility.yul\":28047:28413   */\n    tag_418:\n        /* \"#utility.yul\":28189:28192   */\n      0x00\n        /* \"#utility.yul\":28210:28277   */\n      tag_687\n        /* \"#utility.yul\":28274:28276   */\n      0x17\n        /* \"#utility.yul\":28269:28272   */\n      dup4\n        /* \"#utility.yul\":28210:28277   */\n      tag_392\n      jump\t// in\n    tag_687:\n        /* \"#utility.yul\":28203:28277   */\n      swap2\n      pop\n        /* \"#utility.yul\":28286:28379   */\n      tag_688\n        /* \"#utility.yul\":28375:28378   */\n      dup3\n        /* \"#utility.yul\":28286:28379   */\n      tag_417\n      jump\t// in\n    tag_688:\n        /* \"#utility.yul\":28404:28406   */\n      0x20\n        /* \"#utility.yul\":28399:28402   */\n      dup3\n        /* \"#utility.yul\":28395:28407   */\n      add\n        /* \"#utility.yul\":28388:28407   */\n      swap1\n      pop\n        /* \"#utility.yul\":28047:28413   */\n      swap2\n      swap1\n      pop\n      jump\t// out\n        /* \"#utility.yul\":28419:28838   */\n    tag_191:\n        /* \"#utility.yul\":28585:28589   */\n      0x00\n        /* \"#utility.yul\":28623:28625   */\n      0x20\n        /* \"#utility.yul\":28612:28621   */\n      dup3\n        /* \"#utility.yul\":28608:28626   */\n      add\n        /* \"#utility.yul\":28600:28626   */\n      swap1\n      pop\n        /* \"#utility.yul\":28672:28681   */\n      dup2\n        /* \"#utility.yul\":28666:28670   */\n      dup2\n        /* \"#utility.yul\":28662:28682   */\n      sub\n        /* \"#utility.yul\":28658:28659   */\n      0x00\n        /* \"#utility.yul\":28647:28656   */\n      dup4\n        /* \"#utility.yul\":28643:28660   */\n      add\n        /* \"#utility.yul\":28636:28683   */\n      mstore\n        /* \"#utility.yul\":28700:28831   */\n      tag_690\n        /* \"#utility.yul\":28826:28830   */\n      dup2\n        /* \"#utility.yul\":28700:28831   */\n      tag_418\n      jump\t// in\n    tag_690:\n        /* \"#utility.yul\":28692:28831   */\n      swap1\n      pop\n        /* \"#utility.yul\":28419:28838   */\n      swap2\n      swap1\n      pop\n      jump\t// out\n        /* \"#utility.yul\":28844:29010   */\n    tag_419:\n        /* \"#utility.yul\":28984:29002   */\n      0x436f6e74656e7420746f6f206c6f6e6700000000000000000000000000000000\n        /* \"#utility.yul\":28980:28981   */\n      0x00\n        /* \"#utility.yul\":28972:28978   */\n      dup3\n        /* \"#utility.yul\":28968:28982   */\n      add\n        /* \"#utility.yul\":28961:29003   */\n      mstore\n        /* \"#utility.yul\":28844:29010   */\n      pop\n      jump\t// out\n        /* \"#utility.yul\":29016:29382   */\n    tag_420:\n        /* \"#utility.yul\":29158:29161   */\n      0x00\n        /* \"#utility.yul\":29179:29246   */\n      tag_693\n        /* \"#utility.yul\":29243:29245   */\n      0x10\n        /* \"#utility.yul\":29238:29241   */\n      dup4\n        /* \"#utility.yul\":29179:29246   */\n      tag_392\n      jump\t// in\n    tag_693:\n        /* \"#utility.yul\":29172:29246   */\n      swap2\n      pop\n        /* \"#utility.yul\":29255:29348   */\n      tag_694\n        /* \"#utility.yul\":29344:29347   */\n      dup3\n        /* \"#utility.yul\":29255:29348   */\n      tag_419\n      jump\t// in\n    tag_694:\n        /* \"#utility.yul\":29373:29375   */\n      0x20\n        /* \"#utility.yul\":29368:29371   */\n      dup3\n        /* \"#utility.yul\":29364:29376   */\n      add\n        /* \"#utility.yul\":29357:29376   */\n      swap1\n      pop\n        /* \"#utility.yul\":29016:29382   */\n      swap2\n      swap1\n      pop\n      jump\t// out\n        /* \"#utility.yul\":29388:29807   */\n    tag_194:\n        /* \"#utility.yul\":29554:29558   */\n      0x00\n        /* \"#utility.yul\":29592:29594   */\n      0x20\n        /* \"#utility.yul\":29581:29590   */\n      dup3\n        /* \"#utility.yul\":29577:29595   */\n      add\n        /* \"#utility.yul\":29569:29595   */\n      swap1\n      pop\n        /* \"#utility.yul\":29641:29650   */\n      dup2\n        /* \"#utility.yul\":29635:29639   */\n      dup2\n        /* \"#utility.yul\":29631:29651   */\n      sub\n        /* \"#utility.yul\":29627:29628   */\n      0x00\n        /* \"#utility.yul\":29616:29625   */\n      dup4\n        /* \"#utility.yul\":29612:29629   */\n      add\n        /* \"#utility.yul\":29605:29652   */\n      mstore\n        /* \"#utility.yul\":29669:29800   */\n      tag_696\n        /* \"#utility.yul\":29795:29799   */\n      dup2\n        /* \"#utility.yul\":29669:29800   */\n      tag_420\n      jump\t// in\n    tag_696:\n        /* \"#utility.yul\":29661:29800   */\n      swap1\n      pop\n        /* \"#utility.yul\":29388:29807   */\n      swap2\n      swap1\n      pop\n      jump\t// out\n        /* \"#utility.yul\":29813:29954   */\n    tag_421:\n        /* \"#utility.yul\":29862:29866   */\n      0x00\n        /* \"#utility.yul\":29885:29888   */\n      dup2\n        /* \"#utility.yul\":29877:29888   */\n      swap1\n      pop\n        /* \"#utility.yul\":29908:29911   */\n      dup2\n        /* \"#utility.yul\":29905:29906   */\n      0x00\n        /* \"#utility.yul\":29898:29912   */\n      mstore\n        /* \"#utility.yul\":29942:29946   */\n      0x20\n        /* \"#utility.yul\":29939:29940   */\n      0x00\n        /* \"#utility.yul\":29929:29947   */\n      keccak256\n        /* \"#utility.yul\":29921:29947   */\n      swap1\n      pop\n        /* \"#utility.yul\":29813:29954   */\n      swap2\n      swap1\n      pop\n      jump\t// out\n        /* \"#utility.yul\":29960:30053   */\n    tag_422:\n        /* \"#utility.yul\":29997:30003   */\n      0x00\n        /* \"#utility.yul\":30044:30046   */\n      0x20\n        /* \"#utility.yul\":30039:30041   */\n      0x1f\n        /* \"#utility.yul\":30032:30037   */\n      dup4\n        /* \"#utility.yul\":30028:30042   */\n      add\n        /* \"#utility.yul\":30024:30047   */\n      div\n        /* \"#utility.yul\":30014:30047   */\n      swap1\n      pop\n        /* \"#utility.yul\":29960:30053   */\n      swap2\n      swap1\n      pop\n      jump\t// out\n        /* \"#utility.yul\":30059:30166   */\n    tag_423:\n        /* \"#utility.yul\":30103:30111   */\n      0x00\n        /* \"#utility.yul\":30153:30158   */\n      dup3\n        /* \"#utility.yul\":30147:30151   */\n      dup3\n        /* \"#utility.yul\":30143:30159   */\n      shl\n        /* \"#utility.yul\":30122:30159   */\n      swap1\n      pop\n        /* \"#utility.yul\":30059:30166   */\n      swap3\n      swap2\n      pop\n      pop\n      jump\t// out\n        /* \"#utility.yul\":30172:30565   */\n    tag_424:\n        /* \"#utility.yul\":30241:30247   */\n      0x00\n        /* \"#utility.yul\":30291:30292   */\n      0x08\n        /* \"#utility.yul\":30279:30289   */\n      dup4\n        /* \"#utility.yul\":30275:30293   */\n      mul\n        /* \"#utility.yul\":30314:30411   */\n      tag_701\n        /* \"#utility.yul\":30344:30410   */\n      0xffffffffffffffffffffffffffffffffffffffffffffffffffffffffffffffff\n        /* \"#utility.yul\":30333:30342   */\n      dup3\n        /* \"#utility.yul\":30314:30411   */\n      tag_423\n      jump\t// in\n    tag_701:\n        /* \"#utility.yul\":30432:30471   */\n      tag_702\n        /* \"#utility.yul\":30462:30470   */\n      dup7\n        /* \"#utility.yul\":30451:30460   */\n      dup4\n        /* \"#utility.yul\":30432:30471   */\n      tag_423\n      jump\t// in\n    tag_702:\n        /* \"#utility.yul\":30420:30471   */\n      swap6\n      pop\n        /* \"#utility.yul\":30504:30508   */\n      dup1\n        /* \"#utility.yul\":30500:30509   */\n      not\n        /* \"#utility.yul\":30493:30498   */\n      dup5\n        /* \"#utility.yul\":30489:30510   */\n      and\n        /* \"#utility.yul\":30480:30510   */\n      swap4\n      pop\n        /* \"#utility.yul\":30553:30557   */\n      dup1\n        /* \"#utility.yul\":30543:30551   */\n      dup7\n        /* \"#utility.yul\":30539:30558   */\n      and\n        /* \"#utility.yul\":30532:30537   */\n      dup5\n        /* \"#utility.yul\":30529:30559   */\n      or\n        /* \"#utility.yul\":30519:30559   */\n      swap3\n      pop\n        /* \"#utility.yul\":30248:30565   */\n      pop\n      pop\n        /* \"#utility.yul\":30172:30565   */\n      swap4\n      swap3\n      pop\n      pop\n      pop\n      jump\t// out\n        /* \"#utility.yul\":30571:30631   */\n    tag_425:\n        /* \"#utility.yul\":30599:30602   */\n      0x00\n        /* \"#utility.yul\":30620:30625   */\n      dup2\n        /* \"#utility.yul\":30613:30625   */\n      swap1\n      pop\n        /* \"#utility.yul\":30571:30631   */\n      swap2\n      swap1\n      pop\n      jump\t// out\n        /* \"#utility.yul\":30637:30779   */\n    tag_426:\n        /* \"#utility.yul\":30687:30696   */\n      0x00\n        /* \"#utility.yul\":30720:30773   */\n      tag_705\n        /* \"#utility.yul\":30738:30772   */\n      tag_706\n        /* \"#utility.yul\":30747:30771   */\n      tag_707\n        /* \"#utility.yul\":30765:30770   */\n      dup5\n        /* \"#utility.yul\":30747:30771   */\n      tag_345\n      jump\t// in\n    tag_707:\n        /* \"#utility.yul\":30738:30772   */\n      tag_425\n      jump\t// in\n    tag_706:\n        /* \"#utility.yul\":30720:30773   */\n      tag_345\n      jump\t// in\n    tag_705:\n        /* \"#utility.yul\":30707:30773   */\n      swap1\n      pop\n        /* \"#utility.yul\":30637:30779   */\n      swap2\n      swap1\n      pop\n      jump\t// out\n        /* \"#utility.yul\":30785:30860   */\n    tag_427:\n        /* \"#utility.yul\":30828:30831   */\n      0x00\n        /* \"#utility.yul\":30849:30854   */\n      dup2\n        /* \"#utility.yul\":30842:30854   */\n      swap1\n      pop\n        /* \"#utility.yul\":30785:30860   */\n      swap2\n      swap1\n      pop\n      jump\t// out\n        /* \"#utility.yul\":30866:31135   */\n    tag_428:\n        /* \"#utility.yul\":30976:31015   */\n      tag_710\n        /* \"#utility.yul\":31007:31014   */\n      dup4\n        /* \"#utility.yul\":30976:31015   */\n      tag_426\n      jump\t// in\n    tag_710:\n        /* \"#utility.yul\":31037:31128   */\n      tag_711\n        /* \"#utility.yul\":31086:31127   */\n      tag_712\n        /* \"#utility.yul\":31110:31126   */\n      dup3\n        /* \"#utility.yul\":31086:31127   */\n      tag_427\n      jump\t// in\n    tag_712:\n        /* \"#utility.yul\":31078:31084   */\n      dup5\n        /* \"#utility.yul\":31071:31075   */\n      dup5\n        /* \"#utility.yul\":31065:31076   */\n      sload\n        /* \"#utility.yul\":31037:31128   */\n      tag_424\n      jump\t// in\n    tag_711:\n        /* \"#utility.yul\":31031:31035   */\n      dup3\n        /* \"#utility.yul\":31024:31129   */\n      sstore\n        /* \"#utility.yul\":30942:31135   */\n      pop\n        /* \"#utility.yul\":30866:31135   */\n      pop\n      pop\n      pop\n      jump\t// out\n        /* \"#utility.yul\":31141:31214   */\n    tag_429:\n        /* \"#utility.yul\":31186:31189   */\n      0x00\n        /* \"#utility.yul\":31207:31208   */\n      0x00\n        /* \"#utility.yul\":31200:31208   */\n      swap1\n      pop\n        /* \"#utility.yul\":31141:31214   */\n      swap1\n      jump\t// out\n        /* \"#utility.yul\":31220:31409   */\n    tag_430:\n        /* \"#utility.yul\":31297:31329   */\n      tag_715\n      tag_429\n      jump\t// in\n    tag_715:\n        /* \"#utility.yul\":31338:31403   */\n      tag_716\n        /* \"#utility.yul\":31396:31402   */\n      dup2\n        /* \"#utility.yul\":31388:31394   */\n      dup5\n        /* \"#utility.yul\":31382:31386   */\n      dup5\n        /* \"#utility.yul\":31338:31403   */\n      tag_428\n      jump\t// in\n    tag_716:\n        /* \"#utility.yul\":31273:31409   */\n      pop\n        /* \"#utility.yul\":31220:31409   */\n      pop\n      pop\n      jump\t// out\n        /* \"#utility.yul\":31415:31601   */\n    tag_431:\n        /* \"#utility.yul\":31475:31595   */\n    tag_718:\n        /* \"#utility.yul\":31492:31495   */\n      dup2\n        /* \"#utility.yul\":31485:31490   */\n      dup2\n        /* \"#utility.yul\":31482:31496   */\n      lt\n        /* \"#utility.yul\":31475:31595   */\n      iszero\n      tag_720\n      jumpi\n        /* \"#utility.yul\":31546:31585   */\n      tag_721\n        /* \"#utility.yul\":31583:31584   */\n      0x00\n        /* \"#utility.yul\":31576:31581   */\n      dup3\n        /* \"#utility.yul\":31546:31585   */\n      tag_430\n      jump\t// in\n    tag_721:\n        /* \"#utility.yul\":31519:31520   */\n      0x01\n        /* \"#utility.yul\":31512:31517   */\n      dup2\n        /* \"#utility.yul\":31508:31521   */\n      add\n        /* \"#utility.yul\":31499:31521   */\n      swap1\n      pop\n        /* \"#utility.yul\":31475:31595   */\n      jump(tag_718)\n    tag_720:\n        /* \"#utility.yul\":31415:31601   */\n      pop\n      pop\n      jump\t// out\n        /* \"#utility.yul\":31607:32150   */\n    tag_432:\n        /* \"#utility.yul\":31708:31710   */\n      0x1f\n        /* \"#utility.yul\":31703:31706   */\n      dup3\n        /* \"#utility.yul\":31700:31711   */\n      gt\n        /* \"#utility.yul\":31697:32143   */\n      iszero\n      tag_723\n      jumpi\n        /* \"#utility.yul\":31742:31780   */\n      tag_724\n        /* \"#utility.yul\":31774:31779   */\n      dup2\n        /* \"#utility.yul\":31742:31780   */\n      tag_421\n      jump\t// in\n    tag_724:\n        /* \"#utility.yul\":31826:31855   */\n      tag_725\n        /* \"#utility.yul\":31844:31854   */\n      dup5\n        /* \"#utility.yul\":31826:31855   */\n      tag_422\n      jump\t// in\n    tag_725:\n        /* \"#utility.yul\":31816:31824   */\n      dup2\n        /* \"#utility.yul\":31812:31856   */\n      add\n        /* \"#utility.yul\":32009:32011   */\n      0x20\n        /* \"#utility.yul\":31997:32007   */\n      dup6\n        /* \"#utility.yul\":31994:32012   */\n      lt\n        /* \"#utility.yul\":31991:32040   */\n      iszero\n      tag_726\n      jumpi\n        /* \"#utility.yul\":32030:32038   */\n      dup2\n        /* \"#utility.yul\":32015:32038   */\n      swap1\n      pop\n        /* \"#utility.yul\":31991:32040   */\n    tag_726:\n        /* \"#utility.yul\":32053:32133   */\n      tag_727\n        /* \"#utility.yul\":32109:32131   */\n      tag_728\n        /* \"#utility.yul\":32127:32130   */\n      dup6\n        /* \"#utility.yul\":32109:32131   */\n      tag_422\n      jump\t// in\n    tag_728:\n        /* \"#utility.yul\":32099:32107   */\n      dup4\n        /* \"#utility.yul\":32095:32132   */\n      add\n        /* \"#utility.yul\":32082:32093   */\n      dup3\n        /* \"#utility.yul\":32053:32133   */\n      tag_431\n      jump\t// in\n    tag_727:\n        /* \"#utility.yul\":31712:32143   */\n      pop\n      pop\n        /* \"#utility.yul\":31697:32143   */\n    tag_723:\n        /* \"#utility.yul\":31607:32150   */\n      pop\n      pop\n      pop\n      jump\t// out\n        /* \"#utility.yul\":32156:32273   */\n    tag_433:\n        /* \"#utility.yul\":32210:32218   */\n      0x00\n        /* \"#utility.yul\":32260:32265   */\n      dup3\n        /* \"#utility.yul\":32254:32258   */\n      dup3\n        /* \"#utility.yul\":32250:32266   */\n      shr\n        /* \"#utility.yul\":32229:32266   */\n      swap1\n      pop\n        /* \"#utility.yul\":32156:32273   */\n      swap3\n      swap2\n      pop\n      pop\n      jump\t// out\n        /* \"#utility.yul\":32279:32448   */\n    tag_434:\n        /* \"#utility.yul\":32323:32329   */\n      0x00\n        /* \"#utility.yul\":32356:32407   */\n      tag_731\n        /* \"#utility.yul\":32404:32405   */\n      0x00\n        /* \"#utility.yul\":32400:32406   */\n      not\n        /* \"#utility.yul\":32392:32397   */\n      dup5\n        /* \"#utility.yul\":32389:32390   */\n      0x08\n        /* \"#utility.yul\":32385:32398   */\n      mul\n        /* \"#utility.yul\":32356:32407   */\n      tag_433\n      jump\t// in\n    tag_731:\n        /* \"#utility.yul\":32352:32408   */\n      not\n        /* \"#utility.yul\":32437:32441   */\n      dup1\n        /* \"#utility.yul\":32431:32435   */\n      dup4\n        /* \"#utility.yul\":32427:32442   */\n      and\n        /* \"#utility.yul\":32417:32442   */\n      swap2\n      pop\n        /* \"#utility.yul\":32330:32448   */\n      pop\n        /* \"#utility.yul\":32279:32448   */\n      swap3\n      swap2\n      pop\n      pop\n      jump\t// out\n        /* \"#utility.yul\":32453:32748   */\n    tag_435:\n        /* \"#utility.yul\":32529:32533   */\n      0x00\n        /* \"#utility.yul\":32675:32704   */\n      tag_733\n        /* \"#utility.yul\":32700:32703   */\n      dup4\n        /* \"#utility.yul\":32694:32698   */\n      dup4\n        /* \"#utility.yul\":32675:32704   */\n      tag_434\n      jump\t// in\n    tag_733:\n        /* \"#utility.yul\":32667:32704   */\n      swap2\n      pop\n        /* \"#utility.yul\":32737:32740   */\n      dup3\n        /* \"#utility.yul\":32734:32735   */\n      0x02\n        /* \"#utility.yul\":32730:32741   */\n      mul\n        /* \"#utility.yul\":32724:32728   */\n      dup3\n        /* \"#utility.yul\":32721:32742   */\n      or\n        /* \"#utility.yul\":32713:32742   */\n      swap1\n      pop\n        /* \"#utility.yul\":32453:32748   */\n      swap3\n      swap2\n      pop\n      pop\n      jump\t// out\n        /* \"#utility.yul\":32753:34148   */\n    tag_197:\n        /* \"#utility.yul\":32870:32907   */\n      tag_735\n        /* \"#utility.yul\":32903:32906   */\n      dup3\n        /* \"#utility.yul\":32870:32907   */\n      tag_359\n      jump\t// in\n    tag_735:\n        /* \"#utility.yul\":32972:32990   */\n      0xffffffffffffffff\n        /* \"#utility.yul\":32964:32970   */\n      dup2\n        /* \"#utility.yul\":32961:32991   */\n      gt\n        /* \"#utility.yul\":32958:33014   */\n      iszero\n      tag_736\n      jumpi\n        /* \"#utility.yul\":32994:33012   */\n      tag_737\n      tag_90\n      jump\t// in\n    tag_737:\n        /* \"#utility.yul\":32958:33014   */\n    tag_736:\n        /* \"#utility.yul\":33038:33076   */\n      tag_738\n        /* \"#utility.yul\":33070:33074   */\n      dup3\n        /* \"#utility.yul\":33064:33075   */\n      sload\n        /* \"#utility.yul\":33038:33076   */\n      tag_134\n      jump\t// in\n    tag_738:\n        /* \"#utility.yul\":33123:33190   */\n      tag_739\n        /* \"#utility.yul\":33183:33189   */\n      dup3\n        /* \"#utility.yul\":33175:33181   */\n      dup3\n        /* \"#utility.yul\":33169:33173   */\n      dup6\n        /* \"#utility.yul\":33123:33190   */\n      tag_432\n      jump\t// in\n    tag_739:\n        /* \"#utility.yul\":33217:33218   */\n      0x00\n        /* \"#utility.yul\":33241:33245   */\n      0x20\n        /* \"#utility.yul\":33228:33245   */\n      swap1\n      pop\n        /* \"#utility.yul\":33273:33275   */\n      0x1f\n        /* \"#utility.yul\":33265:33271   */\n      dup4\n        /* \"#utility.yul\":33262:33276   */\n      gt\n        /* \"#utility.yul\":33290:33291   */\n      0x01\n        /* \"#utility.yul\":33285:33903   */\n      dup2\n      eq\n      tag_741\n      jumpi\n        /* \"#utility.yul\":33947:33948   */\n      0x00\n        /* \"#utility.yul\":33964:33970   */\n      dup5\n        /* \"#utility.yul\":33961:34038   */\n      iszero\n      tag_742\n      jumpi\n        /* \"#utility.yul\":34013:34022   */\n      dup3\n        /* \"#utility.yul\":34008:34011   */\n      dup8\n        /* \"#utility.yul\":34004:34023   */\n      add\n        /* \"#utility.yul\":33998:34024   */\n      mload\n        /* \"#utility.yul\":33989:34024   */\n      swap1\n      pop\n        /* \"#utility.yul\":33961:34038   */\n    tag_742:\n        /* \"#utility.yul\":34064:34131   */\n      tag_743\n        /* \"#utility.yul\":34124:34130   */\n      dup6\n        /* \"#utility.yul\":34117:34122   */\n      dup3\n        /* \"#utility.yul\":34064:34131   */\n      tag_435\n      jump\t// in\n    tag_743:\n        /* \"#utility.yul\":34058:34062   */\n      dup7\n        /* \"#utility.yul\":34051:34132   */\n      sstore\n        /* \"#utility.yul\":33920:34142   */\n      pop\n        /* \"#utility.yul\":33255:34142   */\n      jump(tag_740)\n        /* \"#utility.yul\":33285:33903   */\n    tag_741:\n        /* \"#utility.yul\":33337:33341   */\n      0x1f\n        /* \"#utility.yul\":33333:33342   */\n      not\n        /* \"#utility.yul\":33325:33331   */\n      dup5\n        /* \"#utility.yul\":33321:33343   */\n      and\n        /* \"#utility.yul\":33371:33408   */\n      tag_744\n        /* \"#utility.yul\":33403:33407   */\n      dup7\n        /* \"#utility.yul\":33371:33408   */\n      tag_421\n      jump\t// in\n    tag_744:\n        /* \"#utility.yul\":33430:33431   */\n      0x00\n        /* \"#utility.yul\":33444:33652   */\n    tag_745:\n        /* \"#utility.yul\":33458:33465   */\n      dup3\n        /* \"#utility.yul\":33455:33456   */\n      dup2\n        /* \"#utility.yul\":33452:33466   */\n      lt\n        /* \"#utility.yul\":33444:33652   */\n      iszero\n      tag_747\n      jumpi\n        /* \"#utility.yul\":33537:33546   */\n      dup5\n        /* \"#utility.yul\":33532:33535   */\n      dup10\n        /* \"#utility.yul\":33528:33547   */\n      add\n        /* \"#utility.yul\":33522:33548   */\n      mload\n        /* \"#utility.yul\":33514:33520   */\n      dup3\n        /* \"#utility.yul\":33507:33549   */\n      sstore\n        /* \"#utility.yul\":33588:33589   */\n      0x01\n        /* \"#utility.yul\":33580:33586   */\n      dup3\n        /* \"#utility.yul\":33576:33590   */\n      add\n        /* \"#utility.yul\":33566:33590   */\n      swap2\n      pop\n        /* \"#utility.yul\":33635:33637   */\n      0x20\n        /* \"#utility.yul\":33624:33633   */\n      dup6\n        /* \"#utility.yul\":33620:33638   */\n      add\n        /* \"#utility.yul\":33607:33638   */\n      swap5\n      pop\n        /* \"#utility.yul\":33481:33485   */\n      0x20\n        /* \"#utility.yul\":33478:33479   */\n      dup2\n        /* \"#utility.yul\":33474:33486   */\n      add\n        /* \"#utility.yul\":33469:33486   */\n      swap1\n      pop\n        /* \"#utility.yul\":33444:33652   */\n      jump(tag_745)\n    tag_747:\n        /* \"#utility.yul\":33680:33686   */\n      dup7\n        /* \"#utility.yul\":33671:33678   */\n      dup4\n        /* \"#utility.yul\":33668:33687   */\n      lt\n        /* \"#utility.yul\":33665:33844   */\n      iszero\n      tag_748\n      jumpi\n        /* \"#utility.yul\":33738:33747   */\n      dup5\n        /* \"#utility.yul\":33733:33736   */\n      dup10\n        /* \"#utility.yul\":33729:33748   */\n      add\n        /* \"#utility.yul\":33723:33749   */\n      mload\n        /* \"#utility.yul\":33781:33829   */\n      tag_749\n        /* \"#utility.yul\":33823:33827   */\n      0x1f\n        /* \"#utility.yul\":33815:33821   */\n      dup10\n        /* \"#utility.yul\":33811:33828   */\n      and\n        /* \"#utility.yul\":33800:33809   */\n      dup3\n        /* \"#utility.yul\":33781:33829   */\n      tag_434\n      jump\t// in\n    tag_749:\n        /* \"#utility.yul\":33773:33779   */\n      dup4\n        /* \"#utility.yul\":33766:33830   */\n      sstore\n        /* \"#utility.yul\":33688:33844   */\n      pop\n        /* \"#utility.yul\":33665:33844   */\n    tag_748:\n        /* \"#utility.yul\":33890:33891   */\n      0x01\n        /* \"#utility.yul\":33886:33887   */\n      0x02\n        /* \"#utility.yul\":33878:33884   */\n      dup9\n        /* \"#utility.yul\":33874:33888   */\n      mul\n        /* \"#utility.yul\":33870:33892   */\n      add\n        /* \"#utility.yul\":33864:33868   */\n      dup9\n        /* \"#utility.yul\":33857:33893   */\n      sstore\n        /* \"#utility.yul\":33292:33903   */\n      pop\n      pop\n      pop\n        /* \"#utility.yul\":33255:34142   */\n    tag_740:\n      pop\n        /* \"#utility.yul\":32845:34148   */\n      pop\n      pop\n      pop\n        /* \"#utility.yul\":32753:34148   */\n      pop\n      pop\n      jump\t// out\n        /* \"#utility.yul\":34154:34577   */\n    tag_202:\n        /* \"#utility.yul\":34295:34299   */\n      0x00\n        /* \"#utility.yul\":34333:34335   */\n      0x40\n        /* \"#utility.yul\":34322:34331   */\n      dup3\n        /* \"#utility.yul\":34318:34336   */\n      add\n        /* \"#utility.yul\":34310:34336   */\n      swap1\n      pop\n        /* \"#utility.yul\":34382:34391   */\n      dup2\n        /* \"#utility.yul\":34376:34380   */\n      dup2\n        /* \"#utility.yul\":34372:34392   */\n      sub\n        /* \"#utility.yul\":34368:34369   */\n      0x00\n        /* \"#utility.yul\":34357:34366   */\n      dup4\n        /* \"#utility.yul\":34353:34370   */\n      add\n        /* \"#utility.yul\":34346:34393   */\n      mstore\n        /* \"#utility.yul\":34410:34488   */\n      tag_751\n        /* \"#utility.yul\":34483:34487   */\n      dup2\n        /* \"#utility.yul\":34474:34480   */\n      dup6\n        /* \"#utility.yul\":34410:34488   */\n      tag_393\n      jump\t// in\n    tag_751:\n        /* \"#utility.yul\":34402:34488   */\n      swap1\n      pop\n        /* \"#utility.yul\":34498:34570   */\n      tag_752\n        /* \"#utility.yul\":34566:34568   */\n      0x20\n        /* \"#utility.yul\":34555:34564   */\n      dup4\n        /* \"#utility.yul\":34551:34569   */\n      add\n        /* \"#utility.yul\":34542:34548   */\n      dup5\n        /* \"#utility.yul\":34498:34570   */\n      tag_348\n      jump\t// in\n    tag_752:\n        /* \"#utility.yul\":34154:34577   */\n      swap4\n      swap3\n      pop\n      pop\n      pop\n      jump\t// out\n        /* \"#utility.yul\":34583:34812   */\n    tag_436:\n        /* \"#utility.yul\":34723:34757   */\n      0x566f7573206e6520706f7576657a20706173206c696b657220766f7472652070\n        /* \"#utility.yul\":34719:34720   */\n      0x00\n        /* \"#utility.yul\":34711:34717   */\n      dup3\n        /* \"#utility.yul\":34707:34721   */\n      add\n        /* \"#utility.yul\":34700:34758   */\n      mstore\n        /* \"#utility.yul\":34792:34804   */\n      0x726f70726520706f737400000000000000000000000000000000000000000000\n        /* \"#utility.yul\":34787:34789   */\n      0x20\n        /* \"#utility.yul\":34779:34785   */\n      dup3\n        /* \"#utility.yul\":34775:34790   */\n      add\n        /* \"#utility.yul\":34768:34805   */\n      mstore\n        /* \"#utility.yul\":34583:34812   */\n      pop\n      jump\t// out\n        /* \"#utility.yul\":34818:35184   */\n    tag_437:\n        /* \"#utility.yul\":34960:34963   */\n      0x00\n        /* \"#utility.yul\":34981:35048   */\n      tag_755\n        /* \"#utility.yul\":35045:35047   */\n      0x2a\n        /* \"#utility.yul\":35040:35043   */\n      dup4\n        /* \"#utility.yul\":34981:35048   */\n      tag_392\n      jump\t// in\n    tag_755:\n        /* \"#utility.yul\":34974:35048   */\n      swap2\n      pop\n        /* \"#utility.yul\":35057:35150   */\n      tag_756\n        /* \"#utility.yul\":35146:35149   */\n      dup3\n        /* \"#utility.yul\":35057:35150   */\n      tag_436\n      jump\t// in\n    tag_756:\n        /* \"#utility.yul\":35175:35177   */\n      0x40\n        /* \"#utility.yul\":35170:35173   */\n      dup3\n        /* \"#utility.yul\":35166:35178   */\n      add\n        /* \"#utility.yul\":35159:35178   */\n      swap1\n      pop\n        /* \"#utility.yul\":34818:35184   */\n      swap2\n      swap1\n      pop\n      jump\t// out\n        /* \"#utility.yul\":35190:35609   */\n    tag_258:\n        /* \"#utility.yul\":35356:35360   */\n      0x00\n        /* \"#utility.yul\":35394:35396   */\n      0x20\n        /* \"#utility.yul\":35383:35392   */\n      dup3\n        /* \"#utility.yul\":35379:35397   */\n      add\n        /* \"#utility.yul\":35371:35397   */\n      swap1\n      pop\n        /* \"#utility.yul\":35443:35452   */\n      dup2\n        /* \"#utility.yul\":35437:35441   */\n      dup2\n        /* \"#utility.yul\":35433:35453   */\n      sub\n        /* \"#utility.yul\":35429:35430   */\n      0x00\n        /* \"#utility.yul\":35418:35427   */\n      dup4\n        /* \"#utility.yul\":35414:35431   */\n      add\n        /* \"#utility.yul\":35407:35454   */\n      mstore\n        /* \"#utility.yul\":35471:35602   */\n      tag_758\n        /* \"#utility.yul\":35597:35601   */\n      dup2\n        /* \"#utility.yul\":35471:35602   */\n      tag_437\n      jump\t// in\n    tag_758:\n        /* \"#utility.yul\":35463:35602   */\n      swap1\n      pop\n        /* \"#utility.yul\":35190:35609   */\n      swap2\n      swap1\n      pop\n      jump\t// out\n        /* \"#utility.yul\":35615:35809   */\n    tag_293:\n        /* \"#utility.yul\":35655:35659   */\n      0x00\n        /* \"#utility.yul\":35675:35695   */\n      tag_760\n        /* \"#utility.yul\":35693:35694   */\n      dup3\n        /* \"#utility.yul\":35675:35695   */\n      tag_345\n      jump\t// in\n    tag_760:\n        /* \"#utility.yul\":35670:35695   */\n      swap2\n      pop\n        /* \"#utility.yul\":35709:35729   */\n      tag_761\n        /* \"#utility.yul\":35727:35728   */\n      dup4\n        /* \"#utility.yul\":35709:35729   */\n      tag_345\n      jump\t// in\n    tag_761:\n        /* \"#utility.yul\":35704:35729   */\n      swap3\n      pop\n        /* \"#utility.yul\":35753:35754   */\n      dup3\n        /* \"#utility.yul\":35750:35751   */\n      dup3\n        /* \"#utility.yul\":35746:35755   */\n      sub\n        /* \"#utility.yul\":35738:35755   */\n      swap1\n      pop\n        /* \"#utility.yul\":35777:35778   */\n      dup2\n        /* \"#utility.yul\":35771:35775   */\n      dup2\n        /* \"#utility.yul\":35768:35779   */\n      gt\n        /* \"#utility.yul\":35765:35802   */\n      iszero\n      tag_762\n      jumpi\n        /* \"#utility.yul\":35782:35800   */\n      tag_763\n      tag_411\n      jump\t// in\n    tag_763:\n        /* \"#utility.yul\":35765:35802   */\n    tag_762:\n        /* \"#utility.yul\":35615:35809   */\n      swap3\n      swap2\n      pop\n      pop\n      jump\t// out\n        /* \"#utility.yul\":35815:35995   */\n    tag_308:\n        /* \"#utility.yul\":35863:35940   */\n      0x4e487b7100000000000000000000000000000000000000000000000000000000\n        /* \"#utility.yul\":35860:35861   */\n      0x00\n        /* \"#utility.yul\":35853:35941   */\n      mstore\n        /* \"#utility.yul\":35960:35964   */\n      0x31\n        /* \"#utility.yul\":35957:35958   */\n      0x04\n        /* \"#utility.yul\":35950:35965   */\n      mstore\n        /* \"#utility.yul\":35984:35988   */\n      0x24\n        /* \"#utility.yul\":35981:35982   */\n      0x00\n        /* \"#utility.yul\":35974:35989   */\n      revert\n        /* \"#utility.yul\":36001:36224   */\n    tag_438:\n        /* \"#utility.yul\":36141:36175   */\n      0x4c6520636f6d6d656e7461697265206e65207065757420706173206574726520\n        /* \"#utility.yul\":36137:36138   */\n      0x00\n        /* \"#utility.yul\":36129:36135   */\n      dup3\n        /* \"#utility.yul\":36125:36139   */\n      add\n        /* \"#utility.yul\":36118:36176   */\n      mstore\n        /* \"#utility.yul\":36210:36216   */\n      0x7669646500000000000000000000000000000000000000000000000000000000\n        /* \"#utility.yul\":36205:36207   */\n      0x20\n        /* \"#utility.yul\":36197:36203   */\n      dup3\n        /* \"#utility.yul\":36193:36208   */\n      add\n        /* \"#utility.yul\":36186:36217   */\n      mstore\n        /* \"#utility.yul\":36001:36224   */\n      pop\n      jump\t// out\n        /* \"#utility.yul\":36230:36596   */\n    tag_439:\n        /* \"#utility.yul\":36372:36375   */\n      0x00\n        /* \"#utility.yul\":36393:36460   */\n      tag_767\n        /* \"#utility.yul\":36457:36459   */\n      0x24\n        /* \"#utility.yul\":36452:36455   */\n      dup4\n        /* \"#utility.yul\":36393:36460   */\n      tag_392\n      jump\t// in\n    tag_767:\n        /* \"#utility.yul\":36386:36460   */\n      swap2\n      pop\n        /* \"#utility.yul\":36469:36562   */\n      tag_768\n        /* \"#utility.yul\":36558:36561   */\n      dup3\n        /* \"#utility.yul\":36469:36562   */\n      tag_438\n      jump\t// in\n    tag_768:\n        /* \"#utility.yul\":36587:36589   */\n      0x40\n        /* \"#utility.yul\":36582:36585   */\n      dup3\n        /* \"#utility.yul\":36578:36590   */\n      add\n        /* \"#utility.yul\":36571:36590   */\n      swap1\n      pop\n        /* \"#utility.yul\":36230:36596   */\n      swap2\n      swap1\n      pop\n      jump\t// out\n        /* \"#utility.yul\":36602:37021   */\n    tag_331:\n        /* \"#utility.yul\":36768:36772   */\n      0x00\n        /* \"#utility.yul\":36806:36808   */\n      0x20\n        /* \"#utility.yul\":36795:36804   */\n      dup3\n        /* \"#utility.yul\":36791:36809   */\n      add\n        /* \"#utility.yul\":36783:36809   */\n      swap1\n      pop\n        /* \"#utility.yul\":36855:36864   */\n      dup2\n        /* \"#utility.yul\":36849:36853   */\n      dup2\n        /* \"#utility.yul\":36845:36865   */\n      sub\n        /* \"#utility.yul\":36841:36842   */\n      0x00\n        /* \"#utility.yul\":36830:36839   */\n      dup4\n        /* \"#utility.yul\":36826:36843   */\n      add\n        /* \"#utility.yul\":36819:36866   */\n      mstore\n        /* \"#utility.yul\":36883:37014   */\n      tag_770\n        /* \"#utility.yul\":37009:37013   */\n      dup2\n        /* \"#utility.yul\":36883:37014   */\n      tag_439\n      jump\t// in\n    tag_770:\n        /* \"#utility.yul\":36875:37014   */\n      swap1\n      pop\n        /* \"#utility.yul\":36602:37021   */\n      swap2\n      swap1\n      pop\n      jump\t// out\n        /* \"#utility.yul\":37027:37205   */\n    tag_440:\n        /* \"#utility.yul\":37167:37197   */\n      0x4c6520636f6d6d656e7461697265206573742074726f70206c6f6e6700000000\n        /* \"#utility.yul\":37163:37164   */\n      0x00\n        /* \"#utility.yul\":37155:37161   */\n      dup3\n        /* \"#utility.yul\":37151:37165   */\n      add\n        /* \"#utility.yul\":37144:37198   */\n      mstore\n        /* \"#utility.yul\":37027:37205   */\n      pop\n      jump\t// out\n        /* \"#utility.yul\":37211:37577   */\n    tag_441:\n        /* \"#utility.yul\":37353:37356   */\n      0x00\n        /* \"#utility.yul\":37374:37441   */\n      tag_773\n        /* \"#utility.yul\":37438:37440   */\n      0x1c\n        /* \"#utility.yul\":37433:37436   */\n      dup4\n        /* \"#utility.yul\":37374:37441   */\n      tag_392\n      jump\t// in\n    tag_773:\n        /* \"#utility.yul\":37367:37441   */\n      swap2\n      pop\n        /* \"#utility.yul\":37450:37543   */\n      tag_774\n        /* \"#utility.yul\":37539:37542   */\n      dup3\n        /* \"#utility.yul\":37450:37543   */\n      tag_440\n      jump\t// in\n    tag_774:\n        /* \"#utility.yul\":37568:37570   */\n      0x20\n        /* \"#utility.yul\":37563:37566   */\n      dup3\n        /* \"#utility.yul\":37559:37571   */\n      add\n        /* \"#utility.yul\":37552:37571   */\n      swap1\n      pop\n        /* \"#utility.yul\":37211:37577   */\n      swap2\n      swap1\n      pop\n      jump\t// out\n        /* \"#utility.yul\":37583:38002   */\n    tag_334:\n        /* \"#utility.yul\":37749:37753   */\n      0x00\n        /* \"#utility.yul\":37787:37789   */\n      0x20\n        /* \"#utility.yul\":37776:37785   */\n      dup3\n        /* \"#utility.yul\":37772:37790   */\n      add\n        /* \"#utility.yul\":37764:37790   */\n      swap1\n      pop\n        /* \"#utility.yul\":37836:37845   */\n      dup2\n        /* \"#utility.yul\":37830:37834   */\n      dup2\n        /* \"#utility.yul\":37826:37846   */\n      sub\n        /* \"#utility.yul\":37822:37823   */\n      0x00\n        /* \"#utility.yul\":37811:37820   */\n      dup4\n        /* \"#utility.yul\":37807:37824   */\n      add\n        /* \"#utility.yul\":37800:37847   */\n      mstore\n        /* \"#utility.yul\":37864:37995   */\n      tag_776\n        /* \"#utility.yul\":37990:37994   */\n      dup2\n        /* \"#utility.yul\":37864:37995   */\n      tag_441\n      jump\t// in\n    tag_776:\n        /* \"#utility.yul\":37856:37995   */\n      swap1\n      pop\n        /* \"#utility.yul\":37583:38002   */\n      swap2\n      swap1\n      pop\n      jump\t// out\n        /* \"#utility.yul\":38008:38321   */\n    tag_341:\n        /* \"#utility.yul\":38121:38125   */\n      0x00\n        /* \"#utility.yul\":38159:38161   */\n      0x20\n        /* \"#utility.yul\":38148:38157   */\n      dup3\n        /* \"#utility.yul\":38144:38162   */\n      add\n        /* \"#utility.yul\":38136:38162   */\n      swap1\n      pop\n        /* \"#utility.yul\":38208:38217   */\n      dup2\n        /* \"#utility.yul\":38202:38206   */\n      dup2\n        /* \"#utility.yul\":38198:38218   */\n      sub\n        /* \"#utility.yul\":38194:38195   */\n      0x00\n        /* \"#utility.yul\":38183:38192   */\n      dup4\n        /* \"#utility.yul\":38179:38196   */\n      add\n        /* \"#utility.yul\":38172:38219   */\n      mstore\n        /* \"#utility.yul\":38236:38314   */\n      tag_778\n        /* \"#utility.yul\":38309:38313   */\n      dup2\n        /* \"#utility.yul\":38300:38306   */\n      dup5\n        /* \"#utility.yul\":38236:38314   */\n      tag_393\n      jump\t// in\n    tag_778:\n        /* \"#utility.yul\":38228:38314   */\n      swap1\n      pop\n        /* \"#utility.yul\":38008:38321   */\n      swap3\n      swap2\n      pop\n      pop\n      jump\t// out\n\n    auxdata: 0xa264697066735822122047bd8f236b175abe1e6e64beb2b68a4d771ab4931c7f53579a5eddddffda4e5364736f6c634300081b0033\n}\n",
				"bytecode": {
					"linkReferences": {},
					"object": "6080604052348015600e575f5ffd5b50612ece8061001c5f395ff3fe608060405234801561000f575f5ffd5b506004361061009c575f3560e01c806354398d181161006457806354398d18146101675780635fe226b4146101835780638e53fb41146101a15780638fb7092c146101bf578063aa7e5683146101ef5761009c565b8063094cd5ee146100a05780630fbbbfc3146100bc57806330561100146100da578063392338f51461010057806340731c2414610130575b5f5ffd5b6100ba60048036038101906100b59190611ca9565b61020b565b005b6100c46103c3565b6040516100d19190611ce3565b60405180910390f35b6100e26103c9565b6040516100f799989796959493929190612087565b60405180910390f35b61011a6004803603810190610115919061227d565b610b29565b6040516101279190611ce3565b60405180910390f35b61014a60048036038101906101459190611ca9565b610db4565b60405161015e989796959493929190612452565b60405180910390f35b610181600480360381019061017c9190611ca9565b611242565b005b61018b611886565b6040516101989190611ce3565b60405180910390f35b6101a961188f565b6040516101b69190611ce3565b60405180910390f35b6101d960048036038101906101d49190612514565b611895565b6040516101e69190612561565b60405180910390f35b6102096004803603810190610204919061257a565b6119ad565b005b805f805490508110610252576040517f08c379a00000000000000000000000000000000000000000000000000000000081526004016102499061261e565b60405180910390fd5b5f81815481106102655761026461263c565b5b905f5260205f2090600c0201600b015f9054906101000a900460ff166102c0576040517f08c379a00000000000000000000000000000000000000000000000000000000081526004016102b7906126b3565b60405180910390fd5b5f82815481106102d3576102d261263c565b5b905f5260205f2090600c02016003015f9054906101000a900473ffffffffffffffffffffffffffffffffffffffff1673ffffffffffffffffffffffffffffffffffffffff163373ffffffffffffffffffffffffffffffffffffffff161461036f576040517f08c379a000000000000000000000000000000000000000000000000000000000815260040161036690612741565b60405180910390fd5b5f5f83815481106103835761038261263c565b5b905f5260205f2090600c0201600b015f6101000a81548160ff02191690831515021790555060035f8154809291906103ba9061278c565b91905055505050565b60035481565b60608060608060608060608060605f5f90505f5f90505b5f8054905081101561043c575f81815481106103ff576103fe61263c565b5b905f5260205f2090600c0201600b015f9054906101000a900460ff161561042f57818061042b906127b3565b9250505b80806001019150506103e0565b508067ffffffffffffffff81111561045757610456612159565b5b6040519080825280602002602001820160405280156104855781602001602082028036833780820191505090505b5099508067ffffffffffffffff8111156104a2576104a1612159565b5b6040519080825280602002602001820160405280156104d557816020015b60608152602001906001900390816104c05790505b5098508067ffffffffffffffff8111156104f2576104f1612159565b5b60405190808252806020026020018201604052801561052557816020015b60608152602001906001900390816105105790505b5097508067ffffffffffffffff81111561054257610541612159565b5b6040519080825280602002602001820160405280156105705781602001602082028036833780820191505090505b5096508067ffffffffffffffff81111561058d5761058c612159565b5b6040519080825280602002602001820160405280156105bb5781602001602082028036833780820191505090505b5095508067ffffffffffffffff8111156105d8576105d7612159565b5b6040519080825280602002602001820160405280156106065781602001602082028036833780820191505090505b5094508067ffffffffffffffff81111561062357610622612159565b5b6040519080825280602002602001820160405280156106515781602001602082028036833780820191505090505b5093508067ffffffffffffffff81111561066e5761066d612159565b5b60405190808252806020026020018201604052801561069c5781602001602082028036833780820191505090505b5092508067ffffffffffffffff8111156106b9576106b8612159565b5b6040519080825280602002602001820160405280156106e75781602001602082028036833780820191505090505b5091505f5f90505f5f90505b5f80549050811015610b1b575f81815481106107125761071161263c565b5b905f5260205f2090600c0201600b015f9054906101000a900460ff1615610b0e575f81815481106107465761074561263c565b5b905f5260205f2090600c02015f01548c83815181106107685761076761263c565b5b6020026020010181815250505f81815481106107875761078661263c565b5b905f5260205f2090600c020160010180546107a190612827565b80601f01602080910402602001604051908101604052809291908181526020018280546107cd90612827565b80156108185780601f106107ef57610100808354040283529160200191610818565b820191905f5260205f20905b8154815290600101906020018083116107fb57829003601f168201915b50505050508b83815181106108305761082f61263c565b5b60200260200101819052505f818154811061084e5761084d61263c565b5b905f5260205f2090600c0201600201805461086890612827565b80601f016020809104026020016040519081016040528092919081815260200182805461089490612827565b80156108df5780601f106108b6576101008083540402835291602001916108df565b820191905f5260205f20905b8154815290600101906020018083116108c257829003601f168201915b50505050508a83815181106108f7576108f661263c565b5b60200260200101819052505f81815481106109155761091461263c565b5b905f5260205f2090600c02016003015f9054906101000a900473ffffffffffffffffffffffffffffffffffffffff168983815181106109575761095661263c565b5b602002602001019073ffffffffffffffffffffffffffffffffffffffff16908173ffffffffffffffffffffffffffffffffffffffff16815250505f81815481106109a4576109a361263c565b5b905f5260205f2090600c0201600401548883815181106109c7576109c661263c565b5b6020026020010181815250505f81815481106109e6576109e561263c565b5b905f5260205f2090600c020160050154878381518110610a0957610a0861263c565b5b6020026020010181815250505f8181548110610a2857610a2761263c565b5b905f5260205f2090600c020160080154868381518110610a4b57610a4a61263c565b5b6020026020010181815250505f8181548110610a6a57610a6961263c565b5b905f5260205f2090600c02016009015f9054906101000a900460ff16858381518110610a9957610a9861263c565b5b6020026020010190151590811515815250505f8181548110610abe57610abd61263c565b5b905f5260205f2090600c0201600b015f9054906101000a900460ff16848381518110610aed57610aec61263c565b5b6020026020010190151590811515815250508180610b0a906127b3565b9250505b80806001019150506106f3565b505050909192939495969798565b5f5f835111610b6d576040517f08c379a0000000000000000000000000000000000000000000000000000000008152600401610b64906128a1565b60405180910390fd5b606483511115610bb2576040517f08c379a0000000000000000000000000000000000000000000000000000000008152600401610ba990612909565b60405180910390fd5b5f825111610bf5576040517f08c379a0000000000000000000000000000000000000000000000000000000008152600401610bec90612971565b60405180910390fd5b61138882511115610c3b576040517f08c379a0000000000000000000000000000000000000000000000000000000008152600401610c32906129d9565b60405180910390fd5b5f60025490505f5f60018160018154018082558091505003905f5260205f2090600c0201905081815f018190555084816001019081610c7a9190612b97565b5083816002019081610c8c9190612b97565b5033816003015f6101000a81548173ffffffffffffffffffffffffffffffffffffffff021916908373ffffffffffffffffffffffffffffffffffffffff1602179055504281600401819055505f81600501819055505f81600801819055505f816009015f6101000a81548160ff0219169083151502179055504281600a0181905550600181600b015f6101000a81548160ff02191690831515021790555060025f815480929190610d3c906127b3565b919050555060035f815480929190610d53906127b3565b91905055503373ffffffffffffffffffffffffffffffffffffffff16827f285db98a4632176385795ddf0d2b67cef1a21f47eb2f5d06f786ab6b5147e2008742604051610da1929190612c66565b60405180910390a3819250505092915050565b6060805f5f5f60605f6060885f805490508110610e06576040517f08c379a0000000000000000000000000000000000000000000000000000000008152600401610dfd9061261e565b60405180910390fd5b5f8181548110610e1957610e1861263c565b5b905f5260205f2090600c0201600b015f9054906101000a900460ff16610e74576040517f08c379a0000000000000000000000000000000000000000000000000000000008152600401610e6b906126b3565b60405180910390fd5b5f5f8b81548110610e8857610e8761263c565b5b905f5260205f2090600c020190505f816008015467ffffffffffffffff811115610eb557610eb4612159565b5b604051908082528060200260200182016040528015610eee57816020015b610edb611c30565b815260200190600190039081610ed35790505b5090505f5f90505f5f90505b836008015481101561104957836007015f8281526020019081526020015f206040518060600160405290815f82018054610f3390612827565b80601f0160208091040260200160405190810160405280929190818152602001828054610f5f90612827565b8015610faa5780601f10610f8157610100808354040283529160200191610faa565b820191905f5260205f20905b815481529060010190602001808311610f8d57829003601f168201915b50505050508152602001600182015f9054906101000a900473ffffffffffffffffffffffffffffffffffffffff1673ffffffffffffffffffffffffffffffffffffffff1673ffffffffffffffffffffffffffffffffffffffff16815260200160028201548152505083838061101e906127b3565b9450815181106110315761103061263c565b5b60200260200101819052508080600101915050610efa565b508260010183600201846003015f9054906101000a900473ffffffffffffffffffffffffffffffffffffffff16856004015486600501548760060188600801548887805461109690612827565b80601f01602080910402602001604051908101604052809291908181526020018280546110c290612827565b801561110d5780601f106110e45761010080835404028352916020019161110d565b820191905f5260205f20905b8154815290600101906020018083116110f057829003601f168201915b5050505050975086805461112090612827565b80601f016020809104026020016040519081016040528092919081815260200182805461114c90612827565b80156111975780601f1061116e57610100808354040283529160200191611197565b820191905f5260205f20905b81548152906001019060200180831161117a57829003601f168201915b505050505096508280548060200260200160405190810160405280929190818152602001828054801561121c57602002820191905f5260205f20905b815f9054906101000a900473ffffffffffffffffffffffffffffffffffffffff1673ffffffffffffffffffffffffffffffffffffffff16815260200190600101908083116111d3575b505050505092509b509b509b509b509b509b509b509b5050505050919395975091939597565b805f805490508110611289576040517f08c379a00000000000000000000000000000000000000000000000000000000081526004016112809061261e565b60405180910390fd5b5f818154811061129c5761129b61263c565b5b905f5260205f2090600c0201600b015f9054906101000a900460ff166112f7576040517f08c379a00000000000000000000000000000000000000000000000000000000081526004016112ee906126b3565b60405180910390fd5b5f828154811061130a5761130961263c565b5b905f5260205f2090600c02016003015f9054906101000a900473ffffffffffffffffffffffffffffffffffffffff1673ffffffffffffffffffffffffffffffffffffffff163373ffffffffffffffffffffffffffffffffffffffff16036113a6576040517f08c379a000000000000000000000000000000000000000000000000000000000815260040161139d90612d04565b60405180910390fd5b60015f8381526020019081526020015f205f3373ffffffffffffffffffffffffffffffffffffffff1673ffffffffffffffffffffffffffffffffffffffff1681526020019081526020015f205f9054906101000a900460ff16611566576001805f8481526020019081526020015f205f3373ffffffffffffffffffffffffffffffffffffffff1673ffffffffffffffffffffffffffffffffffffffff1681526020019081526020015f205f6101000a81548160ff0219169083151502179055505f82815481106114795761147861263c565b5b905f5260205f2090600c02016005015f815480929190611498906127b3565b91905055505f82815481106114b0576114af61263c565b5b905f5260205f2090600c020160060133908060018154018082558091505060019003905f5260205f20015f9091909190916101000a81548173ffffffffffffffffffffffffffffffffffffffff021916908373ffffffffffffffffffffffffffffffffffffffff1602179055503373ffffffffffffffffffffffffffffffffffffffff16827fcf765d6f163c9b0d832e2a94f4c8e9bffd32a2c3ca5fdbb8cc67b5fe1441f41360405160405180910390a3611882565b5f60015f8481526020019081526020015f205f3373ffffffffffffffffffffffffffffffffffffffff1673ffffffffffffffffffffffffffffffffffffffff1681526020019081526020015f205f6101000a81548160ff0219169083151502179055505f82815481106115dc576115db61263c565b5b905f5260205f2090600c02016005015f8154809291906115fb9061278c565b91905055505f5f90505b5f83815481106116185761161761263c565b5b905f5260205f2090600c02016006018054905081101561183c573373ffffffffffffffffffffffffffffffffffffffff165f848154811061165c5761165b61263c565b5b905f5260205f2090600c0201600601828154811061167d5761167c61263c565b5b905f5260205f20015f9054906101000a900473ffffffffffffffffffffffffffffffffffffffff1673ffffffffffffffffffffffffffffffffffffffff160361182f575f83815481106116d3576116d261263c565b5b905f5260205f2090600c020160060160015f85815481106116f7576116f661263c565b5b905f5260205f2090600c0201600601805490506117149190612d22565b815481106117255761172461263c565b5b905f5260205f20015f9054906101000a900473ffffffffffffffffffffffffffffffffffffffff165f84815481106117605761175f61263c565b5b905f5260205f2090600c020160060182815481106117815761178061263c565b5b905f5260205f20015f6101000a81548173ffffffffffffffffffffffffffffffffffffffff021916908373ffffffffffffffffffffffffffffffffffffffff1602179055505f83815481106117d9576117d861263c565b5b905f5260205f2090600c02016006018054806117f8576117f7612d55565b5b600190038181905f5260205f20015f6101000a81549073ffffffffffffffffffffffffffffffffffffffff0219169055905561183c565b8080600101915050611605565b503373ffffffffffffffffffffffffffffffffffffffff16827f82092d1196022c48d901e5dc4b17451dbce942b8a9ded42fc6f2a4a5e8fd89b960405160405180910390a35b5050565b5f600354905090565b60025481565b5f825f8054905081106118dd576040517f08c379a00000000000000000000000000000000000000000000000000000000081526004016118d49061261e565b60405180910390fd5b5f81815481106118f0576118ef61263c565b5b905f5260205f2090600c0201600b015f9054906101000a900460ff1661194b576040517f08c379a0000000000000000000000000000000000000000000000000000000008152600401611942906126b3565b60405180910390fd5b60015f8581526020019081526020015f205f8473ffffffffffffffffffffffffffffffffffffffff1673ffffffffffffffffffffffffffffffffffffffff1681526020019081526020015f205f9054906101000a900460ff1691505092915050565b815f8054905081106119f4576040517f08c379a00000000000000000000000000000000000000000000000000000000081526004016119eb9061261e565b60405180910390fd5b5f8181548110611a0757611a0661263c565b5b905f5260205f2090600c0201600b015f9054906101000a900460ff16611a62576040517f08c379a0000000000000000000000000000000000000000000000000000000008152600401611a59906126b3565b60405180910390fd5b5f825111611aa5576040517f08c379a0000000000000000000000000000000000000000000000000000000008152600401611a9c90612df2565b60405180910390fd5b61011882511115611aeb576040517f08c379a0000000000000000000000000000000000000000000000000000000008152600401611ae290612e5a565b60405180910390fd5b5f5f8481548110611aff57611afe61263c565b5b905f5260205f2090600c020190505f8160080154905060405180606001604052808581526020013373ffffffffffffffffffffffffffffffffffffffff16815260200142815250826007015f8381526020019081526020015f205f820151815f019081611b6c9190612b97565b506020820151816001015f6101000a81548173ffffffffffffffffffffffffffffffffffffffff021916908373ffffffffffffffffffffffffffffffffffffffff16021790555060408201518160020155905050816008015f815480929190611bd4906127b3565b91905055503373ffffffffffffffffffffffffffffffffffffffff1681867f96d81cac001a263174d42d42cfad470fec9d863bcf6d52ba8b93d47c7ee00de387604051611c219190612e78565b60405180910390a45050505050565b6040518060600160405280606081526020015f73ffffffffffffffffffffffffffffffffffffffff1681526020015f81525090565b5f604051905090565b5f5ffd5b5f5ffd5b5f819050919050565b611c8881611c76565b8114611c92575f5ffd5b50565b5f81359050611ca381611c7f565b92915050565b5f60208284031215611cbe57611cbd611c6e565b5b5f611ccb84828501611c95565b91505092915050565b611cdd81611c76565b82525050565b5f602082019050611cf65f830184611cd4565b92915050565b5f81519050919050565b5f82825260208201905092915050565b5f819050602082019050919050565b611d2e81611c76565b82525050565b5f611d3f8383611d25565b60208301905092915050565b5f602082019050919050565b5f611d6182611cfc565b611d6b8185611d06565b9350611d7683611d16565b805f5b83811015611da6578151611d8d8882611d34565b9750611d9883611d4b565b925050600181019050611d79565b5085935050505092915050565b5f81519050919050565b5f82825260208201905092915050565b5f819050602082019050919050565b5f81519050919050565b5f82825260208201905092915050565b8281835e5f83830152505050565b5f601f19601f8301169050919050565b5f611e1e82611ddc565b611e288185611de6565b9350611e38818560208601611df6565b611e4181611e04565b840191505092915050565b5f611e578383611e14565b905092915050565b5f602082019050919050565b5f611e7582611db3565b611e7f8185611dbd565b935083602082028501611e9185611dcd565b805f5b85811015611ecc5784840389528151611ead8582611e4c565b9450611eb883611e5f565b925060208a01995050600181019050611e94565b50829750879550505050505092915050565b5f81519050919050565b5f82825260208201905092915050565b5f819050602082019050919050565b5f73ffffffffffffffffffffffffffffffffffffffff82169050919050565b5f611f3082611f07565b9050919050565b611f4081611f26565b82525050565b5f611f518383611f37565b60208301905092915050565b5f602082019050919050565b5f611f7382611ede565b611f7d8185611ee8565b9350611f8883611ef8565b805f5b83811015611fb8578151611f9f8882611f46565b9750611faa83611f5d565b925050600181019050611f8b565b5085935050505092915050565b5f81519050919050565b5f82825260208201905092915050565b5f819050602082019050919050565b5f8115159050919050565b61200281611fee565b82525050565b5f6120138383611ff9565b60208301905092915050565b5f602082019050919050565b5f61203582611fc5565b61203f8185611fcf565b935061204a83611fdf565b805f5b8381101561207a5781516120618882612008565b975061206c8361201f565b92505060018101905061204d565b5085935050505092915050565b5f610120820190508181035f8301526120a0818c611d57565b905081810360208301526120b4818b611e6b565b905081810360408301526120c8818a611e6b565b905081810360608301526120dc8189611f69565b905081810360808301526120f08188611d57565b905081810360a08301526121048187611d57565b905081810360c08301526121188186611d57565b905081810360e083015261212c818561202b565b9050818103610100830152612141818461202b565b90509a9950505050505050505050565b5f5ffd5b5f5ffd5b7f4e487b71000000000000000000000000000000000000000000000000000000005f52604160045260245ffd5b61218f82611e04565b810181811067ffffffffffffffff821117156121ae576121ad612159565b5b80604052505050565b5f6121c0611c65565b90506121cc8282612186565b919050565b5f67ffffffffffffffff8211156121eb576121ea612159565b5b6121f482611e04565b9050602081019050919050565b828183375f83830152505050565b5f61222161221c846121d1565b6121b7565b90508281526020810184848401111561223d5761223c612155565b5b612248848285612201565b509392505050565b5f82601f83011261226457612263612151565b5b813561227484826020860161220f565b91505092915050565b5f5f6040838503121561229357612292611c6e565b5b5f83013567ffffffffffffffff8111156122b0576122af611c72565b5b6122bc85828601612250565b925050602083013567ffffffffffffffff8111156122dd576122dc611c72565b5b6122e985828601612250565b9150509250929050565b5f82825260208201905092915050565b5f61230d82611ddc565b61231781856122f3565b9350612327818560208601611df6565b61233081611e04565b840191505092915050565b61234481611f26565b82525050565b5f81519050919050565b5f82825260208201905092915050565b5f819050602082019050919050565b5f606083015f8301518482035f86015261238d8282611e14565b91505060208301516123a26020860182611f37565b5060408301516123b56040860182611d25565b508091505092915050565b5f6123cb8383612373565b905092915050565b5f602082019050919050565b5f6123e98261234a565b6123f38185612354565b93508360208202850161240585612364565b805f5b85811015612440578484038952815161242185826123c0565b945061242c836123d3565b925060208a01995050600181019050612408565b50829750879550505050505092915050565b5f610100820190508181035f83015261246b818b612303565b9050818103602083015261247f818a612303565b905061248e604083018961233b565b61249b6060830188611cd4565b6124a86080830187611cd4565b81810360a08301526124ba8186611f69565b90506124c960c0830185611cd4565b81810360e08301526124db81846123df565b90509998505050505050505050565b6124f381611f26565b81146124fd575f5ffd5b50565b5f8135905061250e816124ea565b92915050565b5f5f6040838503121561252a57612529611c6e565b5b5f61253785828601611c95565b925050602061254885828601612500565b9150509250929050565b61255b81611fee565b82525050565b5f6020820190506125745f830184612552565b92915050565b5f5f604083850312156125905761258f611c6e565b5b5f61259d85828601611c95565b925050602083013567ffffffffffffffff8111156125be576125bd611c72565b5b6125ca85828601612250565b9150509250929050565b7f506f737420646f6573206e6f74206578697374000000000000000000000000005f82015250565b5f6126086013836122f3565b9150612613826125d4565b602082019050919050565b5f6020820190508181035f830152612635816125fc565b9050919050565b7f4e487b71000000000000000000000000000000000000000000000000000000005f52603260045260245ffd5b7f506f737420686173206265656e2064656c6574656400000000000000000000005f82015250565b5f61269d6015836122f3565b91506126a882612669565b602082019050919050565b5f6020820190508181035f8301526126ca81612691565b9050919050565b7f5365756c206c276175746575722070657574207375707072696d6572206365205f8201527f706f737400000000000000000000000000000000000000000000000000000000602082015250565b5f61272b6024836122f3565b9150612736826126d1565b604082019050919050565b5f6020820190508181035f8301526127588161271f565b9050919050565b7f4e487b71000000000000000000000000000000000000000000000000000000005f52601160045260245ffd5b5f61279682611c76565b91505f82036127a8576127a761275f565b5b600182039050919050565b5f6127bd82611c76565b91507fffffffffffffffffffffffffffffffffffffffffffffffffffffffffffffffff82036127ef576127ee61275f565b5b600182019050919050565b7f4e487b71000000000000000000000000000000000000000000000000000000005f52602260045260245ffd5b5f600282049050600182168061283e57607f821691505b602082108103612851576128506127fa565b5b50919050565b7f5469746c652063616e6e6f7420626520656d70747900000000000000000000005f82015250565b5f61288b6015836122f3565b915061289682612857565b602082019050919050565b5f6020820190508181035f8301526128b88161287f565b9050919050565b7f5469746c6520746f6f206c6f6e670000000000000000000000000000000000005f82015250565b5f6128f3600e836122f3565b91506128fe826128bf565b602082019050919050565b5f6020820190508181035f830152612920816128e7565b9050919050565b7f436f6e74656e742063616e6e6f7420626520656d7074790000000000000000005f82015250565b5f61295b6017836122f3565b915061296682612927565b602082019050919050565b5f6020820190508181035f8301526129888161294f565b9050919050565b7f436f6e74656e7420746f6f206c6f6e67000000000000000000000000000000005f82015250565b5f6129c36010836122f3565b91506129ce8261298f565b602082019050919050565b5f6020820190508181035f8301526129f0816129b7565b9050919050565b5f819050815f5260205f209050919050565b5f6020601f8301049050919050565b5f82821b905092915050565b5f60088302612a537fffffffffffffffffffffffffffffffffffffffffffffffffffffffffffffffff82612a18565b612a5d8683612a18565b95508019841693508086168417925050509392505050565b5f819050919050565b5f612a98612a93612a8e84611c76565b612a75565b611c76565b9050919050565b5f819050919050565b612ab183612a7e565b612ac5612abd82612a9f565b848454612a24565b825550505050565b5f5f905090565b612adc612acd565b612ae7818484612aa8565b505050565b5b81811015612b0a57612aff5f82612ad4565b600181019050612aed565b5050565b601f821115612b4f57612b20816129f7565b612b2984612a09565b81016020851015612b38578190505b612b4c612b4485612a09565b830182612aec565b50505b505050565b5f82821c905092915050565b5f612b6f5f1984600802612b54565b1980831691505092915050565b5f612b878383612b60565b9150826002028217905092915050565b612ba082611ddc565b67ffffffffffffffff811115612bb957612bb8612159565b5b612bc38254612827565b612bce828285612b0e565b5f60209050601f831160018114612bff575f8415612bed578287015190505b612bf78582612b7c565b865550612c5e565b601f198416612c0d866129f7565b5f5b82811015612c3457848901518255600182019150602085019450602081019050612c0f565b86831015612c515784890151612c4d601f891682612b60565b8355505b6001600288020188555050505b505050505050565b5f6040820190508181035f830152612c7e8185612303565b9050612c8d6020830184611cd4565b9392505050565b7f566f7573206e6520706f7576657a20706173206c696b657220766f74726520705f8201527f726f70726520706f737400000000000000000000000000000000000000000000602082015250565b5f612cee602a836122f3565b9150612cf982612c94565b604082019050919050565b5f6020820190508181035f830152612d1b81612ce2565b9050919050565b5f612d2c82611c76565b9150612d3783611c76565b9250828203905081811115612d4f57612d4e61275f565b5b92915050565b7f4e487b71000000000000000000000000000000000000000000000000000000005f52603160045260245ffd5b7f4c6520636f6d6d656e7461697265206e652070657574207061732065747265205f8201527f7669646500000000000000000000000000000000000000000000000000000000602082015250565b5f612ddc6024836122f3565b9150612de782612d82565b604082019050919050565b5f6020820190508181035f830152612e0981612dd0565b9050919050565b7f4c6520636f6d6d656e7461697265206573742074726f70206c6f6e67000000005f82015250565b5f612e44601c836122f3565b9150612e4f82612e10565b602082019050919050565b5f6020820190508181035f830152612e7181612e38565b9050919050565b5f6020820190508181035f830152612e908184612303565b90509291505056fea264697066735822122047bd8f236b175abe1e6e64beb2b68a4d771ab4931c7f53579a5eddddffda4e5364736f6c634300081b0033",
					"opcodes": "PUSH1 0x80 PUSH1 0x40 MSTORE CALLVALUE DUP1 ISZERO PUSH1 0xE JUMPI PUSH0 PUSH0 REVERT JUMPDEST POP PUSH2 0x2ECE DUP1 PUSH2 0x1C PUSH0 CODECOPY PUSH0 RETURN INVALID PUSH1 0x80 PUSH1 0x40 MSTORE CALLVALUE DUP1 ISZERO PUSH2 0xF JUMPI PUSH0 PUSH0 REVERT JUMPDEST POP PUSH1 0x4 CALLDATASIZE LT PUSH2 0x9C JUMPI PUSH0 CALLDATALOAD PUSH1 0xE0 SHR DUP1 PUSH4 0x54398D18 GT PUSH2 0x64 JUMPI DUP1 PUSH4 0x54398D18 EQ PUSH2 0x167 JUMPI DUP1 PUSH4 0x5FE226B4 EQ PUSH2 0x183 JUMPI DUP1 PUSH4 0x8E53FB41 EQ PUSH2 0x1A1 JUMPI DUP1 PUSH4 0x8FB7092C EQ PUSH2 0x1BF JUMPI DUP1 PUSH4 0xAA7E5683 EQ PUSH2 0x1EF JUMPI PUSH2 0x9C JUMP JUMPDEST DUP1 PUSH4 0x94CD5EE EQ PUSH2 0xA0 JUMPI DUP1 PUSH4 0xFBBBFC3 EQ PUSH2 0xBC JUMPI DUP1 PUSH4 0x30561100 EQ PUSH2 0xDA JUMPI DUP1 PUSH4 0x392338F5 EQ PUSH2 0x100 JUMPI DUP1 PUSH4 0x40731C24 EQ PUSH2 0x130 JUMPI JUMPDEST PUSH0 PUSH0 REVERT JUMPDEST PUSH2 0xBA PUSH1 0x4 DUP1 CALLDATASIZE SUB DUP2 ADD SWAP1 PUSH2 0xB5 SWAP2 SWAP1 PUSH2 0x1CA9 JUMP JUMPDEST PUSH2 0x20B JUMP JUMPDEST STOP JUMPDEST PUSH2 0xC4 PUSH2 0x3C3 JUMP JUMPDEST PUSH1 0x40 MLOAD PUSH2 0xD1 SWAP2 SWAP1 PUSH2 0x1CE3 JUMP JUMPDEST PUSH1 0x40 MLOAD DUP1 SWAP2 SUB SWAP1 RETURN JUMPDEST PUSH2 0xE2 PUSH2 0x3C9 JUMP JUMPDEST PUSH1 0x40 MLOAD PUSH2 0xF7 SWAP10 SWAP9 SWAP8 SWAP7 SWAP6 SWAP5 SWAP4 SWAP3 SWAP2 SWAP1 PUSH2 0x2087 JUMP JUMPDEST PUSH1 0x40 MLOAD DUP1 SWAP2 SUB SWAP1 RETURN JUMPDEST PUSH2 0x11A PUSH1 0x4 DUP1 CALLDATASIZE SUB DUP2 ADD SWAP1 PUSH2 0x115 SWAP2 SWAP1 PUSH2 0x227D JUMP JUMPDEST PUSH2 0xB29 JUMP JUMPDEST PUSH1 0x40 MLOAD PUSH2 0x127 SWAP2 SWAP1 PUSH2 0x1CE3 JUMP JUMPDEST PUSH1 0x40 MLOAD DUP1 SWAP2 SUB SWAP1 RETURN JUMPDEST PUSH2 0x14A PUSH1 0x4 DUP1 CALLDATASIZE SUB DUP2 ADD SWAP1 PUSH2 0x145 SWAP2 SWAP1 PUSH2 0x1CA9 JUMP JUMPDEST PUSH2 0xDB4 JUMP JUMPDEST PUSH1 0x40 MLOAD PUSH2 0x15E SWAP9 SWAP8 SWAP7 SWAP6 SWAP5 SWAP4 SWAP3 SWAP2 SWAP1 PUSH2 0x2452 JUMP JUMPDEST PUSH1 0x40 MLOAD DUP1 SWAP2 SUB SWAP1 RETURN JUMPDEST PUSH2 0x181 PUSH1 0x4 DUP1 CALLDATASIZE SUB DUP2 ADD SWAP1 PUSH2 0x17C SWAP2 SWAP1 PUSH2 0x1CA9 JUMP JUMPDEST PUSH2 0x1242 JUMP JUMPDEST STOP JUMPDEST PUSH2 0x18B PUSH2 0x1886 JUMP JUMPDEST PUSH1 0x40 MLOAD PUSH2 0x198 SWAP2 SWAP1 PUSH2 0x1CE3 JUMP JUMPDEST PUSH1 0x40 MLOAD DUP1 SWAP2 SUB SWAP1 RETURN JUMPDEST PUSH2 0x1A9 PUSH2 0x188F JUMP JUMPDEST PUSH1 0x40 MLOAD PUSH2 0x1B6 SWAP2 SWAP1 PUSH2 0x1CE3 JUMP JUMPDEST PUSH1 0x40 MLOAD DUP1 SWAP2 SUB SWAP1 RETURN JUMPDEST PUSH2 0x1D9 PUSH1 0x4 DUP1 CALLDATASIZE SUB DUP2 ADD SWAP1 PUSH2 0x1D4 SWAP2 SWAP1 PUSH2 0x2514 JUMP JUMPDEST PUSH2 0x1895 JUMP JUMPDEST PUSH1 0x40 MLOAD PUSH2 0x1E6 SWAP2 SWAP1 PUSH2 0x2561 JUMP JUMPDEST PUSH1 0x40 MLOAD DUP1 SWAP2 SUB SWAP1 RETURN JUMPDEST PUSH2 0x209 PUSH1 0x4 DUP1 CALLDATASIZE SUB DUP2 ADD SWAP1 PUSH2 0x204 SWAP2 SWAP1 PUSH2 0x257A JUMP JUMPDEST PUSH2 0x19AD JUMP JUMPDEST STOP JUMPDEST DUP1 PUSH0 DUP1 SLOAD SWAP1 POP DUP2 LT PUSH2 0x252 JUMPI PUSH1 0x40 MLOAD PUSH32 0x8C379A000000000000000000000000000000000000000000000000000000000 DUP2 MSTORE PUSH1 0x4 ADD PUSH2 0x249 SWAP1 PUSH2 0x261E JUMP JUMPDEST PUSH1 0x40 MLOAD DUP1 SWAP2 SUB SWAP1 REVERT JUMPDEST PUSH0 DUP2 DUP2 SLOAD DUP2 LT PUSH2 0x265 JUMPI PUSH2 0x264 PUSH2 0x263C JUMP JUMPDEST JUMPDEST SWAP1 PUSH0 MSTORE PUSH1 0x20 PUSH0 KECCAK256 SWAP1 PUSH1 0xC MUL ADD PUSH1 0xB ADD PUSH0 SWAP1 SLOAD SWAP1 PUSH2 0x100 EXP SWAP1 DIV PUSH1 0xFF AND PUSH2 0x2C0 JUMPI PUSH1 0x40 MLOAD PUSH32 0x8C379A000000000000000000000000000000000000000000000000000000000 DUP2 MSTORE PUSH1 0x4 ADD PUSH2 0x2B7 SWAP1 PUSH2 0x26B3 JUMP JUMPDEST PUSH1 0x40 MLOAD DUP1 SWAP2 SUB SWAP1 REVERT JUMPDEST PUSH0 DUP3 DUP2 SLOAD DUP2 LT PUSH2 0x2D3 JUMPI PUSH2 0x2D2 PUSH2 0x263C JUMP JUMPDEST JUMPDEST SWAP1 PUSH0 MSTORE PUSH1 0x20 PUSH0 KECCAK256 SWAP1 PUSH1 0xC MUL ADD PUSH1 0x3 ADD PUSH0 SWAP1 SLOAD SWAP1 PUSH2 0x100 EXP SWAP1 DIV PUSH20 0xFFFFFFFFFFFFFFFFFFFFFFFFFFFFFFFFFFFFFFFF AND PUSH20 0xFFFFFFFFFFFFFFFFFFFFFFFFFFFFFFFFFFFFFFFF AND CALLER PUSH20 0xFFFFFFFFFFFFFFFFFFFFFFFFFFFFFFFFFFFFFFFF AND EQ PUSH2 0x36F JUMPI PUSH1 0x40 MLOAD PUSH32 0x8C379A000000000000000000000000000000000000000000000000000000000 DUP2 MSTORE PUSH1 0x4 ADD PUSH2 0x366 SWAP1 PUSH2 0x2741 JUMP JUMPDEST PUSH1 0x40 MLOAD DUP1 SWAP2 SUB SWAP1 REVERT JUMPDEST PUSH0 PUSH0 DUP4 DUP2 SLOAD DUP2 LT PUSH2 0x383 JUMPI PUSH2 0x382 PUSH2 0x263C JUMP JUMPDEST JUMPDEST SWAP1 PUSH0 MSTORE PUSH1 0x20 PUSH0 KECCAK256 SWAP1 PUSH1 0xC MUL ADD PUSH1 0xB ADD PUSH0 PUSH2 0x100 EXP DUP2 SLOAD DUP2 PUSH1 0xFF MUL NOT AND SWAP1 DUP4 ISZERO ISZERO MUL OR SWAP1 SSTORE POP PUSH1 0x3 PUSH0 DUP2 SLOAD DUP1 SWAP3 SWAP2 SWAP1 PUSH2 0x3BA SWAP1 PUSH2 0x278C JUMP JUMPDEST SWAP2 SWAP1 POP SSTORE POP POP POP JUMP JUMPDEST PUSH1 0x3 SLOAD DUP2 JUMP JUMPDEST PUSH1 0x60 DUP1 PUSH1 0x60 DUP1 PUSH1 0x60 DUP1 PUSH1 0x60 DUP1 PUSH1 0x60 PUSH0 PUSH0 SWAP1 POP PUSH0 PUSH0 SWAP1 POP JUMPDEST PUSH0 DUP1 SLOAD SWAP1 POP DUP2 LT ISZERO PUSH2 0x43C JUMPI PUSH0 DUP2 DUP2 SLOAD DUP2 LT PUSH2 0x3FF JUMPI PUSH2 0x3FE PUSH2 0x263C JUMP JUMPDEST JUMPDEST SWAP1 PUSH0 MSTORE PUSH1 0x20 PUSH0 KECCAK256 SWAP1 PUSH1 0xC MUL ADD PUSH1 0xB ADD PUSH0 SWAP1 SLOAD SWAP1 PUSH2 0x100 EXP SWAP1 DIV PUSH1 0xFF AND ISZERO PUSH2 0x42F JUMPI DUP2 DUP1 PUSH2 0x42B SWAP1 PUSH2 0x27B3 JUMP JUMPDEST SWAP3 POP POP JUMPDEST DUP1 DUP1 PUSH1 0x1 ADD SWAP2 POP POP PUSH2 0x3E0 JUMP JUMPDEST POP DUP1 PUSH8 0xFFFFFFFFFFFFFFFF DUP2 GT ISZERO PUSH2 0x457 JUMPI PUSH2 0x456 PUSH2 0x2159 JUMP JUMPDEST JUMPDEST PUSH1 0x40 MLOAD SWAP1 DUP1 DUP3 MSTORE DUP1 PUSH1 0x20 MUL PUSH1 0x20 ADD DUP3 ADD PUSH1 0x40 MSTORE DUP1 ISZERO PUSH2 0x485 JUMPI DUP2 PUSH1 0x20 ADD PUSH1 0x20 DUP3 MUL DUP1 CALLDATASIZE DUP4 CALLDATACOPY DUP1 DUP3 ADD SWAP2 POP POP SWAP1 POP JUMPDEST POP SWAP10 POP DUP1 PUSH8 0xFFFFFFFFFFFFFFFF DUP2 GT ISZERO PUSH2 0x4A2 JUMPI PUSH2 0x4A1 PUSH2 0x2159 JUMP JUMPDEST JUMPDEST PUSH1 0x40 MLOAD SWAP1 DUP1 DUP3 MSTORE DUP1 PUSH1 0x20 MUL PUSH1 0x20 ADD DUP3 ADD PUSH1 0x40 MSTORE DUP1 ISZERO PUSH2 0x4D5 JUMPI DUP2 PUSH1 0x20 ADD JUMPDEST PUSH1 0x60 DUP2 MSTORE PUSH1 0x20 ADD SWAP1 PUSH1 0x1 SWAP1 SUB SWAP1 DUP2 PUSH2 0x4C0 JUMPI SWAP1 POP JUMPDEST POP SWAP9 POP DUP1 PUSH8 0xFFFFFFFFFFFFFFFF DUP2 GT ISZERO PUSH2 0x4F2 JUMPI PUSH2 0x4F1 PUSH2 0x2159 JUMP JUMPDEST JUMPDEST PUSH1 0x40 MLOAD SWAP1 DUP1 DUP3 MSTORE DUP1 PUSH1 0x20 MUL PUSH1 0x20 ADD DUP3 ADD PUSH1 0x40 MSTORE DUP1 ISZERO PUSH2 0x525 JUMPI DUP2 PUSH1 0x20 ADD JUMPDEST PUSH1 0x60 DUP2 MSTORE PUSH1 0x20 ADD SWAP1 PUSH1 0x1 SWAP1 SUB SWAP1 DUP2 PUSH2 0x510 JUMPI SWAP1 POP JUMPDEST POP SWAP8 POP DUP1 PUSH8 0xFFFFFFFFFFFFFFFF DUP2 GT ISZERO PUSH2 0x542 JUMPI PUSH2 0x541 PUSH2 0x2159 JUMP JUMPDEST JUMPDEST PUSH1 0x40 MLOAD SWAP1 DUP1 DUP3 MSTORE DUP1 PUSH1 0x20 MUL PUSH1 0x20 ADD DUP3 ADD PUSH1 0x40 MSTORE DUP1 ISZERO PUSH2 0x570 JUMPI DUP2 PUSH1 0x20 ADD PUSH1 0x20 DUP3 MUL DUP1 CALLDATASIZE DUP4 CALLDATACOPY DUP1 DUP3 ADD SWAP2 POP POP SWAP1 POP JUMPDEST POP SWAP7 POP DUP1 PUSH8 0xFFFFFFFFFFFFFFFF DUP2 GT ISZERO PUSH2 0x58D JUMPI PUSH2 0x58C PUSH2 0x2159 JUMP JUMPDEST JUMPDEST PUSH1 0x40 MLOAD SWAP1 DUP1 DUP3 MSTORE DUP1 PUSH1 0x20 MUL PUSH1 0x20 ADD DUP3 ADD PUSH1 0x40 MSTORE DUP1 ISZERO PUSH2 0x5BB JUMPI DUP2 PUSH1 0x20 ADD PUSH1 0x20 DUP3 MUL DUP1 CALLDATASIZE DUP4 CALLDATACOPY DUP1 DUP3 ADD SWAP2 POP POP SWAP1 POP JUMPDEST POP SWAP6 POP DUP1 PUSH8 0xFFFFFFFFFFFFFFFF DUP2 GT ISZERO PUSH2 0x5D8 JUMPI PUSH2 0x5D7 PUSH2 0x2159 JUMP JUMPDEST JUMPDEST PUSH1 0x40 MLOAD SWAP1 DUP1 DUP3 MSTORE DUP1 PUSH1 0x20 MUL PUSH1 0x20 ADD DUP3 ADD PUSH1 0x40 MSTORE DUP1 ISZERO PUSH2 0x606 JUMPI DUP2 PUSH1 0x20 ADD PUSH1 0x20 DUP3 MUL DUP1 CALLDATASIZE DUP4 CALLDATACOPY DUP1 DUP3 ADD SWAP2 POP POP SWAP1 POP JUMPDEST POP SWAP5 POP DUP1 PUSH8 0xFFFFFFFFFFFFFFFF DUP2 GT ISZERO PUSH2 0x623 JUMPI PUSH2 0x622 PUSH2 0x2159 JUMP JUMPDEST JUMPDEST PUSH1 0x40 MLOAD SWAP1 DUP1 DUP3 MSTORE DUP1 PUSH1 0x20 MUL PUSH1 0x20 ADD DUP3 ADD PUSH1 0x40 MSTORE DUP1 ISZERO PUSH2 0x651 JUMPI DUP2 PUSH1 0x20 ADD PUSH1 0x20 DUP3 MUL DUP1 CALLDATASIZE DUP4 CALLDATACOPY DUP1 DUP3 ADD SWAP2 POP POP SWAP1 POP JUMPDEST POP SWAP4 POP DUP1 PUSH8 0xFFFFFFFFFFFFFFFF DUP2 GT ISZERO PUSH2 0x66E JUMPI PUSH2 0x66D PUSH2 0x2159 JUMP JUMPDEST JUMPDEST PUSH1 0x40 MLOAD SWAP1 DUP1 DUP3 MSTORE DUP1 PUSH1 0x20 MUL PUSH1 0x20 ADD DUP3 ADD PUSH1 0x40 MSTORE DUP1 ISZERO PUSH2 0x69C JUMPI DUP2 PUSH1 0x20 ADD PUSH1 0x20 DUP3 MUL DUP1 CALLDATASIZE DUP4 CALLDATACOPY DUP1 DUP3 ADD SWAP2 POP POP SWAP1 POP JUMPDEST POP SWAP3 POP DUP1 PUSH8 0xFFFFFFFFFFFFFFFF DUP2 GT ISZERO PUSH2 0x6B9 JUMPI PUSH2 0x6B8 PUSH2 0x2159 JUMP JUMPDEST JUMPDEST PUSH1 0x40 MLOAD SWAP1 DUP1 DUP3 MSTORE DUP1 PUSH1 0x20 MUL PUSH1 0x20 ADD DUP3 ADD PUSH1 0x40 MSTORE DUP1 ISZERO PUSH2 0x6E7 JUMPI DUP2 PUSH1 0x20 ADD PUSH1 0x20 DUP3 MUL DUP1 CALLDATASIZE DUP4 CALLDATACOPY DUP1 DUP3 ADD SWAP2 POP POP SWAP1 POP JUMPDEST POP SWAP2 POP PUSH0 PUSH0 SWAP1 POP PUSH0 PUSH0 SWAP1 POP JUMPDEST PUSH0 DUP1 SLOAD SWAP1 POP DUP2 LT ISZERO PUSH2 0xB1B JUMPI PUSH0 DUP2 DUP2 SLOAD DUP2 LT PUSH2 0x712 JUMPI PUSH2 0x711 PUSH2 0x263C JUMP JUMPDEST JUMPDEST SWAP1 PUSH0 MSTORE PUSH1 0x20 PUSH0 KECCAK256 SWAP1 PUSH1 0xC MUL ADD PUSH1 0xB ADD PUSH0 SWAP1 SLOAD SWAP1 PUSH2 0x100 EXP SWAP1 DIV PUSH1 0xFF AND ISZERO PUSH2 0xB0E JUMPI PUSH0 DUP2 DUP2 SLOAD DUP2 LT PUSH2 0x746 JUMPI PUSH2 0x745 PUSH2 0x263C JUMP JUMPDEST JUMPDEST SWAP1 PUSH0 MSTORE PUSH1 0x20 PUSH0 KECCAK256 SWAP1 PUSH1 0xC MUL ADD PUSH0 ADD SLOAD DUP13 DUP4 DUP2 MLOAD DUP2 LT PUSH2 0x768 JUMPI PUSH2 0x767 PUSH2 0x263C JUMP JUMPDEST JUMPDEST PUSH1 0x20 MUL PUSH1 0x20 ADD ADD DUP2 DUP2 MSTORE POP POP PUSH0 DUP2 DUP2 SLOAD DUP2 LT PUSH2 0x787 JUMPI PUSH2 0x786 PUSH2 0x263C JUMP JUMPDEST JUMPDEST SWAP1 PUSH0 MSTORE PUSH1 0x20 PUSH0 KECCAK256 SWAP1 PUSH1 0xC MUL ADD PUSH1 0x1 ADD DUP1 SLOAD PUSH2 0x7A1 SWAP1 PUSH2 0x2827 JUMP JUMPDEST DUP1 PUSH1 0x1F ADD PUSH1 0x20 DUP1 SWAP2 DIV MUL PUSH1 0x20 ADD PUSH1 0x40 MLOAD SWAP1 DUP2 ADD PUSH1 0x40 MSTORE DUP1 SWAP3 SWAP2 SWAP1 DUP2 DUP2 MSTORE PUSH1 0x20 ADD DUP3 DUP1 SLOAD PUSH2 0x7CD SWAP1 PUSH2 0x2827 JUMP JUMPDEST DUP1 ISZERO PUSH2 0x818 JUMPI DUP1 PUSH1 0x1F LT PUSH2 0x7EF JUMPI PUSH2 0x100 DUP1 DUP4 SLOAD DIV MUL DUP4 MSTORE SWAP2 PUSH1 0x20 ADD SWAP2 PUSH2 0x818 JUMP JUMPDEST DUP3 ADD SWAP2 SWAP1 PUSH0 MSTORE PUSH1 0x20 PUSH0 KECCAK256 SWAP1 JUMPDEST DUP2 SLOAD DUP2 MSTORE SWAP1 PUSH1 0x1 ADD SWAP1 PUSH1 0x20 ADD DUP1 DUP4 GT PUSH2 0x7FB JUMPI DUP3 SWAP1 SUB PUSH1 0x1F AND DUP3 ADD SWAP2 JUMPDEST POP POP POP POP POP DUP12 DUP4 DUP2 MLOAD DUP2 LT PUSH2 0x830 JUMPI PUSH2 0x82F PUSH2 0x263C JUMP JUMPDEST JUMPDEST PUSH1 0x20 MUL PUSH1 0x20 ADD ADD DUP2 SWAP1 MSTORE POP PUSH0 DUP2 DUP2 SLOAD DUP2 LT PUSH2 0x84E JUMPI PUSH2 0x84D PUSH2 0x263C JUMP JUMPDEST JUMPDEST SWAP1 PUSH0 MSTORE PUSH1 0x20 PUSH0 KECCAK256 SWAP1 PUSH1 0xC MUL ADD PUSH1 0x2 ADD DUP1 SLOAD PUSH2 0x868 SWAP1 PUSH2 0x2827 JUMP JUMPDEST DUP1 PUSH1 0x1F ADD PUSH1 0x20 DUP1 SWAP2 DIV MUL PUSH1 0x20 ADD PUSH1 0x40 MLOAD SWAP1 DUP2 ADD PUSH1 0x40 MSTORE DUP1 SWAP3 SWAP2 SWAP1 DUP2 DUP2 MSTORE PUSH1 0x20 ADD DUP3 DUP1 SLOAD PUSH2 0x894 SWAP1 PUSH2 0x2827 JUMP JUMPDEST DUP1 ISZERO PUSH2 0x8DF JUMPI DUP1 PUSH1 0x1F LT PUSH2 0x8B6 JUMPI PUSH2 0x100 DUP1 DUP4 SLOAD DIV MUL DUP4 MSTORE SWAP2 PUSH1 0x20 ADD SWAP2 PUSH2 0x8DF JUMP JUMPDEST DUP3 ADD SWAP2 SWAP1 PUSH0 MSTORE PUSH1 0x20 PUSH0 KECCAK256 SWAP1 JUMPDEST DUP2 SLOAD DUP2 MSTORE SWAP1 PUSH1 0x1 ADD SWAP1 PUSH1 0x20 ADD DUP1 DUP4 GT PUSH2 0x8C2 JUMPI DUP3 SWAP1 SUB PUSH1 0x1F AND DUP3 ADD SWAP2 JUMPDEST POP POP POP POP POP DUP11 DUP4 DUP2 MLOAD DUP2 LT PUSH2 0x8F7 JUMPI PUSH2 0x8F6 PUSH2 0x263C JUMP JUMPDEST JUMPDEST PUSH1 0x20 MUL PUSH1 0x20 ADD ADD DUP2 SWAP1 MSTORE POP PUSH0 DUP2 DUP2 SLOAD DUP2 LT PUSH2 0x915 JUMPI PUSH2 0x914 PUSH2 0x263C JUMP JUMPDEST JUMPDEST SWAP1 PUSH0 MSTORE PUSH1 0x20 PUSH0 KECCAK256 SWAP1 PUSH1 0xC MUL ADD PUSH1 0x3 ADD PUSH0 SWAP1 SLOAD SWAP1 PUSH2 0x100 EXP SWAP1 DIV PUSH20 0xFFFFFFFFFFFFFFFFFFFFFFFFFFFFFFFFFFFFFFFF AND DUP10 DUP4 DUP2 MLOAD DUP2 LT PUSH2 0x957 JUMPI PUSH2 0x956 PUSH2 0x263C JUMP JUMPDEST JUMPDEST PUSH1 0x20 MUL PUSH1 0x20 ADD ADD SWAP1 PUSH20 0xFFFFFFFFFFFFFFFFFFFFFFFFFFFFFFFFFFFFFFFF AND SWAP1 DUP2 PUSH20 0xFFFFFFFFFFFFFFFFFFFFFFFFFFFFFFFFFFFFFFFF AND DUP2 MSTORE POP POP PUSH0 DUP2 DUP2 SLOAD DUP2 LT PUSH2 0x9A4 JUMPI PUSH2 0x9A3 PUSH2 0x263C JUMP JUMPDEST JUMPDEST SWAP1 PUSH0 MSTORE PUSH1 0x20 PUSH0 KECCAK256 SWAP1 PUSH1 0xC MUL ADD PUSH1 0x4 ADD SLOAD DUP9 DUP4 DUP2 MLOAD DUP2 LT PUSH2 0x9C7 JUMPI PUSH2 0x9C6 PUSH2 0x263C JUMP JUMPDEST JUMPDEST PUSH1 0x20 MUL PUSH1 0x20 ADD ADD DUP2 DUP2 MSTORE POP POP PUSH0 DUP2 DUP2 SLOAD DUP2 LT PUSH2 0x9E6 JUMPI PUSH2 0x9E5 PUSH2 0x263C JUMP JUMPDEST JUMPDEST SWAP1 PUSH0 MSTORE PUSH1 0x20 PUSH0 KECCAK256 SWAP1 PUSH1 0xC MUL ADD PUSH1 0x5 ADD SLOAD DUP8 DUP4 DUP2 MLOAD DUP2 LT PUSH2 0xA09 JUMPI PUSH2 0xA08 PUSH2 0x263C JUMP JUMPDEST JUMPDEST PUSH1 0x20 MUL PUSH1 0x20 ADD ADD DUP2 DUP2 MSTORE POP POP PUSH0 DUP2 DUP2 SLOAD DUP2 LT PUSH2 0xA28 JUMPI PUSH2 0xA27 PUSH2 0x263C JUMP JUMPDEST JUMPDEST SWAP1 PUSH0 MSTORE PUSH1 0x20 PUSH0 KECCAK256 SWAP1 PUSH1 0xC MUL ADD PUSH1 0x8 ADD SLOAD DUP7 DUP4 DUP2 MLOAD DUP2 LT PUSH2 0xA4B JUMPI PUSH2 0xA4A PUSH2 0x263C JUMP JUMPDEST JUMPDEST PUSH1 0x20 MUL PUSH1 0x20 ADD ADD DUP2 DUP2 MSTORE POP POP PUSH0 DUP2 DUP2 SLOAD DUP2 LT PUSH2 0xA6A JUMPI PUSH2 0xA69 PUSH2 0x263C JUMP JUMPDEST JUMPDEST SWAP1 PUSH0 MSTORE PUSH1 0x20 PUSH0 KECCAK256 SWAP1 PUSH1 0xC MUL ADD PUSH1 0x9 ADD PUSH0 SWAP1 SLOAD SWAP1 PUSH2 0x100 EXP SWAP1 DIV PUSH1 0xFF AND DUP6 DUP4 DUP2 MLOAD DUP2 LT PUSH2 0xA99 JUMPI PUSH2 0xA98 PUSH2 0x263C JUMP JUMPDEST JUMPDEST PUSH1 0x20 MUL PUSH1 0x20 ADD ADD SWAP1 ISZERO ISZERO SWAP1 DUP2 ISZERO ISZERO DUP2 MSTORE POP POP PUSH0 DUP2 DUP2 SLOAD DUP2 LT PUSH2 0xABE JUMPI PUSH2 0xABD PUSH2 0x263C JUMP JUMPDEST JUMPDEST SWAP1 PUSH0 MSTORE PUSH1 0x20 PUSH0 KECCAK256 SWAP1 PUSH1 0xC MUL ADD PUSH1 0xB ADD PUSH0 SWAP1 SLOAD SWAP1 PUSH2 0x100 EXP SWAP1 DIV PUSH1 0xFF AND DUP5 DUP4 DUP2 MLOAD DUP2 LT PUSH2 0xAED JUMPI PUSH2 0xAEC PUSH2 0x263C JUMP JUMPDEST JUMPDEST PUSH1 0x20 MUL PUSH1 0x20 ADD ADD SWAP1 ISZERO ISZERO SWAP1 DUP2 ISZERO ISZERO DUP2 MSTORE POP POP DUP2 DUP1 PUSH2 0xB0A SWAP1 PUSH2 0x27B3 JUMP JUMPDEST SWAP3 POP POP JUMPDEST DUP1 DUP1 PUSH1 0x1 ADD SWAP2 POP POP PUSH2 0x6F3 JUMP JUMPDEST POP POP POP SWAP1 SWAP2 SWAP3 SWAP4 SWAP5 SWAP6 SWAP7 SWAP8 SWAP9 JUMP JUMPDEST PUSH0 PUSH0 DUP4 MLOAD GT PUSH2 0xB6D JUMPI PUSH1 0x40 MLOAD PUSH32 0x8C379A000000000000000000000000000000000000000000000000000000000 DUP2 MSTORE PUSH1 0x4 ADD PUSH2 0xB64 SWAP1 PUSH2 0x28A1 JUMP JUMPDEST PUSH1 0x40 MLOAD DUP1 SWAP2 SUB SWAP1 REVERT JUMPDEST PUSH1 0x64 DUP4 MLOAD GT ISZERO PUSH2 0xBB2 JUMPI PUSH1 0x40 MLOAD PUSH32 0x8C379A000000000000000000000000000000000000000000000000000000000 DUP2 MSTORE PUSH1 0x4 ADD PUSH2 0xBA9 SWAP1 PUSH2 0x2909 JUMP JUMPDEST PUSH1 0x40 MLOAD DUP1 SWAP2 SUB SWAP1 REVERT JUMPDEST PUSH0 DUP3 MLOAD GT PUSH2 0xBF5 JUMPI PUSH1 0x40 MLOAD PUSH32 0x8C379A000000000000000000000000000000000000000000000000000000000 DUP2 MSTORE PUSH1 0x4 ADD PUSH2 0xBEC SWAP1 PUSH2 0x2971 JUMP JUMPDEST PUSH1 0x40 MLOAD DUP1 SWAP2 SUB SWAP1 REVERT JUMPDEST PUSH2 0x1388 DUP3 MLOAD GT ISZERO PUSH2 0xC3B JUMPI PUSH1 0x40 MLOAD PUSH32 0x8C379A000000000000000000000000000000000000000000000000000000000 DUP2 MSTORE PUSH1 0x4 ADD PUSH2 0xC32 SWAP1 PUSH2 0x29D9 JUMP JUMPDEST PUSH1 0x40 MLOAD DUP1 SWAP2 SUB SWAP1 REVERT JUMPDEST PUSH0 PUSH1 0x2 SLOAD SWAP1 POP PUSH0 PUSH0 PUSH1 0x1 DUP2 PUSH1 0x1 DUP2 SLOAD ADD DUP1 DUP3 SSTORE DUP1 SWAP2 POP POP SUB SWAP1 PUSH0 MSTORE PUSH1 0x20 PUSH0 KECCAK256 SWAP1 PUSH1 0xC MUL ADD SWAP1 POP DUP2 DUP2 PUSH0 ADD DUP2 SWAP1 SSTORE POP DUP5 DUP2 PUSH1 0x1 ADD SWAP1 DUP2 PUSH2 0xC7A SWAP2 SWAP1 PUSH2 0x2B97 JUMP JUMPDEST POP DUP4 DUP2 PUSH1 0x2 ADD SWAP1 DUP2 PUSH2 0xC8C SWAP2 SWAP1 PUSH2 0x2B97 JUMP JUMPDEST POP CALLER DUP2 PUSH1 0x3 ADD PUSH0 PUSH2 0x100 EXP DUP2 SLOAD DUP2 PUSH20 0xFFFFFFFFFFFFFFFFFFFFFFFFFFFFFFFFFFFFFFFF MUL NOT AND SWAP1 DUP4 PUSH20 0xFFFFFFFFFFFFFFFFFFFFFFFFFFFFFFFFFFFFFFFF AND MUL OR SWAP1 SSTORE POP TIMESTAMP DUP2 PUSH1 0x4 ADD DUP2 SWAP1 SSTORE POP PUSH0 DUP2 PUSH1 0x5 ADD DUP2 SWAP1 SSTORE POP PUSH0 DUP2 PUSH1 0x8 ADD DUP2 SWAP1 SSTORE POP PUSH0 DUP2 PUSH1 0x9 ADD PUSH0 PUSH2 0x100 EXP DUP2 SLOAD DUP2 PUSH1 0xFF MUL NOT AND SWAP1 DUP4 ISZERO ISZERO MUL OR SWAP1 SSTORE POP TIMESTAMP DUP2 PUSH1 0xA ADD DUP2 SWAP1 SSTORE POP PUSH1 0x1 DUP2 PUSH1 0xB ADD PUSH0 PUSH2 0x100 EXP DUP2 SLOAD DUP2 PUSH1 0xFF MUL NOT AND SWAP1 DUP4 ISZERO ISZERO MUL OR SWAP1 SSTORE POP PUSH1 0x2 PUSH0 DUP2 SLOAD DUP1 SWAP3 SWAP2 SWAP1 PUSH2 0xD3C SWAP1 PUSH2 0x27B3 JUMP JUMPDEST SWAP2 SWAP1 POP SSTORE POP PUSH1 0x3 PUSH0 DUP2 SLOAD DUP1 SWAP3 SWAP2 SWAP1 PUSH2 0xD53 SWAP1 PUSH2 0x27B3 JUMP JUMPDEST SWAP2 SWAP1 POP SSTORE POP CALLER PUSH20 0xFFFFFFFFFFFFFFFFFFFFFFFFFFFFFFFFFFFFFFFF AND DUP3 PUSH32 0x285DB98A4632176385795DDF0D2B67CEF1A21F47EB2F5D06F786AB6B5147E200 DUP8 TIMESTAMP PUSH1 0x40 MLOAD PUSH2 0xDA1 SWAP3 SWAP2 SWAP1 PUSH2 0x2C66 JUMP JUMPDEST PUSH1 0x40 MLOAD DUP1 SWAP2 SUB SWAP1 LOG3 DUP2 SWAP3 POP POP POP SWAP3 SWAP2 POP POP JUMP JUMPDEST PUSH1 0x60 DUP1 PUSH0 PUSH0 PUSH0 PUSH1 0x60 PUSH0 PUSH1 0x60 DUP9 PUSH0 DUP1 SLOAD SWAP1 POP DUP2 LT PUSH2 0xE06 JUMPI PUSH1 0x40 MLOAD PUSH32 0x8C379A000000000000000000000000000000000000000000000000000000000 DUP2 MSTORE PUSH1 0x4 ADD PUSH2 0xDFD SWAP1 PUSH2 0x261E JUMP JUMPDEST PUSH1 0x40 MLOAD DUP1 SWAP2 SUB SWAP1 REVERT JUMPDEST PUSH0 DUP2 DUP2 SLOAD DUP2 LT PUSH2 0xE19 JUMPI PUSH2 0xE18 PUSH2 0x263C JUMP JUMPDEST JUMPDEST SWAP1 PUSH0 MSTORE PUSH1 0x20 PUSH0 KECCAK256 SWAP1 PUSH1 0xC MUL ADD PUSH1 0xB ADD PUSH0 SWAP1 SLOAD SWAP1 PUSH2 0x100 EXP SWAP1 DIV PUSH1 0xFF AND PUSH2 0xE74 JUMPI PUSH1 0x40 MLOAD PUSH32 0x8C379A000000000000000000000000000000000000000000000000000000000 DUP2 MSTORE PUSH1 0x4 ADD PUSH2 0xE6B SWAP1 PUSH2 0x26B3 JUMP JUMPDEST PUSH1 0x40 MLOAD DUP1 SWAP2 SUB SWAP1 REVERT JUMPDEST PUSH0 PUSH0 DUP12 DUP2 SLOAD DUP2 LT PUSH2 0xE88 JUMPI PUSH2 0xE87 PUSH2 0x263C JUMP JUMPDEST JUMPDEST SWAP1 PUSH0 MSTORE PUSH1 0x20 PUSH0 KECCAK256 SWAP1 PUSH1 0xC MUL ADD SWAP1 POP PUSH0 DUP2 PUSH1 0x8 ADD SLOAD PUSH8 0xFFFFFFFFFFFFFFFF DUP2 GT ISZERO PUSH2 0xEB5 JUMPI PUSH2 0xEB4 PUSH2 0x2159 JUMP JUMPDEST JUMPDEST PUSH1 0x40 MLOAD SWAP1 DUP1 DUP3 MSTORE DUP1 PUSH1 0x20 MUL PUSH1 0x20 ADD DUP3 ADD PUSH1 0x40 MSTORE DUP1 ISZERO PUSH2 0xEEE JUMPI DUP2 PUSH1 0x20 ADD JUMPDEST PUSH2 0xEDB PUSH2 0x1C30 JUMP JUMPDEST DUP2 MSTORE PUSH1 0x20 ADD SWAP1 PUSH1 0x1 SWAP1 SUB SWAP1 DUP2 PUSH2 0xED3 JUMPI SWAP1 POP JUMPDEST POP SWAP1 POP PUSH0 PUSH0 SWAP1 POP PUSH0 PUSH0 SWAP1 POP JUMPDEST DUP4 PUSH1 0x8 ADD SLOAD DUP2 LT ISZERO PUSH2 0x1049 JUMPI DUP4 PUSH1 0x7 ADD PUSH0 DUP3 DUP2 MSTORE PUSH1 0x20 ADD SWAP1 DUP2 MSTORE PUSH1 0x20 ADD PUSH0 KECCAK256 PUSH1 0x40 MLOAD DUP1 PUSH1 0x60 ADD PUSH1 0x40 MSTORE SWAP1 DUP2 PUSH0 DUP3 ADD DUP1 SLOAD PUSH2 0xF33 SWAP1 PUSH2 0x2827 JUMP JUMPDEST DUP1 PUSH1 0x1F ADD PUSH1 0x20 DUP1 SWAP2 DIV MUL PUSH1 0x20 ADD PUSH1 0x40 MLOAD SWAP1 DUP2 ADD PUSH1 0x40 MSTORE DUP1 SWAP3 SWAP2 SWAP1 DUP2 DUP2 MSTORE PUSH1 0x20 ADD DUP3 DUP1 SLOAD PUSH2 0xF5F SWAP1 PUSH2 0x2827 JUMP JUMPDEST DUP1 ISZERO PUSH2 0xFAA JUMPI DUP1 PUSH1 0x1F LT PUSH2 0xF81 JUMPI PUSH2 0x100 DUP1 DUP4 SLOAD DIV MUL DUP4 MSTORE SWAP2 PUSH1 0x20 ADD SWAP2 PUSH2 0xFAA JUMP JUMPDEST DUP3 ADD SWAP2 SWAP1 PUSH0 MSTORE PUSH1 0x20 PUSH0 KECCAK256 SWAP1 JUMPDEST DUP2 SLOAD DUP2 MSTORE SWAP1 PUSH1 0x1 ADD SWAP1 PUSH1 0x20 ADD DUP1 DUP4 GT PUSH2 0xF8D JUMPI DUP3 SWAP1 SUB PUSH1 0x1F AND DUP3 ADD SWAP2 JUMPDEST POP POP POP POP POP DUP2 MSTORE PUSH1 0x20 ADD PUSH1 0x1 DUP3 ADD PUSH0 SWAP1 SLOAD SWAP1 PUSH2 0x100 EXP SWAP1 DIV PUSH20 0xFFFFFFFFFFFFFFFFFFFFFFFFFFFFFFFFFFFFFFFF AND PUSH20 0xFFFFFFFFFFFFFFFFFFFFFFFFFFFFFFFFFFFFFFFF AND PUSH20 0xFFFFFFFFFFFFFFFFFFFFFFFFFFFFFFFFFFFFFFFF AND DUP2 MSTORE PUSH1 0x20 ADD PUSH1 0x2 DUP3 ADD SLOAD DUP2 MSTORE POP POP DUP4 DUP4 DUP1 PUSH2 0x101E SWAP1 PUSH2 0x27B3 JUMP JUMPDEST SWAP5 POP DUP2 MLOAD DUP2 LT PUSH2 0x1031 JUMPI PUSH2 0x1030 PUSH2 0x263C JUMP JUMPDEST JUMPDEST PUSH1 0x20 MUL PUSH1 0x20 ADD ADD DUP2 SWAP1 MSTORE POP DUP1 DUP1 PUSH1 0x1 ADD SWAP2 POP POP PUSH2 0xEFA JUMP JUMPDEST POP DUP3 PUSH1 0x1 ADD DUP4 PUSH1 0x2 ADD DUP5 PUSH1 0x3 ADD PUSH0 SWAP1 SLOAD SWAP1 PUSH2 0x100 EXP SWAP1 DIV PUSH20 0xFFFFFFFFFFFFFFFFFFFFFFFFFFFFFFFFFFFFFFFF AND DUP6 PUSH1 0x4 ADD SLOAD DUP7 PUSH1 0x5 ADD SLOAD DUP8 PUSH1 0x6 ADD DUP9 PUSH1 0x8 ADD SLOAD DUP9 DUP8 DUP1 SLOAD PUSH2 0x1096 SWAP1 PUSH2 0x2827 JUMP JUMPDEST DUP1 PUSH1 0x1F ADD PUSH1 0x20 DUP1 SWAP2 DIV MUL PUSH1 0x20 ADD PUSH1 0x40 MLOAD SWAP1 DUP2 ADD PUSH1 0x40 MSTORE DUP1 SWAP3 SWAP2 SWAP1 DUP2 DUP2 MSTORE PUSH1 0x20 ADD DUP3 DUP1 SLOAD PUSH2 0x10C2 SWAP1 PUSH2 0x2827 JUMP JUMPDEST DUP1 ISZERO PUSH2 0x110D JUMPI DUP1 PUSH1 0x1F LT PUSH2 0x10E4 JUMPI PUSH2 0x100 DUP1 DUP4 SLOAD DIV MUL DUP4 MSTORE SWAP2 PUSH1 0x20 ADD SWAP2 PUSH2 0x110D JUMP JUMPDEST DUP3 ADD SWAP2 SWAP1 PUSH0 MSTORE PUSH1 0x20 PUSH0 KECCAK256 SWAP1 JUMPDEST DUP2 SLOAD DUP2 MSTORE SWAP1 PUSH1 0x1 ADD SWAP1 PUSH1 0x20 ADD DUP1 DUP4 GT PUSH2 0x10F0 JUMPI DUP3 SWAP1 SUB PUSH1 0x1F AND DUP3 ADD SWAP2 JUMPDEST POP POP POP POP POP SWAP8 POP DUP7 DUP1 SLOAD PUSH2 0x1120 SWAP1 PUSH2 0x2827 JUMP JUMPDEST DUP1 PUSH1 0x1F ADD PUSH1 0x20 DUP1 SWAP2 DIV MUL PUSH1 0x20 ADD PUSH1 0x40 MLOAD SWAP1 DUP2 ADD PUSH1 0x40 MSTORE DUP1 SWAP3 SWAP2 SWAP1 DUP2 DUP2 MSTORE PUSH1 0x20 ADD DUP3 DUP1 SLOAD PUSH2 0x114C SWAP1 PUSH2 0x2827 JUMP JUMPDEST DUP1 ISZERO PUSH2 0x1197 JUMPI DUP1 PUSH1 0x1F LT PUSH2 0x116E JUMPI PUSH2 0x100 DUP1 DUP4 SLOAD DIV MUL DUP4 MSTORE SWAP2 PUSH1 0x20 ADD SWAP2 PUSH2 0x1197 JUMP JUMPDEST DUP3 ADD SWAP2 SWAP1 PUSH0 MSTORE PUSH1 0x20 PUSH0 KECCAK256 SWAP1 JUMPDEST DUP2 SLOAD DUP2 MSTORE SWAP1 PUSH1 0x1 ADD SWAP1 PUSH1 0x20 ADD DUP1 DUP4 GT PUSH2 0x117A JUMPI DUP3 SWAP1 SUB PUSH1 0x1F AND DUP3 ADD SWAP2 JUMPDEST POP POP POP POP POP SWAP7 POP DUP3 DUP1 SLOAD DUP1 PUSH1 0x20 MUL PUSH1 0x20 ADD PUSH1 0x40 MLOAD SWAP1 DUP2 ADD PUSH1 0x40 MSTORE DUP1 SWAP3 SWAP2 SWAP1 DUP2 DUP2 MSTORE PUSH1 0x20 ADD DUP3 DUP1 SLOAD DUP1 ISZERO PUSH2 0x121C JUMPI PUSH1 0x20 MUL DUP3 ADD SWAP2 SWAP1 PUSH0 MSTORE PUSH1 0x20 PUSH0 KECCAK256 SWAP1 JUMPDEST DUP2 PUSH0 SWAP1 SLOAD SWAP1 PUSH2 0x100 EXP SWAP1 DIV PUSH20 0xFFFFFFFFFFFFFFFFFFFFFFFFFFFFFFFFFFFFFFFF AND PUSH20 0xFFFFFFFFFFFFFFFFFFFFFFFFFFFFFFFFFFFFFFFF AND DUP2 MSTORE PUSH1 0x20 ADD SWAP1 PUSH1 0x1 ADD SWAP1 DUP1 DUP4 GT PUSH2 0x11D3 JUMPI JUMPDEST POP POP POP POP POP SWAP3 POP SWAP12 POP SWAP12 POP SWAP12 POP SWAP12 POP SWAP12 POP SWAP12 POP SWAP12 POP SWAP12 POP POP POP POP POP SWAP2 SWAP4 SWAP6 SWAP8 POP SWAP2 SWAP4 SWAP6 SWAP8 JUMP JUMPDEST DUP1 PUSH0 DUP1 SLOAD SWAP1 POP DUP2 LT PUSH2 0x1289 JUMPI PUSH1 0x40 MLOAD PUSH32 0x8C379A000000000000000000000000000000000000000000000000000000000 DUP2 MSTORE PUSH1 0x4 ADD PUSH2 0x1280 SWAP1 PUSH2 0x261E JUMP JUMPDEST PUSH1 0x40 MLOAD DUP1 SWAP2 SUB SWAP1 REVERT JUMPDEST PUSH0 DUP2 DUP2 SLOAD DUP2 LT PUSH2 0x129C JUMPI PUSH2 0x129B PUSH2 0x263C JUMP JUMPDEST JUMPDEST SWAP1 PUSH0 MSTORE PUSH1 0x20 PUSH0 KECCAK256 SWAP1 PUSH1 0xC MUL ADD PUSH1 0xB ADD PUSH0 SWAP1 SLOAD SWAP1 PUSH2 0x100 EXP SWAP1 DIV PUSH1 0xFF AND PUSH2 0x12F7 JUMPI PUSH1 0x40 MLOAD PUSH32 0x8C379A000000000000000000000000000000000000000000000000000000000 DUP2 MSTORE PUSH1 0x4 ADD PUSH2 0x12EE SWAP1 PUSH2 0x26B3 JUMP JUMPDEST PUSH1 0x40 MLOAD DUP1 SWAP2 SUB SWAP1 REVERT JUMPDEST PUSH0 DUP3 DUP2 SLOAD DUP2 LT PUSH2 0x130A JUMPI PUSH2 0x1309 PUSH2 0x263C JUMP JUMPDEST JUMPDEST SWAP1 PUSH0 MSTORE PUSH1 0x20 PUSH0 KECCAK256 SWAP1 PUSH1 0xC MUL ADD PUSH1 0x3 ADD PUSH0 SWAP1 SLOAD SWAP1 PUSH2 0x100 EXP SWAP1 DIV PUSH20 0xFFFFFFFFFFFFFFFFFFFFFFFFFFFFFFFFFFFFFFFF AND PUSH20 0xFFFFFFFFFFFFFFFFFFFFFFFFFFFFFFFFFFFFFFFF AND CALLER PUSH20 0xFFFFFFFFFFFFFFFFFFFFFFFFFFFFFFFFFFFFFFFF AND SUB PUSH2 0x13A6 JUMPI PUSH1 0x40 MLOAD PUSH32 0x8C379A000000000000000000000000000000000000000000000000000000000 DUP2 MSTORE PUSH1 0x4 ADD PUSH2 0x139D SWAP1 PUSH2 0x2D04 JUMP JUMPDEST PUSH1 0x40 MLOAD DUP1 SWAP2 SUB SWAP1 REVERT JUMPDEST PUSH1 0x1 PUSH0 DUP4 DUP2 MSTORE PUSH1 0x20 ADD SWAP1 DUP2 MSTORE PUSH1 0x20 ADD PUSH0 KECCAK256 PUSH0 CALLER PUSH20 0xFFFFFFFFFFFFFFFFFFFFFFFFFFFFFFFFFFFFFFFF AND PUSH20 0xFFFFFFFFFFFFFFFFFFFFFFFFFFFFFFFFFFFFFFFF AND DUP2 MSTORE PUSH1 0x20 ADD SWAP1 DUP2 MSTORE PUSH1 0x20 ADD PUSH0 KECCAK256 PUSH0 SWAP1 SLOAD SWAP1 PUSH2 0x100 EXP SWAP1 DIV PUSH1 0xFF AND PUSH2 0x1566 JUMPI PUSH1 0x1 DUP1 PUSH0 DUP5 DUP2 MSTORE PUSH1 0x20 ADD SWAP1 DUP2 MSTORE PUSH1 0x20 ADD PUSH0 KECCAK256 PUSH0 CALLER PUSH20 0xFFFFFFFFFFFFFFFFFFFFFFFFFFFFFFFFFFFFFFFF AND PUSH20 0xFFFFFFFFFFFFFFFFFFFFFFFFFFFFFFFFFFFFFFFF AND DUP2 MSTORE PUSH1 0x20 ADD SWAP1 DUP2 MSTORE PUSH1 0x20 ADD PUSH0 KECCAK256 PUSH0 PUSH2 0x100 EXP DUP2 SLOAD DUP2 PUSH1 0xFF MUL NOT AND SWAP1 DUP4 ISZERO ISZERO MUL OR SWAP1 SSTORE POP PUSH0 DUP3 DUP2 SLOAD DUP2 LT PUSH2 0x1479 JUMPI PUSH2 0x1478 PUSH2 0x263C JUMP JUMPDEST JUMPDEST SWAP1 PUSH0 MSTORE PUSH1 0x20 PUSH0 KECCAK256 SWAP1 PUSH1 0xC MUL ADD PUSH1 0x5 ADD PUSH0 DUP2 SLOAD DUP1 SWAP3 SWAP2 SWAP1 PUSH2 0x1498 SWAP1 PUSH2 0x27B3 JUMP JUMPDEST SWAP2 SWAP1 POP SSTORE POP PUSH0 DUP3 DUP2 SLOAD DUP2 LT PUSH2 0x14B0 JUMPI PUSH2 0x14AF PUSH2 0x263C JUMP JUMPDEST JUMPDEST SWAP1 PUSH0 MSTORE PUSH1 0x20 PUSH0 KECCAK256 SWAP1 PUSH1 0xC MUL ADD PUSH1 0x6 ADD CALLER SWAP1 DUP1 PUSH1 0x1 DUP2 SLOAD ADD DUP1 DUP3 SSTORE DUP1 SWAP2 POP POP PUSH1 0x1 SWAP1 SUB SWAP1 PUSH0 MSTORE PUSH1 0x20 PUSH0 KECCAK256 ADD PUSH0 SWAP1 SWAP2 SWAP1 SWAP2 SWAP1 SWAP2 PUSH2 0x100 EXP DUP2 SLOAD DUP2 PUSH20 0xFFFFFFFFFFFFFFFFFFFFFFFFFFFFFFFFFFFFFFFF MUL NOT AND SWAP1 DUP4 PUSH20 0xFFFFFFFFFFFFFFFFFFFFFFFFFFFFFFFFFFFFFFFF AND MUL OR SWAP1 SSTORE POP CALLER PUSH20 0xFFFFFFFFFFFFFFFFFFFFFFFFFFFFFFFFFFFFFFFF AND DUP3 PUSH32 0xCF765D6F163C9B0D832E2A94F4C8E9BFFD32A2C3CA5FDBB8CC67B5FE1441F413 PUSH1 0x40 MLOAD PUSH1 0x40 MLOAD DUP1 SWAP2 SUB SWAP1 LOG3 PUSH2 0x1882 JUMP JUMPDEST PUSH0 PUSH1 0x1 PUSH0 DUP5 DUP2 MSTORE PUSH1 0x20 ADD SWAP1 DUP2 MSTORE PUSH1 0x20 ADD PUSH0 KECCAK256 PUSH0 CALLER PUSH20 0xFFFFFFFFFFFFFFFFFFFFFFFFFFFFFFFFFFFFFFFF AND PUSH20 0xFFFFFFFFFFFFFFFFFFFFFFFFFFFFFFFFFFFFFFFF AND DUP2 MSTORE PUSH1 0x20 ADD SWAP1 DUP2 MSTORE PUSH1 0x20 ADD PUSH0 KECCAK256 PUSH0 PUSH2 0x100 EXP DUP2 SLOAD DUP2 PUSH1 0xFF MUL NOT AND SWAP1 DUP4 ISZERO ISZERO MUL OR SWAP1 SSTORE POP PUSH0 DUP3 DUP2 SLOAD DUP2 LT PUSH2 0x15DC JUMPI PUSH2 0x15DB PUSH2 0x263C JUMP JUMPDEST JUMPDEST SWAP1 PUSH0 MSTORE PUSH1 0x20 PUSH0 KECCAK256 SWAP1 PUSH1 0xC MUL ADD PUSH1 0x5 ADD PUSH0 DUP2 SLOAD DUP1 SWAP3 SWAP2 SWAP1 PUSH2 0x15FB SWAP1 PUSH2 0x278C JUMP JUMPDEST SWAP2 SWAP1 POP SSTORE POP PUSH0 PUSH0 SWAP1 POP JUMPDEST PUSH0 DUP4 DUP2 SLOAD DUP2 LT PUSH2 0x1618 JUMPI PUSH2 0x1617 PUSH2 0x263C JUMP JUMPDEST JUMPDEST SWAP1 PUSH0 MSTORE PUSH1 0x20 PUSH0 KECCAK256 SWAP1 PUSH1 0xC MUL ADD PUSH1 0x6 ADD DUP1 SLOAD SWAP1 POP DUP2 LT ISZERO PUSH2 0x183C JUMPI CALLER PUSH20 0xFFFFFFFFFFFFFFFFFFFFFFFFFFFFFFFFFFFFFFFF AND PUSH0 DUP5 DUP2 SLOAD DUP2 LT PUSH2 0x165C JUMPI PUSH2 0x165B PUSH2 0x263C JUMP JUMPDEST JUMPDEST SWAP1 PUSH0 MSTORE PUSH1 0x20 PUSH0 KECCAK256 SWAP1 PUSH1 0xC MUL ADD PUSH1 0x6 ADD DUP3 DUP2 SLOAD DUP2 LT PUSH2 0x167D JUMPI PUSH2 0x167C PUSH2 0x263C JUMP JUMPDEST JUMPDEST SWAP1 PUSH0 MSTORE PUSH1 0x20 PUSH0 KECCAK256 ADD PUSH0 SWAP1 SLOAD SWAP1 PUSH2 0x100 EXP SWAP1 DIV PUSH20 0xFFFFFFFFFFFFFFFFFFFFFFFFFFFFFFFFFFFFFFFF AND PUSH20 0xFFFFFFFFFFFFFFFFFFFFFFFFFFFFFFFFFFFFFFFF AND SUB PUSH2 0x182F JUMPI PUSH0 DUP4 DUP2 SLOAD DUP2 LT PUSH2 0x16D3 JUMPI PUSH2 0x16D2 PUSH2 0x263C JUMP JUMPDEST JUMPDEST SWAP1 PUSH0 MSTORE PUSH1 0x20 PUSH0 KECCAK256 SWAP1 PUSH1 0xC MUL ADD PUSH1 0x6 ADD PUSH1 0x1 PUSH0 DUP6 DUP2 SLOAD DUP2 LT PUSH2 0x16F7 JUMPI PUSH2 0x16F6 PUSH2 0x263C JUMP JUMPDEST JUMPDEST SWAP1 PUSH0 MSTORE PUSH1 0x20 PUSH0 KECCAK256 SWAP1 PUSH1 0xC MUL ADD PUSH1 0x6 ADD DUP1 SLOAD SWAP1 POP PUSH2 0x1714 SWAP2 SWAP1 PUSH2 0x2D22 JUMP JUMPDEST DUP2 SLOAD DUP2 LT PUSH2 0x1725 JUMPI PUSH2 0x1724 PUSH2 0x263C JUMP JUMPDEST JUMPDEST SWAP1 PUSH0 MSTORE PUSH1 0x20 PUSH0 KECCAK256 ADD PUSH0 SWAP1 SLOAD SWAP1 PUSH2 0x100 EXP SWAP1 DIV PUSH20 0xFFFFFFFFFFFFFFFFFFFFFFFFFFFFFFFFFFFFFFFF AND PUSH0 DUP5 DUP2 SLOAD DUP2 LT PUSH2 0x1760 JUMPI PUSH2 0x175F PUSH2 0x263C JUMP JUMPDEST JUMPDEST SWAP1 PUSH0 MSTORE PUSH1 0x20 PUSH0 KECCAK256 SWAP1 PUSH1 0xC MUL ADD PUSH1 0x6 ADD DUP3 DUP2 SLOAD DUP2 LT PUSH2 0x1781 JUMPI PUSH2 0x1780 PUSH2 0x263C JUMP JUMPDEST JUMPDEST SWAP1 PUSH0 MSTORE PUSH1 0x20 PUSH0 KECCAK256 ADD PUSH0 PUSH2 0x100 EXP DUP2 SLOAD DUP2 PUSH20 0xFFFFFFFFFFFFFFFFFFFFFFFFFFFFFFFFFFFFFFFF MUL NOT AND SWAP1 DUP4 PUSH20 0xFFFFFFFFFFFFFFFFFFFFFFFFFFFFFFFFFFFFFFFF AND MUL OR SWAP1 SSTORE POP PUSH0 DUP4 DUP2 SLOAD DUP2 LT PUSH2 0x17D9 JUMPI PUSH2 0x17D8 PUSH2 0x263C JUMP JUMPDEST JUMPDEST SWAP1 PUSH0 MSTORE PUSH1 0x20 PUSH0 KECCAK256 SWAP1 PUSH1 0xC MUL ADD PUSH1 0x6 ADD DUP1 SLOAD DUP1 PUSH2 0x17F8 JUMPI PUSH2 0x17F7 PUSH2 0x2D55 JUMP JUMPDEST JUMPDEST PUSH1 0x1 SWAP1 SUB DUP2 DUP2 SWAP1 PUSH0 MSTORE PUSH1 0x20 PUSH0 KECCAK256 ADD PUSH0 PUSH2 0x100 EXP DUP2 SLOAD SWAP1 PUSH20 0xFFFFFFFFFFFFFFFFFFFFFFFFFFFFFFFFFFFFFFFF MUL NOT AND SWAP1 SSTORE SWAP1 SSTORE PUSH2 0x183C JUMP JUMPDEST DUP1 DUP1 PUSH1 0x1 ADD SWAP2 POP POP PUSH2 0x1605 JUMP JUMPDEST POP CALLER PUSH20 0xFFFFFFFFFFFFFFFFFFFFFFFFFFFFFFFFFFFFFFFF AND DUP3 PUSH32 0x82092D1196022C48D901E5DC4B17451DBCE942B8A9DED42FC6F2A4A5E8FD89B9 PUSH1 0x40 MLOAD PUSH1 0x40 MLOAD DUP1 SWAP2 SUB SWAP1 LOG3 JUMPDEST POP POP JUMP JUMPDEST PUSH0 PUSH1 0x3 SLOAD SWAP1 POP SWAP1 JUMP JUMPDEST PUSH1 0x2 SLOAD DUP2 JUMP JUMPDEST PUSH0 DUP3 PUSH0 DUP1 SLOAD SWAP1 POP DUP2 LT PUSH2 0x18DD JUMPI PUSH1 0x40 MLOAD PUSH32 0x8C379A000000000000000000000000000000000000000000000000000000000 DUP2 MSTORE PUSH1 0x4 ADD PUSH2 0x18D4 SWAP1 PUSH2 0x261E JUMP JUMPDEST PUSH1 0x40 MLOAD DUP1 SWAP2 SUB SWAP1 REVERT JUMPDEST PUSH0 DUP2 DUP2 SLOAD DUP2 LT PUSH2 0x18F0 JUMPI PUSH2 0x18EF PUSH2 0x263C JUMP JUMPDEST JUMPDEST SWAP1 PUSH0 MSTORE PUSH1 0x20 PUSH0 KECCAK256 SWAP1 PUSH1 0xC MUL ADD PUSH1 0xB ADD PUSH0 SWAP1 SLOAD SWAP1 PUSH2 0x100 EXP SWAP1 DIV PUSH1 0xFF AND PUSH2 0x194B JUMPI PUSH1 0x40 MLOAD PUSH32 0x8C379A000000000000000000000000000000000000000000000000000000000 DUP2 MSTORE PUSH1 0x4 ADD PUSH2 0x1942 SWAP1 PUSH2 0x26B3 JUMP JUMPDEST PUSH1 0x40 MLOAD DUP1 SWAP2 SUB SWAP1 REVERT JUMPDEST PUSH1 0x1 PUSH0 DUP6 DUP2 MSTORE PUSH1 0x20 ADD SWAP1 DUP2 MSTORE PUSH1 0x20 ADD PUSH0 KECCAK256 PUSH0 DUP5 PUSH20 0xFFFFFFFFFFFFFFFFFFFFFFFFFFFFFFFFFFFFFFFF AND PUSH20 0xFFFFFFFFFFFFFFFFFFFFFFFFFFFFFFFFFFFFFFFF AND DUP2 MSTORE PUSH1 0x20 ADD SWAP1 DUP2 MSTORE PUSH1 0x20 ADD PUSH0 KECCAK256 PUSH0 SWAP1 SLOAD SWAP1 PUSH2 0x100 EXP SWAP1 DIV PUSH1 0xFF AND SWAP2 POP POP SWAP3 SWAP2 POP POP JUMP JUMPDEST DUP2 PUSH0 DUP1 SLOAD SWAP1 POP DUP2 LT PUSH2 0x19F4 JUMPI PUSH1 0x40 MLOAD PUSH32 0x8C379A000000000000000000000000000000000000000000000000000000000 DUP2 MSTORE PUSH1 0x4 ADD PUSH2 0x19EB SWAP1 PUSH2 0x261E JUMP JUMPDEST PUSH1 0x40 MLOAD DUP1 SWAP2 SUB SWAP1 REVERT JUMPDEST PUSH0 DUP2 DUP2 SLOAD DUP2 LT PUSH2 0x1A07 JUMPI PUSH2 0x1A06 PUSH2 0x263C JUMP JUMPDEST JUMPDEST SWAP1 PUSH0 MSTORE PUSH1 0x20 PUSH0 KECCAK256 SWAP1 PUSH1 0xC MUL ADD PUSH1 0xB ADD PUSH0 SWAP1 SLOAD SWAP1 PUSH2 0x100 EXP SWAP1 DIV PUSH1 0xFF AND PUSH2 0x1A62 JUMPI PUSH1 0x40 MLOAD PUSH32 0x8C379A000000000000000000000000000000000000000000000000000000000 DUP2 MSTORE PUSH1 0x4 ADD PUSH2 0x1A59 SWAP1 PUSH2 0x26B3 JUMP JUMPDEST PUSH1 0x40 MLOAD DUP1 SWAP2 SUB SWAP1 REVERT JUMPDEST PUSH0 DUP3 MLOAD GT PUSH2 0x1AA5 JUMPI PUSH1 0x40 MLOAD PUSH32 0x8C379A000000000000000000000000000000000000000000000000000000000 DUP2 MSTORE PUSH1 0x4 ADD PUSH2 0x1A9C SWAP1 PUSH2 0x2DF2 JUMP JUMPDEST PUSH1 0x40 MLOAD DUP1 SWAP2 SUB SWAP1 REVERT JUMPDEST PUSH2 0x118 DUP3 MLOAD GT ISZERO PUSH2 0x1AEB JUMPI PUSH1 0x40 MLOAD PUSH32 0x8C379A000000000000000000000000000000000000000000000000000000000 DUP2 MSTORE PUSH1 0x4 ADD PUSH2 0x1AE2 SWAP1 PUSH2 0x2E5A JUMP JUMPDEST PUSH1 0x40 MLOAD DUP1 SWAP2 SUB SWAP1 REVERT JUMPDEST PUSH0 PUSH0 DUP5 DUP2 SLOAD DUP2 LT PUSH2 0x1AFF JUMPI PUSH2 0x1AFE PUSH2 0x263C JUMP JUMPDEST JUMPDEST SWAP1 PUSH0 MSTORE PUSH1 0x20 PUSH0 KECCAK256 SWAP1 PUSH1 0xC MUL ADD SWAP1 POP PUSH0 DUP2 PUSH1 0x8 ADD SLOAD SWAP1 POP PUSH1 0x40 MLOAD DUP1 PUSH1 0x60 ADD PUSH1 0x40 MSTORE DUP1 DUP6 DUP2 MSTORE PUSH1 0x20 ADD CALLER PUSH20 0xFFFFFFFFFFFFFFFFFFFFFFFFFFFFFFFFFFFFFFFF AND DUP2 MSTORE PUSH1 0x20 ADD TIMESTAMP DUP2 MSTORE POP DUP3 PUSH1 0x7 ADD PUSH0 DUP4 DUP2 MSTORE PUSH1 0x20 ADD SWAP1 DUP2 MSTORE PUSH1 0x20 ADD PUSH0 KECCAK256 PUSH0 DUP3 ADD MLOAD DUP2 PUSH0 ADD SWAP1 DUP2 PUSH2 0x1B6C SWAP2 SWAP1 PUSH2 0x2B97 JUMP JUMPDEST POP PUSH1 0x20 DUP3 ADD MLOAD DUP2 PUSH1 0x1 ADD PUSH0 PUSH2 0x100 EXP DUP2 SLOAD DUP2 PUSH20 0xFFFFFFFFFFFFFFFFFFFFFFFFFFFFFFFFFFFFFFFF MUL NOT AND SWAP1 DUP4 PUSH20 0xFFFFFFFFFFFFFFFFFFFFFFFFFFFFFFFFFFFFFFFF AND MUL OR SWAP1 SSTORE POP PUSH1 0x40 DUP3 ADD MLOAD DUP2 PUSH1 0x2 ADD SSTORE SWAP1 POP POP DUP2 PUSH1 0x8 ADD PUSH0 DUP2 SLOAD DUP1 SWAP3 SWAP2 SWAP1 PUSH2 0x1BD4 SWAP1 PUSH2 0x27B3 JUMP JUMPDEST SWAP2 SWAP1 POP SSTORE POP CALLER PUSH20 0xFFFFFFFFFFFFFFFFFFFFFFFFFFFFFFFFFFFFFFFF AND DUP2 DUP7 PUSH32 0x96D81CAC001A263174D42D42CFAD470FEC9D863BCF6D52BA8B93D47C7EE00DE3 DUP8 PUSH1 0x40 MLOAD PUSH2 0x1C21 SWAP2 SWAP1 PUSH2 0x2E78 JUMP JUMPDEST PUSH1 0x40 MLOAD DUP1 SWAP2 SUB SWAP1 LOG4 POP POP POP POP POP JUMP JUMPDEST PUSH1 0x40 MLOAD DUP1 PUSH1 0x60 ADD PUSH1 0x40 MSTORE DUP1 PUSH1 0x60 DUP2 MSTORE PUSH1 0x20 ADD PUSH0 PUSH20 0xFFFFFFFFFFFFFFFFFFFFFFFFFFFFFFFFFFFFFFFF AND DUP2 MSTORE PUSH1 0x20 ADD PUSH0 DUP2 MSTORE POP SWAP1 JUMP JUMPDEST PUSH0 PUSH1 0x40 MLOAD SWAP1 POP SWAP1 JUMP JUMPDEST PUSH0 PUSH0 REVERT JUMPDEST PUSH0 PUSH0 REVERT JUMPDEST PUSH0 DUP2 SWAP1 POP SWAP2 SWAP1 POP JUMP JUMPDEST PUSH2 0x1C88 DUP2 PUSH2 0x1C76 JUMP JUMPDEST DUP2 EQ PUSH2 0x1C92 JUMPI PUSH0 PUSH0 REVERT JUMPDEST POP JUMP JUMPDEST PUSH0 DUP2 CALLDATALOAD SWAP1 POP PUSH2 0x1CA3 DUP2 PUSH2 0x1C7F JUMP JUMPDEST SWAP3 SWAP2 POP POP JUMP JUMPDEST PUSH0 PUSH1 0x20 DUP3 DUP5 SUB SLT ISZERO PUSH2 0x1CBE JUMPI PUSH2 0x1CBD PUSH2 0x1C6E JUMP JUMPDEST JUMPDEST PUSH0 PUSH2 0x1CCB DUP5 DUP3 DUP6 ADD PUSH2 0x1C95 JUMP JUMPDEST SWAP2 POP POP SWAP3 SWAP2 POP POP JUMP JUMPDEST PUSH2 0x1CDD DUP2 PUSH2 0x1C76 JUMP JUMPDEST DUP3 MSTORE POP POP JUMP JUMPDEST PUSH0 PUSH1 0x20 DUP3 ADD SWAP1 POP PUSH2 0x1CF6 PUSH0 DUP4 ADD DUP5 PUSH2 0x1CD4 JUMP JUMPDEST SWAP3 SWAP2 POP POP JUMP JUMPDEST PUSH0 DUP2 MLOAD SWAP1 POP SWAP2 SWAP1 POP JUMP JUMPDEST PUSH0 DUP3 DUP3 MSTORE PUSH1 0x20 DUP3 ADD SWAP1 POP SWAP3 SWAP2 POP POP JUMP JUMPDEST PUSH0 DUP2 SWAP1 POP PUSH1 0x20 DUP3 ADD SWAP1 POP SWAP2 SWAP1 POP JUMP JUMPDEST PUSH2 0x1D2E DUP2 PUSH2 0x1C76 JUMP JUMPDEST DUP3 MSTORE POP POP JUMP JUMPDEST PUSH0 PUSH2 0x1D3F DUP4 DUP4 PUSH2 0x1D25 JUMP JUMPDEST PUSH1 0x20 DUP4 ADD SWAP1 POP SWAP3 SWAP2 POP POP JUMP JUMPDEST PUSH0 PUSH1 0x20 DUP3 ADD SWAP1 POP SWAP2 SWAP1 POP JUMP JUMPDEST PUSH0 PUSH2 0x1D61 DUP3 PUSH2 0x1CFC JUMP JUMPDEST PUSH2 0x1D6B DUP2 DUP6 PUSH2 0x1D06 JUMP JUMPDEST SWAP4 POP PUSH2 0x1D76 DUP4 PUSH2 0x1D16 JUMP JUMPDEST DUP1 PUSH0 JUMPDEST DUP4 DUP2 LT ISZERO PUSH2 0x1DA6 JUMPI DUP2 MLOAD PUSH2 0x1D8D DUP9 DUP3 PUSH2 0x1D34 JUMP JUMPDEST SWAP8 POP PUSH2 0x1D98 DUP4 PUSH2 0x1D4B JUMP JUMPDEST SWAP3 POP POP PUSH1 0x1 DUP2 ADD SWAP1 POP PUSH2 0x1D79 JUMP JUMPDEST POP DUP6 SWAP4 POP POP POP POP SWAP3 SWAP2 POP POP JUMP JUMPDEST PUSH0 DUP2 MLOAD SWAP1 POP SWAP2 SWAP1 POP JUMP JUMPDEST PUSH0 DUP3 DUP3 MSTORE PUSH1 0x20 DUP3 ADD SWAP1 POP SWAP3 SWAP2 POP POP JUMP JUMPDEST PUSH0 DUP2 SWAP1 POP PUSH1 0x20 DUP3 ADD SWAP1 POP SWAP2 SWAP1 POP JUMP JUMPDEST PUSH0 DUP2 MLOAD SWAP1 POP SWAP2 SWAP1 POP JUMP JUMPDEST PUSH0 DUP3 DUP3 MSTORE PUSH1 0x20 DUP3 ADD SWAP1 POP SWAP3 SWAP2 POP POP JUMP JUMPDEST DUP3 DUP2 DUP4 MCOPY PUSH0 DUP4 DUP4 ADD MSTORE POP POP POP JUMP JUMPDEST PUSH0 PUSH1 0x1F NOT PUSH1 0x1F DUP4 ADD AND SWAP1 POP SWAP2 SWAP1 POP JUMP JUMPDEST PUSH0 PUSH2 0x1E1E DUP3 PUSH2 0x1DDC JUMP JUMPDEST PUSH2 0x1E28 DUP2 DUP6 PUSH2 0x1DE6 JUMP JUMPDEST SWAP4 POP PUSH2 0x1E38 DUP2 DUP6 PUSH1 0x20 DUP7 ADD PUSH2 0x1DF6 JUMP JUMPDEST PUSH2 0x1E41 DUP2 PUSH2 0x1E04 JUMP JUMPDEST DUP5 ADD SWAP2 POP POP SWAP3 SWAP2 POP POP JUMP JUMPDEST PUSH0 PUSH2 0x1E57 DUP4 DUP4 PUSH2 0x1E14 JUMP JUMPDEST SWAP1 POP SWAP3 SWAP2 POP POP JUMP JUMPDEST PUSH0 PUSH1 0x20 DUP3 ADD SWAP1 POP SWAP2 SWAP1 POP JUMP JUMPDEST PUSH0 PUSH2 0x1E75 DUP3 PUSH2 0x1DB3 JUMP JUMPDEST PUSH2 0x1E7F DUP2 DUP6 PUSH2 0x1DBD JUMP JUMPDEST SWAP4 POP DUP4 PUSH1 0x20 DUP3 MUL DUP6 ADD PUSH2 0x1E91 DUP6 PUSH2 0x1DCD JUMP JUMPDEST DUP1 PUSH0 JUMPDEST DUP6 DUP2 LT ISZERO PUSH2 0x1ECC JUMPI DUP5 DUP5 SUB DUP10 MSTORE DUP2 MLOAD PUSH2 0x1EAD DUP6 DUP3 PUSH2 0x1E4C JUMP JUMPDEST SWAP5 POP PUSH2 0x1EB8 DUP4 PUSH2 0x1E5F JUMP JUMPDEST SWAP3 POP PUSH1 0x20 DUP11 ADD SWAP10 POP POP PUSH1 0x1 DUP2 ADD SWAP1 POP PUSH2 0x1E94 JUMP JUMPDEST POP DUP3 SWAP8 POP DUP8 SWAP6 POP POP POP POP POP POP SWAP3 SWAP2 POP POP JUMP JUMPDEST PUSH0 DUP2 MLOAD SWAP1 POP SWAP2 SWAP1 POP JUMP JUMPDEST PUSH0 DUP3 DUP3 MSTORE PUSH1 0x20 DUP3 ADD SWAP1 POP SWAP3 SWAP2 POP POP JUMP JUMPDEST PUSH0 DUP2 SWAP1 POP PUSH1 0x20 DUP3 ADD SWAP1 POP SWAP2 SWAP1 POP JUMP JUMPDEST PUSH0 PUSH20 0xFFFFFFFFFFFFFFFFFFFFFFFFFFFFFFFFFFFFFFFF DUP3 AND SWAP1 POP SWAP2 SWAP1 POP JUMP JUMPDEST PUSH0 PUSH2 0x1F30 DUP3 PUSH2 0x1F07 JUMP JUMPDEST SWAP1 POP SWAP2 SWAP1 POP JUMP JUMPDEST PUSH2 0x1F40 DUP2 PUSH2 0x1F26 JUMP JUMPDEST DUP3 MSTORE POP POP JUMP JUMPDEST PUSH0 PUSH2 0x1F51 DUP4 DUP4 PUSH2 0x1F37 JUMP JUMPDEST PUSH1 0x20 DUP4 ADD SWAP1 POP SWAP3 SWAP2 POP POP JUMP JUMPDEST PUSH0 PUSH1 0x20 DUP3 ADD SWAP1 POP SWAP2 SWAP1 POP JUMP JUMPDEST PUSH0 PUSH2 0x1F73 DUP3 PUSH2 0x1EDE JUMP JUMPDEST PUSH2 0x1F7D DUP2 DUP6 PUSH2 0x1EE8 JUMP JUMPDEST SWAP4 POP PUSH2 0x1F88 DUP4 PUSH2 0x1EF8 JUMP JUMPDEST DUP1 PUSH0 JUMPDEST DUP4 DUP2 LT ISZERO PUSH2 0x1FB8 JUMPI DUP2 MLOAD PUSH2 0x1F9F DUP9 DUP3 PUSH2 0x1F46 JUMP JUMPDEST SWAP8 POP PUSH2 0x1FAA DUP4 PUSH2 0x1F5D JUMP JUMPDEST SWAP3 POP POP PUSH1 0x1 DUP2 ADD SWAP1 POP PUSH2 0x1F8B JUMP JUMPDEST POP DUP6 SWAP4 POP POP POP POP SWAP3 SWAP2 POP POP JUMP JUMPDEST PUSH0 DUP2 MLOAD SWAP1 POP SWAP2 SWAP1 POP JUMP JUMPDEST PUSH0 DUP3 DUP3 MSTORE PUSH1 0x20 DUP3 ADD SWAP1 POP SWAP3 SWAP2 POP POP JUMP JUMPDEST PUSH0 DUP2 SWAP1 POP PUSH1 0x20 DUP3 ADD SWAP1 POP SWAP2 SWAP1 POP JUMP JUMPDEST PUSH0 DUP2 ISZERO ISZERO SWAP1 POP SWAP2 SWAP1 POP JUMP JUMPDEST PUSH2 0x2002 DUP2 PUSH2 0x1FEE JUMP JUMPDEST DUP3 MSTORE POP POP JUMP JUMPDEST PUSH0 PUSH2 0x2013 DUP4 DUP4 PUSH2 0x1FF9 JUMP JUMPDEST PUSH1 0x20 DUP4 ADD SWAP1 POP SWAP3 SWAP2 POP POP JUMP JUMPDEST PUSH0 PUSH1 0x20 DUP3 ADD SWAP1 POP SWAP2 SWAP1 POP JUMP JUMPDEST PUSH0 PUSH2 0x2035 DUP3 PUSH2 0x1FC5 JUMP JUMPDEST PUSH2 0x203F DUP2 DUP6 PUSH2 0x1FCF JUMP JUMPDEST SWAP4 POP PUSH2 0x204A DUP4 PUSH2 0x1FDF JUMP JUMPDEST DUP1 PUSH0 JUMPDEST DUP4 DUP2 LT ISZERO PUSH2 0x207A JUMPI DUP2 MLOAD PUSH2 0x2061 DUP9 DUP3 PUSH2 0x2008 JUMP JUMPDEST SWAP8 POP PUSH2 0x206C DUP4 PUSH2 0x201F JUMP JUMPDEST SWAP3 POP POP PUSH1 0x1 DUP2 ADD SWAP1 POP PUSH2 0x204D JUMP JUMPDEST POP DUP6 SWAP4 POP POP POP POP SWAP3 SWAP2 POP POP JUMP JUMPDEST PUSH0 PUSH2 0x120 DUP3 ADD SWAP1 POP DUP2 DUP2 SUB PUSH0 DUP4 ADD MSTORE PUSH2 0x20A0 DUP2 DUP13 PUSH2 0x1D57 JUMP JUMPDEST SWAP1 POP DUP2 DUP2 SUB PUSH1 0x20 DUP4 ADD MSTORE PUSH2 0x20B4 DUP2 DUP12 PUSH2 0x1E6B JUMP JUMPDEST SWAP1 POP DUP2 DUP2 SUB PUSH1 0x40 DUP4 ADD MSTORE PUSH2 0x20C8 DUP2 DUP11 PUSH2 0x1E6B JUMP JUMPDEST SWAP1 POP DUP2 DUP2 SUB PUSH1 0x60 DUP4 ADD MSTORE PUSH2 0x20DC DUP2 DUP10 PUSH2 0x1F69 JUMP JUMPDEST SWAP1 POP DUP2 DUP2 SUB PUSH1 0x80 DUP4 ADD MSTORE PUSH2 0x20F0 DUP2 DUP9 PUSH2 0x1D57 JUMP JUMPDEST SWAP1 POP DUP2 DUP2 SUB PUSH1 0xA0 DUP4 ADD MSTORE PUSH2 0x2104 DUP2 DUP8 PUSH2 0x1D57 JUMP JUMPDEST SWAP1 POP DUP2 DUP2 SUB PUSH1 0xC0 DUP4 ADD MSTORE PUSH2 0x2118 DUP2 DUP7 PUSH2 0x1D57 JUMP JUMPDEST SWAP1 POP DUP2 DUP2 SUB PUSH1 0xE0 DUP4 ADD MSTORE PUSH2 0x212C DUP2 DUP6 PUSH2 0x202B JUMP JUMPDEST SWAP1 POP DUP2 DUP2 SUB PUSH2 0x100 DUP4 ADD MSTORE PUSH2 0x2141 DUP2 DUP5 PUSH2 0x202B JUMP JUMPDEST SWAP1 POP SWAP11 SWAP10 POP POP POP POP POP POP POP POP POP POP JUMP JUMPDEST PUSH0 PUSH0 REVERT JUMPDEST PUSH0 PUSH0 REVERT JUMPDEST PUSH32 0x4E487B7100000000000000000000000000000000000000000000000000000000 PUSH0 MSTORE PUSH1 0x41 PUSH1 0x4 MSTORE PUSH1 0x24 PUSH0 REVERT JUMPDEST PUSH2 0x218F DUP3 PUSH2 0x1E04 JUMP JUMPDEST DUP2 ADD DUP2 DUP2 LT PUSH8 0xFFFFFFFFFFFFFFFF DUP3 GT OR ISZERO PUSH2 0x21AE JUMPI PUSH2 0x21AD PUSH2 0x2159 JUMP JUMPDEST JUMPDEST DUP1 PUSH1 0x40 MSTORE POP POP POP JUMP JUMPDEST PUSH0 PUSH2 0x21C0 PUSH2 0x1C65 JUMP JUMPDEST SWAP1 POP PUSH2 0x21CC DUP3 DUP3 PUSH2 0x2186 JUMP JUMPDEST SWAP2 SWAP1 POP JUMP JUMPDEST PUSH0 PUSH8 0xFFFFFFFFFFFFFFFF DUP3 GT ISZERO PUSH2 0x21EB JUMPI PUSH2 0x21EA PUSH2 0x2159 JUMP JUMPDEST JUMPDEST PUSH2 0x21F4 DUP3 PUSH2 0x1E04 JUMP JUMPDEST SWAP1 POP PUSH1 0x20 DUP2 ADD SWAP1 POP SWAP2 SWAP1 POP JUMP JUMPDEST DUP3 DUP2 DUP4 CALLDATACOPY PUSH0 DUP4 DUP4 ADD MSTORE POP POP POP JUMP JUMPDEST PUSH0 PUSH2 0x2221 PUSH2 0x221C DUP5 PUSH2 0x21D1 JUMP JUMPDEST PUSH2 0x21B7 JUMP JUMPDEST SWAP1 POP DUP3 DUP2 MSTORE PUSH1 0x20 DUP2 ADD DUP5 DUP5 DUP5 ADD GT ISZERO PUSH2 0x223D JUMPI PUSH2 0x223C PUSH2 0x2155 JUMP JUMPDEST JUMPDEST PUSH2 0x2248 DUP5 DUP3 DUP6 PUSH2 0x2201 JUMP JUMPDEST POP SWAP4 SWAP3 POP POP POP JUMP JUMPDEST PUSH0 DUP3 PUSH1 0x1F DUP4 ADD SLT PUSH2 0x2264 JUMPI PUSH2 0x2263 PUSH2 0x2151 JUMP JUMPDEST JUMPDEST DUP2 CALLDATALOAD PUSH2 0x2274 DUP5 DUP3 PUSH1 0x20 DUP7 ADD PUSH2 0x220F JUMP JUMPDEST SWAP2 POP POP SWAP3 SWAP2 POP POP JUMP JUMPDEST PUSH0 PUSH0 PUSH1 0x40 DUP4 DUP6 SUB SLT ISZERO PUSH2 0x2293 JUMPI PUSH2 0x2292 PUSH2 0x1C6E JUMP JUMPDEST JUMPDEST PUSH0 DUP4 ADD CALLDATALOAD PUSH8 0xFFFFFFFFFFFFFFFF DUP2 GT ISZERO PUSH2 0x22B0 JUMPI PUSH2 0x22AF PUSH2 0x1C72 JUMP JUMPDEST JUMPDEST PUSH2 0x22BC DUP6 DUP3 DUP7 ADD PUSH2 0x2250 JUMP JUMPDEST SWAP3 POP POP PUSH1 0x20 DUP4 ADD CALLDATALOAD PUSH8 0xFFFFFFFFFFFFFFFF DUP2 GT ISZERO PUSH2 0x22DD JUMPI PUSH2 0x22DC PUSH2 0x1C72 JUMP JUMPDEST JUMPDEST PUSH2 0x22E9 DUP6 DUP3 DUP7 ADD PUSH2 0x2250 JUMP JUMPDEST SWAP2 POP POP SWAP3 POP SWAP3 SWAP1 POP JUMP JUMPDEST PUSH0 DUP3 DUP3 MSTORE PUSH1 0x20 DUP3 ADD SWAP1 POP SWAP3 SWAP2 POP POP JUMP JUMPDEST PUSH0 PUSH2 0x230D DUP3 PUSH2 0x1DDC JUMP JUMPDEST PUSH2 0x2317 DUP2 DUP6 PUSH2 0x22F3 JUMP JUMPDEST SWAP4 POP PUSH2 0x2327 DUP2 DUP6 PUSH1 0x20 DUP7 ADD PUSH2 0x1DF6 JUMP JUMPDEST PUSH2 0x2330 DUP2 PUSH2 0x1E04 JUMP JUMPDEST DUP5 ADD SWAP2 POP POP SWAP3 SWAP2 POP POP JUMP JUMPDEST PUSH2 0x2344 DUP2 PUSH2 0x1F26 JUMP JUMPDEST DUP3 MSTORE POP POP JUMP JUMPDEST PUSH0 DUP2 MLOAD SWAP1 POP SWAP2 SWAP1 POP JUMP JUMPDEST PUSH0 DUP3 DUP3 MSTORE PUSH1 0x20 DUP3 ADD SWAP1 POP SWAP3 SWAP2 POP POP JUMP JUMPDEST PUSH0 DUP2 SWAP1 POP PUSH1 0x20 DUP3 ADD SWAP1 POP SWAP2 SWAP1 POP JUMP JUMPDEST PUSH0 PUSH1 0x60 DUP4 ADD PUSH0 DUP4 ADD MLOAD DUP5 DUP3 SUB PUSH0 DUP7 ADD MSTORE PUSH2 0x238D DUP3 DUP3 PUSH2 0x1E14 JUMP JUMPDEST SWAP2 POP POP PUSH1 0x20 DUP4 ADD MLOAD PUSH2 0x23A2 PUSH1 0x20 DUP7 ADD DUP3 PUSH2 0x1F37 JUMP JUMPDEST POP PUSH1 0x40 DUP4 ADD MLOAD PUSH2 0x23B5 PUSH1 0x40 DUP7 ADD DUP3 PUSH2 0x1D25 JUMP JUMPDEST POP DUP1 SWAP2 POP POP SWAP3 SWAP2 POP POP JUMP JUMPDEST PUSH0 PUSH2 0x23CB DUP4 DUP4 PUSH2 0x2373 JUMP JUMPDEST SWAP1 POP SWAP3 SWAP2 POP POP JUMP JUMPDEST PUSH0 PUSH1 0x20 DUP3 ADD SWAP1 POP SWAP2 SWAP1 POP JUMP JUMPDEST PUSH0 PUSH2 0x23E9 DUP3 PUSH2 0x234A JUMP JUMPDEST PUSH2 0x23F3 DUP2 DUP6 PUSH2 0x2354 JUMP JUMPDEST SWAP4 POP DUP4 PUSH1 0x20 DUP3 MUL DUP6 ADD PUSH2 0x2405 DUP6 PUSH2 0x2364 JUMP JUMPDEST DUP1 PUSH0 JUMPDEST DUP6 DUP2 LT ISZERO PUSH2 0x2440 JUMPI DUP5 DUP5 SUB DUP10 MSTORE DUP2 MLOAD PUSH2 0x2421 DUP6 DUP3 PUSH2 0x23C0 JUMP JUMPDEST SWAP5 POP PUSH2 0x242C DUP4 PUSH2 0x23D3 JUMP JUMPDEST SWAP3 POP PUSH1 0x20 DUP11 ADD SWAP10 POP POP PUSH1 0x1 DUP2 ADD SWAP1 POP PUSH2 0x2408 JUMP JUMPDEST POP DUP3 SWAP8 POP DUP8 SWAP6 POP POP POP POP POP POP SWAP3 SWAP2 POP POP JUMP JUMPDEST PUSH0 PUSH2 0x100 DUP3 ADD SWAP1 POP DUP2 DUP2 SUB PUSH0 DUP4 ADD MSTORE PUSH2 0x246B DUP2 DUP12 PUSH2 0x2303 JUMP JUMPDEST SWAP1 POP DUP2 DUP2 SUB PUSH1 0x20 DUP4 ADD MSTORE PUSH2 0x247F DUP2 DUP11 PUSH2 0x2303 JUMP JUMPDEST SWAP1 POP PUSH2 0x248E PUSH1 0x40 DUP4 ADD DUP10 PUSH2 0x233B JUMP JUMPDEST PUSH2 0x249B PUSH1 0x60 DUP4 ADD DUP9 PUSH2 0x1CD4 JUMP JUMPDEST PUSH2 0x24A8 PUSH1 0x80 DUP4 ADD DUP8 PUSH2 0x1CD4 JUMP JUMPDEST DUP2 DUP2 SUB PUSH1 0xA0 DUP4 ADD MSTORE PUSH2 0x24BA DUP2 DUP7 PUSH2 0x1F69 JUMP JUMPDEST SWAP1 POP PUSH2 0x24C9 PUSH1 0xC0 DUP4 ADD DUP6 PUSH2 0x1CD4 JUMP JUMPDEST DUP2 DUP2 SUB PUSH1 0xE0 DUP4 ADD MSTORE PUSH2 0x24DB DUP2 DUP5 PUSH2 0x23DF JUMP JUMPDEST SWAP1 POP SWAP10 SWAP9 POP POP POP POP POP POP POP POP POP JUMP JUMPDEST PUSH2 0x24F3 DUP2 PUSH2 0x1F26 JUMP JUMPDEST DUP2 EQ PUSH2 0x24FD JUMPI PUSH0 PUSH0 REVERT JUMPDEST POP JUMP JUMPDEST PUSH0 DUP2 CALLDATALOAD SWAP1 POP PUSH2 0x250E DUP2 PUSH2 0x24EA JUMP JUMPDEST SWAP3 SWAP2 POP POP JUMP JUMPDEST PUSH0 PUSH0 PUSH1 0x40 DUP4 DUP6 SUB SLT ISZERO PUSH2 0x252A JUMPI PUSH2 0x2529 PUSH2 0x1C6E JUMP JUMPDEST JUMPDEST PUSH0 PUSH2 0x2537 DUP6 DUP3 DUP7 ADD PUSH2 0x1C95 JUMP JUMPDEST SWAP3 POP POP PUSH1 0x20 PUSH2 0x2548 DUP6 DUP3 DUP7 ADD PUSH2 0x2500 JUMP JUMPDEST SWAP2 POP POP SWAP3 POP SWAP3 SWAP1 POP JUMP JUMPDEST PUSH2 0x255B DUP2 PUSH2 0x1FEE JUMP JUMPDEST DUP3 MSTORE POP POP JUMP JUMPDEST PUSH0 PUSH1 0x20 DUP3 ADD SWAP1 POP PUSH2 0x2574 PUSH0 DUP4 ADD DUP5 PUSH2 0x2552 JUMP JUMPDEST SWAP3 SWAP2 POP POP JUMP JUMPDEST PUSH0 PUSH0 PUSH1 0x40 DUP4 DUP6 SUB SLT ISZERO PUSH2 0x2590 JUMPI PUSH2 0x258F PUSH2 0x1C6E JUMP JUMPDEST JUMPDEST PUSH0 PUSH2 0x259D DUP6 DUP3 DUP7 ADD PUSH2 0x1C95 JUMP JUMPDEST SWAP3 POP POP PUSH1 0x20 DUP4 ADD CALLDATALOAD PUSH8 0xFFFFFFFFFFFFFFFF DUP2 GT ISZERO PUSH2 0x25BE JUMPI PUSH2 0x25BD PUSH2 0x1C72 JUMP JUMPDEST JUMPDEST PUSH2 0x25CA DUP6 DUP3 DUP7 ADD PUSH2 0x2250 JUMP JUMPDEST SWAP2 POP POP SWAP3 POP SWAP3 SWAP1 POP JUMP JUMPDEST PUSH32 0x506F737420646F6573206E6F7420657869737400000000000000000000000000 PUSH0 DUP3 ADD MSTORE POP JUMP JUMPDEST PUSH0 PUSH2 0x2608 PUSH1 0x13 DUP4 PUSH2 0x22F3 JUMP JUMPDEST SWAP2 POP PUSH2 0x2613 DUP3 PUSH2 0x25D4 JUMP JUMPDEST PUSH1 0x20 DUP3 ADD SWAP1 POP SWAP2 SWAP1 POP JUMP JUMPDEST PUSH0 PUSH1 0x20 DUP3 ADD SWAP1 POP DUP2 DUP2 SUB PUSH0 DUP4 ADD MSTORE PUSH2 0x2635 DUP2 PUSH2 0x25FC JUMP JUMPDEST SWAP1 POP SWAP2 SWAP1 POP JUMP JUMPDEST PUSH32 0x4E487B7100000000000000000000000000000000000000000000000000000000 PUSH0 MSTORE PUSH1 0x32 PUSH1 0x4 MSTORE PUSH1 0x24 PUSH0 REVERT JUMPDEST PUSH32 0x506F737420686173206265656E2064656C657465640000000000000000000000 PUSH0 DUP3 ADD MSTORE POP JUMP JUMPDEST PUSH0 PUSH2 0x269D PUSH1 0x15 DUP4 PUSH2 0x22F3 JUMP JUMPDEST SWAP2 POP PUSH2 0x26A8 DUP3 PUSH2 0x2669 JUMP JUMPDEST PUSH1 0x20 DUP3 ADD SWAP1 POP SWAP2 SWAP1 POP JUMP JUMPDEST PUSH0 PUSH1 0x20 DUP3 ADD SWAP1 POP DUP2 DUP2 SUB PUSH0 DUP4 ADD MSTORE PUSH2 0x26CA DUP2 PUSH2 0x2691 JUMP JUMPDEST SWAP1 POP SWAP2 SWAP1 POP JUMP JUMPDEST PUSH32 0x5365756C206C276175746575722070657574207375707072696D657220636520 PUSH0 DUP3 ADD MSTORE PUSH32 0x706F737400000000000000000000000000000000000000000000000000000000 PUSH1 0x20 DUP3 ADD MSTORE POP JUMP JUMPDEST PUSH0 PUSH2 0x272B PUSH1 0x24 DUP4 PUSH2 0x22F3 JUMP JUMPDEST SWAP2 POP PUSH2 0x2736 DUP3 PUSH2 0x26D1 JUMP JUMPDEST PUSH1 0x40 DUP3 ADD SWAP1 POP SWAP2 SWAP1 POP JUMP JUMPDEST PUSH0 PUSH1 0x20 DUP3 ADD SWAP1 POP DUP2 DUP2 SUB PUSH0 DUP4 ADD MSTORE PUSH2 0x2758 DUP2 PUSH2 0x271F JUMP JUMPDEST SWAP1 POP SWAP2 SWAP1 POP JUMP JUMPDEST PUSH32 0x4E487B7100000000000000000000000000000000000000000000000000000000 PUSH0 MSTORE PUSH1 0x11 PUSH1 0x4 MSTORE PUSH1 0x24 PUSH0 REVERT JUMPDEST PUSH0 PUSH2 0x2796 DUP3 PUSH2 0x1C76 JUMP JUMPDEST SWAP2 POP PUSH0 DUP3 SUB PUSH2 0x27A8 JUMPI PUSH2 0x27A7 PUSH2 0x275F JUMP JUMPDEST JUMPDEST PUSH1 0x1 DUP3 SUB SWAP1 POP SWAP2 SWAP1 POP JUMP JUMPDEST PUSH0 PUSH2 0x27BD DUP3 PUSH2 0x1C76 JUMP JUMPDEST SWAP2 POP PUSH32 0xFFFFFFFFFFFFFFFFFFFFFFFFFFFFFFFFFFFFFFFFFFFFFFFFFFFFFFFFFFFFFFFF DUP3 SUB PUSH2 0x27EF JUMPI PUSH2 0x27EE PUSH2 0x275F JUMP JUMPDEST JUMPDEST PUSH1 0x1 DUP3 ADD SWAP1 POP SWAP2 SWAP1 POP JUMP JUMPDEST PUSH32 0x4E487B7100000000000000000000000000000000000000000000000000000000 PUSH0 MSTORE PUSH1 0x22 PUSH1 0x4 MSTORE PUSH1 0x24 PUSH0 REVERT JUMPDEST PUSH0 PUSH1 0x2 DUP3 DIV SWAP1 POP PUSH1 0x1 DUP3 AND DUP1 PUSH2 0x283E JUMPI PUSH1 0x7F DUP3 AND SWAP2 POP JUMPDEST PUSH1 0x20 DUP3 LT DUP2 SUB PUSH2 0x2851 JUMPI PUSH2 0x2850 PUSH2 0x27FA JUMP JUMPDEST JUMPDEST POP SWAP2 SWAP1 POP JUMP JUMPDEST PUSH32 0x5469746C652063616E6E6F7420626520656D7074790000000000000000000000 PUSH0 DUP3 ADD MSTORE POP JUMP JUMPDEST PUSH0 PUSH2 0x288B PUSH1 0x15 DUP4 PUSH2 0x22F3 JUMP JUMPDEST SWAP2 POP PUSH2 0x2896 DUP3 PUSH2 0x2857 JUMP JUMPDEST PUSH1 0x20 DUP3 ADD SWAP1 POP SWAP2 SWAP1 POP JUMP JUMPDEST PUSH0 PUSH1 0x20 DUP3 ADD SWAP1 POP DUP2 DUP2 SUB PUSH0 DUP4 ADD MSTORE PUSH2 0x28B8 DUP2 PUSH2 0x287F JUMP JUMPDEST SWAP1 POP SWAP2 SWAP1 POP JUMP JUMPDEST PUSH32 0x5469746C6520746F6F206C6F6E67000000000000000000000000000000000000 PUSH0 DUP3 ADD MSTORE POP JUMP JUMPDEST PUSH0 PUSH2 0x28F3 PUSH1 0xE DUP4 PUSH2 0x22F3 JUMP JUMPDEST SWAP2 POP PUSH2 0x28FE DUP3 PUSH2 0x28BF JUMP JUMPDEST PUSH1 0x20 DUP3 ADD SWAP1 POP SWAP2 SWAP1 POP JUMP JUMPDEST PUSH0 PUSH1 0x20 DUP3 ADD SWAP1 POP DUP2 DUP2 SUB PUSH0 DUP4 ADD MSTORE PUSH2 0x2920 DUP2 PUSH2 0x28E7 JUMP JUMPDEST SWAP1 POP SWAP2 SWAP1 POP JUMP JUMPDEST PUSH32 0x436F6E74656E742063616E6E6F7420626520656D707479000000000000000000 PUSH0 DUP3 ADD MSTORE POP JUMP JUMPDEST PUSH0 PUSH2 0x295B PUSH1 0x17 DUP4 PUSH2 0x22F3 JUMP JUMPDEST SWAP2 POP PUSH2 0x2966 DUP3 PUSH2 0x2927 JUMP JUMPDEST PUSH1 0x20 DUP3 ADD SWAP1 POP SWAP2 SWAP1 POP JUMP JUMPDEST PUSH0 PUSH1 0x20 DUP3 ADD SWAP1 POP DUP2 DUP2 SUB PUSH0 DUP4 ADD MSTORE PUSH2 0x2988 DUP2 PUSH2 0x294F JUMP JUMPDEST SWAP1 POP SWAP2 SWAP1 POP JUMP JUMPDEST PUSH32 0x436F6E74656E7420746F6F206C6F6E6700000000000000000000000000000000 PUSH0 DUP3 ADD MSTORE POP JUMP JUMPDEST PUSH0 PUSH2 0x29C3 PUSH1 0x10 DUP4 PUSH2 0x22F3 JUMP JUMPDEST SWAP2 POP PUSH2 0x29CE DUP3 PUSH2 0x298F JUMP JUMPDEST PUSH1 0x20 DUP3 ADD SWAP1 POP SWAP2 SWAP1 POP JUMP JUMPDEST PUSH0 PUSH1 0x20 DUP3 ADD SWAP1 POP DUP2 DUP2 SUB PUSH0 DUP4 ADD MSTORE PUSH2 0x29F0 DUP2 PUSH2 0x29B7 JUMP JUMPDEST SWAP1 POP SWAP2 SWAP1 POP JUMP JUMPDEST PUSH0 DUP2 SWAP1 POP DUP2 PUSH0 MSTORE PUSH1 0x20 PUSH0 KECCAK256 SWAP1 POP SWAP2 SWAP1 POP JUMP JUMPDEST PUSH0 PUSH1 0x20 PUSH1 0x1F DUP4 ADD DIV SWAP1 POP SWAP2 SWAP1 POP JUMP JUMPDEST PUSH0 DUP3 DUP3 SHL SWAP1 POP SWAP3 SWAP2 POP POP JUMP JUMPDEST PUSH0 PUSH1 0x8 DUP4 MUL PUSH2 0x2A53 PUSH32 0xFFFFFFFFFFFFFFFFFFFFFFFFFFFFFFFFFFFFFFFFFFFFFFFFFFFFFFFFFFFFFFFF DUP3 PUSH2 0x2A18 JUMP JUMPDEST PUSH2 0x2A5D DUP7 DUP4 PUSH2 0x2A18 JUMP JUMPDEST SWAP6 POP DUP1 NOT DUP5 AND SWAP4 POP DUP1 DUP7 AND DUP5 OR SWAP3 POP POP POP SWAP4 SWAP3 POP POP POP JUMP JUMPDEST PUSH0 DUP2 SWAP1 POP SWAP2 SWAP1 POP JUMP JUMPDEST PUSH0 PUSH2 0x2A98 PUSH2 0x2A93 PUSH2 0x2A8E DUP5 PUSH2 0x1C76 JUMP JUMPDEST PUSH2 0x2A75 JUMP JUMPDEST PUSH2 0x1C76 JUMP JUMPDEST SWAP1 POP SWAP2 SWAP1 POP JUMP JUMPDEST PUSH0 DUP2 SWAP1 POP SWAP2 SWAP1 POP JUMP JUMPDEST PUSH2 0x2AB1 DUP4 PUSH2 0x2A7E JUMP JUMPDEST PUSH2 0x2AC5 PUSH2 0x2ABD DUP3 PUSH2 0x2A9F JUMP JUMPDEST DUP5 DUP5 SLOAD PUSH2 0x2A24 JUMP JUMPDEST DUP3 SSTORE POP POP POP POP JUMP JUMPDEST PUSH0 PUSH0 SWAP1 POP SWAP1 JUMP JUMPDEST PUSH2 0x2ADC PUSH2 0x2ACD JUMP JUMPDEST PUSH2 0x2AE7 DUP2 DUP5 DUP5 PUSH2 0x2AA8 JUMP JUMPDEST POP POP POP JUMP JUMPDEST JUMPDEST DUP2 DUP2 LT ISZERO PUSH2 0x2B0A JUMPI PUSH2 0x2AFF PUSH0 DUP3 PUSH2 0x2AD4 JUMP JUMPDEST PUSH1 0x1 DUP2 ADD SWAP1 POP PUSH2 0x2AED JUMP JUMPDEST POP POP JUMP JUMPDEST PUSH1 0x1F DUP3 GT ISZERO PUSH2 0x2B4F JUMPI PUSH2 0x2B20 DUP2 PUSH2 0x29F7 JUMP JUMPDEST PUSH2 0x2B29 DUP5 PUSH2 0x2A09 JUMP JUMPDEST DUP2 ADD PUSH1 0x20 DUP6 LT ISZERO PUSH2 0x2B38 JUMPI DUP2 SWAP1 POP JUMPDEST PUSH2 0x2B4C PUSH2 0x2B44 DUP6 PUSH2 0x2A09 JUMP JUMPDEST DUP4 ADD DUP3 PUSH2 0x2AEC JUMP JUMPDEST POP POP JUMPDEST POP POP POP JUMP JUMPDEST PUSH0 DUP3 DUP3 SHR SWAP1 POP SWAP3 SWAP2 POP POP JUMP JUMPDEST PUSH0 PUSH2 0x2B6F PUSH0 NOT DUP5 PUSH1 0x8 MUL PUSH2 0x2B54 JUMP JUMPDEST NOT DUP1 DUP4 AND SWAP2 POP POP SWAP3 SWAP2 POP POP JUMP JUMPDEST PUSH0 PUSH2 0x2B87 DUP4 DUP4 PUSH2 0x2B60 JUMP JUMPDEST SWAP2 POP DUP3 PUSH1 0x2 MUL DUP3 OR SWAP1 POP SWAP3 SWAP2 POP POP JUMP JUMPDEST PUSH2 0x2BA0 DUP3 PUSH2 0x1DDC JUMP JUMPDEST PUSH8 0xFFFFFFFFFFFFFFFF DUP2 GT ISZERO PUSH2 0x2BB9 JUMPI PUSH2 0x2BB8 PUSH2 0x2159 JUMP JUMPDEST JUMPDEST PUSH2 0x2BC3 DUP3 SLOAD PUSH2 0x2827 JUMP JUMPDEST PUSH2 0x2BCE DUP3 DUP3 DUP6 PUSH2 0x2B0E JUMP JUMPDEST PUSH0 PUSH1 0x20 SWAP1 POP PUSH1 0x1F DUP4 GT PUSH1 0x1 DUP2 EQ PUSH2 0x2BFF JUMPI PUSH0 DUP5 ISZERO PUSH2 0x2BED JUMPI DUP3 DUP8 ADD MLOAD SWAP1 POP JUMPDEST PUSH2 0x2BF7 DUP6 DUP3 PUSH2 0x2B7C JUMP JUMPDEST DUP7 SSTORE POP PUSH2 0x2C5E JUMP JUMPDEST PUSH1 0x1F NOT DUP5 AND PUSH2 0x2C0D DUP7 PUSH2 0x29F7 JUMP JUMPDEST PUSH0 JUMPDEST DUP3 DUP2 LT ISZERO PUSH2 0x2C34 JUMPI DUP5 DUP10 ADD MLOAD DUP3 SSTORE PUSH1 0x1 DUP3 ADD SWAP2 POP PUSH1 0x20 DUP6 ADD SWAP5 POP PUSH1 0x20 DUP2 ADD SWAP1 POP PUSH2 0x2C0F JUMP JUMPDEST DUP7 DUP4 LT ISZERO PUSH2 0x2C51 JUMPI DUP5 DUP10 ADD MLOAD PUSH2 0x2C4D PUSH1 0x1F DUP10 AND DUP3 PUSH2 0x2B60 JUMP JUMPDEST DUP4 SSTORE POP JUMPDEST PUSH1 0x1 PUSH1 0x2 DUP9 MUL ADD DUP9 SSTORE POP POP POP JUMPDEST POP POP POP POP POP POP JUMP JUMPDEST PUSH0 PUSH1 0x40 DUP3 ADD SWAP1 POP DUP2 DUP2 SUB PUSH0 DUP4 ADD MSTORE PUSH2 0x2C7E DUP2 DUP6 PUSH2 0x2303 JUMP JUMPDEST SWAP1 POP PUSH2 0x2C8D PUSH1 0x20 DUP4 ADD DUP5 PUSH2 0x1CD4 JUMP JUMPDEST SWAP4 SWAP3 POP POP POP JUMP JUMPDEST PUSH32 0x566F7573206E6520706F7576657A20706173206C696B657220766F7472652070 PUSH0 DUP3 ADD MSTORE PUSH32 0x726F70726520706F737400000000000000000000000000000000000000000000 PUSH1 0x20 DUP3 ADD MSTORE POP JUMP JUMPDEST PUSH0 PUSH2 0x2CEE PUSH1 0x2A DUP4 PUSH2 0x22F3 JUMP JUMPDEST SWAP2 POP PUSH2 0x2CF9 DUP3 PUSH2 0x2C94 JUMP JUMPDEST PUSH1 0x40 DUP3 ADD SWAP1 POP SWAP2 SWAP1 POP JUMP JUMPDEST PUSH0 PUSH1 0x20 DUP3 ADD SWAP1 POP DUP2 DUP2 SUB PUSH0 DUP4 ADD MSTORE PUSH2 0x2D1B DUP2 PUSH2 0x2CE2 JUMP JUMPDEST SWAP1 POP SWAP2 SWAP1 POP JUMP JUMPDEST PUSH0 PUSH2 0x2D2C DUP3 PUSH2 0x1C76 JUMP JUMPDEST SWAP2 POP PUSH2 0x2D37 DUP4 PUSH2 0x1C76 JUMP JUMPDEST SWAP3 POP DUP3 DUP3 SUB SWAP1 POP DUP2 DUP2 GT ISZERO PUSH2 0x2D4F JUMPI PUSH2 0x2D4E PUSH2 0x275F JUMP JUMPDEST JUMPDEST SWAP3 SWAP2 POP POP JUMP JUMPDEST PUSH32 0x4E487B7100000000000000000000000000000000000000000000000000000000 PUSH0 MSTORE PUSH1 0x31 PUSH1 0x4 MSTORE PUSH1 0x24 PUSH0 REVERT JUMPDEST PUSH32 0x4C6520636F6D6D656E7461697265206E65207065757420706173206574726520 PUSH0 DUP3 ADD MSTORE PUSH32 0x7669646500000000000000000000000000000000000000000000000000000000 PUSH1 0x20 DUP3 ADD MSTORE POP JUMP JUMPDEST PUSH0 PUSH2 0x2DDC PUSH1 0x24 DUP4 PUSH2 0x22F3 JUMP JUMPDEST SWAP2 POP PUSH2 0x2DE7 DUP3 PUSH2 0x2D82 JUMP JUMPDEST PUSH1 0x40 DUP3 ADD SWAP1 POP SWAP2 SWAP1 POP JUMP JUMPDEST PUSH0 PUSH1 0x20 DUP3 ADD SWAP1 POP DUP2 DUP2 SUB PUSH0 DUP4 ADD MSTORE PUSH2 0x2E09 DUP2 PUSH2 0x2DD0 JUMP JUMPDEST SWAP1 POP SWAP2 SWAP1 POP JUMP JUMPDEST PUSH32 0x4C6520636F6D6D656E7461697265206573742074726F70206C6F6E6700000000 PUSH0 DUP3 ADD MSTORE POP JUMP JUMPDEST PUSH0 PUSH2 0x2E44 PUSH1 0x1C DUP4 PUSH2 0x22F3 JUMP JUMPDEST SWAP2 POP PUSH2 0x2E4F DUP3 PUSH2 0x2E10 JUMP JUMPDEST PUSH1 0x20 DUP3 ADD SWAP1 POP SWAP2 SWAP1 POP JUMP JUMPDEST PUSH0 PUSH1 0x20 DUP3 ADD SWAP1 POP DUP2 DUP2 SUB PUSH0 DUP4 ADD MSTORE PUSH2 0x2E71 DUP2 PUSH2 0x2E38 JUMP JUMPDEST SWAP1 POP SWAP2 SWAP1 POP JUMP JUMPDEST PUSH0 PUSH1 0x20 DUP3 ADD SWAP1 POP DUP2 DUP2 SUB PUSH0 DUP4 ADD MSTORE PUSH2 0x2E90 DUP2 DUP5 PUSH2 0x2303 JUMP JUMPDEST SWAP1 POP SWAP3 SWAP2 POP POP JUMP INVALID LOG2 PUSH5 0x6970667358 0x22 SLT KECCAK256 SELFBALANCE 0xBD DUP16 0x23 PUSH12 0x175ABE1E6E64BEB2B68A4D77 BYTE 0xB4 SWAP4 SHR PUSH32 0x53579A5EDDDDFFDA4E5364736F6C634300081B00330000000000000000000000 "
				},
				"gasEstimates": {
					"creation": {
						"codeDepositCost": "2396400",
						"executionCost": "2573",
						"totalCost": "2398973"
					},
					"external": {
						"activePostsCount()": "2448",
						"addComment(uint256,string)": "infinite",
						"createPost(string,string)": "infinite",
						"deletePost(uint256)": "infinite",
						"getAllPosts()": "infinite",
						"getPost(uint256)": "infinite",
						"getTotalPosts()": "2454",
						"hasLiked(uint256,address)": "9663",
						"toggleLike(uint256)": "infinite",
						"totalPosts()": "2469"
					}
				},
				"methodIdentifiers": {
					"activePostsCount()": "0fbbbfc3",
					"addComment(uint256,string)": "aa7e5683",
					"createPost(string,string)": "392338f5",
					"deletePost(uint256)": "094cd5ee",
					"getAllPosts()": "30561100",
					"getPost(uint256)": "40731c24",
					"getTotalPosts()": "5fe226b4",
					"hasLiked(uint256,address)": "8fb7092c",
					"toggleLike(uint256)": "54398d18",
					"totalPosts()": "8e53fb41"
				}
			},
			"storageLayout": {
				"storage": [
					{
						"astId": 41,
						"contract": "Atelier 5/MiniSocial.sol:MiniSocial",
						"label": "posts",
						"offset": 0,
						"slot": "0",
						"type": "t_array(t_struct(Post)37_storage)dyn_storage"
					},
					{
						"astId": 47,
						"contract": "Atelier 5/MiniSocial.sol:MiniSocial",
						"label": "postLikes",
						"offset": 0,
						"slot": "1",
						"type": "t_mapping(t_uint256,t_mapping(t_address,t_bool))"
					},
					{
						"astId": 49,
						"contract": "Atelier 5/MiniSocial.sol:MiniSocial",
						"label": "totalPosts",
						"offset": 0,
						"slot": "2",
						"type": "t_uint256"
					},
					{
						"astId": 51,
						"contract": "Atelier 5/MiniSocial.sol:MiniSocial",
						"label": "activePostsCount",
						"offset": 0,
						"slot": "3",
						"type": "t_uint256"
					}
				],
				"types": {
					"t_address": {
						"encoding": "inplace",
						"label": "address",
						"numberOfBytes": "20"
					},
					"t_array(t_address)dyn_storage": {
						"base": "t_address",
						"encoding": "dynamic_array",
						"label": "address[]",
						"numberOfBytes": "32"
					},
					"t_array(t_struct(Post)37_storage)dyn_storage": {
						"base": "t_struct(Post)37_storage",
						"encoding": "dynamic_array",
						"label": "struct MiniSocial.Post[]",
						"numberOfBytes": "32"
					},
					"t_bool": {
						"encoding": "inplace",
						"label": "bool",
						"numberOfBytes": "1"
					},
					"t_mapping(t_address,t_bool)": {
						"encoding": "mapping",
						"key": "t_address",
						"label": "mapping(address => bool)",
						"numberOfBytes": "32",
						"value": "t_bool"
					},
					"t_mapping(t_uint256,t_mapping(t_address,t_bool))": {
						"encoding": "mapping",
						"key": "t_uint256",
						"label": "mapping(uint256 => mapping(address => bool))",
						"numberOfBytes": "32",
						"value": "t_mapping(t_address,t_bool)"
					},
					"t_mapping(t_uint256,t_struct(Comment)8_storage)": {
						"encoding": "mapping",
						"key": "t_uint256",
						"label": "mapping(uint256 => struct MiniSocial.Comment)",
						"numberOfBytes": "32",
						"value": "t_struct(Comment)8_storage"
					},
					"t_string_storage": {
						"encoding": "bytes",
						"label": "string",
						"numberOfBytes": "32"
					},
					"t_struct(Comment)8_storage": {
						"encoding": "inplace",
						"label": "struct MiniSocial.Comment",
						"members": [
							{
								"astId": 3,
								"contract": "Atelier 5/MiniSocial.sol:MiniSocial",
								"label": "content",
								"offset": 0,
								"slot": "0",
								"type": "t_string_storage"
							},
							{
								"astId": 5,
								"contract": "Atelier 5/MiniSocial.sol:MiniSocial",
								"label": "author",
								"offset": 0,
								"slot": "1",
								"type": "t_address"
							},
							{
								"astId": 7,
								"contract": "Atelier 5/MiniSocial.sol:MiniSocial",
								"label": "timestamp",
								"offset": 0,
								"slot": "2",
								"type": "t_uint256"
							}
						],
						"numberOfBytes": "96"
					},
					"t_struct(Post)37_storage": {
						"encoding": "inplace",
						"label": "struct MiniSocial.Post",
						"members": [
							{
								"astId": 10,
								"contract": "Atelier 5/MiniSocial.sol:MiniSocial",
								"label": "postId",
								"offset": 0,
								"slot": "0",
								"type": "t_uint256"
							},
							{
								"astId": 12,
								"contract": "Atelier 5/MiniSocial.sol:MiniSocial",
								"label": "title",
								"offset": 0,
								"slot": "1",
								"type": "t_string_storage"
							},
							{
								"astId": 14,
								"contract": "Atelier 5/MiniSocial.sol:MiniSocial",
								"label": "content",
								"offset": 0,
								"slot": "2",
								"type": "t_string_storage"
							},
							{
								"astId": 16,
								"contract": "Atelier 5/MiniSocial.sol:MiniSocial",
								"label": "author",
								"offset": 0,
								"slot": "3",
								"type": "t_address"
							},
							{
								"astId": 18,
								"contract": "Atelier 5/MiniSocial.sol:MiniSocial",
								"label": "timestamp",
								"offset": 0,
								"slot": "4",
								"type": "t_uint256"
							},
							{
								"astId": 20,
								"contract": "Atelier 5/MiniSocial.sol:MiniSocial",
								"label": "likesCount",
								"offset": 0,
								"slot": "5",
								"type": "t_uint256"
							},
							{
								"astId": 23,
								"contract": "Atelier 5/MiniSocial.sol:MiniSocial",
								"label": "likedBy",
								"offset": 0,
								"slot": "6",
								"type": "t_array(t_address)dyn_storage"
							},
							{
								"astId": 28,
								"contract": "Atelier 5/MiniSocial.sol:MiniSocial",
								"label": "comments",
								"offset": 0,
								"slot": "7",
								"type": "t_mapping(t_uint256,t_struct(Comment)8_storage)"
							},
							{
								"astId": 30,
								"contract": "Atelier 5/MiniSocial.sol:MiniSocial",
								"label": "commentCount",
								"offset": 0,
								"slot": "8",
								"type": "t_uint256"
							},
							{
								"astId": 32,
								"contract": "Atelier 5/MiniSocial.sol:MiniSocial",
								"label": "isEdited",
								"offset": 0,
								"slot": "9",
								"type": "t_bool"
							},
							{
								"astId": 34,
								"contract": "Atelier 5/MiniSocial.sol:MiniSocial",
								"label": "lastEditTime",
								"offset": 0,
								"slot": "10",
								"type": "t_uint256"
							},
							{
								"astId": 36,
								"contract": "Atelier 5/MiniSocial.sol:MiniSocial",
								"label": "isActive",
								"offset": 0,
								"slot": "11",
								"type": "t_bool"
							}
						],
						"numberOfBytes": "384"
					},
					"t_uint256": {
						"encoding": "inplace",
						"label": "uint256",
						"numberOfBytes": "32"
					}
				}
			},
			"userdoc": {
				"kind": "user",
				"methods": {},
				"version": 1
			}
		}
	}
}