{
	"contracts/MiniSocial.sol": {
		"MiniSocial": {
			"abi": [
				{
					"anonymous": false,
					"inputs": [
						{
							"indexed": true,
							"internalType": "uint256",
							"name": "postId",
							"type": "uint256"
						},
						{
							"indexed": true,
							"internalType": "uint256",
							"name": "commentIndex",
							"type": "uint256"
						},
						{
							"indexed": true,
							"internalType": "address",
							"name": "commenter",
							"type": "address"
						},
						{
							"indexed": false,
							"internalType": "string",
							"name": "content",
							"type": "string"
						}
					],
					"name": "CommentAdded",
					"type": "event"
				},
				{
					"anonymous": false,
					"inputs": [
						{
							"indexed": true,
							"internalType": "uint256",
							"name": "postId",
							"type": "uint256"
						},
						{
							"indexed": true,
							"internalType": "address",
							"name": "author",
							"type": "address"
						},
						{
							"indexed": false,
							"internalType": "string",
							"name": "title",
							"type": "string"
						},
						{
							"indexed": false,
							"internalType": "uint256",
							"name": "timestamp",
							"type": "uint256"
						}
					],
					"name": "PostCreated",
					"type": "event"
				},
				{
					"anonymous": false,
					"inputs": [
						{
							"indexed": true,
							"internalType": "uint256",
							"name": "postId",
							"type": "uint256"
						},
						{
							"indexed": true,
							"internalType": "address",
							"name": "liker",
							"type": "address"
						}
					],
					"name": "PostLiked",
					"type": "event"
				},
				{
					"anonymous": false,
					"inputs": [
						{
							"indexed": true,
							"internalType": "uint256",
							"name": "postId",
							"type": "uint256"
						},
						{
							"indexed": true,
							"internalType": "address",
							"name": "unliker",
							"type": "address"
						}
					],
					"name": "PostUnliked",
					"type": "event"
				},
				{
					"inputs": [],
					"name": "activePostsCount",
					"outputs": [
						{
							"internalType": "uint256",
							"name": "",
							"type": "uint256"
						}
					],
					"stateMutability": "view",
					"type": "function"
				},
				{
					"inputs": [
						{
							"internalType": "uint256",
							"name": "_postId",
							"type": "uint256"
						},
						{
							"internalType": "string",
							"name": "_content",
							"type": "string"
						}
					],
					"name": "addComment",
					"outputs": [],
					"stateMutability": "nonpayable",
					"type": "function"
				},
				{
					"inputs": [
						{
							"internalType": "string",
							"name": "_title",
							"type": "string"
						},
						{
							"internalType": "string",
							"name": "_content",
							"type": "string"
						}
					],
					"name": "createPost",
					"outputs": [
						{
							"internalType": "uint256",
							"name": "",
							"type": "uint256"
						}
					],
					"stateMutability": "nonpayable",
					"type": "function"
				},
				{
					"inputs": [
						{
							"internalType": "uint256",
							"name": "_postId",
							"type": "uint256"
						}
					],
					"name": "deletePost",
					"outputs": [],
					"stateMutability": "nonpayable",
					"type": "function"
				},
				{
					"inputs": [
						{
							"internalType": "uint256",
							"name": "_postId",
							"type": "uint256"
						},
						{
							"internalType": "string",
							"name": "_newTitle",
							"type": "string"
						},
						{
							"internalType": "string",
							"name": "_newContent",
							"type": "string"
						}
					],
					"name": "editPost",
					"outputs": [],
					"stateMutability": "nonpayable",
					"type": "function"
				},
				{
					"inputs": [],
					"name": "getAllPosts",
					"outputs": [
						{
							"internalType": "uint256[]",
							"name": "postIds",
							"type": "uint256[]"
						},
						{
							"internalType": "string[]",
							"name": "titles",
							"type": "string[]"
						},
						{
							"internalType": "string[]",
							"name": "contents",
							"type": "string[]"
						},
						{
							"internalType": "address[]",
							"name": "authors",
							"type": "address[]"
						},
						{
							"internalType": "uint256[]",
							"name": "timestamps",
							"type": "uint256[]"
						},
						{
							"internalType": "uint256[]",
							"name": "likeCounts",
							"type": "uint256[]"
						},
						{
							"internalType": "uint256[]",
							"name": "commentCounts",
							"type": "uint256[]"
						},
						{
							"internalType": "bool[]",
							"name": "isEdited",
							"type": "bool[]"
						},
						{
							"internalType": "bool[]",
							"name": "isActive",
							"type": "bool[]"
						}
					],
					"stateMutability": "view",
					"type": "function"
				},
				{
					"inputs": [
						{
							"internalType": "uint256",
							"name": "_postId",
							"type": "uint256"
						}
					],
					"name": "getPost",
					"outputs": [
						{
							"internalType": "string",
							"name": "title",
							"type": "string"
						},
						{
							"internalType": "string",
							"name": "content",
							"type": "string"
						},
						{
							"internalType": "address",
							"name": "author",
							"type": "address"
						},
						{
							"internalType": "uint256",
							"name": "timestamp",
							"type": "uint256"
						},
						{
							"internalType": "uint256",
							"name": "likesCount",
							"type": "uint256"
						},
						{
							"internalType": "address[]",
							"name": "likedBy",
							"type": "address[]"
						},
						{
							"internalType": "uint256",
							"name": "commentCount",
							"type": "uint256"
						},
						{
							"components": [
								{
									"internalType": "string",
									"name": "content",
									"type": "string"
								},
								{
									"internalType": "address",
									"name": "author",
									"type": "address"
								},
								{
									"internalType": "uint256",
									"name": "timestamp",
									"type": "uint256"
								}
							],
							"internalType": "struct MiniSocial.Comment[]",
							"name": "comments",
							"type": "tuple[]"
						}
					],
					"stateMutability": "view",
					"type": "function"
				},
				{
					"inputs": [],
					"name": "getTotalPosts",
					"outputs": [
						{
							"internalType": "uint256",
							"name": "",
							"type": "uint256"
						}
					],
					"stateMutability": "view",
					"type": "function"
				},
				{
					"inputs": [
						{
							"internalType": "uint256",
							"name": "_postId",
							"type": "uint256"
						},
						{
							"internalType": "address",
							"name": "_user",
							"type": "address"
						}
					],
					"name": "hasLiked",
					"outputs": [
						{
							"internalType": "bool",
							"name": "",
							"type": "bool"
						}
					],
					"stateMutability": "view",
					"type": "function"
				},
				{
					"inputs": [
						{
							"internalType": "uint256",
							"name": "_postId",
							"type": "uint256"
						}
					],
					"name": "toggleLike",
					"outputs": [],
					"stateMutability": "nonpayable",
					"type": "function"
				},
				{
					"inputs": [],
					"name": "totalPosts",
					"outputs": [
						{
							"internalType": "uint256",
							"name": "",
							"type": "uint256"
						}
					],
					"stateMutability": "view",
					"type": "function"
				}
			],
			"devdoc": {
				"kind": "dev",
				"methods": {},
				"version": 1
			},
			"evm": {
				"assembly": "    /* \"contracts/MiniSocial.sol\":57:8575  contract MiniSocial {... */\n  mstore(0x40, 0x80)\n  callvalue\n  dup1\n  iszero\n  tag_1\n  jumpi\n  0x00\n  dup1\n  revert\ntag_1:\n  pop\n  dataSize(sub_0)\n  dup1\n  dataOffset(sub_0)\n  0x00\n  codecopy\n  0x00\n  return\nstop\n\nsub_0: assembly {\n        /* \"contracts/MiniSocial.sol\":57:8575  contract MiniSocial {... */\n      mstore(0x40, 0x80)\n      callvalue\n      dup1\n      iszero\n      tag_1\n      jumpi\n      0x00\n      dup1\n      revert\n    tag_1:\n      pop\n      jumpi(tag_2, lt(calldatasize, 0x04))\n      shr(0xe0, calldataload(0x00))\n      dup1\n      0x54398d18\n      gt\n      tag_14\n      jumpi\n      dup1\n      0x54398d18\n      eq\n      tag_8\n      jumpi\n      dup1\n      0x5fe226b4\n      eq\n      tag_9\n      jumpi\n      dup1\n      0x8e53fb41\n      eq\n      tag_10\n      jumpi\n      dup1\n      0x8fb7092c\n      eq\n      tag_11\n      jumpi\n      dup1\n      0xaa7e5683\n      eq\n      tag_12\n      jumpi\n      dup1\n      0xbf0ac63c\n      eq\n      tag_13\n      jumpi\n      jump(tag_2)\n    tag_14:\n      dup1\n      0x094cd5ee\n      eq\n      tag_3\n      jumpi\n      dup1\n      0x0fbbbfc3\n      eq\n      tag_4\n      jumpi\n      dup1\n      0x30561100\n      eq\n      tag_5\n      jumpi\n      dup1\n      0x392338f5\n      eq\n      tag_6\n      jumpi\n      dup1\n      0x40731c24\n      eq\n      tag_7\n      jumpi\n    tag_2:\n      0x00\n      dup1\n      revert\n        /* \"contracts/MiniSocial.sol\":7646:7880  function deletePost(uint256 _postId) public postExists(_postId) {... */\n    tag_3:\n      tag_15\n      0x04\n      dup1\n      calldatasize\n      sub\n      dup2\n      add\n      swap1\n      tag_16\n      swap2\n      swap1\n      tag_17\n      jump\t// in\n    tag_16:\n      tag_18\n      jump\t// in\n    tag_15:\n      stop\n        /* \"contracts/MiniSocial.sol\":847:878  uint256 public activePostsCount */\n    tag_4:\n      tag_19\n      tag_20\n      jump\t// in\n    tag_19:\n      mload(0x40)\n      tag_21\n      swap2\n      swap1\n      tag_22\n      jump\t// in\n    tag_21:\n      mload(0x40)\n      dup1\n      swap2\n      sub\n      swap1\n      return\n        /* \"contracts/MiniSocial.sol\":5219:7229  function getAllPosts() public view returns (... */\n    tag_5:\n      tag_23\n      tag_24\n      jump\t// in\n    tag_23:\n      mload(0x40)\n      tag_25\n      swap10\n      swap9\n      swap8\n      swap7\n      swap6\n      swap5\n      swap4\n      swap3\n      swap2\n      swap1\n      tag_26\n      jump\t// in\n    tag_25:\n      mload(0x40)\n      dup1\n      swap2\n      sub\n      swap1\n      return\n        /* \"contracts/MiniSocial.sol\":1530:2607  function createPost(... */\n    tag_6:\n      tag_27\n      0x04\n      dup1\n      calldatasize\n      sub\n      dup2\n      add\n      swap1\n      tag_28\n      swap2\n      swap1\n      tag_29\n      jump\t// in\n    tag_28:\n      tag_30\n      jump\t// in\n    tag_27:\n      mload(0x40)\n      tag_31\n      swap2\n      swap1\n      tag_22\n      jump\t// in\n    tag_31:\n      mload(0x40)\n      dup1\n      swap2\n      sub\n      swap1\n      return\n        /* \"contracts/MiniSocial.sol\":4327:5173  function getPost(uint256 _postId) public view postExists(_postId) returns (... */\n    tag_7:\n      tag_32\n      0x04\n      dup1\n      calldatasize\n      sub\n      dup2\n      add\n      swap1\n      tag_33\n      swap2\n      swap1\n      tag_17\n      jump\t// in\n    tag_33:\n      tag_34\n      jump\t// in\n    tag_32:\n      mload(0x40)\n      tag_35\n      swap9\n      swap8\n      swap7\n      swap6\n      swap5\n      swap4\n      swap3\n      swap2\n      swap1\n      tag_36\n      jump\t// in\n    tag_35:\n      mload(0x40)\n      dup1\n      swap2\n      sub\n      swap1\n      return\n        /* \"contracts/MiniSocial.sol\":3324:4280  function toggleLike(uint256 _postId) public postExists(_postId) {... */\n    tag_8:\n      tag_37\n      0x04\n      dup1\n      calldatasize\n      sub\n      dup2\n      add\n      swap1\n      tag_38\n      swap2\n      swap1\n      tag_17\n      jump\t// in\n    tag_38:\n      tag_39\n      jump\t// in\n    tag_37:\n      stop\n        /* \"contracts/MiniSocial.sol\":7290:7385  function getTotalPosts() public view returns (uint256) {... */\n    tag_9:\n      tag_40\n      tag_41\n      jump\t// in\n    tag_40:\n      mload(0x40)\n      tag_42\n      swap2\n      swap1\n      tag_22\n      jump\t// in\n    tag_42:\n      mload(0x40)\n      dup1\n      swap2\n      sub\n      swap1\n      return\n        /* \"contracts/MiniSocial.sol\":816:841  uint256 public totalPosts */\n    tag_10:\n      tag_43\n      tag_44\n      jump\t// in\n    tag_43:\n      mload(0x40)\n      tag_45\n      swap2\n      swap1\n      tag_22\n      jump\t// in\n    tag_45:\n      mload(0x40)\n      dup1\n      swap2\n      sub\n      swap1\n      return\n        /* \"contracts/MiniSocial.sol\":7443:7589  function hasLiked(uint256 _postId, address _user) public view postExists(_postId) returns (bool) {... */\n    tag_11:\n      tag_46\n      0x04\n      dup1\n      calldatasize\n      sub\n      dup2\n      add\n      swap1\n      tag_47\n      swap2\n      swap1\n      tag_48\n      jump\t// in\n    tag_47:\n      tag_49\n      jump\t// in\n    tag_46:\n      mload(0x40)\n      tag_50\n      swap2\n      swap1\n      tag_51\n      jump\t// in\n    tag_50:\n      mload(0x40)\n      dup1\n      swap2\n      sub\n      swap1\n      return\n        /* \"contracts/MiniSocial.sol\":2646:3273  function addComment(uint256 _postId, string memory _content) public postExists(_postId) {... */\n    tag_12:\n      tag_52\n      0x04\n      dup1\n      calldatasize\n      sub\n      dup2\n      add\n      swap1\n      tag_53\n      swap2\n      swap1\n      tag_54\n      jump\t// in\n    tag_53:\n      tag_55\n      jump\t// in\n    tag_52:\n      stop\n        /* \"contracts/MiniSocial.sol\":7930:8572  function editPost(uint256 _postId, string memory _newTitle, string memory _newContent) public postExists(_postId) {... */\n    tag_13:\n      tag_56\n      0x04\n      dup1\n      calldatasize\n      sub\n      dup2\n      add\n      swap1\n      tag_57\n      swap2\n      swap1\n      tag_58\n      jump\t// in\n    tag_57:\n      tag_59\n      jump\t// in\n    tag_56:\n      stop\n        /* \"contracts/MiniSocial.sol\":7646:7880  function deletePost(uint256 _postId) public postExists(_postId) {... */\n    tag_18:\n        /* \"contracts/MiniSocial.sol\":7701:7708  _postId */\n      dup1\n        /* \"contracts/MiniSocial.sol\":1370:1375  posts */\n      0x00\n        /* \"contracts/MiniSocial.sol\":1370:1382  posts.length */\n      dup1\n      sload\n      swap1\n      pop\n        /* \"contracts/MiniSocial.sol\":1360:1367  _postId */\n      dup2\n        /* \"contracts/MiniSocial.sol\":1360:1382  _postId < posts.length */\n      lt\n        /* \"contracts/MiniSocial.sol\":1352:1406  require(_postId < posts.length, \"Post does not exist\") */\n      tag_61\n      jumpi\n      mload(0x40)\n      0x08c379a000000000000000000000000000000000000000000000000000000000\n      dup2\n      mstore\n      0x04\n      add\n      tag_62\n      swap1\n      tag_63\n      jump\t// in\n    tag_62:\n      mload(0x40)\n      dup1\n      swap2\n      sub\n      swap1\n      revert\n    tag_61:\n        /* \"contracts/MiniSocial.sol\":1424:1429  posts */\n      0x00\n        /* \"contracts/MiniSocial.sol\":1430:1437  _postId */\n      dup2\n        /* \"contracts/MiniSocial.sol\":1424:1438  posts[_postId] */\n      dup2\n      sload\n      dup2\n      lt\n      tag_64\n      jumpi\n      tag_65\n      tag_66\n      jump\t// in\n    tag_65:\n    tag_64:\n      swap1\n      0x00\n      mstore\n      keccak256(0x00, 0x20)\n      swap1\n      0x0c\n      mul\n      add\n        /* \"contracts/MiniSocial.sol\":1424:1447  posts[_postId].isActive */\n      0x0b\n      add\n      0x00\n      swap1\n      sload\n      swap1\n      0x0100\n      exp\n      swap1\n      div\n      0xff\n      and\n        /* \"contracts/MiniSocial.sol\":1416:1473  require(posts[_postId].isActive, \"Post has been deleted\") */\n      tag_68\n      jumpi\n      mload(0x40)\n      0x08c379a000000000000000000000000000000000000000000000000000000000\n      dup2\n      mstore\n      0x04\n      add\n      tag_69\n      swap1\n      tag_70\n      jump\t// in\n    tag_69:\n      mload(0x40)\n      dup1\n      swap2\n      sub\n      swap1\n      revert\n    tag_68:\n        /* \"contracts/MiniSocial.sol\":7742:7747  posts */\n      0x00\n        /* \"contracts/MiniSocial.sol\":7748:7755  _postId */\n      dup3\n        /* \"contracts/MiniSocial.sol\":7742:7756  posts[_postId] */\n      dup2\n      sload\n      dup2\n      lt\n      tag_72\n      jumpi\n      tag_73\n      tag_66\n      jump\t// in\n    tag_73:\n    tag_72:\n      swap1\n      0x00\n      mstore\n      keccak256(0x00, 0x20)\n      swap1\n      0x0c\n      mul\n      add\n        /* \"contracts/MiniSocial.sol\":7742:7763  posts[_postId].author */\n      0x03\n      add\n      0x00\n      swap1\n      sload\n      swap1\n      0x0100\n      exp\n      swap1\n      div\n      0xffffffffffffffffffffffffffffffffffffffff\n      and\n        /* \"contracts/MiniSocial.sol\":7728:7763  msg.sender == posts[_postId].author */\n      0xffffffffffffffffffffffffffffffffffffffff\n      and\n        /* \"contracts/MiniSocial.sol\":7728:7738  msg.sender */\n      caller\n        /* \"contracts/MiniSocial.sol\":7728:7763  msg.sender == posts[_postId].author */\n      0xffffffffffffffffffffffffffffffffffffffff\n      and\n      eq\n        /* \"contracts/MiniSocial.sol\":7720:7804  require(msg.sender == posts[_postId].author, \"Seul l'auteur peut supprimer ce post\") */\n      tag_75\n      jumpi\n      mload(0x40)\n      0x08c379a000000000000000000000000000000000000000000000000000000000\n      dup2\n      mstore\n      0x04\n      add\n      tag_76\n      swap1\n      tag_77\n      jump\t// in\n    tag_76:\n      mload(0x40)\n      dup1\n      swap2\n      sub\n      swap1\n      revert\n    tag_75:\n        /* \"contracts/MiniSocial.sol\":7840:7845  false */\n      0x00\n        /* \"contracts/MiniSocial.sol\":7814:7819  posts */\n      dup1\n        /* \"contracts/MiniSocial.sol\":7820:7827  _postId */\n      dup4\n        /* \"contracts/MiniSocial.sol\":7814:7828  posts[_postId] */\n      dup2\n      sload\n      dup2\n      lt\n      tag_78\n      jumpi\n      tag_79\n      tag_66\n      jump\t// in\n    tag_79:\n    tag_78:\n      swap1\n      0x00\n      mstore\n      keccak256(0x00, 0x20)\n      swap1\n      0x0c\n      mul\n      add\n        /* \"contracts/MiniSocial.sol\":7814:7837  posts[_postId].isActive */\n      0x0b\n      add\n      0x00\n        /* \"contracts/MiniSocial.sol\":7814:7845  posts[_postId].isActive = false */\n      0x0100\n      exp\n      dup2\n      sload\n      dup2\n      0xff\n      mul\n      not\n      and\n      swap1\n      dup4\n      iszero\n      iszero\n      mul\n      or\n      swap1\n      sstore\n      pop\n        /* \"contracts/MiniSocial.sol\":7855:7871  activePostsCount */\n      0x03\n      0x00\n        /* \"contracts/MiniSocial.sol\":7855:7873  activePostsCount-- */\n      dup2\n      sload\n      dup1\n      swap3\n      swap2\n      swap1\n      tag_81\n      swap1\n      tag_82\n      jump\t// in\n    tag_81:\n      swap2\n      swap1\n      pop\n      sstore\n      pop\n        /* \"contracts/MiniSocial.sol\":7646:7880  function deletePost(uint256 _postId) public postExists(_postId) {... */\n      pop\n      pop\n      jump\t// out\n        /* \"contracts/MiniSocial.sol\":847:878  uint256 public activePostsCount */\n    tag_20:\n      sload(0x03)\n      dup2\n      jump\t// out\n        /* \"contracts/MiniSocial.sol\":5219:7229  function getAllPosts() public view returns (... */\n    tag_24:\n        /* \"contracts/MiniSocial.sol\":5272:5296  uint256[] memory postIds */\n      0x60\n        /* \"contracts/MiniSocial.sol\":5306:5328  string[] memory titles */\n      dup1\n        /* \"contracts/MiniSocial.sol\":5338:5362  string[] memory contents */\n      0x60\n        /* \"contracts/MiniSocial.sol\":5372:5396  address[] memory authors */\n      dup1\n        /* \"contracts/MiniSocial.sol\":5406:5433  uint256[] memory timestamps */\n      0x60\n        /* \"contracts/MiniSocial.sol\":5443:5470  uint256[] memory likeCounts */\n      dup1\n        /* \"contracts/MiniSocial.sol\":5480:5510  uint256[] memory commentCounts */\n      0x60\n        /* \"contracts/MiniSocial.sol\":5520:5542  bool[] memory isEdited */\n      dup1\n        /* \"contracts/MiniSocial.sol\":5552:5574  bool[] memory isActive */\n      0x60\n        /* \"contracts/MiniSocial.sol\":5591:5614  uint256 activePostCount */\n      0x00\n        /* \"contracts/MiniSocial.sol\":5642:5651  uint256 i */\n      dup1\n        /* \"contracts/MiniSocial.sol\":5637:5777  for (uint256 i = 0; i < posts.length; i++) {... */\n    tag_84:\n        /* \"contracts/MiniSocial.sol\":5661:5666  posts */\n      0x00\n        /* \"contracts/MiniSocial.sol\":5661:5673  posts.length */\n      dup1\n      sload\n      swap1\n      pop\n        /* \"contracts/MiniSocial.sol\":5657:5658  i */\n      dup2\n        /* \"contracts/MiniSocial.sol\":5657:5673  i < posts.length */\n      lt\n        /* \"contracts/MiniSocial.sol\":5637:5777  for (uint256 i = 0; i < posts.length; i++) {... */\n      iszero\n      tag_85\n      jumpi\n        /* \"contracts/MiniSocial.sol\":5698:5703  posts */\n      0x00\n        /* \"contracts/MiniSocial.sol\":5704:5705  i */\n      dup2\n        /* \"contracts/MiniSocial.sol\":5698:5706  posts[i] */\n      dup2\n      sload\n      dup2\n      lt\n      tag_87\n      jumpi\n      tag_88\n      tag_66\n      jump\t// in\n    tag_88:\n    tag_87:\n      swap1\n      0x00\n      mstore\n      keccak256(0x00, 0x20)\n      swap1\n      0x0c\n      mul\n      add\n        /* \"contracts/MiniSocial.sol\":5698:5715  posts[i].isActive */\n      0x0b\n      add\n      0x00\n      swap1\n      sload\n      swap1\n      0x0100\n      exp\n      swap1\n      div\n      0xff\n      and\n        /* \"contracts/MiniSocial.sol\":5694:5767  if (posts[i].isActive) {... */\n      iszero\n      tag_90\n      jumpi\n        /* \"contracts/MiniSocial.sol\":5735:5752  activePostCount++ */\n      dup2\n      dup1\n      tag_91\n      swap1\n      tag_92\n      jump\t// in\n    tag_91:\n      swap3\n      pop\n      pop\n        /* \"contracts/MiniSocial.sol\":5694:5767  if (posts[i].isActive) {... */\n    tag_90:\n        /* \"contracts/MiniSocial.sol\":5675:5678  i++ */\n      dup1\n      dup1\n      0x01\n      add\n      swap2\n      pop\n      pop\n        /* \"contracts/MiniSocial.sol\":5637:5777  for (uint256 i = 0; i < posts.length; i++) {... */\n      jump(tag_84)\n    tag_85:\n      pop\n        /* \"contracts/MiniSocial.sol\":5819:5834  activePostCount */\n      dup1\n        /* \"contracts/MiniSocial.sol\":5805:5835  new uint256[](activePostCount) */\n      0xffffffffffffffff\n      dup2\n      gt\n      iszero\n      tag_93\n      jumpi\n      tag_94\n      tag_95\n      jump\t// in\n    tag_94:\n    tag_93:\n      mload(0x40)\n      swap1\n      dup1\n      dup3\n      mstore\n      dup1\n      0x20\n      mul\n      0x20\n      add\n      dup3\n      add\n      0x40\n      mstore\n      dup1\n      iszero\n      tag_96\n      jumpi\n      dup2\n      0x20\n      add\n      0x20\n      dup3\n      mul\n      dup1\n      calldatasize\n      dup4\n      calldatacopy\n      dup1\n      dup3\n      add\n      swap2\n      pop\n      pop\n      swap1\n      pop\n    tag_96:\n      pop\n        /* \"contracts/MiniSocial.sol\":5795:5835  postIds = new uint256[](activePostCount) */\n      swap10\n      pop\n        /* \"contracts/MiniSocial.sol\":5867:5882  activePostCount */\n      dup1\n        /* \"contracts/MiniSocial.sol\":5854:5883  new string[](activePostCount) */\n      0xffffffffffffffff\n      dup2\n      gt\n      iszero\n      tag_97\n      jumpi\n      tag_98\n      tag_95\n      jump\t// in\n    tag_98:\n    tag_97:\n      mload(0x40)\n      swap1\n      dup1\n      dup3\n      mstore\n      dup1\n      0x20\n      mul\n      0x20\n      add\n      dup3\n      add\n      0x40\n      mstore\n      dup1\n      iszero\n      tag_99\n      jumpi\n      dup2\n      0x20\n      add\n    tag_100:\n      0x60\n      dup2\n      mstore\n      0x20\n      add\n      swap1\n      0x01\n      swap1\n      sub\n      swap1\n      dup2\n      tag_100\n      jumpi\n      swap1\n      pop\n    tag_99:\n      pop\n        /* \"contracts/MiniSocial.sol\":5845:5883  titles = new string[](activePostCount) */\n      swap9\n      pop\n        /* \"contracts/MiniSocial.sol\":5917:5932  activePostCount */\n      dup1\n        /* \"contracts/MiniSocial.sol\":5904:5933  new string[](activePostCount) */\n      0xffffffffffffffff\n      dup2\n      gt\n      iszero\n      tag_101\n      jumpi\n      tag_102\n      tag_95\n      jump\t// in\n    tag_102:\n    tag_101:\n      mload(0x40)\n      swap1\n      dup1\n      dup3\n      mstore\n      dup1\n      0x20\n      mul\n      0x20\n      add\n      dup3\n      add\n      0x40\n      mstore\n      dup1\n      iszero\n      tag_103\n      jumpi\n      dup2\n      0x20\n      add\n    tag_104:\n      0x60\n      dup2\n      mstore\n      0x20\n      add\n      swap1\n      0x01\n      swap1\n      sub\n      swap1\n      dup2\n      tag_104\n      jumpi\n      swap1\n      pop\n    tag_103:\n      pop\n        /* \"contracts/MiniSocial.sol\":5893:5933  contents = new string[](activePostCount) */\n      swap8\n      pop\n        /* \"contracts/MiniSocial.sol\":5967:5982  activePostCount */\n      dup1\n        /* \"contracts/MiniSocial.sol\":5953:5983  new address[](activePostCount) */\n      0xffffffffffffffff\n      dup2\n      gt\n      iszero\n      tag_105\n      jumpi\n      tag_106\n      tag_95\n      jump\t// in\n    tag_106:\n    tag_105:\n      mload(0x40)\n      swap1\n      dup1\n      dup3\n      mstore\n      dup1\n      0x20\n      mul\n      0x20\n      add\n      dup3\n      add\n      0x40\n      mstore\n      dup1\n      iszero\n      tag_107\n      jumpi\n      dup2\n      0x20\n      add\n      0x20\n      dup3\n      mul\n      dup1\n      calldatasize\n      dup4\n      calldatacopy\n      dup1\n      dup3\n      add\n      swap2\n      pop\n      pop\n      swap1\n      pop\n    tag_107:\n      pop\n        /* \"contracts/MiniSocial.sol\":5943:5983  authors = new address[](activePostCount) */\n      swap7\n      pop\n        /* \"contracts/MiniSocial.sol\":6020:6035  activePostCount */\n      dup1\n        /* \"contracts/MiniSocial.sol\":6006:6036  new uint256[](activePostCount) */\n      0xffffffffffffffff\n      dup2\n      gt\n      iszero\n      tag_108\n      jumpi\n      tag_109\n      tag_95\n      jump\t// in\n    tag_109:\n    tag_108:\n      mload(0x40)\n      swap1\n      dup1\n      dup3\n      mstore\n      dup1\n      0x20\n      mul\n      0x20\n      add\n      dup3\n      add\n      0x40\n      mstore\n      dup1\n      iszero\n      tag_110\n      jumpi\n      dup2\n      0x20\n      add\n      0x20\n      dup3\n      mul\n      dup1\n      calldatasize\n      dup4\n      calldatacopy\n      dup1\n      dup3\n      add\n      swap2\n      pop\n      pop\n      swap1\n      pop\n    tag_110:\n      pop\n        /* \"contracts/MiniSocial.sol\":5993:6036  timestamps = new uint256[](activePostCount) */\n      swap6\n      pop\n        /* \"contracts/MiniSocial.sol\":6073:6088  activePostCount */\n      dup1\n        /* \"contracts/MiniSocial.sol\":6059:6089  new uint256[](activePostCount) */\n      0xffffffffffffffff\n      dup2\n      gt\n      iszero\n      tag_111\n      jumpi\n      tag_112\n      tag_95\n      jump\t// in\n    tag_112:\n    tag_111:\n      mload(0x40)\n      swap1\n      dup1\n      dup3\n      mstore\n      dup1\n      0x20\n      mul\n      0x20\n      add\n      dup3\n      add\n      0x40\n      mstore\n      dup1\n      iszero\n      tag_113\n      jumpi\n      dup2\n      0x20\n      add\n      0x20\n      dup3\n      mul\n      dup1\n      calldatasize\n      dup4\n      calldatacopy\n      dup1\n      dup3\n      add\n      swap2\n      pop\n      pop\n      swap1\n      pop\n    tag_113:\n      pop\n        /* \"contracts/MiniSocial.sol\":6046:6089  likeCounts = new uint256[](activePostCount) */\n      swap5\n      pop\n        /* \"contracts/MiniSocial.sol\":6129:6144  activePostCount */\n      dup1\n        /* \"contracts/MiniSocial.sol\":6115:6145  new uint256[](activePostCount) */\n      0xffffffffffffffff\n      dup2\n      gt\n      iszero\n      tag_114\n      jumpi\n      tag_115\n      tag_95\n      jump\t// in\n    tag_115:\n    tag_114:\n      mload(0x40)\n      swap1\n      dup1\n      dup3\n      mstore\n      dup1\n      0x20\n      mul\n      0x20\n      add\n      dup3\n      add\n      0x40\n      mstore\n      dup1\n      iszero\n      tag_116\n      jumpi\n      dup2\n      0x20\n      add\n      0x20\n      dup3\n      mul\n      dup1\n      calldatasize\n      dup4\n      calldatacopy\n      dup1\n      dup3\n      add\n      swap2\n      pop\n      pop\n      swap1\n      pop\n    tag_116:\n      pop\n        /* \"contracts/MiniSocial.sol\":6099:6145  commentCounts = new uint256[](activePostCount) */\n      swap4\n      pop\n        /* \"contracts/MiniSocial.sol\":6177:6192  activePostCount */\n      dup1\n        /* \"contracts/MiniSocial.sol\":6166:6193  new bool[](activePostCount) */\n      0xffffffffffffffff\n      dup2\n      gt\n      iszero\n      tag_117\n      jumpi\n      tag_118\n      tag_95\n      jump\t// in\n    tag_118:\n    tag_117:\n      mload(0x40)\n      swap1\n      dup1\n      dup3\n      mstore\n      dup1\n      0x20\n      mul\n      0x20\n      add\n      dup3\n      add\n      0x40\n      mstore\n      dup1\n      iszero\n      tag_119\n      jumpi\n      dup2\n      0x20\n      add\n      0x20\n      dup3\n      mul\n      dup1\n      calldatasize\n      dup4\n      calldatacopy\n      dup1\n      dup3\n      add\n      swap2\n      pop\n      pop\n      swap1\n      pop\n    tag_119:\n      pop\n        /* \"contracts/MiniSocial.sol\":6155:6193  isEdited = new bool[](activePostCount) */\n      swap3\n      pop\n        /* \"contracts/MiniSocial.sol\":6225:6240  activePostCount */\n      dup1\n        /* \"contracts/MiniSocial.sol\":6214:6241  new bool[](activePostCount) */\n      0xffffffffffffffff\n      dup2\n      gt\n      iszero\n      tag_120\n      jumpi\n      tag_121\n      tag_95\n      jump\t// in\n    tag_121:\n    tag_120:\n      mload(0x40)\n      swap1\n      dup1\n      dup3\n      mstore\n      dup1\n      0x20\n      mul\n      0x20\n      add\n      dup3\n      add\n      0x40\n      mstore\n      dup1\n      iszero\n      tag_122\n      jumpi\n      dup2\n      0x20\n      add\n      0x20\n      dup3\n      mul\n      dup1\n      calldatasize\n      dup4\n      calldatacopy\n      dup1\n      dup3\n      add\n      swap2\n      pop\n      pop\n      swap1\n      pop\n    tag_122:\n      pop\n        /* \"contracts/MiniSocial.sol\":6203:6241  isActive = new bool[](activePostCount) */\n      swap2\n      pop\n        /* \"contracts/MiniSocial.sol\":6260:6280  uint256 currentIndex */\n      0x00\n        /* \"contracts/MiniSocial.sol\":6308:6317  uint256 i */\n      dup1\n        /* \"contracts/MiniSocial.sol\":6303:6984  for (uint256 i = 0; i < posts.length; i++) {... */\n    tag_123:\n        /* \"contracts/MiniSocial.sol\":6327:6332  posts */\n      0x00\n        /* \"contracts/MiniSocial.sol\":6327:6339  posts.length */\n      dup1\n      sload\n      swap1\n      pop\n        /* \"contracts/MiniSocial.sol\":6323:6324  i */\n      dup2\n        /* \"contracts/MiniSocial.sol\":6323:6339  i < posts.length */\n      lt\n        /* \"contracts/MiniSocial.sol\":6303:6984  for (uint256 i = 0; i < posts.length; i++) {... */\n      iszero\n      tag_124\n      jumpi\n        /* \"contracts/MiniSocial.sol\":6364:6369  posts */\n      0x00\n        /* \"contracts/MiniSocial.sol\":6370:6371  i */\n      dup2\n        /* \"contracts/MiniSocial.sol\":6364:6372  posts[i] */\n      dup2\n      sload\n      dup2\n      lt\n      tag_126\n      jumpi\n      tag_127\n      tag_66\n      jump\t// in\n    tag_127:\n    tag_126:\n      swap1\n      0x00\n      mstore\n      keccak256(0x00, 0x20)\n      swap1\n      0x0c\n      mul\n      add\n        /* \"contracts/MiniSocial.sol\":6364:6381  posts[i].isActive */\n      0x0b\n      add\n      0x00\n      swap1\n      sload\n      swap1\n      0x0100\n      exp\n      swap1\n      div\n      0xff\n      and\n        /* \"contracts/MiniSocial.sol\":6360:6974  if (posts[i].isActive) {... */\n      iszero\n      tag_129\n      jumpi\n        /* \"contracts/MiniSocial.sol\":6425:6430  posts */\n      0x00\n        /* \"contracts/MiniSocial.sol\":6431:6432  i */\n      dup2\n        /* \"contracts/MiniSocial.sol\":6425:6433  posts[i] */\n      dup2\n      sload\n      dup2\n      lt\n      tag_130\n      jumpi\n      tag_131\n      tag_66\n      jump\t// in\n    tag_131:\n    tag_130:\n      swap1\n      0x00\n      mstore\n      keccak256(0x00, 0x20)\n      swap1\n      0x0c\n      mul\n      add\n        /* \"contracts/MiniSocial.sol\":6425:6440  posts[i].postId */\n      0x00\n      add\n      sload\n        /* \"contracts/MiniSocial.sol\":6401:6408  postIds */\n      dup13\n        /* \"contracts/MiniSocial.sol\":6409:6421  currentIndex */\n      dup4\n        /* \"contracts/MiniSocial.sol\":6401:6422  postIds[currentIndex] */\n      dup2\n      mload\n      dup2\n      lt\n      tag_133\n      jumpi\n      tag_134\n      tag_66\n      jump\t// in\n    tag_134:\n    tag_133:\n      0x20\n      mul\n      0x20\n      add\n      add\n        /* \"contracts/MiniSocial.sol\":6401:6440  postIds[currentIndex] = posts[i].postId */\n      dup2\n      dup2\n      mstore\n      pop\n      pop\n        /* \"contracts/MiniSocial.sol\":6481:6486  posts */\n      0x00\n        /* \"contracts/MiniSocial.sol\":6487:6488  i */\n      dup2\n        /* \"contracts/MiniSocial.sol\":6481:6489  posts[i] */\n      dup2\n      sload\n      dup2\n      lt\n      tag_135\n      jumpi\n      tag_136\n      tag_66\n      jump\t// in\n    tag_136:\n    tag_135:\n      swap1\n      0x00\n      mstore\n      keccak256(0x00, 0x20)\n      swap1\n      0x0c\n      mul\n      add\n        /* \"contracts/MiniSocial.sol\":6481:6495  posts[i].title */\n      0x01\n      add\n        /* \"contracts/MiniSocial.sol\":6458:6495  titles[currentIndex] = posts[i].title */\n      dup1\n      sload\n      tag_138\n      swap1\n      tag_139\n      jump\t// in\n    tag_138:\n      dup1\n      0x1f\n      add\n      0x20\n      dup1\n      swap2\n      div\n      mul\n      0x20\n      add\n      mload(0x40)\n      swap1\n      dup2\n      add\n      0x40\n      mstore\n      dup1\n      swap3\n      swap2\n      swap1\n      dup2\n      dup2\n      mstore\n      0x20\n      add\n      dup3\n      dup1\n      sload\n      tag_140\n      swap1\n      tag_139\n      jump\t// in\n    tag_140:\n      dup1\n      iszero\n      tag_141\n      jumpi\n      dup1\n      0x1f\n      lt\n      tag_142\n      jumpi\n      0x0100\n      dup1\n      dup4\n      sload\n      div\n      mul\n      dup4\n      mstore\n      swap2\n      0x20\n      add\n      swap2\n      jump(tag_141)\n    tag_142:\n      dup3\n      add\n      swap2\n      swap1\n      0x00\n      mstore\n      keccak256(0x00, 0x20)\n      swap1\n    tag_143:\n      dup2\n      sload\n      dup2\n      mstore\n      swap1\n      0x01\n      add\n      swap1\n      0x20\n      add\n      dup1\n      dup4\n      gt\n      tag_143\n      jumpi\n      dup3\n      swap1\n      sub\n      0x1f\n      and\n      dup3\n      add\n      swap2\n    tag_141:\n      pop\n      pop\n      pop\n      pop\n      pop\n        /* \"contracts/MiniSocial.sol\":6458:6464  titles */\n      dup12\n        /* \"contracts/MiniSocial.sol\":6465:6477  currentIndex */\n      dup4\n        /* \"contracts/MiniSocial.sol\":6458:6478  titles[currentIndex] */\n      dup2\n      mload\n      dup2\n      lt\n      tag_144\n      jumpi\n      tag_145\n      tag_66\n      jump\t// in\n    tag_145:\n    tag_144:\n      0x20\n      mul\n      0x20\n      add\n      add\n        /* \"contracts/MiniSocial.sol\":6458:6495  titles[currentIndex] = posts[i].title */\n      dup2\n      swap1\n      mstore\n      pop\n        /* \"contracts/MiniSocial.sol\":6538:6543  posts */\n      0x00\n        /* \"contracts/MiniSocial.sol\":6544:6545  i */\n      dup2\n        /* \"contracts/MiniSocial.sol\":6538:6546  posts[i] */\n      dup2\n      sload\n      dup2\n      lt\n      tag_146\n      jumpi\n      tag_147\n      tag_66\n      jump\t// in\n    tag_147:\n    tag_146:\n      swap1\n      0x00\n      mstore\n      keccak256(0x00, 0x20)\n      swap1\n      0x0c\n      mul\n      add\n        /* \"contracts/MiniSocial.sol\":6538:6554  posts[i].content */\n      0x02\n      add\n        /* \"contracts/MiniSocial.sol\":6513:6554  contents[currentIndex] = posts[i].content */\n      dup1\n      sload\n      tag_149\n      swap1\n      tag_139\n      jump\t// in\n    tag_149:\n      dup1\n      0x1f\n      add\n      0x20\n      dup1\n      swap2\n      div\n      mul\n      0x20\n      add\n      mload(0x40)\n      swap1\n      dup2\n      add\n      0x40\n      mstore\n      dup1\n      swap3\n      swap2\n      swap1\n      dup2\n      dup2\n      mstore\n      0x20\n      add\n      dup3\n      dup1\n      sload\n      tag_150\n      swap1\n      tag_139\n      jump\t// in\n    tag_150:\n      dup1\n      iszero\n      tag_151\n      jumpi\n      dup1\n      0x1f\n      lt\n      tag_152\n      jumpi\n      0x0100\n      dup1\n      dup4\n      sload\n      div\n      mul\n      dup4\n      mstore\n      swap2\n      0x20\n      add\n      swap2\n      jump(tag_151)\n    tag_152:\n      dup3\n      add\n      swap2\n      swap1\n      0x00\n      mstore\n      keccak256(0x00, 0x20)\n      swap1\n    tag_153:\n      dup2\n      sload\n      dup2\n      mstore\n      swap1\n      0x01\n      add\n      swap1\n      0x20\n      add\n      dup1\n      dup4\n      gt\n      tag_153\n      jumpi\n      dup3\n      swap1\n      sub\n      0x1f\n      and\n      dup3\n      add\n      swap2\n    tag_151:\n      pop\n      pop\n      pop\n      pop\n      pop\n        /* \"contracts/MiniSocial.sol\":6513:6521  contents */\n      dup11\n        /* \"contracts/MiniSocial.sol\":6522:6534  currentIndex */\n      dup4\n        /* \"contracts/MiniSocial.sol\":6513:6535  contents[currentIndex] */\n      dup2\n      mload\n      dup2\n      lt\n      tag_154\n      jumpi\n      tag_155\n      tag_66\n      jump\t// in\n    tag_155:\n    tag_154:\n      0x20\n      mul\n      0x20\n      add\n      add\n        /* \"contracts/MiniSocial.sol\":6513:6554  contents[currentIndex] = posts[i].content */\n      dup2\n      swap1\n      mstore\n      pop\n        /* \"contracts/MiniSocial.sol\":6596:6601  posts */\n      0x00\n        /* \"contracts/MiniSocial.sol\":6602:6603  i */\n      dup2\n        /* \"contracts/MiniSocial.sol\":6596:6604  posts[i] */\n      dup2\n      sload\n      dup2\n      lt\n      tag_156\n      jumpi\n      tag_157\n      tag_66\n      jump\t// in\n    tag_157:\n    tag_156:\n      swap1\n      0x00\n      mstore\n      keccak256(0x00, 0x20)\n      swap1\n      0x0c\n      mul\n      add\n        /* \"contracts/MiniSocial.sol\":6596:6611  posts[i].author */\n      0x03\n      add\n      0x00\n      swap1\n      sload\n      swap1\n      0x0100\n      exp\n      swap1\n      div\n      0xffffffffffffffffffffffffffffffffffffffff\n      and\n        /* \"contracts/MiniSocial.sol\":6572:6579  authors */\n      dup10\n        /* \"contracts/MiniSocial.sol\":6580:6592  currentIndex */\n      dup4\n        /* \"contracts/MiniSocial.sol\":6572:6593  authors[currentIndex] */\n      dup2\n      mload\n      dup2\n      lt\n      tag_159\n      jumpi\n      tag_160\n      tag_66\n      jump\t// in\n    tag_160:\n    tag_159:\n      0x20\n      mul\n      0x20\n      add\n      add\n        /* \"contracts/MiniSocial.sol\":6572:6611  authors[currentIndex] = posts[i].author */\n      swap1\n      0xffffffffffffffffffffffffffffffffffffffff\n      and\n      swap1\n      dup2\n      0xffffffffffffffffffffffffffffffffffffffff\n      and\n      dup2\n      mstore\n      pop\n      pop\n        /* \"contracts/MiniSocial.sol\":6656:6661  posts */\n      0x00\n        /* \"contracts/MiniSocial.sol\":6662:6663  i */\n      dup2\n        /* \"contracts/MiniSocial.sol\":6656:6664  posts[i] */\n      dup2\n      sload\n      dup2\n      lt\n      tag_161\n      jumpi\n      tag_162\n      tag_66\n      jump\t// in\n    tag_162:\n    tag_161:\n      swap1\n      0x00\n      mstore\n      keccak256(0x00, 0x20)\n      swap1\n      0x0c\n      mul\n      add\n        /* \"contracts/MiniSocial.sol\":6656:6674  posts[i].timestamp */\n      0x04\n      add\n      sload\n        /* \"contracts/MiniSocial.sol\":6629:6639  timestamps */\n      dup9\n        /* \"contracts/MiniSocial.sol\":6640:6652  currentIndex */\n      dup4\n        /* \"contracts/MiniSocial.sol\":6629:6653  timestamps[currentIndex] */\n      dup2\n      mload\n      dup2\n      lt\n      tag_164\n      jumpi\n      tag_165\n      tag_66\n      jump\t// in\n    tag_165:\n    tag_164:\n      0x20\n      mul\n      0x20\n      add\n      add\n        /* \"contracts/MiniSocial.sol\":6629:6674  timestamps[currentIndex] = posts[i].timestamp */\n      dup2\n      dup2\n      mstore\n      pop\n      pop\n        /* \"contracts/MiniSocial.sol\":6719:6724  posts */\n      0x00\n        /* \"contracts/MiniSocial.sol\":6725:6726  i */\n      dup2\n        /* \"contracts/MiniSocial.sol\":6719:6727  posts[i] */\n      dup2\n      sload\n      dup2\n      lt\n      tag_166\n      jumpi\n      tag_167\n      tag_66\n      jump\t// in\n    tag_167:\n    tag_166:\n      swap1\n      0x00\n      mstore\n      keccak256(0x00, 0x20)\n      swap1\n      0x0c\n      mul\n      add\n        /* \"contracts/MiniSocial.sol\":6719:6738  posts[i].likesCount */\n      0x05\n      add\n      sload\n        /* \"contracts/MiniSocial.sol\":6692:6702  likeCounts */\n      dup8\n        /* \"contracts/MiniSocial.sol\":6703:6715  currentIndex */\n      dup4\n        /* \"contracts/MiniSocial.sol\":6692:6716  likeCounts[currentIndex] */\n      dup2\n      mload\n      dup2\n      lt\n      tag_169\n      jumpi\n      tag_170\n      tag_66\n      jump\t// in\n    tag_170:\n    tag_169:\n      0x20\n      mul\n      0x20\n      add\n      add\n        /* \"contracts/MiniSocial.sol\":6692:6738  likeCounts[currentIndex] = posts[i].likesCount */\n      dup2\n      dup2\n      mstore\n      pop\n      pop\n        /* \"contracts/MiniSocial.sol\":6786:6791  posts */\n      0x00\n        /* \"contracts/MiniSocial.sol\":6792:6793  i */\n      dup2\n        /* \"contracts/MiniSocial.sol\":6786:6794  posts[i] */\n      dup2\n      sload\n      dup2\n      lt\n      tag_171\n      jumpi\n      tag_172\n      tag_66\n      jump\t// in\n    tag_172:\n    tag_171:\n      swap1\n      0x00\n      mstore\n      keccak256(0x00, 0x20)\n      swap1\n      0x0c\n      mul\n      add\n        /* \"contracts/MiniSocial.sol\":6786:6807  posts[i].commentCount */\n      0x08\n      add\n      sload\n        /* \"contracts/MiniSocial.sol\":6756:6769  commentCounts */\n      dup7\n        /* \"contracts/MiniSocial.sol\":6770:6782  currentIndex */\n      dup4\n        /* \"contracts/MiniSocial.sol\":6756:6783  commentCounts[currentIndex] */\n      dup2\n      mload\n      dup2\n      lt\n      tag_174\n      jumpi\n      tag_175\n      tag_66\n      jump\t// in\n    tag_175:\n    tag_174:\n      0x20\n      mul\n      0x20\n      add\n      add\n        /* \"contracts/MiniSocial.sol\":6756:6807  commentCounts[currentIndex] = posts[i].commentCount */\n      dup2\n      dup2\n      mstore\n      pop\n      pop\n        /* \"contracts/MiniSocial.sol\":6850:6855  posts */\n      0x00\n        /* \"contracts/MiniSocial.sol\":6856:6857  i */\n      dup2\n        /* \"contracts/MiniSocial.sol\":6850:6858  posts[i] */\n      dup2\n      sload\n      dup2\n      lt\n      tag_176\n      jumpi\n      tag_177\n      tag_66\n      jump\t// in\n    tag_177:\n    tag_176:\n      swap1\n      0x00\n      mstore\n      keccak256(0x00, 0x20)\n      swap1\n      0x0c\n      mul\n      add\n        /* \"contracts/MiniSocial.sol\":6850:6867  posts[i].isEdited */\n      0x09\n      add\n      0x00\n      swap1\n      sload\n      swap1\n      0x0100\n      exp\n      swap1\n      div\n      0xff\n      and\n        /* \"contracts/MiniSocial.sol\":6825:6833  isEdited */\n      dup6\n        /* \"contracts/MiniSocial.sol\":6834:6846  currentIndex */\n      dup4\n        /* \"contracts/MiniSocial.sol\":6825:6847  isEdited[currentIndex] */\n      dup2\n      mload\n      dup2\n      lt\n      tag_179\n      jumpi\n      tag_180\n      tag_66\n      jump\t// in\n    tag_180:\n    tag_179:\n      0x20\n      mul\n      0x20\n      add\n      add\n        /* \"contracts/MiniSocial.sol\":6825:6867  isEdited[currentIndex] = posts[i].isEdited */\n      swap1\n      iszero\n      iszero\n      swap1\n      dup2\n      iszero\n      iszero\n      dup2\n      mstore\n      pop\n      pop\n        /* \"contracts/MiniSocial.sol\":6910:6915  posts */\n      0x00\n        /* \"contracts/MiniSocial.sol\":6916:6917  i */\n      dup2\n        /* \"contracts/MiniSocial.sol\":6910:6918  posts[i] */\n      dup2\n      sload\n      dup2\n      lt\n      tag_181\n      jumpi\n      tag_182\n      tag_66\n      jump\t// in\n    tag_182:\n    tag_181:\n      swap1\n      0x00\n      mstore\n      keccak256(0x00, 0x20)\n      swap1\n      0x0c\n      mul\n      add\n        /* \"contracts/MiniSocial.sol\":6910:6927  posts[i].isActive */\n      0x0b\n      add\n      0x00\n      swap1\n      sload\n      swap1\n      0x0100\n      exp\n      swap1\n      div\n      0xff\n      and\n        /* \"contracts/MiniSocial.sol\":6885:6893  isActive */\n      dup5\n        /* \"contracts/MiniSocial.sol\":6894:6906  currentIndex */\n      dup4\n        /* \"contracts/MiniSocial.sol\":6885:6907  isActive[currentIndex] */\n      dup2\n      mload\n      dup2\n      lt\n      tag_184\n      jumpi\n      tag_185\n      tag_66\n      jump\t// in\n    tag_185:\n    tag_184:\n      0x20\n      mul\n      0x20\n      add\n      add\n        /* \"contracts/MiniSocial.sol\":6885:6927  isActive[currentIndex] = posts[i].isActive */\n      swap1\n      iszero\n      iszero\n      swap1\n      dup2\n      iszero\n      iszero\n      dup2\n      mstore\n      pop\n      pop\n        /* \"contracts/MiniSocial.sol\":6945:6959  currentIndex++ */\n      dup2\n      dup1\n      tag_186\n      swap1\n      tag_92\n      jump\t// in\n    tag_186:\n      swap3\n      pop\n      pop\n        /* \"contracts/MiniSocial.sol\":6360:6974  if (posts[i].isActive) {... */\n    tag_129:\n        /* \"contracts/MiniSocial.sol\":6341:6344  i++ */\n      dup1\n      dup1\n      0x01\n      add\n      swap2\n      pop\n      pop\n        /* \"contracts/MiniSocial.sol\":6303:6984  for (uint256 i = 0; i < posts.length; i++) {... */\n      jump(tag_123)\n    tag_124:\n      pop\n        /* \"contracts/MiniSocial.sol\":7002:7222  return (... */\n      pop\n      pop\n        /* \"contracts/MiniSocial.sol\":5219:7229  function getAllPosts() public view returns (... */\n      swap1\n      swap2\n      swap3\n      swap4\n      swap5\n      swap6\n      swap7\n      swap8\n      swap9\n      jump\t// out\n        /* \"contracts/MiniSocial.sol\":1530:2607  function createPost(... */\n    tag_30:\n        /* \"contracts/MiniSocial.sol\":1634:1641  uint256 */\n      0x00\n        /* \"contracts/MiniSocial.sol\":1707:1708  0 */\n      dup1\n        /* \"contracts/MiniSocial.sol\":1690:1696  _title */\n      dup4\n        /* \"contracts/MiniSocial.sol\":1684:1704  bytes(_title).length */\n      mload\n        /* \"contracts/MiniSocial.sol\":1684:1708  bytes(_title).length > 0 */\n      gt\n        /* \"contracts/MiniSocial.sol\":1676:1734  require(bytes(_title).length > 0, \"Title cannot be empty\") */\n      tag_188\n      jumpi\n      mload(0x40)\n      0x08c379a000000000000000000000000000000000000000000000000000000000\n      dup2\n      mstore\n      0x04\n      add\n      tag_189\n      swap1\n      tag_190\n      jump\t// in\n    tag_189:\n      mload(0x40)\n      dup1\n      swap2\n      sub\n      swap1\n      revert\n    tag_188:\n        /* \"contracts/MiniSocial.sol\":1776:1779  100 */\n      0x64\n        /* \"contracts/MiniSocial.sol\":1758:1764  _title */\n      dup4\n        /* \"contracts/MiniSocial.sol\":1752:1772  bytes(_title).length */\n      mload\n        /* \"contracts/MiniSocial.sol\":1752:1779  bytes(_title).length <= 100 */\n      gt\n      iszero\n        /* \"contracts/MiniSocial.sol\":1744:1798  require(bytes(_title).length <= 100, \"Title too long\") */\n      tag_191\n      jumpi\n      mload(0x40)\n      0x08c379a000000000000000000000000000000000000000000000000000000000\n      dup2\n      mstore\n      0x04\n      add\n      tag_192\n      swap1\n      tag_193\n      jump\t// in\n    tag_192:\n      mload(0x40)\n      dup1\n      swap2\n      sub\n      swap1\n      revert\n    tag_191:\n        /* \"contracts/MiniSocial.sol\":1841:1842  0 */\n      0x00\n        /* \"contracts/MiniSocial.sol\":1822:1830  _content */\n      dup3\n        /* \"contracts/MiniSocial.sol\":1816:1838  bytes(_content).length */\n      mload\n        /* \"contracts/MiniSocial.sol\":1816:1842  bytes(_content).length > 0 */\n      gt\n        /* \"contracts/MiniSocial.sol\":1808:1870  require(bytes(_content).length > 0, \"Content cannot be empty\") */\n      tag_194\n      jumpi\n      mload(0x40)\n      0x08c379a000000000000000000000000000000000000000000000000000000000\n      dup2\n      mstore\n      0x04\n      add\n      tag_195\n      swap1\n      tag_196\n      jump\t// in\n    tag_195:\n      mload(0x40)\n      dup1\n      swap2\n      sub\n      swap1\n      revert\n    tag_194:\n        /* \"contracts/MiniSocial.sol\":1914:1918  5000 */\n      0x1388\n        /* \"contracts/MiniSocial.sol\":1894:1902  _content */\n      dup3\n        /* \"contracts/MiniSocial.sol\":1888:1910  bytes(_content).length */\n      mload\n        /* \"contracts/MiniSocial.sol\":1888:1918  bytes(_content).length <= 5000 */\n      gt\n      iszero\n        /* \"contracts/MiniSocial.sol\":1880:1939  require(bytes(_content).length <= 5000, \"Content too long\") */\n      tag_197\n      jumpi\n      mload(0x40)\n      0x08c379a000000000000000000000000000000000000000000000000000000000\n      dup2\n      mstore\n      0x04\n      add\n      tag_198\n      swap1\n      tag_199\n      jump\t// in\n    tag_198:\n      mload(0x40)\n      dup1\n      swap2\n      sub\n      swap1\n      revert\n    tag_197:\n        /* \"contracts/MiniSocial.sol\":1981:1998  uint256 newPostId */\n      0x00\n        /* \"contracts/MiniSocial.sol\":2001:2011  totalPosts */\n      sload(0x02)\n        /* \"contracts/MiniSocial.sol\":1981:2011  uint256 newPostId = totalPosts */\n      swap1\n      pop\n        /* \"contracts/MiniSocial.sol\":2021:2041  Post storage newPost */\n      0x00\n        /* \"contracts/MiniSocial.sol\":2044:2049  posts */\n      dup1\n        /* \"contracts/MiniSocial.sol\":2044:2056  posts.push() */\n      0x01\n      dup2\n      0x01\n      dup2\n      sload\n      add\n      dup1\n      dup3\n      sstore\n      dup1\n      swap2\n      pop\n      pop\n      sub\n      swap1\n      0x00\n      mstore\n      keccak256(0x00, 0x20)\n      swap1\n      0x0c\n      mul\n      add\n        /* \"contracts/MiniSocial.sol\":2021:2056  Post storage newPost = posts.push() */\n      swap1\n      pop\n        /* \"contracts/MiniSocial.sol\":2083:2092  newPostId */\n      dup2\n        /* \"contracts/MiniSocial.sol\":2066:2073  newPost */\n      dup2\n        /* \"contracts/MiniSocial.sol\":2066:2080  newPost.postId */\n      0x00\n      add\n        /* \"contracts/MiniSocial.sol\":2066:2092  newPost.postId = newPostId */\n      dup2\n      swap1\n      sstore\n      pop\n        /* \"contracts/MiniSocial.sol\":2118:2124  _title */\n      dup5\n        /* \"contracts/MiniSocial.sol\":2102:2109  newPost */\n      dup2\n        /* \"contracts/MiniSocial.sol\":2102:2115  newPost.title */\n      0x01\n      add\n        /* \"contracts/MiniSocial.sol\":2102:2124  newPost.title = _title */\n      swap1\n      dup2\n      tag_201\n      swap2\n      swap1\n      tag_202\n      jump\t// in\n    tag_201:\n      pop\n        /* \"contracts/MiniSocial.sol\":2152:2160  _content */\n      dup4\n        /* \"contracts/MiniSocial.sol\":2134:2141  newPost */\n      dup2\n        /* \"contracts/MiniSocial.sol\":2134:2149  newPost.content */\n      0x02\n      add\n        /* \"contracts/MiniSocial.sol\":2134:2160  newPost.content = _content */\n      swap1\n      dup2\n      tag_203\n      swap2\n      swap1\n      tag_202\n      jump\t// in\n    tag_203:\n      pop\n        /* \"contracts/MiniSocial.sol\":2187:2197  msg.sender */\n      caller\n        /* \"contracts/MiniSocial.sol\":2170:2177  newPost */\n      dup2\n        /* \"contracts/MiniSocial.sol\":2170:2184  newPost.author */\n      0x03\n      add\n      0x00\n        /* \"contracts/MiniSocial.sol\":2170:2197  newPost.author = msg.sender */\n      0x0100\n      exp\n      dup2\n      sload\n      dup2\n      0xffffffffffffffffffffffffffffffffffffffff\n      mul\n      not\n      and\n      swap1\n      dup4\n      0xffffffffffffffffffffffffffffffffffffffff\n      and\n      mul\n      or\n      swap1\n      sstore\n      pop\n        /* \"contracts/MiniSocial.sol\":2227:2242  block.timestamp */\n      timestamp\n        /* \"contracts/MiniSocial.sol\":2207:2214  newPost */\n      dup2\n        /* \"contracts/MiniSocial.sol\":2207:2224  newPost.timestamp */\n      0x04\n      add\n        /* \"contracts/MiniSocial.sol\":2207:2242  newPost.timestamp = block.timestamp */\n      dup2\n      swap1\n      sstore\n      pop\n        /* \"contracts/MiniSocial.sol\":2273:2274  0 */\n      0x00\n        /* \"contracts/MiniSocial.sol\":2252:2259  newPost */\n      dup2\n        /* \"contracts/MiniSocial.sol\":2252:2270  newPost.likesCount */\n      0x05\n      add\n        /* \"contracts/MiniSocial.sol\":2252:2274  newPost.likesCount = 0 */\n      dup2\n      swap1\n      sstore\n      pop\n        /* \"contracts/MiniSocial.sol\":2307:2308  0 */\n      0x00\n        /* \"contracts/MiniSocial.sol\":2284:2291  newPost */\n      dup2\n        /* \"contracts/MiniSocial.sol\":2284:2304  newPost.commentCount */\n      0x08\n      add\n        /* \"contracts/MiniSocial.sol\":2284:2308  newPost.commentCount = 0 */\n      dup2\n      swap1\n      sstore\n      pop\n        /* \"contracts/MiniSocial.sol\":2337:2342  false */\n      0x00\n        /* \"contracts/MiniSocial.sol\":2318:2325  newPost */\n      dup2\n        /* \"contracts/MiniSocial.sol\":2318:2334  newPost.isEdited */\n      0x09\n      add\n      0x00\n        /* \"contracts/MiniSocial.sol\":2318:2342  newPost.isEdited = false */\n      0x0100\n      exp\n      dup2\n      sload\n      dup2\n      0xff\n      mul\n      not\n      and\n      swap1\n      dup4\n      iszero\n      iszero\n      mul\n      or\n      swap1\n      sstore\n      pop\n        /* \"contracts/MiniSocial.sol\":2375:2390  block.timestamp */\n      timestamp\n        /* \"contracts/MiniSocial.sol\":2352:2359  newPost */\n      dup2\n        /* \"contracts/MiniSocial.sol\":2352:2372  newPost.lastEditTime */\n      0x0a\n      add\n        /* \"contracts/MiniSocial.sol\":2352:2390  newPost.lastEditTime = block.timestamp */\n      dup2\n      swap1\n      sstore\n      pop\n        /* \"contracts/MiniSocial.sol\":2419:2423  true */\n      0x01\n        /* \"contracts/MiniSocial.sol\":2400:2407  newPost */\n      dup2\n        /* \"contracts/MiniSocial.sol\":2400:2416  newPost.isActive */\n      0x0b\n      add\n      0x00\n        /* \"contracts/MiniSocial.sol\":2400:2423  newPost.isActive = true */\n      0x0100\n      exp\n      dup2\n      sload\n      dup2\n      0xff\n      mul\n      not\n      and\n      swap1\n      dup4\n      iszero\n      iszero\n      mul\n      or\n      swap1\n      sstore\n      pop\n        /* \"contracts/MiniSocial.sol\":2442:2452  totalPosts */\n      0x02\n      0x00\n        /* \"contracts/MiniSocial.sol\":2442:2454  totalPosts++ */\n      dup2\n      sload\n      dup1\n      swap3\n      swap2\n      swap1\n      tag_204\n      swap1\n      tag_92\n      jump\t// in\n    tag_204:\n      swap2\n      swap1\n      pop\n      sstore\n      pop\n        /* \"contracts/MiniSocial.sol\":2464:2480  activePostsCount */\n      0x03\n      0x00\n        /* \"contracts/MiniSocial.sol\":2464:2482  activePostsCount++ */\n      dup2\n      sload\n      dup1\n      swap3\n      swap2\n      swap1\n      tag_205\n      swap1\n      tag_92\n      jump\t// in\n    tag_205:\n      swap2\n      swap1\n      pop\n      sstore\n      pop\n        /* \"contracts/MiniSocial.sol\":2529:2539  msg.sender */\n      caller\n        /* \"contracts/MiniSocial.sol\":2506:2565  PostCreated(newPostId, msg.sender, _title, block.timestamp) */\n      0xffffffffffffffffffffffffffffffffffffffff\n      and\n        /* \"contracts/MiniSocial.sol\":2518:2527  newPostId */\n      dup3\n        /* \"contracts/MiniSocial.sol\":2506:2565  PostCreated(newPostId, msg.sender, _title, block.timestamp) */\n      0x285db98a4632176385795ddf0d2b67cef1a21f47eb2f5d06f786ab6b5147e200\n        /* \"contracts/MiniSocial.sol\":2541:2547  _title */\n      dup8\n        /* \"contracts/MiniSocial.sol\":2549:2564  block.timestamp */\n      timestamp\n        /* \"contracts/MiniSocial.sol\":2506:2565  PostCreated(newPostId, msg.sender, _title, block.timestamp) */\n      mload(0x40)\n      tag_206\n      swap3\n      swap2\n      swap1\n      tag_207\n      jump\t// in\n    tag_206:\n      mload(0x40)\n      dup1\n      swap2\n      sub\n      swap1\n      log3\n        /* \"contracts/MiniSocial.sol\":2591:2600  newPostId */\n      dup2\n        /* \"contracts/MiniSocial.sol\":2584:2600  return newPostId */\n      swap3\n      pop\n      pop\n      pop\n        /* \"contracts/MiniSocial.sol\":1530:2607  function createPost(... */\n      swap3\n      swap2\n      pop\n      pop\n      jump\t// out\n        /* \"contracts/MiniSocial.sol\":4327:5173  function getPost(uint256 _postId) public view postExists(_postId) returns (... */\n    tag_34:\n        /* \"contracts/MiniSocial.sol\":4411:4430  string memory title */\n      0x60\n        /* \"contracts/MiniSocial.sol\":4440:4461  string memory content */\n      dup1\n        /* \"contracts/MiniSocial.sol\":4471:4485  address author */\n      0x00\n        /* \"contracts/MiniSocial.sol\":4495:4512  uint256 timestamp */\n      dup1\n        /* \"contracts/MiniSocial.sol\":4522:4540  uint256 likesCount */\n      0x00\n        /* \"contracts/MiniSocial.sol\":4550:4574  address[] memory likedBy */\n      0x60\n        /* \"contracts/MiniSocial.sol\":4584:4604  uint256 commentCount */\n      0x00\n        /* \"contracts/MiniSocial.sol\":4614:4639  Comment[] memory comments */\n      0x60\n        /* \"contracts/MiniSocial.sol\":4384:4391  _postId */\n      dup9\n        /* \"contracts/MiniSocial.sol\":1370:1375  posts */\n      0x00\n        /* \"contracts/MiniSocial.sol\":1370:1382  posts.length */\n      dup1\n      sload\n      swap1\n      pop\n        /* \"contracts/MiniSocial.sol\":1360:1367  _postId */\n      dup2\n        /* \"contracts/MiniSocial.sol\":1360:1382  _postId < posts.length */\n      lt\n        /* \"contracts/MiniSocial.sol\":1352:1406  require(_postId < posts.length, \"Post does not exist\") */\n      tag_209\n      jumpi\n      mload(0x40)\n      0x08c379a000000000000000000000000000000000000000000000000000000000\n      dup2\n      mstore\n      0x04\n      add\n      tag_210\n      swap1\n      tag_63\n      jump\t// in\n    tag_210:\n      mload(0x40)\n      dup1\n      swap2\n      sub\n      swap1\n      revert\n    tag_209:\n        /* \"contracts/MiniSocial.sol\":1424:1429  posts */\n      0x00\n        /* \"contracts/MiniSocial.sol\":1430:1437  _postId */\n      dup2\n        /* \"contracts/MiniSocial.sol\":1424:1438  posts[_postId] */\n      dup2\n      sload\n      dup2\n      lt\n      tag_211\n      jumpi\n      tag_212\n      tag_66\n      jump\t// in\n    tag_212:\n    tag_211:\n      swap1\n      0x00\n      mstore\n      keccak256(0x00, 0x20)\n      swap1\n      0x0c\n      mul\n      add\n        /* \"contracts/MiniSocial.sol\":1424:1447  posts[_postId].isActive */\n      0x0b\n      add\n      0x00\n      swap1\n      sload\n      swap1\n      0x0100\n      exp\n      swap1\n      div\n      0xff\n      and\n        /* \"contracts/MiniSocial.sol\":1416:1473  require(posts[_postId].isActive, \"Post has been deleted\") */\n      tag_214\n      jumpi\n      mload(0x40)\n      0x08c379a000000000000000000000000000000000000000000000000000000000\n      dup2\n      mstore\n      0x04\n      add\n      tag_215\n      swap1\n      tag_70\n      jump\t// in\n    tag_215:\n      mload(0x40)\n      dup1\n      swap2\n      sub\n      swap1\n      revert\n    tag_214:\n        /* \"contracts/MiniSocial.sol\":4656:4673  Post storage post */\n      0x00\n        /* \"contracts/MiniSocial.sol\":4676:4681  posts */\n      dup1\n        /* \"contracts/MiniSocial.sol\":4682:4689  _postId */\n      dup12\n        /* \"contracts/MiniSocial.sol\":4676:4690  posts[_postId] */\n      dup2\n      sload\n      dup2\n      lt\n      tag_217\n      jumpi\n      tag_218\n      tag_66\n      jump\t// in\n    tag_218:\n    tag_217:\n      swap1\n      0x00\n      mstore\n      keccak256(0x00, 0x20)\n      swap1\n      0x0c\n      mul\n      add\n        /* \"contracts/MiniSocial.sol\":4656:4690  Post storage post = posts[_postId] */\n      swap1\n      pop\n        /* \"contracts/MiniSocial.sol\":4700:4728  Comment[] memory commentsArr */\n      0x00\n        /* \"contracts/MiniSocial.sol\":4745:4749  post */\n      dup2\n        /* \"contracts/MiniSocial.sol\":4745:4762  post.commentCount */\n      0x08\n      add\n      sload\n        /* \"contracts/MiniSocial.sol\":4731:4763  new Comment[](post.commentCount) */\n      0xffffffffffffffff\n      dup2\n      gt\n      iszero\n      tag_220\n      jumpi\n      tag_221\n      tag_95\n      jump\t// in\n    tag_221:\n    tag_220:\n      mload(0x40)\n      swap1\n      dup1\n      dup3\n      mstore\n      dup1\n      0x20\n      mul\n      0x20\n      add\n      dup3\n      add\n      0x40\n      mstore\n      dup1\n      iszero\n      tag_222\n      jumpi\n      dup2\n      0x20\n      add\n    tag_223:\n      tag_224\n      tag_225\n      jump\t// in\n    tag_224:\n      dup2\n      mstore\n      0x20\n      add\n      swap1\n      0x01\n      swap1\n      sub\n      swap1\n      dup2\n      tag_223\n      jumpi\n      swap1\n      pop\n    tag_222:\n      pop\n        /* \"contracts/MiniSocial.sol\":4700:4763  Comment[] memory commentsArr = new Comment[](post.commentCount) */\n      swap1\n      pop\n        /* \"contracts/MiniSocial.sol\":4773:4793  uint256 commentIndex */\n      0x00\n        /* \"contracts/MiniSocial.sol\":4812:4821  uint256 i */\n      dup1\n        /* \"contracts/MiniSocial.sol\":4807:4926  for (uint256 i = 0; i < post.commentCount; i++) {... */\n    tag_226:\n        /* \"contracts/MiniSocial.sol\":4831:4835  post */\n      dup4\n        /* \"contracts/MiniSocial.sol\":4831:4848  post.commentCount */\n      0x08\n      add\n      sload\n        /* \"contracts/MiniSocial.sol\":4827:4828  i */\n      dup2\n        /* \"contracts/MiniSocial.sol\":4827:4848  i < post.commentCount */\n      lt\n        /* \"contracts/MiniSocial.sol\":4807:4926  for (uint256 i = 0; i < post.commentCount; i++) {... */\n      iszero\n      tag_227\n      jumpi\n        /* \"contracts/MiniSocial.sol\":4899:4903  post */\n      dup4\n        /* \"contracts/MiniSocial.sol\":4899:4912  post.comments */\n      0x07\n      add\n        /* \"contracts/MiniSocial.sol\":4899:4915  post.comments[i] */\n      0x00\n        /* \"contracts/MiniSocial.sol\":4913:4914  i */\n      dup3\n        /* \"contracts/MiniSocial.sol\":4899:4915  post.comments[i] */\n      dup2\n      mstore\n      0x20\n      add\n      swap1\n      dup2\n      mstore\n      0x20\n      add\n      0x00\n      keccak256\n        /* \"contracts/MiniSocial.sol\":4869:4915  commentsArr[commentIndex++] = post.comments[i] */\n      mload(0x40)\n      dup1\n      0x60\n      add\n      0x40\n      mstore\n      swap1\n      dup2\n      0x00\n      dup3\n      add\n      dup1\n      sload\n      tag_229\n      swap1\n      tag_139\n      jump\t// in\n    tag_229:\n      dup1\n      0x1f\n      add\n      0x20\n      dup1\n      swap2\n      div\n      mul\n      0x20\n      add\n      mload(0x40)\n      swap1\n      dup2\n      add\n      0x40\n      mstore\n      dup1\n      swap3\n      swap2\n      swap1\n      dup2\n      dup2\n      mstore\n      0x20\n      add\n      dup3\n      dup1\n      sload\n      tag_230\n      swap1\n      tag_139\n      jump\t// in\n    tag_230:\n      dup1\n      iszero\n      tag_231\n      jumpi\n      dup1\n      0x1f\n      lt\n      tag_232\n      jumpi\n      0x0100\n      dup1\n      dup4\n      sload\n      div\n      mul\n      dup4\n      mstore\n      swap2\n      0x20\n      add\n      swap2\n      jump(tag_231)\n    tag_232:\n      dup3\n      add\n      swap2\n      swap1\n      0x00\n      mstore\n      keccak256(0x00, 0x20)\n      swap1\n    tag_233:\n      dup2\n      sload\n      dup2\n      mstore\n      swap1\n      0x01\n      add\n      swap1\n      0x20\n      add\n      dup1\n      dup4\n      gt\n      tag_233\n      jumpi\n      dup3\n      swap1\n      sub\n      0x1f\n      and\n      dup3\n      add\n      swap2\n    tag_231:\n      pop\n      pop\n      pop\n      pop\n      pop\n      dup2\n      mstore\n      0x20\n      add\n      0x01\n      dup3\n      add\n      0x00\n      swap1\n      sload\n      swap1\n      0x0100\n      exp\n      swap1\n      div\n      0xffffffffffffffffffffffffffffffffffffffff\n      and\n      0xffffffffffffffffffffffffffffffffffffffff\n      and\n      0xffffffffffffffffffffffffffffffffffffffff\n      and\n      dup2\n      mstore\n      0x20\n      add\n      0x02\n      dup3\n      add\n      sload\n      dup2\n      mstore\n      pop\n      pop\n        /* \"contracts/MiniSocial.sol\":4869:4880  commentsArr */\n      dup4\n        /* \"contracts/MiniSocial.sol\":4881:4895  commentIndex++ */\n      dup4\n      dup1\n      tag_234\n      swap1\n      tag_92\n      jump\t// in\n    tag_234:\n      swap5\n      pop\n        /* \"contracts/MiniSocial.sol\":4869:4896  commentsArr[commentIndex++] */\n      dup2\n      mload\n      dup2\n      lt\n      tag_235\n      jumpi\n      tag_236\n      tag_66\n      jump\t// in\n    tag_236:\n    tag_235:\n      0x20\n      mul\n      0x20\n      add\n      add\n        /* \"contracts/MiniSocial.sol\":4869:4915  commentsArr[commentIndex++] = post.comments[i] */\n      dup2\n      swap1\n      mstore\n      pop\n        /* \"contracts/MiniSocial.sol\":4850:4853  i++ */\n      dup1\n      dup1\n      0x01\n      add\n      swap2\n      pop\n      pop\n        /* \"contracts/MiniSocial.sol\":4807:4926  for (uint256 i = 0; i < post.commentCount; i++) {... */\n      jump(tag_226)\n    tag_227:\n      pop\n        /* \"contracts/MiniSocial.sol\":4956:4960  post */\n      dup3\n        /* \"contracts/MiniSocial.sol\":4956:4966  post.title */\n      0x01\n      add\n        /* \"contracts/MiniSocial.sol\":4980:4984  post */\n      dup4\n        /* \"contracts/MiniSocial.sol\":4980:4992  post.content */\n      0x02\n      add\n        /* \"contracts/MiniSocial.sol\":5006:5010  post */\n      dup5\n        /* \"contracts/MiniSocial.sol\":5006:5017  post.author */\n      0x03\n      add\n      0x00\n      swap1\n      sload\n      swap1\n      0x0100\n      exp\n      swap1\n      div\n      0xffffffffffffffffffffffffffffffffffffffff\n      and\n        /* \"contracts/MiniSocial.sol\":5031:5035  post */\n      dup6\n        /* \"contracts/MiniSocial.sol\":5031:5045  post.timestamp */\n      0x04\n      add\n      sload\n        /* \"contracts/MiniSocial.sol\":5059:5063  post */\n      dup7\n        /* \"contracts/MiniSocial.sol\":5059:5074  post.likesCount */\n      0x05\n      add\n      sload\n        /* \"contracts/MiniSocial.sol\":5088:5092  post */\n      dup8\n        /* \"contracts/MiniSocial.sol\":5088:5100  post.likedBy */\n      0x06\n      add\n        /* \"contracts/MiniSocial.sol\":5114:5118  post */\n      dup9\n        /* \"contracts/MiniSocial.sol\":5114:5131  post.commentCount */\n      0x08\n      add\n      sload\n        /* \"contracts/MiniSocial.sol\":5145:5156  commentsArr */\n      dup9\n        /* \"contracts/MiniSocial.sol\":4935:5166  return (... */\n      dup8\n      dup1\n      sload\n      tag_237\n      swap1\n      tag_139\n      jump\t// in\n    tag_237:\n      dup1\n      0x1f\n      add\n      0x20\n      dup1\n      swap2\n      div\n      mul\n      0x20\n      add\n      mload(0x40)\n      swap1\n      dup2\n      add\n      0x40\n      mstore\n      dup1\n      swap3\n      swap2\n      swap1\n      dup2\n      dup2\n      mstore\n      0x20\n      add\n      dup3\n      dup1\n      sload\n      tag_238\n      swap1\n      tag_139\n      jump\t// in\n    tag_238:\n      dup1\n      iszero\n      tag_239\n      jumpi\n      dup1\n      0x1f\n      lt\n      tag_240\n      jumpi\n      0x0100\n      dup1\n      dup4\n      sload\n      div\n      mul\n      dup4\n      mstore\n      swap2\n      0x20\n      add\n      swap2\n      jump(tag_239)\n    tag_240:\n      dup3\n      add\n      swap2\n      swap1\n      0x00\n      mstore\n      keccak256(0x00, 0x20)\n      swap1\n    tag_241:\n      dup2\n      sload\n      dup2\n      mstore\n      swap1\n      0x01\n      add\n      swap1\n      0x20\n      add\n      dup1\n      dup4\n      gt\n      tag_241\n      jumpi\n      dup3\n      swap1\n      sub\n      0x1f\n      and\n      dup3\n      add\n      swap2\n    tag_239:\n      pop\n      pop\n      pop\n      pop\n      pop\n      swap8\n      pop\n      dup7\n      dup1\n      sload\n      tag_242\n      swap1\n      tag_139\n      jump\t// in\n    tag_242:\n      dup1\n      0x1f\n      add\n      0x20\n      dup1\n      swap2\n      div\n      mul\n      0x20\n      add\n      mload(0x40)\n      swap1\n      dup2\n      add\n      0x40\n      mstore\n      dup1\n      swap3\n      swap2\n      swap1\n      dup2\n      dup2\n      mstore\n      0x20\n      add\n      dup3\n      dup1\n      sload\n      tag_243\n      swap1\n      tag_139\n      jump\t// in\n    tag_243:\n      dup1\n      iszero\n      tag_244\n      jumpi\n      dup1\n      0x1f\n      lt\n      tag_245\n      jumpi\n      0x0100\n      dup1\n      dup4\n      sload\n      div\n      mul\n      dup4\n      mstore\n      swap2\n      0x20\n      add\n      swap2\n      jump(tag_244)\n    tag_245:\n      dup3\n      add\n      swap2\n      swap1\n      0x00\n      mstore\n      keccak256(0x00, 0x20)\n      swap1\n    tag_246:\n      dup2\n      sload\n      dup2\n      mstore\n      swap1\n      0x01\n      add\n      swap1\n      0x20\n      add\n      dup1\n      dup4\n      gt\n      tag_246\n      jumpi\n      dup3\n      swap1\n      sub\n      0x1f\n      and\n      dup3\n      add\n      swap2\n    tag_244:\n      pop\n      pop\n      pop\n      pop\n      pop\n      swap7\n      pop\n      dup3\n      dup1\n      sload\n      dup1\n      0x20\n      mul\n      0x20\n      add\n      mload(0x40)\n      swap1\n      dup2\n      add\n      0x40\n      mstore\n      dup1\n      swap3\n      swap2\n      swap1\n      dup2\n      dup2\n      mstore\n      0x20\n      add\n      dup3\n      dup1\n      sload\n      dup1\n      iszero\n      tag_247\n      jumpi\n      0x20\n      mul\n      dup3\n      add\n      swap2\n      swap1\n      0x00\n      mstore\n      keccak256(0x00, 0x20)\n      swap1\n    tag_248:\n      dup2\n      0x00\n      swap1\n      sload\n      swap1\n      0x0100\n      exp\n      swap1\n      div\n      0xffffffffffffffffffffffffffffffffffffffff\n      and\n      0xffffffffffffffffffffffffffffffffffffffff\n      and\n      dup2\n      mstore\n      0x20\n      add\n      swap1\n      0x01\n      add\n      swap1\n      dup1\n      dup4\n      gt\n      tag_248\n      jumpi\n    tag_247:\n      pop\n      pop\n      pop\n      pop\n      pop\n      swap3\n      pop\n      swap12\n      pop\n      swap12\n      pop\n      swap12\n      pop\n      swap12\n      pop\n      swap12\n      pop\n      swap12\n      pop\n      swap12\n      pop\n      swap12\n      pop\n      pop\n      pop\n      pop\n        /* \"contracts/MiniSocial.sol\":4327:5173  function getPost(uint256 _postId) public view postExists(_postId) returns (... */\n      pop\n      swap2\n      swap4\n      swap6\n      swap8\n      pop\n      swap2\n      swap4\n      swap6\n      swap8\n      jump\t// out\n        /* \"contracts/MiniSocial.sol\":3324:4280  function toggleLike(uint256 _postId) public postExists(_postId) {... */\n    tag_39:\n        /* \"contracts/MiniSocial.sol\":3379:3386  _postId */\n      dup1\n        /* \"contracts/MiniSocial.sol\":1370:1375  posts */\n      0x00\n        /* \"contracts/MiniSocial.sol\":1370:1382  posts.length */\n      dup1\n      sload\n      swap1\n      pop\n        /* \"contracts/MiniSocial.sol\":1360:1367  _postId */\n      dup2\n        /* \"contracts/MiniSocial.sol\":1360:1382  _postId < posts.length */\n      lt\n        /* \"contracts/MiniSocial.sol\":1352:1406  require(_postId < posts.length, \"Post does not exist\") */\n      tag_250\n      jumpi\n      mload(0x40)\n      0x08c379a000000000000000000000000000000000000000000000000000000000\n      dup2\n      mstore\n      0x04\n      add\n      tag_251\n      swap1\n      tag_63\n      jump\t// in\n    tag_251:\n      mload(0x40)\n      dup1\n      swap2\n      sub\n      swap1\n      revert\n    tag_250:\n        /* \"contracts/MiniSocial.sol\":1424:1429  posts */\n      0x00\n        /* \"contracts/MiniSocial.sol\":1430:1437  _postId */\n      dup2\n        /* \"contracts/MiniSocial.sol\":1424:1438  posts[_postId] */\n      dup2\n      sload\n      dup2\n      lt\n      tag_252\n      jumpi\n      tag_253\n      tag_66\n      jump\t// in\n    tag_253:\n    tag_252:\n      swap1\n      0x00\n      mstore\n      keccak256(0x00, 0x20)\n      swap1\n      0x0c\n      mul\n      add\n        /* \"contracts/MiniSocial.sol\":1424:1447  posts[_postId].isActive */\n      0x0b\n      add\n      0x00\n      swap1\n      sload\n      swap1\n      0x0100\n      exp\n      swap1\n      div\n      0xff\n      and\n        /* \"contracts/MiniSocial.sol\":1416:1473  require(posts[_postId].isActive, \"Post has been deleted\") */\n      tag_255\n      jumpi\n      mload(0x40)\n      0x08c379a000000000000000000000000000000000000000000000000000000000\n      dup2\n      mstore\n      0x04\n      add\n      tag_256\n      swap1\n      tag_70\n      jump\t// in\n    tag_256:\n      mload(0x40)\n      dup1\n      swap2\n      sub\n      swap1\n      revert\n    tag_255:\n        /* \"contracts/MiniSocial.sol\":3420:3425  posts */\n      0x00\n        /* \"contracts/MiniSocial.sol\":3426:3433  _postId */\n      dup3\n        /* \"contracts/MiniSocial.sol\":3420:3434  posts[_postId] */\n      dup2\n      sload\n      dup2\n      lt\n      tag_258\n      jumpi\n      tag_259\n      tag_66\n      jump\t// in\n    tag_259:\n    tag_258:\n      swap1\n      0x00\n      mstore\n      keccak256(0x00, 0x20)\n      swap1\n      0x0c\n      mul\n      add\n        /* \"contracts/MiniSocial.sol\":3420:3441  posts[_postId].author */\n      0x03\n      add\n      0x00\n      swap1\n      sload\n      swap1\n      0x0100\n      exp\n      swap1\n      div\n      0xffffffffffffffffffffffffffffffffffffffff\n      and\n        /* \"contracts/MiniSocial.sol\":3406:3441  msg.sender != posts[_postId].author */\n      0xffffffffffffffffffffffffffffffffffffffff\n      and\n        /* \"contracts/MiniSocial.sol\":3406:3416  msg.sender */\n      caller\n        /* \"contracts/MiniSocial.sol\":3406:3441  msg.sender != posts[_postId].author */\n      0xffffffffffffffffffffffffffffffffffffffff\n      and\n      sub\n        /* \"contracts/MiniSocial.sol\":3398:3488  require(msg.sender != posts[_postId].author, \"Vous ne pouvez pas liker votre propre post\") */\n      tag_261\n      jumpi\n      mload(0x40)\n      0x08c379a000000000000000000000000000000000000000000000000000000000\n      dup2\n      mstore\n      0x04\n      add\n      tag_262\n      swap1\n      tag_263\n      jump\t// in\n    tag_262:\n      mload(0x40)\n      dup1\n      swap2\n      sub\n      swap1\n      revert\n    tag_261:\n        /* \"contracts/MiniSocial.sol\":3512:3521  postLikes */\n      0x01\n        /* \"contracts/MiniSocial.sol\":3512:3530  postLikes[_postId] */\n      0x00\n        /* \"contracts/MiniSocial.sol\":3522:3529  _postId */\n      dup4\n        /* \"contracts/MiniSocial.sol\":3512:3530  postLikes[_postId] */\n      dup2\n      mstore\n      0x20\n      add\n      swap1\n      dup2\n      mstore\n      0x20\n      add\n      0x00\n      keccak256\n        /* \"contracts/MiniSocial.sol\":3512:3542  postLikes[_postId][msg.sender] */\n      0x00\n        /* \"contracts/MiniSocial.sol\":3531:3541  msg.sender */\n      caller\n        /* \"contracts/MiniSocial.sol\":3512:3542  postLikes[_postId][msg.sender] */\n      0xffffffffffffffffffffffffffffffffffffffff\n      and\n      0xffffffffffffffffffffffffffffffffffffffff\n      and\n      dup2\n      mstore\n      0x20\n      add\n      swap1\n      dup2\n      mstore\n      0x20\n      add\n      0x00\n      keccak256\n      0x00\n      swap1\n      sload\n      swap1\n      0x0100\n      exp\n      swap1\n      div\n      0xff\n      and\n        /* \"contracts/MiniSocial.sol\":3507:4274  if (!postLikes[_postId][msg.sender]) {... */\n      tag_264\n      jumpi\n        /* \"contracts/MiniSocial.sol\":3591:3595  true */\n      0x01\n        /* \"contracts/MiniSocial.sol\":3558:3567  postLikes */\n      dup1\n        /* \"contracts/MiniSocial.sol\":3558:3576  postLikes[_postId] */\n      0x00\n        /* \"contracts/MiniSocial.sol\":3568:3575  _postId */\n      dup5\n        /* \"contracts/MiniSocial.sol\":3558:3576  postLikes[_postId] */\n      dup2\n      mstore\n      0x20\n      add\n      swap1\n      dup2\n      mstore\n      0x20\n      add\n      0x00\n      keccak256\n        /* \"contracts/MiniSocial.sol\":3558:3588  postLikes[_postId][msg.sender] */\n      0x00\n        /* \"contracts/MiniSocial.sol\":3577:3587  msg.sender */\n      caller\n        /* \"contracts/MiniSocial.sol\":3558:3588  postLikes[_postId][msg.sender] */\n      0xffffffffffffffffffffffffffffffffffffffff\n      and\n      0xffffffffffffffffffffffffffffffffffffffff\n      and\n      dup2\n      mstore\n      0x20\n      add\n      swap1\n      dup2\n      mstore\n      0x20\n      add\n      0x00\n      keccak256\n      0x00\n        /* \"contracts/MiniSocial.sol\":3558:3595  postLikes[_postId][msg.sender] = true */\n      0x0100\n      exp\n      dup2\n      sload\n      dup2\n      0xff\n      mul\n      not\n      and\n      swap1\n      dup4\n      iszero\n      iszero\n      mul\n      or\n      swap1\n      sstore\n      pop\n        /* \"contracts/MiniSocial.sol\":3609:3614  posts */\n      0x00\n        /* \"contracts/MiniSocial.sol\":3615:3622  _postId */\n      dup3\n        /* \"contracts/MiniSocial.sol\":3609:3623  posts[_postId] */\n      dup2\n      sload\n      dup2\n      lt\n      tag_265\n      jumpi\n      tag_266\n      tag_66\n      jump\t// in\n    tag_266:\n    tag_265:\n      swap1\n      0x00\n      mstore\n      keccak256(0x00, 0x20)\n      swap1\n      0x0c\n      mul\n      add\n        /* \"contracts/MiniSocial.sol\":3609:3634  posts[_postId].likesCount */\n      0x05\n      add\n      0x00\n        /* \"contracts/MiniSocial.sol\":3609:3636  posts[_postId].likesCount++ */\n      dup2\n      sload\n      dup1\n      swap3\n      swap2\n      swap1\n      tag_268\n      swap1\n      tag_92\n      jump\t// in\n    tag_268:\n      swap2\n      swap1\n      pop\n      sstore\n      pop\n        /* \"contracts/MiniSocial.sol\":3650:3655  posts */\n      0x00\n        /* \"contracts/MiniSocial.sol\":3656:3663  _postId */\n      dup3\n        /* \"contracts/MiniSocial.sol\":3650:3664  posts[_postId] */\n      dup2\n      sload\n      dup2\n      lt\n      tag_269\n      jumpi\n      tag_270\n      tag_66\n      jump\t// in\n    tag_270:\n    tag_269:\n      swap1\n      0x00\n      mstore\n      keccak256(0x00, 0x20)\n      swap1\n      0x0c\n      mul\n      add\n        /* \"contracts/MiniSocial.sol\":3650:3672  posts[_postId].likedBy */\n      0x06\n      add\n        /* \"contracts/MiniSocial.sol\":3678:3688  msg.sender */\n      caller\n        /* \"contracts/MiniSocial.sol\":3650:3689  posts[_postId].likedBy.push(msg.sender) */\n      swap1\n      dup1\n      0x01\n      dup2\n      sload\n      add\n      dup1\n      dup3\n      sstore\n      dup1\n      swap2\n      pop\n      pop\n      0x01\n      swap1\n      sub\n      swap1\n      0x00\n      mstore\n      keccak256(0x00, 0x20)\n      add\n      0x00\n      swap1\n      swap2\n      swap1\n      swap2\n      swap1\n      swap2\n      0x0100\n      exp\n      dup2\n      sload\n      dup2\n      0xffffffffffffffffffffffffffffffffffffffff\n      mul\n      not\n      and\n      swap1\n      dup4\n      0xffffffffffffffffffffffffffffffffffffffff\n      and\n      mul\n      or\n      swap1\n      sstore\n      pop\n        /* \"contracts/MiniSocial.sol\":3727:3737  msg.sender */\n      caller\n        /* \"contracts/MiniSocial.sol\":3708:3738  PostLiked(_postId, msg.sender) */\n      0xffffffffffffffffffffffffffffffffffffffff\n      and\n        /* \"contracts/MiniSocial.sol\":3718:3725  _postId */\n      dup3\n        /* \"contracts/MiniSocial.sol\":3708:3738  PostLiked(_postId, msg.sender) */\n      0xcf765d6f163c9b0d832e2a94f4c8e9bffd32a2c3ca5fdbb8cc67b5fe1441f413\n      mload(0x40)\n      mload(0x40)\n      dup1\n      swap2\n      sub\n      swap1\n      log3\n        /* \"contracts/MiniSocial.sol\":3507:4274  if (!postLikes[_postId][msg.sender]) {... */\n      jump(tag_273)\n    tag_264:\n        /* \"contracts/MiniSocial.sol\":3802:3807  false */\n      0x00\n        /* \"contracts/MiniSocial.sol\":3769:3778  postLikes */\n      0x01\n        /* \"contracts/MiniSocial.sol\":3769:3787  postLikes[_postId] */\n      0x00\n        /* \"contracts/MiniSocial.sol\":3779:3786  _postId */\n      dup5\n        /* \"contracts/MiniSocial.sol\":3769:3787  postLikes[_postId] */\n      dup2\n      mstore\n      0x20\n      add\n      swap1\n      dup2\n      mstore\n      0x20\n      add\n      0x00\n      keccak256\n        /* \"contracts/MiniSocial.sol\":3769:3799  postLikes[_postId][msg.sender] */\n      0x00\n        /* \"contracts/MiniSocial.sol\":3788:3798  msg.sender */\n      caller\n        /* \"contracts/MiniSocial.sol\":3769:3799  postLikes[_postId][msg.sender] */\n      0xffffffffffffffffffffffffffffffffffffffff\n      and\n      0xffffffffffffffffffffffffffffffffffffffff\n      and\n      dup2\n      mstore\n      0x20\n      add\n      swap1\n      dup2\n      mstore\n      0x20\n      add\n      0x00\n      keccak256\n      0x00\n        /* \"contracts/MiniSocial.sol\":3769:3807  postLikes[_postId][msg.sender] = false */\n      0x0100\n      exp\n      dup2\n      sload\n      dup2\n      0xff\n      mul\n      not\n      and\n      swap1\n      dup4\n      iszero\n      iszero\n      mul\n      or\n      swap1\n      sstore\n      pop\n        /* \"contracts/MiniSocial.sol\":3821:3826  posts */\n      0x00\n        /* \"contracts/MiniSocial.sol\":3827:3834  _postId */\n      dup3\n        /* \"contracts/MiniSocial.sol\":3821:3835  posts[_postId] */\n      dup2\n      sload\n      dup2\n      lt\n      tag_274\n      jumpi\n      tag_275\n      tag_66\n      jump\t// in\n    tag_275:\n    tag_274:\n      swap1\n      0x00\n      mstore\n      keccak256(0x00, 0x20)\n      swap1\n      0x0c\n      mul\n      add\n        /* \"contracts/MiniSocial.sol\":3821:3846  posts[_postId].likesCount */\n      0x05\n      add\n      0x00\n        /* \"contracts/MiniSocial.sol\":3821:3848  posts[_postId].likesCount-- */\n      dup2\n      sload\n      dup1\n      swap3\n      swap2\n      swap1\n      tag_277\n      swap1\n      tag_82\n      jump\t// in\n    tag_277:\n      swap2\n      swap1\n      pop\n      sstore\n      pop\n        /* \"contracts/MiniSocial.sol\":3868:3874  uint i */\n      0x00\n        /* \"contracts/MiniSocial.sol\":3863:4200  for (uint i = 0; i < posts[_postId].likedBy.length; i++) {... */\n    tag_278:\n        /* \"contracts/MiniSocial.sol\":3884:3889  posts */\n      0x00\n        /* \"contracts/MiniSocial.sol\":3890:3897  _postId */\n      dup4\n        /* \"contracts/MiniSocial.sol\":3884:3898  posts[_postId] */\n      dup2\n      sload\n      dup2\n      lt\n      tag_281\n      jumpi\n      tag_282\n      tag_66\n      jump\t// in\n    tag_282:\n    tag_281:\n      swap1\n      0x00\n      mstore\n      keccak256(0x00, 0x20)\n      swap1\n      0x0c\n      mul\n      add\n        /* \"contracts/MiniSocial.sol\":3884:3906  posts[_postId].likedBy */\n      0x06\n      add\n        /* \"contracts/MiniSocial.sol\":3884:3913  posts[_postId].likedBy.length */\n      dup1\n      sload\n      swap1\n      pop\n        /* \"contracts/MiniSocial.sol\":3880:3881  i */\n      dup2\n        /* \"contracts/MiniSocial.sol\":3880:3913  i < posts[_postId].likedBy.length */\n      lt\n        /* \"contracts/MiniSocial.sol\":3863:4200  for (uint i = 0; i < posts[_postId].likedBy.length; i++) {... */\n      iszero\n      tag_279\n      jumpi\n        /* \"contracts/MiniSocial.sol\":3971:3981  msg.sender */\n      caller\n        /* \"contracts/MiniSocial.sol\":3942:3981  posts[_postId].likedBy[i] == msg.sender */\n      0xffffffffffffffffffffffffffffffffffffffff\n      and\n        /* \"contracts/MiniSocial.sol\":3942:3947  posts */\n      0x00\n        /* \"contracts/MiniSocial.sol\":3948:3955  _postId */\n      dup5\n        /* \"contracts/MiniSocial.sol\":3942:3956  posts[_postId] */\n      dup2\n      sload\n      dup2\n      lt\n      tag_284\n      jumpi\n      tag_285\n      tag_66\n      jump\t// in\n    tag_285:\n    tag_284:\n      swap1\n      0x00\n      mstore\n      keccak256(0x00, 0x20)\n      swap1\n      0x0c\n      mul\n      add\n        /* \"contracts/MiniSocial.sol\":3942:3964  posts[_postId].likedBy */\n      0x06\n      add\n        /* \"contracts/MiniSocial.sol\":3965:3966  i */\n      dup3\n        /* \"contracts/MiniSocial.sol\":3942:3967  posts[_postId].likedBy[i] */\n      dup2\n      sload\n      dup2\n      lt\n      tag_287\n      jumpi\n      tag_288\n      tag_66\n      jump\t// in\n    tag_288:\n    tag_287:\n      swap1\n      0x00\n      mstore\n      keccak256(0x00, 0x20)\n      add\n      0x00\n      swap1\n      sload\n      swap1\n      0x0100\n      exp\n      swap1\n      div\n      0xffffffffffffffffffffffffffffffffffffffff\n      and\n        /* \"contracts/MiniSocial.sol\":3942:3981  posts[_postId].likedBy[i] == msg.sender */\n      0xffffffffffffffffffffffffffffffffffffffff\n      and\n      sub\n        /* \"contracts/MiniSocial.sol\":3938:4186  if (posts[_postId].likedBy[i] == msg.sender) {... */\n      tag_290\n      jumpi\n        /* \"contracts/MiniSocial.sol\":4033:4038  posts */\n      0x00\n        /* \"contracts/MiniSocial.sol\":4039:4046  _postId */\n      dup4\n        /* \"contracts/MiniSocial.sol\":4033:4047  posts[_postId] */\n      dup2\n      sload\n      dup2\n      lt\n      tag_291\n      jumpi\n      tag_292\n      tag_66\n      jump\t// in\n    tag_292:\n    tag_291:\n      swap1\n      0x00\n      mstore\n      keccak256(0x00, 0x20)\n      swap1\n      0x0c\n      mul\n      add\n        /* \"contracts/MiniSocial.sol\":4033:4055  posts[_postId].likedBy */\n      0x06\n      add\n        /* \"contracts/MiniSocial.sol\":4088:4089  1 */\n      0x01\n        /* \"contracts/MiniSocial.sol\":4056:4061  posts */\n      0x00\n        /* \"contracts/MiniSocial.sol\":4062:4069  _postId */\n      dup6\n        /* \"contracts/MiniSocial.sol\":4056:4070  posts[_postId] */\n      dup2\n      sload\n      dup2\n      lt\n      tag_294\n      jumpi\n      tag_295\n      tag_66\n      jump\t// in\n    tag_295:\n    tag_294:\n      swap1\n      0x00\n      mstore\n      keccak256(0x00, 0x20)\n      swap1\n      0x0c\n      mul\n      add\n        /* \"contracts/MiniSocial.sol\":4056:4078  posts[_postId].likedBy */\n      0x06\n      add\n        /* \"contracts/MiniSocial.sol\":4056:4085  posts[_postId].likedBy.length */\n      dup1\n      sload\n      swap1\n      pop\n        /* \"contracts/MiniSocial.sol\":4056:4089  posts[_postId].likedBy.length - 1 */\n      tag_297\n      swap2\n      swap1\n      tag_298\n      jump\t// in\n    tag_297:\n        /* \"contracts/MiniSocial.sol\":4033:4090  posts[_postId].likedBy[posts[_postId].likedBy.length - 1] */\n      dup2\n      sload\n      dup2\n      lt\n      tag_299\n      jumpi\n      tag_300\n      tag_66\n      jump\t// in\n    tag_300:\n    tag_299:\n      swap1\n      0x00\n      mstore\n      keccak256(0x00, 0x20)\n      add\n      0x00\n      swap1\n      sload\n      swap1\n      0x0100\n      exp\n      swap1\n      div\n      0xffffffffffffffffffffffffffffffffffffffff\n      and\n        /* \"contracts/MiniSocial.sol\":4005:4010  posts */\n      0x00\n        /* \"contracts/MiniSocial.sol\":4011:4018  _postId */\n      dup5\n        /* \"contracts/MiniSocial.sol\":4005:4019  posts[_postId] */\n      dup2\n      sload\n      dup2\n      lt\n      tag_302\n      jumpi\n      tag_303\n      tag_66\n      jump\t// in\n    tag_303:\n    tag_302:\n      swap1\n      0x00\n      mstore\n      keccak256(0x00, 0x20)\n      swap1\n      0x0c\n      mul\n      add\n        /* \"contracts/MiniSocial.sol\":4005:4027  posts[_postId].likedBy */\n      0x06\n      add\n        /* \"contracts/MiniSocial.sol\":4028:4029  i */\n      dup3\n        /* \"contracts/MiniSocial.sol\":4005:4030  posts[_postId].likedBy[i] */\n      dup2\n      sload\n      dup2\n      lt\n      tag_305\n      jumpi\n      tag_306\n      tag_66\n      jump\t// in\n    tag_306:\n    tag_305:\n      swap1\n      0x00\n      mstore\n      keccak256(0x00, 0x20)\n      add\n      0x00\n        /* \"contracts/MiniSocial.sol\":4005:4090  posts[_postId].likedBy[i] = posts[_postId].likedBy[posts[_postId].likedBy.length - 1] */\n      0x0100\n      exp\n      dup2\n      sload\n      dup2\n      0xffffffffffffffffffffffffffffffffffffffff\n      mul\n      not\n      and\n      swap1\n      dup4\n      0xffffffffffffffffffffffffffffffffffffffff\n      and\n      mul\n      or\n      swap1\n      sstore\n      pop\n        /* \"contracts/MiniSocial.sol\":4112:4117  posts */\n      0x00\n        /* \"contracts/MiniSocial.sol\":4118:4125  _postId */\n      dup4\n        /* \"contracts/MiniSocial.sol\":4112:4126  posts[_postId] */\n      dup2\n      sload\n      dup2\n      lt\n      tag_308\n      jumpi\n      tag_309\n      tag_66\n      jump\t// in\n    tag_309:\n    tag_308:\n      swap1\n      0x00\n      mstore\n      keccak256(0x00, 0x20)\n      swap1\n      0x0c\n      mul\n      add\n        /* \"contracts/MiniSocial.sol\":4112:4134  posts[_postId].likedBy */\n      0x06\n      add\n        /* \"contracts/MiniSocial.sol\":4112:4140  posts[_postId].likedBy.pop() */\n      dup1\n      sload\n      dup1\n      tag_311\n      jumpi\n      tag_312\n      tag_313\n      jump\t// in\n    tag_312:\n    tag_311:\n      0x01\n      swap1\n      sub\n      dup2\n      dup2\n      swap1\n      0x00\n      mstore\n      keccak256(0x00, 0x20)\n      add\n      exp(0x0100, 0x00)\n      dup2\n      sload\n      swap1\n      0xffffffffffffffffffffffffffffffffffffffff\n      mul\n      not\n      and\n      swap1\n      sstore\n      swap1\n      sstore\n        /* \"contracts/MiniSocial.sol\":4162:4167  break */\n      jump(tag_279)\n        /* \"contracts/MiniSocial.sol\":3938:4186  if (posts[_postId].likedBy[i] == msg.sender) {... */\n    tag_290:\n        /* \"contracts/MiniSocial.sol\":3915:3918  i++ */\n      dup1\n      dup1\n      0x01\n      add\n      swap2\n      pop\n      pop\n        /* \"contracts/MiniSocial.sol\":3863:4200  for (uint i = 0; i < posts[_postId].likedBy.length; i++) {... */\n      jump(tag_278)\n    tag_279:\n      pop\n        /* \"contracts/MiniSocial.sol\":4252:4262  msg.sender */\n      caller\n        /* \"contracts/MiniSocial.sol\":4231:4263  PostUnliked(_postId, msg.sender) */\n      0xffffffffffffffffffffffffffffffffffffffff\n      and\n        /* \"contracts/MiniSocial.sol\":4243:4250  _postId */\n      dup3\n        /* \"contracts/MiniSocial.sol\":4231:4263  PostUnliked(_postId, msg.sender) */\n      0x82092d1196022c48d901e5dc4b17451dbce942b8a9ded42fc6f2a4a5e8fd89b9\n      mload(0x40)\n      mload(0x40)\n      dup1\n      swap2\n      sub\n      swap1\n      log3\n        /* \"contracts/MiniSocial.sol\":3507:4274  if (!postLikes[_postId][msg.sender]) {... */\n    tag_273:\n        /* \"contracts/MiniSocial.sol\":3324:4280  function toggleLike(uint256 _postId) public postExists(_postId) {... */\n      pop\n      pop\n      jump\t// out\n        /* \"contracts/MiniSocial.sol\":7290:7385  function getTotalPosts() public view returns (uint256) {... */\n    tag_41:\n        /* \"contracts/MiniSocial.sol\":7336:7343  uint256 */\n      0x00\n        /* \"contracts/MiniSocial.sol\":7362:7378  activePostsCount */\n      sload(0x03)\n        /* \"contracts/MiniSocial.sol\":7355:7378  return activePostsCount */\n      swap1\n      pop\n        /* \"contracts/MiniSocial.sol\":7290:7385  function getTotalPosts() public view returns (uint256) {... */\n      swap1\n      jump\t// out\n        /* \"contracts/MiniSocial.sol\":816:841  uint256 public totalPosts */\n    tag_44:\n      sload(0x02)\n      dup2\n      jump\t// out\n        /* \"contracts/MiniSocial.sol\":7443:7589  function hasLiked(uint256 _postId, address _user) public view postExists(_postId) returns (bool) {... */\n    tag_49:\n        /* \"contracts/MiniSocial.sol\":7534:7538  bool */\n      0x00\n        /* \"contracts/MiniSocial.sol\":7516:7523  _postId */\n      dup3\n        /* \"contracts/MiniSocial.sol\":1370:1375  posts */\n      0x00\n        /* \"contracts/MiniSocial.sol\":1370:1382  posts.length */\n      dup1\n      sload\n      swap1\n      pop\n        /* \"contracts/MiniSocial.sol\":1360:1367  _postId */\n      dup2\n        /* \"contracts/MiniSocial.sol\":1360:1382  _postId < posts.length */\n      lt\n        /* \"contracts/MiniSocial.sol\":1352:1406  require(_postId < posts.length, \"Post does not exist\") */\n      tag_317\n      jumpi\n      mload(0x40)\n      0x08c379a000000000000000000000000000000000000000000000000000000000\n      dup2\n      mstore\n      0x04\n      add\n      tag_318\n      swap1\n      tag_63\n      jump\t// in\n    tag_318:\n      mload(0x40)\n      dup1\n      swap2\n      sub\n      swap1\n      revert\n    tag_317:\n        /* \"contracts/MiniSocial.sol\":1424:1429  posts */\n      0x00\n        /* \"contracts/MiniSocial.sol\":1430:1437  _postId */\n      dup2\n        /* \"contracts/MiniSocial.sol\":1424:1438  posts[_postId] */\n      dup2\n      sload\n      dup2\n      lt\n      tag_319\n      jumpi\n      tag_320\n      tag_66\n      jump\t// in\n    tag_320:\n    tag_319:\n      swap1\n      0x00\n      mstore\n      keccak256(0x00, 0x20)\n      swap1\n      0x0c\n      mul\n      add\n        /* \"contracts/MiniSocial.sol\":1424:1447  posts[_postId].isActive */\n      0x0b\n      add\n      0x00\n      swap1\n      sload\n      swap1\n      0x0100\n      exp\n      swap1\n      div\n      0xff\n      and\n        /* \"contracts/MiniSocial.sol\":1416:1473  require(posts[_postId].isActive, \"Post has been deleted\") */\n      tag_322\n      jumpi\n      mload(0x40)\n      0x08c379a000000000000000000000000000000000000000000000000000000000\n      dup2\n      mstore\n      0x04\n      add\n      tag_323\n      swap1\n      tag_70\n      jump\t// in\n    tag_323:\n      mload(0x40)\n      dup1\n      swap2\n      sub\n      swap1\n      revert\n    tag_322:\n        /* \"contracts/MiniSocial.sol\":7557:7566  postLikes */\n      0x01\n        /* \"contracts/MiniSocial.sol\":7557:7575  postLikes[_postId] */\n      0x00\n        /* \"contracts/MiniSocial.sol\":7567:7574  _postId */\n      dup6\n        /* \"contracts/MiniSocial.sol\":7557:7575  postLikes[_postId] */\n      dup2\n      mstore\n      0x20\n      add\n      swap1\n      dup2\n      mstore\n      0x20\n      add\n      0x00\n      keccak256\n        /* \"contracts/MiniSocial.sol\":7557:7582  postLikes[_postId][_user] */\n      0x00\n        /* \"contracts/MiniSocial.sol\":7576:7581  _user */\n      dup5\n        /* \"contracts/MiniSocial.sol\":7557:7582  postLikes[_postId][_user] */\n      0xffffffffffffffffffffffffffffffffffffffff\n      and\n      0xffffffffffffffffffffffffffffffffffffffff\n      and\n      dup2\n      mstore\n      0x20\n      add\n      swap1\n      dup2\n      mstore\n      0x20\n      add\n      0x00\n      keccak256\n      0x00\n      swap1\n      sload\n      swap1\n      0x0100\n      exp\n      swap1\n      div\n      0xff\n      and\n        /* \"contracts/MiniSocial.sol\":7550:7582  return postLikes[_postId][_user] */\n      swap2\n      pop\n        /* \"contracts/MiniSocial.sol\":7443:7589  function hasLiked(uint256 _postId, address _user) public view postExists(_postId) returns (bool) {... */\n      pop\n      swap3\n      swap2\n      pop\n      pop\n      jump\t// out\n        /* \"contracts/MiniSocial.sol\":2646:3273  function addComment(uint256 _postId, string memory _content) public postExists(_postId) {... */\n    tag_55:\n        /* \"contracts/MiniSocial.sol\":2725:2732  _postId */\n      dup2\n        /* \"contracts/MiniSocial.sol\":1370:1375  posts */\n      0x00\n        /* \"contracts/MiniSocial.sol\":1370:1382  posts.length */\n      dup1\n      sload\n      swap1\n      pop\n        /* \"contracts/MiniSocial.sol\":1360:1367  _postId */\n      dup2\n        /* \"contracts/MiniSocial.sol\":1360:1382  _postId < posts.length */\n      lt\n        /* \"contracts/MiniSocial.sol\":1352:1406  require(_postId < posts.length, \"Post does not exist\") */\n      tag_326\n      jumpi\n      mload(0x40)\n      0x08c379a000000000000000000000000000000000000000000000000000000000\n      dup2\n      mstore\n      0x04\n      add\n      tag_327\n      swap1\n      tag_63\n      jump\t// in\n    tag_327:\n      mload(0x40)\n      dup1\n      swap2\n      sub\n      swap1\n      revert\n    tag_326:\n        /* \"contracts/MiniSocial.sol\":1424:1429  posts */\n      0x00\n        /* \"contracts/MiniSocial.sol\":1430:1437  _postId */\n      dup2\n        /* \"contracts/MiniSocial.sol\":1424:1438  posts[_postId] */\n      dup2\n      sload\n      dup2\n      lt\n      tag_328\n      jumpi\n      tag_329\n      tag_66\n      jump\t// in\n    tag_329:\n    tag_328:\n      swap1\n      0x00\n      mstore\n      keccak256(0x00, 0x20)\n      swap1\n      0x0c\n      mul\n      add\n        /* \"contracts/MiniSocial.sol\":1424:1447  posts[_postId].isActive */\n      0x0b\n      add\n      0x00\n      swap1\n      sload\n      swap1\n      0x0100\n      exp\n      swap1\n      div\n      0xff\n      and\n        /* \"contracts/MiniSocial.sol\":1416:1473  require(posts[_postId].isActive, \"Post has been deleted\") */\n      tag_331\n      jumpi\n      mload(0x40)\n      0x08c379a000000000000000000000000000000000000000000000000000000000\n      dup2\n      mstore\n      0x04\n      add\n      tag_332\n      swap1\n      tag_70\n      jump\t// in\n    tag_332:\n      mload(0x40)\n      dup1\n      swap2\n      sub\n      swap1\n      revert\n    tag_331:\n        /* \"contracts/MiniSocial.sol\":2777:2778  0 */\n      0x00\n        /* \"contracts/MiniSocial.sol\":2758:2766  _content */\n      dup3\n        /* \"contracts/MiniSocial.sol\":2752:2774  bytes(_content).length */\n      mload\n        /* \"contracts/MiniSocial.sol\":2752:2778  bytes(_content).length > 0 */\n      gt\n        /* \"contracts/MiniSocial.sol\":2744:2819  require(bytes(_content).length > 0, \"Le commentaire ne peut pas etre vide\") */\n      tag_334\n      jumpi\n      mload(0x40)\n      0x08c379a000000000000000000000000000000000000000000000000000000000\n      dup2\n      mstore\n      0x04\n      add\n      tag_335\n      swap1\n      tag_336\n      jump\t// in\n    tag_335:\n      mload(0x40)\n      dup1\n      swap2\n      sub\n      swap1\n      revert\n    tag_334:\n        /* \"contracts/MiniSocial.sol\":2863:2866  280 */\n      0x0118\n        /* \"contracts/MiniSocial.sol\":2843:2851  _content */\n      dup3\n        /* \"contracts/MiniSocial.sol\":2837:2859  bytes(_content).length */\n      mload\n        /* \"contracts/MiniSocial.sol\":2837:2866  bytes(_content).length <= 280 */\n      gt\n      iszero\n        /* \"contracts/MiniSocial.sol\":2829:2899  require(bytes(_content).length <= 280, \"Le commentaire est trop long\") */\n      tag_337\n      jumpi\n      mload(0x40)\n      0x08c379a000000000000000000000000000000000000000000000000000000000\n      dup2\n      mstore\n      0x04\n      add\n      tag_338\n      swap1\n      tag_339\n      jump\t// in\n    tag_338:\n      mload(0x40)\n      dup1\n      swap2\n      sub\n      swap1\n      revert\n    tag_337:\n        /* \"contracts/MiniSocial.sol\":2910:2927  Post storage post */\n      0x00\n        /* \"contracts/MiniSocial.sol\":2930:2935  posts */\n      dup1\n        /* \"contracts/MiniSocial.sol\":2936:2943  _postId */\n      dup5\n        /* \"contracts/MiniSocial.sol\":2930:2944  posts[_postId] */\n      dup2\n      sload\n      dup2\n      lt\n      tag_340\n      jumpi\n      tag_341\n      tag_66\n      jump\t// in\n    tag_341:\n    tag_340:\n      swap1\n      0x00\n      mstore\n      keccak256(0x00, 0x20)\n      swap1\n      0x0c\n      mul\n      add\n        /* \"contracts/MiniSocial.sol\":2910:2944  Post storage post = posts[_postId] */\n      swap1\n      pop\n        /* \"contracts/MiniSocial.sol\":2954:2974  uint256 commentIndex */\n      0x00\n        /* \"contracts/MiniSocial.sol\":2977:2981  post */\n      dup2\n        /* \"contracts/MiniSocial.sol\":2977:2994  post.commentCount */\n      0x08\n      add\n      sload\n        /* \"contracts/MiniSocial.sol\":2954:2994  uint256 commentIndex = post.commentCount */\n      swap1\n      pop\n        /* \"contracts/MiniSocial.sol\":3034:3156  Comment({... */\n      mload(0x40)\n      dup1\n      0x60\n      add\n      0x40\n      mstore\n      dup1\n        /* \"contracts/MiniSocial.sol\":3065:3073  _content */\n      dup6\n        /* \"contracts/MiniSocial.sol\":3034:3156  Comment({... */\n      dup2\n      mstore\n      0x20\n      add\n        /* \"contracts/MiniSocial.sol\":3095:3105  msg.sender */\n      caller\n        /* \"contracts/MiniSocial.sol\":3034:3156  Comment({... */\n      0xffffffffffffffffffffffffffffffffffffffff\n      and\n      dup2\n      mstore\n      0x20\n      add\n        /* \"contracts/MiniSocial.sol\":3130:3145  block.timestamp */\n      timestamp\n        /* \"contracts/MiniSocial.sol\":3034:3156  Comment({... */\n      dup2\n      mstore\n      pop\n        /* \"contracts/MiniSocial.sol\":3004:3008  post */\n      dup3\n        /* \"contracts/MiniSocial.sol\":3004:3017  post.comments */\n      0x07\n      add\n        /* \"contracts/MiniSocial.sol\":3004:3031  post.comments[commentIndex] */\n      0x00\n        /* \"contracts/MiniSocial.sol\":3018:3030  commentIndex */\n      dup4\n        /* \"contracts/MiniSocial.sol\":3004:3031  post.comments[commentIndex] */\n      dup2\n      mstore\n      0x20\n      add\n      swap1\n      dup2\n      mstore\n      0x20\n      add\n      0x00\n      keccak256\n        /* \"contracts/MiniSocial.sol\":3004:3156  post.comments[commentIndex] = Comment({... */\n      0x00\n      dup3\n      add\n      mload\n      dup2\n      0x00\n      add\n      swap1\n      dup2\n      tag_343\n      swap2\n      swap1\n      tag_202\n      jump\t// in\n    tag_343:\n      pop\n      0x20\n      dup3\n      add\n      mload\n      dup2\n      0x01\n      add\n      exp(0x0100, 0x00)\n      dup2\n      sload\n      dup2\n      0xffffffffffffffffffffffffffffffffffffffff\n      mul\n      not\n      and\n      swap1\n      dup4\n      0xffffffffffffffffffffffffffffffffffffffff\n      and\n      mul\n      or\n      swap1\n      sstore\n      pop\n      0x40\n      dup3\n      add\n      mload\n      dup2\n      0x02\n      add\n      sstore\n      swap1\n      pop\n      pop\n        /* \"contracts/MiniSocial.sol\":3166:3170  post */\n      dup2\n        /* \"contracts/MiniSocial.sol\":3166:3183  post.commentCount */\n      0x08\n      add\n      0x00\n        /* \"contracts/MiniSocial.sol\":3166:3185  post.commentCount++ */\n      dup2\n      sload\n      dup1\n      swap3\n      swap2\n      swap1\n      tag_344\n      swap1\n      tag_92\n      jump\t// in\n    tag_344:\n      swap2\n      swap1\n      pop\n      sstore\n      pop\n        /* \"contracts/MiniSocial.sol\":3245:3255  msg.sender */\n      caller\n        /* \"contracts/MiniSocial.sol\":3209:3266  CommentAdded(_postId, commentIndex, msg.sender, _content) */\n      0xffffffffffffffffffffffffffffffffffffffff\n      and\n        /* \"contracts/MiniSocial.sol\":3231:3243  commentIndex */\n      dup2\n        /* \"contracts/MiniSocial.sol\":3222:3229  _postId */\n      dup7\n        /* \"contracts/MiniSocial.sol\":3209:3266  CommentAdded(_postId, commentIndex, msg.sender, _content) */\n      0x96d81cac001a263174d42d42cfad470fec9d863bcf6d52ba8b93d47c7ee00de3\n        /* \"contracts/MiniSocial.sol\":3257:3265  _content */\n      dup8\n        /* \"contracts/MiniSocial.sol\":3209:3266  CommentAdded(_postId, commentIndex, msg.sender, _content) */\n      mload(0x40)\n      tag_345\n      swap2\n      swap1\n      tag_346\n      jump\t// in\n    tag_345:\n      mload(0x40)\n      dup1\n      swap2\n      sub\n      swap1\n      log4\n        /* \"contracts/MiniSocial.sol\":2734:3273  {... */\n      pop\n      pop\n        /* \"contracts/MiniSocial.sol\":2646:3273  function addComment(uint256 _postId, string memory _content) public postExists(_postId) {... */\n      pop\n      pop\n      pop\n      jump\t// out\n        /* \"contracts/MiniSocial.sol\":7930:8572  function editPost(uint256 _postId, string memory _newTitle, string memory _newContent) public postExists(_postId) {... */\n    tag_59:\n        /* \"contracts/MiniSocial.sol\":8035:8042  _postId */\n      dup3\n        /* \"contracts/MiniSocial.sol\":1370:1375  posts */\n      0x00\n        /* \"contracts/MiniSocial.sol\":1370:1382  posts.length */\n      dup1\n      sload\n      swap1\n      pop\n        /* \"contracts/MiniSocial.sol\":1360:1367  _postId */\n      dup2\n        /* \"contracts/MiniSocial.sol\":1360:1382  _postId < posts.length */\n      lt\n        /* \"contracts/MiniSocial.sol\":1352:1406  require(_postId < posts.length, \"Post does not exist\") */\n      tag_348\n      jumpi\n      mload(0x40)\n      0x08c379a000000000000000000000000000000000000000000000000000000000\n      dup2\n      mstore\n      0x04\n      add\n      tag_349\n      swap1\n      tag_63\n      jump\t// in\n    tag_349:\n      mload(0x40)\n      dup1\n      swap2\n      sub\n      swap1\n      revert\n    tag_348:\n        /* \"contracts/MiniSocial.sol\":1424:1429  posts */\n      0x00\n        /* \"contracts/MiniSocial.sol\":1430:1437  _postId */\n      dup2\n        /* \"contracts/MiniSocial.sol\":1424:1438  posts[_postId] */\n      dup2\n      sload\n      dup2\n      lt\n      tag_350\n      jumpi\n      tag_351\n      tag_66\n      jump\t// in\n    tag_351:\n    tag_350:\n      swap1\n      0x00\n      mstore\n      keccak256(0x00, 0x20)\n      swap1\n      0x0c\n      mul\n      add\n        /* \"contracts/MiniSocial.sol\":1424:1447  posts[_postId].isActive */\n      0x0b\n      add\n      0x00\n      swap1\n      sload\n      swap1\n      0x0100\n      exp\n      swap1\n      div\n      0xff\n      and\n        /* \"contracts/MiniSocial.sol\":1416:1473  require(posts[_postId].isActive, \"Post has been deleted\") */\n      tag_353\n      jumpi\n      mload(0x40)\n      0x08c379a000000000000000000000000000000000000000000000000000000000\n      dup2\n      mstore\n      0x04\n      add\n      tag_354\n      swap1\n      tag_70\n      jump\t// in\n    tag_354:\n      mload(0x40)\n      dup1\n      swap2\n      sub\n      swap1\n      revert\n    tag_353:\n        /* \"contracts/MiniSocial.sol\":8072:8077  posts */\n      0x00\n        /* \"contracts/MiniSocial.sol\":8078:8085  _postId */\n      dup5\n        /* \"contracts/MiniSocial.sol\":8072:8086  posts[_postId] */\n      dup2\n      sload\n      dup2\n      lt\n      tag_356\n      jumpi\n      tag_357\n      tag_66\n      jump\t// in\n    tag_357:\n    tag_356:\n      swap1\n      0x00\n      mstore\n      keccak256(0x00, 0x20)\n      swap1\n      0x0c\n      mul\n      add\n        /* \"contracts/MiniSocial.sol\":8072:8093  posts[_postId].author */\n      0x03\n      add\n      0x00\n      swap1\n      sload\n      swap1\n      0x0100\n      exp\n      swap1\n      div\n      0xffffffffffffffffffffffffffffffffffffffff\n      and\n        /* \"contracts/MiniSocial.sol\":8058:8093  msg.sender == posts[_postId].author */\n      0xffffffffffffffffffffffffffffffffffffffff\n      and\n        /* \"contracts/MiniSocial.sol\":8058:8068  msg.sender */\n      caller\n        /* \"contracts/MiniSocial.sol\":8058:8093  msg.sender == posts[_postId].author */\n      0xffffffffffffffffffffffffffffffffffffffff\n      and\n      eq\n        /* \"contracts/MiniSocial.sol\":8050:8132  require(msg.sender == posts[_postId].author, \"Only the author can edit this post\") */\n      tag_359\n      jumpi\n      mload(0x40)\n      0x08c379a000000000000000000000000000000000000000000000000000000000\n      dup2\n      mstore\n      0x04\n      add\n      tag_360\n      swap1\n      tag_361\n      jump\t// in\n    tag_360:\n      mload(0x40)\n      dup1\n      swap2\n      sub\n      swap1\n      revert\n    tag_359:\n        /* \"contracts/MiniSocial.sol\":8172:8173  0 */\n      0x00\n        /* \"contracts/MiniSocial.sol\":8152:8161  _newTitle */\n      dup4\n        /* \"contracts/MiniSocial.sol\":8146:8169  bytes(_newTitle).length */\n      mload\n        /* \"contracts/MiniSocial.sol\":8146:8173  bytes(_newTitle).length > 0 */\n      gt\n        /* \"contracts/MiniSocial.sol\":8138:8199  require(bytes(_newTitle).length > 0, \"Title cannot be empty\") */\n      tag_362\n      jumpi\n      mload(0x40)\n      0x08c379a000000000000000000000000000000000000000000000000000000000\n      dup2\n      mstore\n      0x04\n      add\n      tag_363\n      swap1\n      tag_190\n      jump\t// in\n    tag_363:\n      mload(0x40)\n      dup1\n      swap2\n      sub\n      swap1\n      revert\n    tag_362:\n        /* \"contracts/MiniSocial.sol\":8241:8242  0 */\n      0x00\n        /* \"contracts/MiniSocial.sol\":8219:8230  _newContent */\n      dup3\n        /* \"contracts/MiniSocial.sol\":8213:8238  bytes(_newContent).length */\n      mload\n        /* \"contracts/MiniSocial.sol\":8213:8242  bytes(_newContent).length > 0 */\n      gt\n        /* \"contracts/MiniSocial.sol\":8205:8270  require(bytes(_newContent).length > 0, \"Content cannot be empty\") */\n      tag_364\n      jumpi\n      mload(0x40)\n      0x08c379a000000000000000000000000000000000000000000000000000000000\n      dup2\n      mstore\n      0x04\n      add\n      tag_365\n      swap1\n      tag_196\n      jump\t// in\n    tag_365:\n      mload(0x40)\n      dup1\n      swap2\n      sub\n      swap1\n      revert\n    tag_364:\n        /* \"contracts/MiniSocial.sol\":8311:8314  100 */\n      0x64\n        /* \"contracts/MiniSocial.sol\":8290:8299  _newTitle */\n      dup4\n        /* \"contracts/MiniSocial.sol\":8284:8307  bytes(_newTitle).length */\n      mload\n        /* \"contracts/MiniSocial.sol\":8284:8314  bytes(_newTitle).length <= 100 */\n      gt\n      iszero\n        /* \"contracts/MiniSocial.sol\":8276:8333  require(bytes(_newTitle).length <= 100, \"Title too long\") */\n      tag_366\n      jumpi\n      mload(0x40)\n      0x08c379a000000000000000000000000000000000000000000000000000000000\n      dup2\n      mstore\n      0x04\n      add\n      tag_367\n      swap1\n      tag_193\n      jump\t// in\n    tag_367:\n      mload(0x40)\n      dup1\n      swap2\n      sub\n      swap1\n      revert\n    tag_366:\n        /* \"contracts/MiniSocial.sol\":8376:8380  5000 */\n      0x1388\n        /* \"contracts/MiniSocial.sol\":8353:8364  _newContent */\n      dup3\n        /* \"contracts/MiniSocial.sol\":8347:8372  bytes(_newContent).length */\n      mload\n        /* \"contracts/MiniSocial.sol\":8347:8380  bytes(_newContent).length <= 5000 */\n      gt\n      iszero\n        /* \"contracts/MiniSocial.sol\":8339:8401  require(bytes(_newContent).length <= 5000, \"Content too long\") */\n      tag_368\n      jumpi\n      mload(0x40)\n      0x08c379a000000000000000000000000000000000000000000000000000000000\n      dup2\n      mstore\n      0x04\n      add\n      tag_369\n      swap1\n      tag_199\n      jump\t// in\n    tag_369:\n      mload(0x40)\n      dup1\n      swap2\n      sub\n      swap1\n      revert\n    tag_368:\n        /* \"contracts/MiniSocial.sol\":8408:8425  Post storage post */\n      0x00\n        /* \"contracts/MiniSocial.sol\":8428:8433  posts */\n      dup1\n        /* \"contracts/MiniSocial.sol\":8434:8441  _postId */\n      dup6\n        /* \"contracts/MiniSocial.sol\":8428:8442  posts[_postId] */\n      dup2\n      sload\n      dup2\n      lt\n      tag_370\n      jumpi\n      tag_371\n      tag_66\n      jump\t// in\n    tag_371:\n    tag_370:\n      swap1\n      0x00\n      mstore\n      keccak256(0x00, 0x20)\n      swap1\n      0x0c\n      mul\n      add\n        /* \"contracts/MiniSocial.sol\":8408:8442  Post storage post = posts[_postId] */\n      swap1\n      pop\n        /* \"contracts/MiniSocial.sol\":8461:8470  _newTitle */\n      dup4\n        /* \"contracts/MiniSocial.sol\":8448:8452  post */\n      dup2\n        /* \"contracts/MiniSocial.sol\":8448:8458  post.title */\n      0x01\n      add\n        /* \"contracts/MiniSocial.sol\":8448:8470  post.title = _newTitle */\n      swap1\n      dup2\n      tag_373\n      swap2\n      swap1\n      tag_202\n      jump\t// in\n    tag_373:\n      pop\n        /* \"contracts/MiniSocial.sol\":8491:8502  _newContent */\n      dup3\n        /* \"contracts/MiniSocial.sol\":8476:8480  post */\n      dup2\n        /* \"contracts/MiniSocial.sol\":8476:8488  post.content */\n      0x02\n      add\n        /* \"contracts/MiniSocial.sol\":8476:8502  post.content = _newContent */\n      swap1\n      dup2\n      tag_374\n      swap2\n      swap1\n      tag_202\n      jump\t// in\n    tag_374:\n      pop\n        /* \"contracts/MiniSocial.sol\":8524:8528  true */\n      0x01\n        /* \"contracts/MiniSocial.sol\":8508:8512  post */\n      dup2\n        /* \"contracts/MiniSocial.sol\":8508:8521  post.isEdited */\n      0x09\n      add\n      0x00\n        /* \"contracts/MiniSocial.sol\":8508:8528  post.isEdited = true */\n      0x0100\n      exp\n      dup2\n      sload\n      dup2\n      0xff\n      mul\n      not\n      and\n      swap1\n      dup4\n      iszero\n      iszero\n      mul\n      or\n      swap1\n      sstore\n      pop\n        /* \"contracts/MiniSocial.sol\":8554:8569  block.timestamp */\n      timestamp\n        /* \"contracts/MiniSocial.sol\":8534:8538  post */\n      dup2\n        /* \"contracts/MiniSocial.sol\":8534:8551  post.lastEditTime */\n      0x0a\n      add\n        /* \"contracts/MiniSocial.sol\":8534:8569  post.lastEditTime = block.timestamp */\n      dup2\n      swap1\n      sstore\n      pop\n        /* \"contracts/MiniSocial.sol\":8044:8572  {... */\n      pop\n        /* \"contracts/MiniSocial.sol\":7930:8572  function editPost(uint256 _postId, string memory _newTitle, string memory _newContent) public postExists(_postId) {... */\n      pop\n      pop\n      pop\n      pop\n      jump\t// out\n    tag_225:\n      mload(0x40)\n      dup1\n      0x60\n      add\n      0x40\n      mstore\n      dup1\n      0x60\n      dup2\n      mstore\n      0x20\n      add\n      and(0xffffffffffffffffffffffffffffffffffffffff, 0x00)\n      dup2\n      mstore\n      0x20\n      add\n      0x00\n      dup2\n      mstore\n      pop\n      swap1\n      jump\t// out\n        /* \"#utility.yul\":7:82   */\n    tag_375:\n        /* \"#utility.yul\":40:46   */\n      0x00\n        /* \"#utility.yul\":73:75   */\n      0x40\n        /* \"#utility.yul\":67:76   */\n      mload\n        /* \"#utility.yul\":57:76   */\n      swap1\n      pop\n        /* \"#utility.yul\":7:82   */\n      swap1\n      jump\t// out\n        /* \"#utility.yul\":88:205   */\n    tag_376:\n        /* \"#utility.yul\":197:198   */\n      0x00\n        /* \"#utility.yul\":194:195   */\n      dup1\n        /* \"#utility.yul\":187:199   */\n      revert\n        /* \"#utility.yul\":211:328   */\n    tag_377:\n        /* \"#utility.yul\":320:321   */\n      0x00\n        /* \"#utility.yul\":317:318   */\n      dup1\n        /* \"#utility.yul\":310:322   */\n      revert\n        /* \"#utility.yul\":334:411   */\n    tag_378:\n        /* \"#utility.yul\":371:378   */\n      0x00\n        /* \"#utility.yul\":400:405   */\n      dup2\n        /* \"#utility.yul\":389:405   */\n      swap1\n      pop\n        /* \"#utility.yul\":334:411   */\n      swap2\n      swap1\n      pop\n      jump\t// out\n        /* \"#utility.yul\":417:539   */\n    tag_379:\n        /* \"#utility.yul\":490:514   */\n      tag_483\n        /* \"#utility.yul\":508:513   */\n      dup2\n        /* \"#utility.yul\":490:514   */\n      tag_378\n      jump\t// in\n    tag_483:\n        /* \"#utility.yul\":483:488   */\n      dup2\n        /* \"#utility.yul\":480:515   */\n      eq\n        /* \"#utility.yul\":470:533   */\n      tag_484\n      jumpi\n        /* \"#utility.yul\":529:530   */\n      0x00\n        /* \"#utility.yul\":526:527   */\n      dup1\n        /* \"#utility.yul\":519:531   */\n      revert\n        /* \"#utility.yul\":470:533   */\n    tag_484:\n        /* \"#utility.yul\":417:539   */\n      pop\n      jump\t// out\n        /* \"#utility.yul\":545:684   */\n    tag_380:\n        /* \"#utility.yul\":591:596   */\n      0x00\n        /* \"#utility.yul\":629:635   */\n      dup2\n        /* \"#utility.yul\":616:636   */\n      calldataload\n        /* \"#utility.yul\":607:636   */\n      swap1\n      pop\n        /* \"#utility.yul\":645:678   */\n      tag_486\n        /* \"#utility.yul\":672:677   */\n      dup2\n        /* \"#utility.yul\":645:678   */\n      tag_379\n      jump\t// in\n    tag_486:\n        /* \"#utility.yul\":545:684   */\n      swap3\n      swap2\n      pop\n      pop\n      jump\t// out\n        /* \"#utility.yul\":690:1019   */\n    tag_17:\n        /* \"#utility.yul\":749:755   */\n      0x00\n        /* \"#utility.yul\":798:800   */\n      0x20\n        /* \"#utility.yul\":786:795   */\n      dup3\n        /* \"#utility.yul\":777:784   */\n      dup5\n        /* \"#utility.yul\":773:796   */\n      sub\n        /* \"#utility.yul\":769:801   */\n      slt\n        /* \"#utility.yul\":766:885   */\n      iszero\n      tag_488\n      jumpi\n        /* \"#utility.yul\":804:883   */\n      tag_489\n      tag_376\n      jump\t// in\n    tag_489:\n        /* \"#utility.yul\":766:885   */\n    tag_488:\n        /* \"#utility.yul\":924:925   */\n      0x00\n        /* \"#utility.yul\":949:1002   */\n      tag_490\n        /* \"#utility.yul\":994:1001   */\n      dup5\n        /* \"#utility.yul\":985:991   */\n      dup3\n        /* \"#utility.yul\":974:983   */\n      dup6\n        /* \"#utility.yul\":970:992   */\n      add\n        /* \"#utility.yul\":949:1002   */\n      tag_380\n      jump\t// in\n    tag_490:\n        /* \"#utility.yul\":939:1002   */\n      swap2\n      pop\n        /* \"#utility.yul\":895:1012   */\n      pop\n        /* \"#utility.yul\":690:1019   */\n      swap3\n      swap2\n      pop\n      pop\n      jump\t// out\n        /* \"#utility.yul\":1025:1143   */\n    tag_381:\n        /* \"#utility.yul\":1112:1136   */\n      tag_492\n        /* \"#utility.yul\":1130:1135   */\n      dup2\n        /* \"#utility.yul\":1112:1136   */\n      tag_378\n      jump\t// in\n    tag_492:\n        /* \"#utility.yul\":1107:1110   */\n      dup3\n        /* \"#utility.yul\":1100:1137   */\n      mstore\n        /* \"#utility.yul\":1025:1143   */\n      pop\n      pop\n      jump\t// out\n        /* \"#utility.yul\":1149:1371   */\n    tag_22:\n        /* \"#utility.yul\":1242:1246   */\n      0x00\n        /* \"#utility.yul\":1280:1282   */\n      0x20\n        /* \"#utility.yul\":1269:1278   */\n      dup3\n        /* \"#utility.yul\":1265:1283   */\n      add\n        /* \"#utility.yul\":1257:1283   */\n      swap1\n      pop\n        /* \"#utility.yul\":1293:1364   */\n      tag_494\n        /* \"#utility.yul\":1361:1362   */\n      0x00\n        /* \"#utility.yul\":1350:1359   */\n      dup4\n        /* \"#utility.yul\":1346:1363   */\n      add\n        /* \"#utility.yul\":1337:1343   */\n      dup5\n        /* \"#utility.yul\":1293:1364   */\n      tag_381\n      jump\t// in\n    tag_494:\n        /* \"#utility.yul\":1149:1371   */\n      swap3\n      swap2\n      pop\n      pop\n      jump\t// out\n        /* \"#utility.yul\":1377:1491   */\n    tag_382:\n        /* \"#utility.yul\":1444:1450   */\n      0x00\n        /* \"#utility.yul\":1478:1483   */\n      dup2\n        /* \"#utility.yul\":1472:1484   */\n      mload\n        /* \"#utility.yul\":1462:1484   */\n      swap1\n      pop\n        /* \"#utility.yul\":1377:1491   */\n      swap2\n      swap1\n      pop\n      jump\t// out\n        /* \"#utility.yul\":1497:1681   */\n    tag_383:\n        /* \"#utility.yul\":1596:1607   */\n      0x00\n        /* \"#utility.yul\":1630:1636   */\n      dup3\n        /* \"#utility.yul\":1625:1628   */\n      dup3\n        /* \"#utility.yul\":1618:1637   */\n      mstore\n        /* \"#utility.yul\":1670:1674   */\n      0x20\n        /* \"#utility.yul\":1665:1668   */\n      dup3\n        /* \"#utility.yul\":1661:1675   */\n      add\n        /* \"#utility.yul\":1646:1675   */\n      swap1\n      pop\n        /* \"#utility.yul\":1497:1681   */\n      swap3\n      swap2\n      pop\n      pop\n      jump\t// out\n        /* \"#utility.yul\":1687:1819   */\n    tag_384:\n        /* \"#utility.yul\":1754:1758   */\n      0x00\n        /* \"#utility.yul\":1777:1780   */\n      dup2\n        /* \"#utility.yul\":1769:1780   */\n      swap1\n      pop\n        /* \"#utility.yul\":1807:1811   */\n      0x20\n        /* \"#utility.yul\":1802:1805   */\n      dup3\n        /* \"#utility.yul\":1798:1812   */\n      add\n        /* \"#utility.yul\":1790:1812   */\n      swap1\n      pop\n        /* \"#utility.yul\":1687:1819   */\n      swap2\n      swap1\n      pop\n      jump\t// out\n        /* \"#utility.yul\":1825:1933   */\n    tag_385:\n        /* \"#utility.yul\":1902:1926   */\n      tag_499\n        /* \"#utility.yul\":1920:1925   */\n      dup2\n        /* \"#utility.yul\":1902:1926   */\n      tag_378\n      jump\t// in\n    tag_499:\n        /* \"#utility.yul\":1897:1900   */\n      dup3\n        /* \"#utility.yul\":1890:1927   */\n      mstore\n        /* \"#utility.yul\":1825:1933   */\n      pop\n      pop\n      jump\t// out\n        /* \"#utility.yul\":1939:2118   */\n    tag_386:\n        /* \"#utility.yul\":2008:2018   */\n      0x00\n        /* \"#utility.yul\":2029:2075   */\n      tag_501\n        /* \"#utility.yul\":2071:2074   */\n      dup4\n        /* \"#utility.yul\":2063:2069   */\n      dup4\n        /* \"#utility.yul\":2029:2075   */\n      tag_385\n      jump\t// in\n    tag_501:\n        /* \"#utility.yul\":2107:2111   */\n      0x20\n        /* \"#utility.yul\":2102:2105   */\n      dup4\n        /* \"#utility.yul\":2098:2112   */\n      add\n        /* \"#utility.yul\":2084:2112   */\n      swap1\n      pop\n        /* \"#utility.yul\":1939:2118   */\n      swap3\n      swap2\n      pop\n      pop\n      jump\t// out\n        /* \"#utility.yul\":2124:2237   */\n    tag_387:\n        /* \"#utility.yul\":2194:2198   */\n      0x00\n        /* \"#utility.yul\":2226:2230   */\n      0x20\n        /* \"#utility.yul\":2221:2224   */\n      dup3\n        /* \"#utility.yul\":2217:2231   */\n      add\n        /* \"#utility.yul\":2209:2231   */\n      swap1\n      pop\n        /* \"#utility.yul\":2124:2237   */\n      swap2\n      swap1\n      pop\n      jump\t// out\n        /* \"#utility.yul\":2273:3005   */\n    tag_388:\n        /* \"#utility.yul\":2392:2395   */\n      0x00\n        /* \"#utility.yul\":2421:2475   */\n      tag_504\n        /* \"#utility.yul\":2469:2474   */\n      dup3\n        /* \"#utility.yul\":2421:2475   */\n      tag_382\n      jump\t// in\n    tag_504:\n        /* \"#utility.yul\":2491:2577   */\n      tag_505\n        /* \"#utility.yul\":2570:2576   */\n      dup2\n        /* \"#utility.yul\":2565:2568   */\n      dup6\n        /* \"#utility.yul\":2491:2577   */\n      tag_383\n      jump\t// in\n    tag_505:\n        /* \"#utility.yul\":2484:2577   */\n      swap4\n      pop\n        /* \"#utility.yul\":2601:2657   */\n      tag_506\n        /* \"#utility.yul\":2651:2656   */\n      dup4\n        /* \"#utility.yul\":2601:2657   */\n      tag_384\n      jump\t// in\n    tag_506:\n        /* \"#utility.yul\":2680:2687   */\n      dup1\n        /* \"#utility.yul\":2711:2712   */\n      0x00\n        /* \"#utility.yul\":2696:2980   */\n    tag_507:\n        /* \"#utility.yul\":2721:2727   */\n      dup4\n        /* \"#utility.yul\":2718:2719   */\n      dup2\n        /* \"#utility.yul\":2715:2728   */\n      lt\n        /* \"#utility.yul\":2696:2980   */\n      iszero\n      tag_509\n      jumpi\n        /* \"#utility.yul\":2797:2803   */\n      dup2\n        /* \"#utility.yul\":2791:2804   */\n      mload\n        /* \"#utility.yul\":2824:2887   */\n      tag_510\n        /* \"#utility.yul\":2883:2886   */\n      dup9\n        /* \"#utility.yul\":2868:2881   */\n      dup3\n        /* \"#utility.yul\":2824:2887   */\n      tag_386\n      jump\t// in\n    tag_510:\n        /* \"#utility.yul\":2817:2887   */\n      swap8\n      pop\n        /* \"#utility.yul\":2910:2970   */\n      tag_511\n        /* \"#utility.yul\":2963:2969   */\n      dup4\n        /* \"#utility.yul\":2910:2970   */\n      tag_387\n      jump\t// in\n    tag_511:\n        /* \"#utility.yul\":2900:2970   */\n      swap3\n      pop\n        /* \"#utility.yul\":2756:2980   */\n      pop\n        /* \"#utility.yul\":2743:2744   */\n      0x01\n        /* \"#utility.yul\":2740:2741   */\n      dup2\n        /* \"#utility.yul\":2736:2745   */\n      add\n        /* \"#utility.yul\":2731:2745   */\n      swap1\n      pop\n        /* \"#utility.yul\":2696:2980   */\n      jump(tag_507)\n    tag_509:\n        /* \"#utility.yul\":2700:2714   */\n      pop\n        /* \"#utility.yul\":2996:2999   */\n      dup6\n        /* \"#utility.yul\":2989:2999   */\n      swap4\n      pop\n        /* \"#utility.yul\":2397:3005   */\n      pop\n      pop\n      pop\n        /* \"#utility.yul\":2273:3005   */\n      swap3\n      swap2\n      pop\n      pop\n      jump\t// out\n        /* \"#utility.yul\":3011:3135   */\n    tag_389:\n        /* \"#utility.yul\":3088:3094   */\n      0x00\n        /* \"#utility.yul\":3122:3127   */\n      dup2\n        /* \"#utility.yul\":3116:3128   */\n      mload\n        /* \"#utility.yul\":3106:3128   */\n      swap1\n      pop\n        /* \"#utility.yul\":3011:3135   */\n      swap2\n      swap1\n      pop\n      jump\t// out\n        /* \"#utility.yul\":3141:3335   */\n    tag_390:\n        /* \"#utility.yul\":3250:3261   */\n      0x00\n        /* \"#utility.yul\":3284:3290   */\n      dup3\n        /* \"#utility.yul\":3279:3282   */\n      dup3\n        /* \"#utility.yul\":3272:3291   */\n      mstore\n        /* \"#utility.yul\":3324:3328   */\n      0x20\n        /* \"#utility.yul\":3319:3322   */\n      dup3\n        /* \"#utility.yul\":3315:3329   */\n      add\n        /* \"#utility.yul\":3300:3329   */\n      swap1\n      pop\n        /* \"#utility.yul\":3141:3335   */\n      swap3\n      swap2\n      pop\n      pop\n      jump\t// out\n        /* \"#utility.yul\":3341:3483   */\n    tag_391:\n        /* \"#utility.yul\":3418:3422   */\n      0x00\n        /* \"#utility.yul\":3441:3444   */\n      dup2\n        /* \"#utility.yul\":3433:3444   */\n      swap1\n      pop\n        /* \"#utility.yul\":3471:3475   */\n      0x20\n        /* \"#utility.yul\":3466:3469   */\n      dup3\n        /* \"#utility.yul\":3462:3476   */\n      add\n        /* \"#utility.yul\":3454:3476   */\n      swap1\n      pop\n        /* \"#utility.yul\":3341:3483   */\n      swap2\n      swap1\n      pop\n      jump\t// out\n        /* \"#utility.yul\":3489:3588   */\n    tag_392:\n        /* \"#utility.yul\":3541:3547   */\n      0x00\n        /* \"#utility.yul\":3575:3580   */\n      dup2\n        /* \"#utility.yul\":3569:3581   */\n      mload\n        /* \"#utility.yul\":3559:3581   */\n      swap1\n      pop\n        /* \"#utility.yul\":3489:3588   */\n      swap2\n      swap1\n      pop\n      jump\t// out\n        /* \"#utility.yul\":3594:3753   */\n    tag_393:\n        /* \"#utility.yul\":3668:3679   */\n      0x00\n        /* \"#utility.yul\":3702:3708   */\n      dup3\n        /* \"#utility.yul\":3697:3700   */\n      dup3\n        /* \"#utility.yul\":3690:3709   */\n      mstore\n        /* \"#utility.yul\":3742:3746   */\n      0x20\n        /* \"#utility.yul\":3737:3740   */\n      dup3\n        /* \"#utility.yul\":3733:3747   */\n      add\n        /* \"#utility.yul\":3718:3747   */\n      swap1\n      pop\n        /* \"#utility.yul\":3594:3753   */\n      swap3\n      swap2\n      pop\n      pop\n      jump\t// out\n        /* \"#utility.yul\":3759:3898   */\n    tag_394:\n        /* \"#utility.yul\":3848:3854   */\n      dup3\n        /* \"#utility.yul\":3843:3846   */\n      dup2\n        /* \"#utility.yul\":3838:3841   */\n      dup4\n        /* \"#utility.yul\":3832:3855   */\n      mcopy\n        /* \"#utility.yul\":3889:3890   */\n      0x00\n        /* \"#utility.yul\":3880:3886   */\n      dup4\n        /* \"#utility.yul\":3875:3878   */\n      dup4\n        /* \"#utility.yul\":3871:3887   */\n      add\n        /* \"#utility.yul\":3864:3891   */\n      mstore\n        /* \"#utility.yul\":3759:3898   */\n      pop\n      pop\n      pop\n      jump\t// out\n        /* \"#utility.yul\":3904:4006   */\n    tag_395:\n        /* \"#utility.yul\":3945:3951   */\n      0x00\n        /* \"#utility.yul\":3996:3998   */\n      0x1f\n        /* \"#utility.yul\":3992:3999   */\n      not\n        /* \"#utility.yul\":3987:3989   */\n      0x1f\n        /* \"#utility.yul\":3980:3985   */\n      dup4\n        /* \"#utility.yul\":3976:3990   */\n      add\n        /* \"#utility.yul\":3972:4000   */\n      and\n        /* \"#utility.yul\":3962:4000   */\n      swap1\n      pop\n        /* \"#utility.yul\":3904:4006   */\n      swap2\n      swap1\n      pop\n      jump\t// out\n        /* \"#utility.yul\":4012:4369   */\n    tag_396:\n        /* \"#utility.yul\":4090:4093   */\n      0x00\n        /* \"#utility.yul\":4118:4157   */\n      tag_520\n        /* \"#utility.yul\":4151:4156   */\n      dup3\n        /* \"#utility.yul\":4118:4157   */\n      tag_392\n      jump\t// in\n    tag_520:\n        /* \"#utility.yul\":4173:4234   */\n      tag_521\n        /* \"#utility.yul\":4227:4233   */\n      dup2\n        /* \"#utility.yul\":4222:4225   */\n      dup6\n        /* \"#utility.yul\":4173:4234   */\n      tag_393\n      jump\t// in\n    tag_521:\n        /* \"#utility.yul\":4166:4234   */\n      swap4\n      pop\n        /* \"#utility.yul\":4243:4308   */\n      tag_522\n        /* \"#utility.yul\":4301:4307   */\n      dup2\n        /* \"#utility.yul\":4296:4299   */\n      dup6\n        /* \"#utility.yul\":4289:4293   */\n      0x20\n        /* \"#utility.yul\":4282:4287   */\n      dup7\n        /* \"#utility.yul\":4278:4294   */\n      add\n        /* \"#utility.yul\":4243:4308   */\n      tag_394\n      jump\t// in\n    tag_522:\n        /* \"#utility.yul\":4333:4362   */\n      tag_523\n        /* \"#utility.yul\":4355:4361   */\n      dup2\n        /* \"#utility.yul\":4333:4362   */\n      tag_395\n      jump\t// in\n    tag_523:\n        /* \"#utility.yul\":4328:4331   */\n      dup5\n        /* \"#utility.yul\":4324:4363   */\n      add\n        /* \"#utility.yul\":4317:4363   */\n      swap2\n      pop\n        /* \"#utility.yul\":4094:4369   */\n      pop\n        /* \"#utility.yul\":4012:4369   */\n      swap3\n      swap2\n      pop\n      pop\n      jump\t// out\n        /* \"#utility.yul\":4375:4571   */\n    tag_397:\n        /* \"#utility.yul\":4464:4474   */\n      0x00\n        /* \"#utility.yul\":4499:4565   */\n      tag_525\n        /* \"#utility.yul\":4561:4564   */\n      dup4\n        /* \"#utility.yul\":4553:4559   */\n      dup4\n        /* \"#utility.yul\":4499:4565   */\n      tag_396\n      jump\t// in\n    tag_525:\n        /* \"#utility.yul\":4485:4565   */\n      swap1\n      pop\n        /* \"#utility.yul\":4375:4571   */\n      swap3\n      swap2\n      pop\n      pop\n      jump\t// out\n        /* \"#utility.yul\":4577:4700   */\n    tag_398:\n        /* \"#utility.yul\":4657:4661   */\n      0x00\n        /* \"#utility.yul\":4689:4693   */\n      0x20\n        /* \"#utility.yul\":4684:4687   */\n      dup3\n        /* \"#utility.yul\":4680:4694   */\n      add\n        /* \"#utility.yul\":4672:4694   */\n      swap1\n      pop\n        /* \"#utility.yul\":4577:4700   */\n      swap2\n      swap1\n      pop\n      jump\t// out\n        /* \"#utility.yul\":4734:5725   */\n    tag_399:\n        /* \"#utility.yul\":4873:4876   */\n      0x00\n        /* \"#utility.yul\":4902:4966   */\n      tag_528\n        /* \"#utility.yul\":4960:4965   */\n      dup3\n        /* \"#utility.yul\":4902:4966   */\n      tag_389\n      jump\t// in\n    tag_528:\n        /* \"#utility.yul\":4982:5078   */\n      tag_529\n        /* \"#utility.yul\":5071:5077   */\n      dup2\n        /* \"#utility.yul\":5066:5069   */\n      dup6\n        /* \"#utility.yul\":4982:5078   */\n      tag_390\n      jump\t// in\n    tag_529:\n        /* \"#utility.yul\":4975:5078   */\n      swap4\n      pop\n        /* \"#utility.yul\":5104:5107   */\n      dup4\n        /* \"#utility.yul\":5149:5153   */\n      0x20\n        /* \"#utility.yul\":5141:5147   */\n      dup3\n        /* \"#utility.yul\":5137:5154   */\n      mul\n        /* \"#utility.yul\":5132:5135   */\n      dup6\n        /* \"#utility.yul\":5128:5155   */\n      add\n        /* \"#utility.yul\":5179:5245   */\n      tag_530\n        /* \"#utility.yul\":5239:5244   */\n      dup6\n        /* \"#utility.yul\":5179:5245   */\n      tag_391\n      jump\t// in\n    tag_530:\n        /* \"#utility.yul\":5268:5275   */\n      dup1\n        /* \"#utility.yul\":5299:5300   */\n      0x00\n        /* \"#utility.yul\":5284:5680   */\n    tag_531:\n        /* \"#utility.yul\":5309:5315   */\n      dup6\n        /* \"#utility.yul\":5306:5307   */\n      dup2\n        /* \"#utility.yul\":5303:5316   */\n      lt\n        /* \"#utility.yul\":5284:5680   */\n      iszero\n      tag_533\n      jumpi\n        /* \"#utility.yul\":5380:5389   */\n      dup5\n        /* \"#utility.yul\":5374:5378   */\n      dup5\n        /* \"#utility.yul\":5370:5390   */\n      sub\n        /* \"#utility.yul\":5365:5368   */\n      dup10\n        /* \"#utility.yul\":5358:5391   */\n      mstore\n        /* \"#utility.yul\":5431:5437   */\n      dup2\n        /* \"#utility.yul\":5425:5438   */\n      mload\n        /* \"#utility.yul\":5459:5543   */\n      tag_534\n        /* \"#utility.yul\":5538:5542   */\n      dup6\n        /* \"#utility.yul\":5523:5536   */\n      dup3\n        /* \"#utility.yul\":5459:5543   */\n      tag_397\n      jump\t// in\n    tag_534:\n        /* \"#utility.yul\":5451:5543   */\n      swap5\n      pop\n        /* \"#utility.yul\":5566:5636   */\n      tag_535\n        /* \"#utility.yul\":5629:5635   */\n      dup4\n        /* \"#utility.yul\":5566:5636   */\n      tag_398\n      jump\t// in\n    tag_535:\n        /* \"#utility.yul\":5556:5636   */\n      swap3\n      pop\n        /* \"#utility.yul\":5665:5669   */\n      0x20\n        /* \"#utility.yul\":5660:5663   */\n      dup11\n        /* \"#utility.yul\":5656:5670   */\n      add\n        /* \"#utility.yul\":5649:5670   */\n      swap10\n      pop\n        /* \"#utility.yul\":5344:5680   */\n      pop\n        /* \"#utility.yul\":5331:5332   */\n      0x01\n        /* \"#utility.yul\":5328:5329   */\n      dup2\n        /* \"#utility.yul\":5324:5333   */\n      add\n        /* \"#utility.yul\":5319:5333   */\n      swap1\n      pop\n        /* \"#utility.yul\":5284:5680   */\n      jump(tag_531)\n    tag_533:\n        /* \"#utility.yul\":5288:5302   */\n      pop\n        /* \"#utility.yul\":5696:5700   */\n      dup3\n        /* \"#utility.yul\":5689:5700   */\n      swap8\n      pop\n        /* \"#utility.yul\":5716:5719   */\n      dup8\n        /* \"#utility.yul\":5709:5719   */\n      swap6\n      pop\n        /* \"#utility.yul\":4878:5725   */\n      pop\n      pop\n      pop\n      pop\n      pop\n        /* \"#utility.yul\":4734:5725   */\n      swap3\n      swap2\n      pop\n      pop\n      jump\t// out\n        /* \"#utility.yul\":5731:5845   */\n    tag_400:\n        /* \"#utility.yul\":5798:5804   */\n      0x00\n        /* \"#utility.yul\":5832:5837   */\n      dup2\n        /* \"#utility.yul\":5826:5838   */\n      mload\n        /* \"#utility.yul\":5816:5838   */\n      swap1\n      pop\n        /* \"#utility.yul\":5731:5845   */\n      swap2\n      swap1\n      pop\n      jump\t// out\n        /* \"#utility.yul\":5851:6035   */\n    tag_401:\n        /* \"#utility.yul\":5950:5961   */\n      0x00\n        /* \"#utility.yul\":5984:5990   */\n      dup3\n        /* \"#utility.yul\":5979:5982   */\n      dup3\n        /* \"#utility.yul\":5972:5991   */\n      mstore\n        /* \"#utility.yul\":6024:6028   */\n      0x20\n        /* \"#utility.yul\":6019:6022   */\n      dup3\n        /* \"#utility.yul\":6015:6029   */\n      add\n        /* \"#utility.yul\":6000:6029   */\n      swap1\n      pop\n        /* \"#utility.yul\":5851:6035   */\n      swap3\n      swap2\n      pop\n      pop\n      jump\t// out\n        /* \"#utility.yul\":6041:6173   */\n    tag_402:\n        /* \"#utility.yul\":6108:6112   */\n      0x00\n        /* \"#utility.yul\":6131:6134   */\n      dup2\n        /* \"#utility.yul\":6123:6134   */\n      swap1\n      pop\n        /* \"#utility.yul\":6161:6165   */\n      0x20\n        /* \"#utility.yul\":6156:6159   */\n      dup3\n        /* \"#utility.yul\":6152:6166   */\n      add\n        /* \"#utility.yul\":6144:6166   */\n      swap1\n      pop\n        /* \"#utility.yul\":6041:6173   */\n      swap2\n      swap1\n      pop\n      jump\t// out\n        /* \"#utility.yul\":6179:6305   */\n    tag_403:\n        /* \"#utility.yul\":6216:6223   */\n      0x00\n        /* \"#utility.yul\":6256:6298   */\n      0xffffffffffffffffffffffffffffffffffffffff\n        /* \"#utility.yul\":6249:6254   */\n      dup3\n        /* \"#utility.yul\":6245:6299   */\n      and\n        /* \"#utility.yul\":6234:6299   */\n      swap1\n      pop\n        /* \"#utility.yul\":6179:6305   */\n      swap2\n      swap1\n      pop\n      jump\t// out\n        /* \"#utility.yul\":6311:6407   */\n    tag_404:\n        /* \"#utility.yul\":6348:6355   */\n      0x00\n        /* \"#utility.yul\":6377:6401   */\n      tag_541\n        /* \"#utility.yul\":6395:6400   */\n      dup3\n        /* \"#utility.yul\":6377:6401   */\n      tag_403\n      jump\t// in\n    tag_541:\n        /* \"#utility.yul\":6366:6401   */\n      swap1\n      pop\n        /* \"#utility.yul\":6311:6407   */\n      swap2\n      swap1\n      pop\n      jump\t// out\n        /* \"#utility.yul\":6413:6521   */\n    tag_405:\n        /* \"#utility.yul\":6490:6514   */\n      tag_543\n        /* \"#utility.yul\":6508:6513   */\n      dup2\n        /* \"#utility.yul\":6490:6514   */\n      tag_404\n      jump\t// in\n    tag_543:\n        /* \"#utility.yul\":6485:6488   */\n      dup3\n        /* \"#utility.yul\":6478:6515   */\n      mstore\n        /* \"#utility.yul\":6413:6521   */\n      pop\n      pop\n      jump\t// out\n        /* \"#utility.yul\":6527:6706   */\n    tag_406:\n        /* \"#utility.yul\":6596:6606   */\n      0x00\n        /* \"#utility.yul\":6617:6663   */\n      tag_545\n        /* \"#utility.yul\":6659:6662   */\n      dup4\n        /* \"#utility.yul\":6651:6657   */\n      dup4\n        /* \"#utility.yul\":6617:6663   */\n      tag_405\n      jump\t// in\n    tag_545:\n        /* \"#utility.yul\":6695:6699   */\n      0x20\n        /* \"#utility.yul\":6690:6693   */\n      dup4\n        /* \"#utility.yul\":6686:6700   */\n      add\n        /* \"#utility.yul\":6672:6700   */\n      swap1\n      pop\n        /* \"#utility.yul\":6527:6706   */\n      swap3\n      swap2\n      pop\n      pop\n      jump\t// out\n        /* \"#utility.yul\":6712:6825   */\n    tag_407:\n        /* \"#utility.yul\":6782:6786   */\n      0x00\n        /* \"#utility.yul\":6814:6818   */\n      0x20\n        /* \"#utility.yul\":6809:6812   */\n      dup3\n        /* \"#utility.yul\":6805:6819   */\n      add\n        /* \"#utility.yul\":6797:6819   */\n      swap1\n      pop\n        /* \"#utility.yul\":6712:6825   */\n      swap2\n      swap1\n      pop\n      jump\t// out\n        /* \"#utility.yul\":6861:7593   */\n    tag_408:\n        /* \"#utility.yul\":6980:6983   */\n      0x00\n        /* \"#utility.yul\":7009:7063   */\n      tag_548\n        /* \"#utility.yul\":7057:7062   */\n      dup3\n        /* \"#utility.yul\":7009:7063   */\n      tag_400\n      jump\t// in\n    tag_548:\n        /* \"#utility.yul\":7079:7165   */\n      tag_549\n        /* \"#utility.yul\":7158:7164   */\n      dup2\n        /* \"#utility.yul\":7153:7156   */\n      dup6\n        /* \"#utility.yul\":7079:7165   */\n      tag_401\n      jump\t// in\n    tag_549:\n        /* \"#utility.yul\":7072:7165   */\n      swap4\n      pop\n        /* \"#utility.yul\":7189:7245   */\n      tag_550\n        /* \"#utility.yul\":7239:7244   */\n      dup4\n        /* \"#utility.yul\":7189:7245   */\n      tag_402\n      jump\t// in\n    tag_550:\n        /* \"#utility.yul\":7268:7275   */\n      dup1\n        /* \"#utility.yul\":7299:7300   */\n      0x00\n        /* \"#utility.yul\":7284:7568   */\n    tag_551:\n        /* \"#utility.yul\":7309:7315   */\n      dup4\n        /* \"#utility.yul\":7306:7307   */\n      dup2\n        /* \"#utility.yul\":7303:7316   */\n      lt\n        /* \"#utility.yul\":7284:7568   */\n      iszero\n      tag_553\n      jumpi\n        /* \"#utility.yul\":7385:7391   */\n      dup2\n        /* \"#utility.yul\":7379:7392   */\n      mload\n        /* \"#utility.yul\":7412:7475   */\n      tag_554\n        /* \"#utility.yul\":7471:7474   */\n      dup9\n        /* \"#utility.yul\":7456:7469   */\n      dup3\n        /* \"#utility.yul\":7412:7475   */\n      tag_406\n      jump\t// in\n    tag_554:\n        /* \"#utility.yul\":7405:7475   */\n      swap8\n      pop\n        /* \"#utility.yul\":7498:7558   */\n      tag_555\n        /* \"#utility.yul\":7551:7557   */\n      dup4\n        /* \"#utility.yul\":7498:7558   */\n      tag_407\n      jump\t// in\n    tag_555:\n        /* \"#utility.yul\":7488:7558   */\n      swap3\n      pop\n        /* \"#utility.yul\":7344:7568   */\n      pop\n        /* \"#utility.yul\":7331:7332   */\n      0x01\n        /* \"#utility.yul\":7328:7329   */\n      dup2\n        /* \"#utility.yul\":7324:7333   */\n      add\n        /* \"#utility.yul\":7319:7333   */\n      swap1\n      pop\n        /* \"#utility.yul\":7284:7568   */\n      jump(tag_551)\n    tag_553:\n        /* \"#utility.yul\":7288:7302   */\n      pop\n        /* \"#utility.yul\":7584:7587   */\n      dup6\n        /* \"#utility.yul\":7577:7587   */\n      swap4\n      pop\n        /* \"#utility.yul\":6985:7593   */\n      pop\n      pop\n      pop\n        /* \"#utility.yul\":6861:7593   */\n      swap3\n      swap2\n      pop\n      pop\n      jump\t// out\n        /* \"#utility.yul\":7599:7710   */\n    tag_409:\n        /* \"#utility.yul\":7663:7669   */\n      0x00\n        /* \"#utility.yul\":7697:7702   */\n      dup2\n        /* \"#utility.yul\":7691:7703   */\n      mload\n        /* \"#utility.yul\":7681:7703   */\n      swap1\n      pop\n        /* \"#utility.yul\":7599:7710   */\n      swap2\n      swap1\n      pop\n      jump\t// out\n        /* \"#utility.yul\":7716:7897   */\n    tag_410:\n        /* \"#utility.yul\":7812:7823   */\n      0x00\n        /* \"#utility.yul\":7846:7852   */\n      dup3\n        /* \"#utility.yul\":7841:7844   */\n      dup3\n        /* \"#utility.yul\":7834:7853   */\n      mstore\n        /* \"#utility.yul\":7886:7890   */\n      0x20\n        /* \"#utility.yul\":7881:7884   */\n      dup3\n        /* \"#utility.yul\":7877:7891   */\n      add\n        /* \"#utility.yul\":7862:7891   */\n      swap1\n      pop\n        /* \"#utility.yul\":7716:7897   */\n      swap3\n      swap2\n      pop\n      pop\n      jump\t// out\n        /* \"#utility.yul\":7903:8032   */\n    tag_411:\n        /* \"#utility.yul\":7967:7971   */\n      0x00\n        /* \"#utility.yul\":7990:7993   */\n      dup2\n        /* \"#utility.yul\":7982:7993   */\n      swap1\n      pop\n        /* \"#utility.yul\":8020:8024   */\n      0x20\n        /* \"#utility.yul\":8015:8018   */\n      dup3\n        /* \"#utility.yul\":8011:8025   */\n      add\n        /* \"#utility.yul\":8003:8025   */\n      swap1\n      pop\n        /* \"#utility.yul\":7903:8032   */\n      swap2\n      swap1\n      pop\n      jump\t// out\n        /* \"#utility.yul\":8038:8128   */\n    tag_412:\n        /* \"#utility.yul\":8072:8079   */\n      0x00\n        /* \"#utility.yul\":8115:8120   */\n      dup2\n        /* \"#utility.yul\":8108:8121   */\n      iszero\n        /* \"#utility.yul\":8101:8122   */\n      iszero\n        /* \"#utility.yul\":8090:8122   */\n      swap1\n      pop\n        /* \"#utility.yul\":8038:8128   */\n      swap2\n      swap1\n      pop\n      jump\t// out\n        /* \"#utility.yul\":8134:8233   */\n    tag_413:\n        /* \"#utility.yul\":8205:8226   */\n      tag_561\n        /* \"#utility.yul\":8220:8225   */\n      dup2\n        /* \"#utility.yul\":8205:8226   */\n      tag_412\n      jump\t// in\n    tag_561:\n        /* \"#utility.yul\":8200:8203   */\n      dup3\n        /* \"#utility.yul\":8193:8227   */\n      mstore\n        /* \"#utility.yul\":8134:8233   */\n      pop\n      pop\n      jump\t// out\n        /* \"#utility.yul\":8239:8406   */\n    tag_414:\n        /* \"#utility.yul\":8302:8312   */\n      0x00\n        /* \"#utility.yul\":8323:8363   */\n      tag_563\n        /* \"#utility.yul\":8359:8362   */\n      dup4\n        /* \"#utility.yul\":8351:8357   */\n      dup4\n        /* \"#utility.yul\":8323:8363   */\n      tag_413\n      jump\t// in\n    tag_563:\n        /* \"#utility.yul\":8395:8399   */\n      0x20\n        /* \"#utility.yul\":8390:8393   */\n      dup4\n        /* \"#utility.yul\":8386:8400   */\n      add\n        /* \"#utility.yul\":8372:8400   */\n      swap1\n      pop\n        /* \"#utility.yul\":8239:8406   */\n      swap3\n      swap2\n      pop\n      pop\n      jump\t// out\n        /* \"#utility.yul\":8412:8522   */\n    tag_415:\n        /* \"#utility.yul\":8479:8483   */\n      0x00\n        /* \"#utility.yul\":8511:8515   */\n      0x20\n        /* \"#utility.yul\":8506:8509   */\n      dup3\n        /* \"#utility.yul\":8502:8516   */\n      add\n        /* \"#utility.yul\":8494:8516   */\n      swap1\n      pop\n        /* \"#utility.yul\":8412:8522   */\n      swap2\n      swap1\n      pop\n      jump\t// out\n        /* \"#utility.yul\":8552:9260   */\n    tag_416:\n        /* \"#utility.yul\":8665:8668   */\n      0x00\n        /* \"#utility.yul\":8694:8745   */\n      tag_566\n        /* \"#utility.yul\":8739:8744   */\n      dup3\n        /* \"#utility.yul\":8694:8745   */\n      tag_409\n      jump\t// in\n    tag_566:\n        /* \"#utility.yul\":8761:8844   */\n      tag_567\n        /* \"#utility.yul\":8837:8843   */\n      dup2\n        /* \"#utility.yul\":8832:8835   */\n      dup6\n        /* \"#utility.yul\":8761:8844   */\n      tag_410\n      jump\t// in\n    tag_567:\n        /* \"#utility.yul\":8754:8844   */\n      swap4\n      pop\n        /* \"#utility.yul\":8868:8921   */\n      tag_568\n        /* \"#utility.yul\":8915:8920   */\n      dup4\n        /* \"#utility.yul\":8868:8921   */\n      tag_411\n      jump\t// in\n    tag_568:\n        /* \"#utility.yul\":8944:8951   */\n      dup1\n        /* \"#utility.yul\":8975:8976   */\n      0x00\n        /* \"#utility.yul\":8960:9235   */\n    tag_569:\n        /* \"#utility.yul\":8985:8991   */\n      dup4\n        /* \"#utility.yul\":8982:8983   */\n      dup2\n        /* \"#utility.yul\":8979:8992   */\n      lt\n        /* \"#utility.yul\":8960:9235   */\n      iszero\n      tag_571\n      jumpi\n        /* \"#utility.yul\":9061:9067   */\n      dup2\n        /* \"#utility.yul\":9055:9068   */\n      mload\n        /* \"#utility.yul\":9088:9145   */\n      tag_572\n        /* \"#utility.yul\":9141:9144   */\n      dup9\n        /* \"#utility.yul\":9126:9139   */\n      dup3\n        /* \"#utility.yul\":9088:9145   */\n      tag_414\n      jump\t// in\n    tag_572:\n        /* \"#utility.yul\":9081:9145   */\n      swap8\n      pop\n        /* \"#utility.yul\":9168:9225   */\n      tag_573\n        /* \"#utility.yul\":9218:9224   */\n      dup4\n        /* \"#utility.yul\":9168:9225   */\n      tag_415\n      jump\t// in\n    tag_573:\n        /* \"#utility.yul\":9158:9225   */\n      swap3\n      pop\n        /* \"#utility.yul\":9020:9235   */\n      pop\n        /* \"#utility.yul\":9007:9008   */\n      0x01\n        /* \"#utility.yul\":9004:9005   */\n      dup2\n        /* \"#utility.yul\":9000:9009   */\n      add\n        /* \"#utility.yul\":8995:9009   */\n      swap1\n      pop\n        /* \"#utility.yul\":8960:9235   */\n      jump(tag_569)\n    tag_571:\n        /* \"#utility.yul\":8964:8978   */\n      pop\n        /* \"#utility.yul\":9251:9254   */\n      dup6\n        /* \"#utility.yul\":9244:9254   */\n      swap4\n      pop\n        /* \"#utility.yul\":8670:9260   */\n      pop\n      pop\n      pop\n        /* \"#utility.yul\":8552:9260   */\n      swap3\n      swap2\n      pop\n      pop\n      jump\t// out\n        /* \"#utility.yul\":9266:11789   */\n    tag_26:\n        /* \"#utility.yul\":10061:10065   */\n      0x00\n        /* \"#utility.yul\":10099:10102   */\n      0x0120\n        /* \"#utility.yul\":10088:10097   */\n      dup3\n        /* \"#utility.yul\":10084:10103   */\n      add\n        /* \"#utility.yul\":10076:10103   */\n      swap1\n      pop\n        /* \"#utility.yul\":10149:10158   */\n      dup2\n        /* \"#utility.yul\":10143:10147   */\n      dup2\n        /* \"#utility.yul\":10139:10159   */\n      sub\n        /* \"#utility.yul\":10135:10136   */\n      0x00\n        /* \"#utility.yul\":10124:10133   */\n      dup4\n        /* \"#utility.yul\":10120:10137   */\n      add\n        /* \"#utility.yul\":10113:10160   */\n      mstore\n        /* \"#utility.yul\":10177:10285   */\n      tag_575\n        /* \"#utility.yul\":10280:10284   */\n      dup2\n        /* \"#utility.yul\":10271:10277   */\n      dup13\n        /* \"#utility.yul\":10177:10285   */\n      tag_388\n      jump\t// in\n    tag_575:\n        /* \"#utility.yul\":10169:10285   */\n      swap1\n      pop\n        /* \"#utility.yul\":10332:10341   */\n      dup2\n        /* \"#utility.yul\":10326:10330   */\n      dup2\n        /* \"#utility.yul\":10322:10342   */\n      sub\n        /* \"#utility.yul\":10317:10319   */\n      0x20\n        /* \"#utility.yul\":10306:10315   */\n      dup4\n        /* \"#utility.yul\":10302:10320   */\n      add\n        /* \"#utility.yul\":10295:10343   */\n      mstore\n        /* \"#utility.yul\":10360:10488   */\n      tag_576\n        /* \"#utility.yul\":10483:10487   */\n      dup2\n        /* \"#utility.yul\":10474:10480   */\n      dup12\n        /* \"#utility.yul\":10360:10488   */\n      tag_399\n      jump\t// in\n    tag_576:\n        /* \"#utility.yul\":10352:10488   */\n      swap1\n      pop\n        /* \"#utility.yul\":10535:10544   */\n      dup2\n        /* \"#utility.yul\":10529:10533   */\n      dup2\n        /* \"#utility.yul\":10525:10545   */\n      sub\n        /* \"#utility.yul\":10520:10522   */\n      0x40\n        /* \"#utility.yul\":10509:10518   */\n      dup4\n        /* \"#utility.yul\":10505:10523   */\n      add\n        /* \"#utility.yul\":10498:10546   */\n      mstore\n        /* \"#utility.yul\":10563:10691   */\n      tag_577\n        /* \"#utility.yul\":10686:10690   */\n      dup2\n        /* \"#utility.yul\":10677:10683   */\n      dup11\n        /* \"#utility.yul\":10563:10691   */\n      tag_399\n      jump\t// in\n    tag_577:\n        /* \"#utility.yul\":10555:10691   */\n      swap1\n      pop\n        /* \"#utility.yul\":10738:10747   */\n      dup2\n        /* \"#utility.yul\":10732:10736   */\n      dup2\n        /* \"#utility.yul\":10728:10748   */\n      sub\n        /* \"#utility.yul\":10723:10725   */\n      0x60\n        /* \"#utility.yul\":10712:10721   */\n      dup4\n        /* \"#utility.yul\":10708:10726   */\n      add\n        /* \"#utility.yul\":10701:10749   */\n      mstore\n        /* \"#utility.yul\":10766:10874   */\n      tag_578\n        /* \"#utility.yul\":10869:10873   */\n      dup2\n        /* \"#utility.yul\":10860:10866   */\n      dup10\n        /* \"#utility.yul\":10766:10874   */\n      tag_408\n      jump\t// in\n    tag_578:\n        /* \"#utility.yul\":10758:10874   */\n      swap1\n      pop\n        /* \"#utility.yul\":10922:10931   */\n      dup2\n        /* \"#utility.yul\":10916:10920   */\n      dup2\n        /* \"#utility.yul\":10912:10932   */\n      sub\n        /* \"#utility.yul\":10906:10909   */\n      0x80\n        /* \"#utility.yul\":10895:10904   */\n      dup4\n        /* \"#utility.yul\":10891:10910   */\n      add\n        /* \"#utility.yul\":10884:10933   */\n      mstore\n        /* \"#utility.yul\":10950:11058   */\n      tag_579\n        /* \"#utility.yul\":11053:11057   */\n      dup2\n        /* \"#utility.yul\":11044:11050   */\n      dup9\n        /* \"#utility.yul\":10950:11058   */\n      tag_388\n      jump\t// in\n    tag_579:\n        /* \"#utility.yul\":10942:11058   */\n      swap1\n      pop\n        /* \"#utility.yul\":11106:11115   */\n      dup2\n        /* \"#utility.yul\":11100:11104   */\n      dup2\n        /* \"#utility.yul\":11096:11116   */\n      sub\n        /* \"#utility.yul\":11090:11093   */\n      0xa0\n        /* \"#utility.yul\":11079:11088   */\n      dup4\n        /* \"#utility.yul\":11075:11094   */\n      add\n        /* \"#utility.yul\":11068:11117   */\n      mstore\n        /* \"#utility.yul\":11134:11242   */\n      tag_580\n        /* \"#utility.yul\":11237:11241   */\n      dup2\n        /* \"#utility.yul\":11228:11234   */\n      dup8\n        /* \"#utility.yul\":11134:11242   */\n      tag_388\n      jump\t// in\n    tag_580:\n        /* \"#utility.yul\":11126:11242   */\n      swap1\n      pop\n        /* \"#utility.yul\":11290:11299   */\n      dup2\n        /* \"#utility.yul\":11284:11288   */\n      dup2\n        /* \"#utility.yul\":11280:11300   */\n      sub\n        /* \"#utility.yul\":11274:11277   */\n      0xc0\n        /* \"#utility.yul\":11263:11272   */\n      dup4\n        /* \"#utility.yul\":11259:11278   */\n      add\n        /* \"#utility.yul\":11252:11301   */\n      mstore\n        /* \"#utility.yul\":11318:11426   */\n      tag_581\n        /* \"#utility.yul\":11421:11425   */\n      dup2\n        /* \"#utility.yul\":11412:11418   */\n      dup7\n        /* \"#utility.yul\":11318:11426   */\n      tag_388\n      jump\t// in\n    tag_581:\n        /* \"#utility.yul\":11310:11426   */\n      swap1\n      pop\n        /* \"#utility.yul\":11474:11483   */\n      dup2\n        /* \"#utility.yul\":11468:11472   */\n      dup2\n        /* \"#utility.yul\":11464:11484   */\n      sub\n        /* \"#utility.yul\":11458:11461   */\n      0xe0\n        /* \"#utility.yul\":11447:11456   */\n      dup4\n        /* \"#utility.yul\":11443:11462   */\n      add\n        /* \"#utility.yul\":11436:11485   */\n      mstore\n        /* \"#utility.yul\":11502:11604   */\n      tag_582\n        /* \"#utility.yul\":11599:11603   */\n      dup2\n        /* \"#utility.yul\":11590:11596   */\n      dup6\n        /* \"#utility.yul\":11502:11604   */\n      tag_416\n      jump\t// in\n    tag_582:\n        /* \"#utility.yul\":11494:11604   */\n      swap1\n      pop\n        /* \"#utility.yul\":11652:11661   */\n      dup2\n        /* \"#utility.yul\":11646:11650   */\n      dup2\n        /* \"#utility.yul\":11642:11662   */\n      sub\n        /* \"#utility.yul\":11636:11639   */\n      0x0100\n        /* \"#utility.yul\":11625:11634   */\n      dup4\n        /* \"#utility.yul\":11621:11640   */\n      add\n        /* \"#utility.yul\":11614:11663   */\n      mstore\n        /* \"#utility.yul\":11680:11782   */\n      tag_583\n        /* \"#utility.yul\":11777:11781   */\n      dup2\n        /* \"#utility.yul\":11768:11774   */\n      dup5\n        /* \"#utility.yul\":11680:11782   */\n      tag_416\n      jump\t// in\n    tag_583:\n        /* \"#utility.yul\":11672:11782   */\n      swap1\n      pop\n        /* \"#utility.yul\":9266:11789   */\n      swap11\n      swap10\n      pop\n      pop\n      pop\n      pop\n      pop\n      pop\n      pop\n      pop\n      pop\n      pop\n      jump\t// out\n        /* \"#utility.yul\":11795:11912   */\n    tag_417:\n        /* \"#utility.yul\":11904:11905   */\n      0x00\n        /* \"#utility.yul\":11901:11902   */\n      dup1\n        /* \"#utility.yul\":11894:11906   */\n      revert\n        /* \"#utility.yul\":11918:12035   */\n    tag_418:\n        /* \"#utility.yul\":12027:12028   */\n      0x00\n        /* \"#utility.yul\":12024:12025   */\n      dup1\n        /* \"#utility.yul\":12017:12029   */\n      revert\n        /* \"#utility.yul\":12041:12221   */\n    tag_95:\n        /* \"#utility.yul\":12089:12166   */\n      0x4e487b7100000000000000000000000000000000000000000000000000000000\n        /* \"#utility.yul\":12086:12087   */\n      0x00\n        /* \"#utility.yul\":12079:12167   */\n      mstore\n        /* \"#utility.yul\":12186:12190   */\n      0x41\n        /* \"#utility.yul\":12183:12184   */\n      0x04\n        /* \"#utility.yul\":12176:12191   */\n      mstore\n        /* \"#utility.yul\":12210:12214   */\n      0x24\n        /* \"#utility.yul\":12207:12208   */\n      0x00\n        /* \"#utility.yul\":12200:12215   */\n      revert\n        /* \"#utility.yul\":12227:12508   */\n    tag_419:\n        /* \"#utility.yul\":12310:12337   */\n      tag_588\n        /* \"#utility.yul\":12332:12336   */\n      dup3\n        /* \"#utility.yul\":12310:12337   */\n      tag_395\n      jump\t// in\n    tag_588:\n        /* \"#utility.yul\":12302:12308   */\n      dup2\n        /* \"#utility.yul\":12298:12338   */\n      add\n        /* \"#utility.yul\":12440:12446   */\n      dup2\n        /* \"#utility.yul\":12428:12438   */\n      dup2\n        /* \"#utility.yul\":12425:12447   */\n      lt\n        /* \"#utility.yul\":12404:12422   */\n      0xffffffffffffffff\n        /* \"#utility.yul\":12392:12402   */\n      dup3\n        /* \"#utility.yul\":12389:12423   */\n      gt\n        /* \"#utility.yul\":12386:12448   */\n      or\n        /* \"#utility.yul\":12383:12471   */\n      iszero\n      tag_589\n      jumpi\n        /* \"#utility.yul\":12451:12469   */\n      tag_590\n      tag_95\n      jump\t// in\n    tag_590:\n        /* \"#utility.yul\":12383:12471   */\n    tag_589:\n        /* \"#utility.yul\":12491:12501   */\n      dup1\n        /* \"#utility.yul\":12487:12489   */\n      0x40\n        /* \"#utility.yul\":12480:12502   */\n      mstore\n        /* \"#utility.yul\":12270:12508   */\n      pop\n        /* \"#utility.yul\":12227:12508   */\n      pop\n      pop\n      jump\t// out\n        /* \"#utility.yul\":12514:12643   */\n    tag_420:\n        /* \"#utility.yul\":12548:12554   */\n      0x00\n        /* \"#utility.yul\":12575:12595   */\n      tag_592\n      tag_375\n      jump\t// in\n    tag_592:\n        /* \"#utility.yul\":12565:12595   */\n      swap1\n      pop\n        /* \"#utility.yul\":12604:12637   */\n      tag_593\n        /* \"#utility.yul\":12632:12636   */\n      dup3\n        /* \"#utility.yul\":12624:12630   */\n      dup3\n        /* \"#utility.yul\":12604:12637   */\n      tag_419\n      jump\t// in\n    tag_593:\n        /* \"#utility.yul\":12514:12643   */\n      swap2\n      swap1\n      pop\n      jump\t// out\n        /* \"#utility.yul\":12649:12957   */\n    tag_421:\n        /* \"#utility.yul\":12711:12715   */\n      0x00\n        /* \"#utility.yul\":12801:12819   */\n      0xffffffffffffffff\n        /* \"#utility.yul\":12793:12799   */\n      dup3\n        /* \"#utility.yul\":12790:12820   */\n      gt\n        /* \"#utility.yul\":12787:12843   */\n      iszero\n      tag_595\n      jumpi\n        /* \"#utility.yul\":12823:12841   */\n      tag_596\n      tag_95\n      jump\t// in\n    tag_596:\n        /* \"#utility.yul\":12787:12843   */\n    tag_595:\n        /* \"#utility.yul\":12861:12890   */\n      tag_597\n        /* \"#utility.yul\":12883:12889   */\n      dup3\n        /* \"#utility.yul\":12861:12890   */\n      tag_395\n      jump\t// in\n    tag_597:\n        /* \"#utility.yul\":12853:12890   */\n      swap1\n      pop\n        /* \"#utility.yul\":12945:12949   */\n      0x20\n        /* \"#utility.yul\":12939:12943   */\n      dup2\n        /* \"#utility.yul\":12935:12950   */\n      add\n        /* \"#utility.yul\":12927:12950   */\n      swap1\n      pop\n        /* \"#utility.yul\":12649:12957   */\n      swap2\n      swap1\n      pop\n      jump\t// out\n        /* \"#utility.yul\":12963:13111   */\n    tag_422:\n        /* \"#utility.yul\":13061:13067   */\n      dup3\n        /* \"#utility.yul\":13056:13059   */\n      dup2\n        /* \"#utility.yul\":13051:13054   */\n      dup4\n        /* \"#utility.yul\":13038:13068   */\n      calldatacopy\n        /* \"#utility.yul\":13102:13103   */\n      0x00\n        /* \"#utility.yul\":13093:13099   */\n      dup4\n        /* \"#utility.yul\":13088:13091   */\n      dup4\n        /* \"#utility.yul\":13084:13100   */\n      add\n        /* \"#utility.yul\":13077:13104   */\n      mstore\n        /* \"#utility.yul\":12963:13111   */\n      pop\n      pop\n      pop\n      jump\t// out\n        /* \"#utility.yul\":13117:13542   */\n    tag_423:\n        /* \"#utility.yul\":13195:13200   */\n      0x00\n        /* \"#utility.yul\":13220:13286   */\n      tag_600\n        /* \"#utility.yul\":13236:13285   */\n      tag_601\n        /* \"#utility.yul\":13278:13284   */\n      dup5\n        /* \"#utility.yul\":13236:13285   */\n      tag_421\n      jump\t// in\n    tag_601:\n        /* \"#utility.yul\":13220:13286   */\n      tag_420\n      jump\t// in\n    tag_600:\n        /* \"#utility.yul\":13211:13286   */\n      swap1\n      pop\n        /* \"#utility.yul\":13309:13315   */\n      dup3\n        /* \"#utility.yul\":13302:13307   */\n      dup2\n        /* \"#utility.yul\":13295:13316   */\n      mstore\n        /* \"#utility.yul\":13347:13351   */\n      0x20\n        /* \"#utility.yul\":13340:13345   */\n      dup2\n        /* \"#utility.yul\":13336:13352   */\n      add\n        /* \"#utility.yul\":13385:13388   */\n      dup5\n        /* \"#utility.yul\":13376:13382   */\n      dup5\n        /* \"#utility.yul\":13371:13374   */\n      dup5\n        /* \"#utility.yul\":13367:13383   */\n      add\n        /* \"#utility.yul\":13364:13389   */\n      gt\n        /* \"#utility.yul\":13361:13473   */\n      iszero\n      tag_602\n      jumpi\n        /* \"#utility.yul\":13392:13471   */\n      tag_603\n      tag_418\n      jump\t// in\n    tag_603:\n        /* \"#utility.yul\":13361:13473   */\n    tag_602:\n        /* \"#utility.yul\":13482:13536   */\n      tag_604\n        /* \"#utility.yul\":13529:13535   */\n      dup5\n        /* \"#utility.yul\":13524:13527   */\n      dup3\n        /* \"#utility.yul\":13519:13522   */\n      dup6\n        /* \"#utility.yul\":13482:13536   */\n      tag_422\n      jump\t// in\n    tag_604:\n        /* \"#utility.yul\":13201:13542   */\n      pop\n        /* \"#utility.yul\":13117:13542   */\n      swap4\n      swap3\n      pop\n      pop\n      pop\n      jump\t// out\n        /* \"#utility.yul\":13562:13902   */\n    tag_424:\n        /* \"#utility.yul\":13618:13623   */\n      0x00\n        /* \"#utility.yul\":13667:13670   */\n      dup3\n        /* \"#utility.yul\":13660:13664   */\n      0x1f\n        /* \"#utility.yul\":13652:13658   */\n      dup4\n        /* \"#utility.yul\":13648:13665   */\n      add\n        /* \"#utility.yul\":13644:13671   */\n      slt\n        /* \"#utility.yul\":13634:13756   */\n      tag_606\n      jumpi\n        /* \"#utility.yul\":13675:13754   */\n      tag_607\n      tag_417\n      jump\t// in\n    tag_607:\n        /* \"#utility.yul\":13634:13756   */\n    tag_606:\n        /* \"#utility.yul\":13792:13798   */\n      dup2\n        /* \"#utility.yul\":13779:13799   */\n      calldataload\n        /* \"#utility.yul\":13817:13896   */\n      tag_608\n        /* \"#utility.yul\":13892:13895   */\n      dup5\n        /* \"#utility.yul\":13884:13890   */\n      dup3\n        /* \"#utility.yul\":13877:13881   */\n      0x20\n        /* \"#utility.yul\":13869:13875   */\n      dup7\n        /* \"#utility.yul\":13865:13882   */\n      add\n        /* \"#utility.yul\":13817:13896   */\n      tag_423\n      jump\t// in\n    tag_608:\n        /* \"#utility.yul\":13808:13896   */\n      swap2\n      pop\n        /* \"#utility.yul\":13624:13902   */\n      pop\n        /* \"#utility.yul\":13562:13902   */\n      swap3\n      swap2\n      pop\n      pop\n      jump\t// out\n        /* \"#utility.yul\":13908:14742   */\n    tag_29:\n        /* \"#utility.yul\":13996:14002   */\n      0x00\n        /* \"#utility.yul\":14004:14010   */\n      dup1\n        /* \"#utility.yul\":14053:14055   */\n      0x40\n        /* \"#utility.yul\":14041:14050   */\n      dup4\n        /* \"#utility.yul\":14032:14039   */\n      dup6\n        /* \"#utility.yul\":14028:14051   */\n      sub\n        /* \"#utility.yul\":14024:14056   */\n      slt\n        /* \"#utility.yul\":14021:14140   */\n      iszero\n      tag_610\n      jumpi\n        /* \"#utility.yul\":14059:14138   */\n      tag_611\n      tag_376\n      jump\t// in\n    tag_611:\n        /* \"#utility.yul\":14021:14140   */\n    tag_610:\n        /* \"#utility.yul\":14207:14208   */\n      0x00\n        /* \"#utility.yul\":14196:14205   */\n      dup4\n        /* \"#utility.yul\":14192:14209   */\n      add\n        /* \"#utility.yul\":14179:14210   */\n      calldataload\n        /* \"#utility.yul\":14237:14255   */\n      0xffffffffffffffff\n        /* \"#utility.yul\":14229:14235   */\n      dup2\n        /* \"#utility.yul\":14226:14256   */\n      gt\n        /* \"#utility.yul\":14223:14340   */\n      iszero\n      tag_612\n      jumpi\n        /* \"#utility.yul\":14259:14338   */\n      tag_613\n      tag_377\n      jump\t// in\n    tag_613:\n        /* \"#utility.yul\":14223:14340   */\n    tag_612:\n        /* \"#utility.yul\":14364:14427   */\n      tag_614\n        /* \"#utility.yul\":14419:14426   */\n      dup6\n        /* \"#utility.yul\":14410:14416   */\n      dup3\n        /* \"#utility.yul\":14399:14408   */\n      dup7\n        /* \"#utility.yul\":14395:14417   */\n      add\n        /* \"#utility.yul\":14364:14427   */\n      tag_424\n      jump\t// in\n    tag_614:\n        /* \"#utility.yul\":14354:14427   */\n      swap3\n      pop\n        /* \"#utility.yul\":14150:14437   */\n      pop\n        /* \"#utility.yul\":14504:14506   */\n      0x20\n        /* \"#utility.yul\":14493:14502   */\n      dup4\n        /* \"#utility.yul\":14489:14507   */\n      add\n        /* \"#utility.yul\":14476:14508   */\n      calldataload\n        /* \"#utility.yul\":14535:14553   */\n      0xffffffffffffffff\n        /* \"#utility.yul\":14527:14533   */\n      dup2\n        /* \"#utility.yul\":14524:14554   */\n      gt\n        /* \"#utility.yul\":14521:14638   */\n      iszero\n      tag_615\n      jumpi\n        /* \"#utility.yul\":14557:14636   */\n      tag_616\n      tag_377\n      jump\t// in\n    tag_616:\n        /* \"#utility.yul\":14521:14638   */\n    tag_615:\n        /* \"#utility.yul\":14662:14725   */\n      tag_617\n        /* \"#utility.yul\":14717:14724   */\n      dup6\n        /* \"#utility.yul\":14708:14714   */\n      dup3\n        /* \"#utility.yul\":14697:14706   */\n      dup7\n        /* \"#utility.yul\":14693:14715   */\n      add\n        /* \"#utility.yul\":14662:14725   */\n      tag_424\n      jump\t// in\n    tag_617:\n        /* \"#utility.yul\":14652:14725   */\n      swap2\n      pop\n        /* \"#utility.yul\":14447:14735   */\n      pop\n        /* \"#utility.yul\":13908:14742   */\n      swap3\n      pop\n      swap3\n      swap1\n      pop\n      jump\t// out\n        /* \"#utility.yul\":14748:14917   */\n    tag_425:\n        /* \"#utility.yul\":14832:14843   */\n      0x00\n        /* \"#utility.yul\":14866:14872   */\n      dup3\n        /* \"#utility.yul\":14861:14864   */\n      dup3\n        /* \"#utility.yul\":14854:14873   */\n      mstore\n        /* \"#utility.yul\":14906:14910   */\n      0x20\n        /* \"#utility.yul\":14901:14904   */\n      dup3\n        /* \"#utility.yul\":14897:14911   */\n      add\n        /* \"#utility.yul\":14882:14911   */\n      swap1\n      pop\n        /* \"#utility.yul\":14748:14917   */\n      swap3\n      swap2\n      pop\n      pop\n      jump\t// out\n        /* \"#utility.yul\":14923:15300   */\n    tag_426:\n        /* \"#utility.yul\":15011:15014   */\n      0x00\n        /* \"#utility.yul\":15039:15078   */\n      tag_620\n        /* \"#utility.yul\":15072:15077   */\n      dup3\n        /* \"#utility.yul\":15039:15078   */\n      tag_392\n      jump\t// in\n    tag_620:\n        /* \"#utility.yul\":15094:15165   */\n      tag_621\n        /* \"#utility.yul\":15158:15164   */\n      dup2\n        /* \"#utility.yul\":15153:15156   */\n      dup6\n        /* \"#utility.yul\":15094:15165   */\n      tag_425\n      jump\t// in\n    tag_621:\n        /* \"#utility.yul\":15087:15165   */\n      swap4\n      pop\n        /* \"#utility.yul\":15174:15239   */\n      tag_622\n        /* \"#utility.yul\":15232:15238   */\n      dup2\n        /* \"#utility.yul\":15227:15230   */\n      dup6\n        /* \"#utility.yul\":15220:15224   */\n      0x20\n        /* \"#utility.yul\":15213:15218   */\n      dup7\n        /* \"#utility.yul\":15209:15225   */\n      add\n        /* \"#utility.yul\":15174:15239   */\n      tag_394\n      jump\t// in\n    tag_622:\n        /* \"#utility.yul\":15264:15293   */\n      tag_623\n        /* \"#utility.yul\":15286:15292   */\n      dup2\n        /* \"#utility.yul\":15264:15293   */\n      tag_395\n      jump\t// in\n    tag_623:\n        /* \"#utility.yul\":15259:15262   */\n      dup5\n        /* \"#utility.yul\":15255:15294   */\n      add\n        /* \"#utility.yul\":15248:15294   */\n      swap2\n      pop\n        /* \"#utility.yul\":15015:15300   */\n      pop\n        /* \"#utility.yul\":14923:15300   */\n      swap3\n      swap2\n      pop\n      pop\n      jump\t// out\n        /* \"#utility.yul\":15306:15424   */\n    tag_427:\n        /* \"#utility.yul\":15393:15417   */\n      tag_625\n        /* \"#utility.yul\":15411:15416   */\n      dup2\n        /* \"#utility.yul\":15393:15417   */\n      tag_404\n      jump\t// in\n    tag_625:\n        /* \"#utility.yul\":15388:15391   */\n      dup3\n        /* \"#utility.yul\":15381:15418   */\n      mstore\n        /* \"#utility.yul\":15306:15424   */\n      pop\n      pop\n      jump\t// out\n        /* \"#utility.yul\":15430:15566   */\n    tag_428:\n        /* \"#utility.yul\":15519:15525   */\n      0x00\n        /* \"#utility.yul\":15553:15558   */\n      dup2\n        /* \"#utility.yul\":15547:15559   */\n      mload\n        /* \"#utility.yul\":15537:15559   */\n      swap1\n      pop\n        /* \"#utility.yul\":15430:15566   */\n      swap2\n      swap1\n      pop\n      jump\t// out\n        /* \"#utility.yul\":15572:15778   */\n    tag_429:\n        /* \"#utility.yul\":15693:15704   */\n      0x00\n        /* \"#utility.yul\":15727:15733   */\n      dup3\n        /* \"#utility.yul\":15722:15725   */\n      dup3\n        /* \"#utility.yul\":15715:15734   */\n      mstore\n        /* \"#utility.yul\":15767:15771   */\n      0x20\n        /* \"#utility.yul\":15762:15765   */\n      dup3\n        /* \"#utility.yul\":15758:15772   */\n      add\n        /* \"#utility.yul\":15743:15772   */\n      swap1\n      pop\n        /* \"#utility.yul\":15572:15778   */\n      swap3\n      swap2\n      pop\n      pop\n      jump\t// out\n        /* \"#utility.yul\":15784:15938   */\n    tag_430:\n        /* \"#utility.yul\":15873:15877   */\n      0x00\n        /* \"#utility.yul\":15896:15899   */\n      dup2\n        /* \"#utility.yul\":15888:15899   */\n      swap1\n      pop\n        /* \"#utility.yul\":15926:15930   */\n      0x20\n        /* \"#utility.yul\":15921:15924   */\n      dup3\n        /* \"#utility.yul\":15917:15931   */\n      add\n        /* \"#utility.yul\":15909:15931   */\n      swap1\n      pop\n        /* \"#utility.yul\":15784:15938   */\n      swap2\n      swap1\n      pop\n      jump\t// out\n        /* \"#utility.yul\":16006:16780   */\n    tag_431:\n        /* \"#utility.yul\":16109:16112   */\n      0x00\n        /* \"#utility.yul\":16145:16149   */\n      0x60\n        /* \"#utility.yul\":16140:16143   */\n      dup4\n        /* \"#utility.yul\":16136:16150   */\n      add\n        /* \"#utility.yul\":16235:16239   */\n      0x00\n        /* \"#utility.yul\":16228:16233   */\n      dup4\n        /* \"#utility.yul\":16224:16240   */\n      add\n        /* \"#utility.yul\":16218:16241   */\n      mload\n        /* \"#utility.yul\":16288:16291   */\n      dup5\n        /* \"#utility.yul\":16282:16286   */\n      dup3\n        /* \"#utility.yul\":16278:16292   */\n      sub\n        /* \"#utility.yul\":16271:16275   */\n      0x00\n        /* \"#utility.yul\":16266:16269   */\n      dup7\n        /* \"#utility.yul\":16262:16276   */\n      add\n        /* \"#utility.yul\":16255:16293   */\n      mstore\n        /* \"#utility.yul\":16314:16387   */\n      tag_630\n        /* \"#utility.yul\":16382:16386   */\n      dup3\n        /* \"#utility.yul\":16368:16380   */\n      dup3\n        /* \"#utility.yul\":16314:16387   */\n      tag_396\n      jump\t// in\n    tag_630:\n        /* \"#utility.yul\":16306:16387   */\n      swap2\n      pop\n        /* \"#utility.yul\":16160:16398   */\n      pop\n        /* \"#utility.yul\":16482:16486   */\n      0x20\n        /* \"#utility.yul\":16475:16480   */\n      dup4\n        /* \"#utility.yul\":16471:16487   */\n      add\n        /* \"#utility.yul\":16465:16488   */\n      mload\n        /* \"#utility.yul\":16501:16564   */\n      tag_631\n        /* \"#utility.yul\":16558:16562   */\n      0x20\n        /* \"#utility.yul\":16553:16556   */\n      dup7\n        /* \"#utility.yul\":16549:16563   */\n      add\n        /* \"#utility.yul\":16535:16547   */\n      dup3\n        /* \"#utility.yul\":16501:16564   */\n      tag_405\n      jump\t// in\n    tag_631:\n        /* \"#utility.yul\":16408:16574   */\n      pop\n        /* \"#utility.yul\":16661:16665   */\n      0x40\n        /* \"#utility.yul\":16654:16659   */\n      dup4\n        /* \"#utility.yul\":16650:16666   */\n      add\n        /* \"#utility.yul\":16644:16667   */\n      mload\n        /* \"#utility.yul\":16680:16743   */\n      tag_632\n        /* \"#utility.yul\":16737:16741   */\n      0x40\n        /* \"#utility.yul\":16732:16735   */\n      dup7\n        /* \"#utility.yul\":16728:16742   */\n      add\n        /* \"#utility.yul\":16714:16726   */\n      dup3\n        /* \"#utility.yul\":16680:16743   */\n      tag_385\n      jump\t// in\n    tag_632:\n        /* \"#utility.yul\":16584:16753   */\n      pop\n        /* \"#utility.yul\":16770:16774   */\n      dup1\n        /* \"#utility.yul\":16763:16774   */\n      swap2\n      pop\n        /* \"#utility.yul\":16114:16780   */\n      pop\n        /* \"#utility.yul\":16006:16780   */\n      swap3\n      swap2\n      pop\n      pop\n      jump\t// out\n        /* \"#utility.yul\":16786:17030   */\n    tag_432:\n        /* \"#utility.yul\":16899:16909   */\n      0x00\n        /* \"#utility.yul\":16934:17024   */\n      tag_634\n        /* \"#utility.yul\":17020:17023   */\n      dup4\n        /* \"#utility.yul\":17012:17018   */\n      dup4\n        /* \"#utility.yul\":16934:17024   */\n      tag_431\n      jump\t// in\n    tag_634:\n        /* \"#utility.yul\":16920:17024   */\n      swap1\n      pop\n        /* \"#utility.yul\":16786:17030   */\n      swap3\n      swap2\n      pop\n      pop\n      jump\t// out\n        /* \"#utility.yul\":17036:17171   */\n    tag_433:\n        /* \"#utility.yul\":17128:17132   */\n      0x00\n        /* \"#utility.yul\":17160:17164   */\n      0x20\n        /* \"#utility.yul\":17155:17158   */\n      dup3\n        /* \"#utility.yul\":17151:17165   */\n      add\n        /* \"#utility.yul\":17143:17165   */\n      swap1\n      pop\n        /* \"#utility.yul\":17036:17171   */\n      swap2\n      swap1\n      pop\n      jump\t// out\n        /* \"#utility.yul\":17243:18330   */\n    tag_434:\n        /* \"#utility.yul\":17406:17409   */\n      0x00\n        /* \"#utility.yul\":17435:17511   */\n      tag_637\n        /* \"#utility.yul\":17505:17510   */\n      dup3\n        /* \"#utility.yul\":17435:17511   */\n      tag_428\n      jump\t// in\n    tag_637:\n        /* \"#utility.yul\":17527:17635   */\n      tag_638\n        /* \"#utility.yul\":17628:17634   */\n      dup2\n        /* \"#utility.yul\":17623:17626   */\n      dup6\n        /* \"#utility.yul\":17527:17635   */\n      tag_429\n      jump\t// in\n    tag_638:\n        /* \"#utility.yul\":17520:17635   */\n      swap4\n      pop\n        /* \"#utility.yul\":17661:17664   */\n      dup4\n        /* \"#utility.yul\":17706:17710   */\n      0x20\n        /* \"#utility.yul\":17698:17704   */\n      dup3\n        /* \"#utility.yul\":17694:17711   */\n      mul\n        /* \"#utility.yul\":17689:17692   */\n      dup6\n        /* \"#utility.yul\":17685:17712   */\n      add\n        /* \"#utility.yul\":17736:17814   */\n      tag_639\n        /* \"#utility.yul\":17808:17813   */\n      dup6\n        /* \"#utility.yul\":17736:17814   */\n      tag_430\n      jump\t// in\n    tag_639:\n        /* \"#utility.yul\":17837:17844   */\n      dup1\n        /* \"#utility.yul\":17868:17869   */\n      0x00\n        /* \"#utility.yul\":17853:18285   */\n    tag_640:\n        /* \"#utility.yul\":17878:17884   */\n      dup6\n        /* \"#utility.yul\":17875:17876   */\n      dup2\n        /* \"#utility.yul\":17872:17885   */\n      lt\n        /* \"#utility.yul\":17853:18285   */\n      iszero\n      tag_642\n      jumpi\n        /* \"#utility.yul\":17949:17958   */\n      dup5\n        /* \"#utility.yul\":17943:17947   */\n      dup5\n        /* \"#utility.yul\":17939:17959   */\n      sub\n        /* \"#utility.yul\":17934:17937   */\n      dup10\n        /* \"#utility.yul\":17927:17960   */\n      mstore\n        /* \"#utility.yul\":18000:18006   */\n      dup2\n        /* \"#utility.yul\":17994:18007   */\n      mload\n        /* \"#utility.yul\":18028:18136   */\n      tag_643\n        /* \"#utility.yul\":18131:18135   */\n      dup6\n        /* \"#utility.yul\":18116:18129   */\n      dup3\n        /* \"#utility.yul\":18028:18136   */\n      tag_432\n      jump\t// in\n    tag_643:\n        /* \"#utility.yul\":18020:18136   */\n      swap5\n      pop\n        /* \"#utility.yul\":18159:18241   */\n      tag_644\n        /* \"#utility.yul\":18234:18240   */\n      dup4\n        /* \"#utility.yul\":18159:18241   */\n      tag_433\n      jump\t// in\n    tag_644:\n        /* \"#utility.yul\":18149:18241   */\n      swap3\n      pop\n        /* \"#utility.yul\":18270:18274   */\n      0x20\n        /* \"#utility.yul\":18265:18268   */\n      dup11\n        /* \"#utility.yul\":18261:18275   */\n      add\n        /* \"#utility.yul\":18254:18275   */\n      swap10\n      pop\n        /* \"#utility.yul\":17913:18285   */\n      pop\n        /* \"#utility.yul\":17900:17901   */\n      0x01\n        /* \"#utility.yul\":17897:17898   */\n      dup2\n        /* \"#utility.yul\":17893:17902   */\n      add\n        /* \"#utility.yul\":17888:17902   */\n      swap1\n      pop\n        /* \"#utility.yul\":17853:18285   */\n      jump(tag_640)\n    tag_642:\n        /* \"#utility.yul\":17857:17871   */\n      pop\n        /* \"#utility.yul\":18301:18305   */\n      dup3\n        /* \"#utility.yul\":18294:18305   */\n      swap8\n      pop\n        /* \"#utility.yul\":18321:18324   */\n      dup8\n        /* \"#utility.yul\":18314:18324   */\n      swap6\n      pop\n        /* \"#utility.yul\":17411:18330   */\n      pop\n      pop\n      pop\n      pop\n      pop\n        /* \"#utility.yul\":17243:18330   */\n      swap3\n      swap2\n      pop\n      pop\n      jump\t// out\n        /* \"#utility.yul\":18336:19905   */\n    tag_36:\n        /* \"#utility.yul\":18809:18813   */\n      0x00\n        /* \"#utility.yul\":18847:18850   */\n      0x0100\n        /* \"#utility.yul\":18836:18845   */\n      dup3\n        /* \"#utility.yul\":18832:18851   */\n      add\n        /* \"#utility.yul\":18824:18851   */\n      swap1\n      pop\n        /* \"#utility.yul\":18897:18906   */\n      dup2\n        /* \"#utility.yul\":18891:18895   */\n      dup2\n        /* \"#utility.yul\":18887:18907   */\n      sub\n        /* \"#utility.yul\":18883:18884   */\n      0x00\n        /* \"#utility.yul\":18872:18881   */\n      dup4\n        /* \"#utility.yul\":18868:18885   */\n      add\n        /* \"#utility.yul\":18861:18908   */\n      mstore\n        /* \"#utility.yul\":18925:19003   */\n      tag_646\n        /* \"#utility.yul\":18998:19002   */\n      dup2\n        /* \"#utility.yul\":18989:18995   */\n      dup12\n        /* \"#utility.yul\":18925:19003   */\n      tag_426\n      jump\t// in\n    tag_646:\n        /* \"#utility.yul\":18917:19003   */\n      swap1\n      pop\n        /* \"#utility.yul\":19050:19059   */\n      dup2\n        /* \"#utility.yul\":19044:19048   */\n      dup2\n        /* \"#utility.yul\":19040:19060   */\n      sub\n        /* \"#utility.yul\":19035:19037   */\n      0x20\n        /* \"#utility.yul\":19024:19033   */\n      dup4\n        /* \"#utility.yul\":19020:19038   */\n      add\n        /* \"#utility.yul\":19013:19061   */\n      mstore\n        /* \"#utility.yul\":19078:19156   */\n      tag_647\n        /* \"#utility.yul\":19151:19155   */\n      dup2\n        /* \"#utility.yul\":19142:19148   */\n      dup11\n        /* \"#utility.yul\":19078:19156   */\n      tag_426\n      jump\t// in\n    tag_647:\n        /* \"#utility.yul\":19070:19156   */\n      swap1\n      pop\n        /* \"#utility.yul\":19166:19238   */\n      tag_648\n        /* \"#utility.yul\":19234:19236   */\n      0x40\n        /* \"#utility.yul\":19223:19232   */\n      dup4\n        /* \"#utility.yul\":19219:19237   */\n      add\n        /* \"#utility.yul\":19210:19216   */\n      dup10\n        /* \"#utility.yul\":19166:19238   */\n      tag_427\n      jump\t// in\n    tag_648:\n        /* \"#utility.yul\":19248:19320   */\n      tag_649\n        /* \"#utility.yul\":19316:19318   */\n      0x60\n        /* \"#utility.yul\":19305:19314   */\n      dup4\n        /* \"#utility.yul\":19301:19319   */\n      add\n        /* \"#utility.yul\":19292:19298   */\n      dup9\n        /* \"#utility.yul\":19248:19320   */\n      tag_381\n      jump\t// in\n    tag_649:\n        /* \"#utility.yul\":19330:19403   */\n      tag_650\n        /* \"#utility.yul\":19398:19401   */\n      0x80\n        /* \"#utility.yul\":19387:19396   */\n      dup4\n        /* \"#utility.yul\":19383:19402   */\n      add\n        /* \"#utility.yul\":19374:19380   */\n      dup8\n        /* \"#utility.yul\":19330:19403   */\n      tag_381\n      jump\t// in\n    tag_650:\n        /* \"#utility.yul\":19451:19460   */\n      dup2\n        /* \"#utility.yul\":19445:19449   */\n      dup2\n        /* \"#utility.yul\":19441:19461   */\n      sub\n        /* \"#utility.yul\":19435:19438   */\n      0xa0\n        /* \"#utility.yul\":19424:19433   */\n      dup4\n        /* \"#utility.yul\":19420:19439   */\n      add\n        /* \"#utility.yul\":19413:19462   */\n      mstore\n        /* \"#utility.yul\":19479:19587   */\n      tag_651\n        /* \"#utility.yul\":19582:19586   */\n      dup2\n        /* \"#utility.yul\":19573:19579   */\n      dup7\n        /* \"#utility.yul\":19479:19587   */\n      tag_408\n      jump\t// in\n    tag_651:\n        /* \"#utility.yul\":19471:19587   */\n      swap1\n      pop\n        /* \"#utility.yul\":19597:19670   */\n      tag_652\n        /* \"#utility.yul\":19665:19668   */\n      0xc0\n        /* \"#utility.yul\":19654:19663   */\n      dup4\n        /* \"#utility.yul\":19650:19669   */\n      add\n        /* \"#utility.yul\":19641:19647   */\n      dup6\n        /* \"#utility.yul\":19597:19670   */\n      tag_381\n      jump\t// in\n    tag_652:\n        /* \"#utility.yul\":19718:19727   */\n      dup2\n        /* \"#utility.yul\":19712:19716   */\n      dup2\n        /* \"#utility.yul\":19708:19728   */\n      sub\n        /* \"#utility.yul\":19702:19705   */\n      0xe0\n        /* \"#utility.yul\":19691:19700   */\n      dup4\n        /* \"#utility.yul\":19687:19706   */\n      add\n        /* \"#utility.yul\":19680:19729   */\n      mstore\n        /* \"#utility.yul\":19746:19898   */\n      tag_653\n        /* \"#utility.yul\":19893:19897   */\n      dup2\n        /* \"#utility.yul\":19884:19890   */\n      dup5\n        /* \"#utility.yul\":19746:19898   */\n      tag_434\n      jump\t// in\n    tag_653:\n        /* \"#utility.yul\":19738:19898   */\n      swap1\n      pop\n        /* \"#utility.yul\":18336:19905   */\n      swap10\n      swap9\n      pop\n      pop\n      pop\n      pop\n      pop\n      pop\n      pop\n      pop\n      pop\n      jump\t// out\n        /* \"#utility.yul\":19911:20033   */\n    tag_435:\n        /* \"#utility.yul\":19984:20008   */\n      tag_655\n        /* \"#utility.yul\":20002:20007   */\n      dup2\n        /* \"#utility.yul\":19984:20008   */\n      tag_404\n      jump\t// in\n    tag_655:\n        /* \"#utility.yul\":19977:19982   */\n      dup2\n        /* \"#utility.yul\":19974:20009   */\n      eq\n        /* \"#utility.yul\":19964:20027   */\n      tag_656\n      jumpi\n        /* \"#utility.yul\":20023:20024   */\n      0x00\n        /* \"#utility.yul\":20020:20021   */\n      dup1\n        /* \"#utility.yul\":20013:20025   */\n      revert\n        /* \"#utility.yul\":19964:20027   */\n    tag_656:\n        /* \"#utility.yul\":19911:20033   */\n      pop\n      jump\t// out\n        /* \"#utility.yul\":20039:20178   */\n    tag_436:\n        /* \"#utility.yul\":20085:20090   */\n      0x00\n        /* \"#utility.yul\":20123:20129   */\n      dup2\n        /* \"#utility.yul\":20110:20130   */\n      calldataload\n        /* \"#utility.yul\":20101:20130   */\n      swap1\n      pop\n        /* \"#utility.yul\":20139:20172   */\n      tag_658\n        /* \"#utility.yul\":20166:20171   */\n      dup2\n        /* \"#utility.yul\":20139:20172   */\n      tag_435\n      jump\t// in\n    tag_658:\n        /* \"#utility.yul\":20039:20178   */\n      swap3\n      swap2\n      pop\n      pop\n      jump\t// out\n        /* \"#utility.yul\":20184:20658   */\n    tag_48:\n        /* \"#utility.yul\":20252:20258   */\n      0x00\n        /* \"#utility.yul\":20260:20266   */\n      dup1\n        /* \"#utility.yul\":20309:20311   */\n      0x40\n        /* \"#utility.yul\":20297:20306   */\n      dup4\n        /* \"#utility.yul\":20288:20295   */\n      dup6\n        /* \"#utility.yul\":20284:20307   */\n      sub\n        /* \"#utility.yul\":20280:20312   */\n      slt\n        /* \"#utility.yul\":20277:20396   */\n      iszero\n      tag_660\n      jumpi\n        /* \"#utility.yul\":20315:20394   */\n      tag_661\n      tag_376\n      jump\t// in\n    tag_661:\n        /* \"#utility.yul\":20277:20396   */\n    tag_660:\n        /* \"#utility.yul\":20435:20436   */\n      0x00\n        /* \"#utility.yul\":20460:20513   */\n      tag_662\n        /* \"#utility.yul\":20505:20512   */\n      dup6\n        /* \"#utility.yul\":20496:20502   */\n      dup3\n        /* \"#utility.yul\":20485:20494   */\n      dup7\n        /* \"#utility.yul\":20481:20503   */\n      add\n        /* \"#utility.yul\":20460:20513   */\n      tag_380\n      jump\t// in\n    tag_662:\n        /* \"#utility.yul\":20450:20513   */\n      swap3\n      pop\n        /* \"#utility.yul\":20406:20523   */\n      pop\n        /* \"#utility.yul\":20562:20564   */\n      0x20\n        /* \"#utility.yul\":20588:20641   */\n      tag_663\n        /* \"#utility.yul\":20633:20640   */\n      dup6\n        /* \"#utility.yul\":20624:20630   */\n      dup3\n        /* \"#utility.yul\":20613:20622   */\n      dup7\n        /* \"#utility.yul\":20609:20631   */\n      add\n        /* \"#utility.yul\":20588:20641   */\n      tag_436\n      jump\t// in\n    tag_663:\n        /* \"#utility.yul\":20578:20641   */\n      swap2\n      pop\n        /* \"#utility.yul\":20533:20651   */\n      pop\n        /* \"#utility.yul\":20184:20658   */\n      swap3\n      pop\n      swap3\n      swap1\n      pop\n      jump\t// out\n        /* \"#utility.yul\":20664:20773   */\n    tag_437:\n        /* \"#utility.yul\":20745:20766   */\n      tag_665\n        /* \"#utility.yul\":20760:20765   */\n      dup2\n        /* \"#utility.yul\":20745:20766   */\n      tag_412\n      jump\t// in\n    tag_665:\n        /* \"#utility.yul\":20740:20743   */\n      dup3\n        /* \"#utility.yul\":20733:20767   */\n      mstore\n        /* \"#utility.yul\":20664:20773   */\n      pop\n      pop\n      jump\t// out\n        /* \"#utility.yul\":20779:20989   */\n    tag_51:\n        /* \"#utility.yul\":20866:20870   */\n      0x00\n        /* \"#utility.yul\":20904:20906   */\n      0x20\n        /* \"#utility.yul\":20893:20902   */\n      dup3\n        /* \"#utility.yul\":20889:20907   */\n      add\n        /* \"#utility.yul\":20881:20907   */\n      swap1\n      pop\n        /* \"#utility.yul\":20917:20982   */\n      tag_667\n        /* \"#utility.yul\":20979:20980   */\n      0x00\n        /* \"#utility.yul\":20968:20977   */\n      dup4\n        /* \"#utility.yul\":20964:20981   */\n      add\n        /* \"#utility.yul\":20955:20961   */\n      dup5\n        /* \"#utility.yul\":20917:20982   */\n      tag_437\n      jump\t// in\n    tag_667:\n        /* \"#utility.yul\":20779:20989   */\n      swap3\n      swap2\n      pop\n      pop\n      jump\t// out\n        /* \"#utility.yul\":20995:21649   */\n    tag_54:\n        /* \"#utility.yul\":21073:21079   */\n      0x00\n        /* \"#utility.yul\":21081:21087   */\n      dup1\n        /* \"#utility.yul\":21130:21132   */\n      0x40\n        /* \"#utility.yul\":21118:21127   */\n      dup4\n        /* \"#utility.yul\":21109:21116   */\n      dup6\n        /* \"#utility.yul\":21105:21128   */\n      sub\n        /* \"#utility.yul\":21101:21133   */\n      slt\n        /* \"#utility.yul\":21098:21217   */\n      iszero\n      tag_669\n      jumpi\n        /* \"#utility.yul\":21136:21215   */\n      tag_670\n      tag_376\n      jump\t// in\n    tag_670:\n        /* \"#utility.yul\":21098:21217   */\n    tag_669:\n        /* \"#utility.yul\":21256:21257   */\n      0x00\n        /* \"#utility.yul\":21281:21334   */\n      tag_671\n        /* \"#utility.yul\":21326:21333   */\n      dup6\n        /* \"#utility.yul\":21317:21323   */\n      dup3\n        /* \"#utility.yul\":21306:21315   */\n      dup7\n        /* \"#utility.yul\":21302:21324   */\n      add\n        /* \"#utility.yul\":21281:21334   */\n      tag_380\n      jump\t// in\n    tag_671:\n        /* \"#utility.yul\":21271:21334   */\n      swap3\n      pop\n        /* \"#utility.yul\":21227:21344   */\n      pop\n        /* \"#utility.yul\":21411:21413   */\n      0x20\n        /* \"#utility.yul\":21400:21409   */\n      dup4\n        /* \"#utility.yul\":21396:21414   */\n      add\n        /* \"#utility.yul\":21383:21415   */\n      calldataload\n        /* \"#utility.yul\":21442:21460   */\n      0xffffffffffffffff\n        /* \"#utility.yul\":21434:21440   */\n      dup2\n        /* \"#utility.yul\":21431:21461   */\n      gt\n        /* \"#utility.yul\":21428:21545   */\n      iszero\n      tag_672\n      jumpi\n        /* \"#utility.yul\":21464:21543   */\n      tag_673\n      tag_377\n      jump\t// in\n    tag_673:\n        /* \"#utility.yul\":21428:21545   */\n    tag_672:\n        /* \"#utility.yul\":21569:21632   */\n      tag_674\n        /* \"#utility.yul\":21624:21631   */\n      dup6\n        /* \"#utility.yul\":21615:21621   */\n      dup3\n        /* \"#utility.yul\":21604:21613   */\n      dup7\n        /* \"#utility.yul\":21600:21622   */\n      add\n        /* \"#utility.yul\":21569:21632   */\n      tag_424\n      jump\t// in\n    tag_674:\n        /* \"#utility.yul\":21559:21632   */\n      swap2\n      pop\n        /* \"#utility.yul\":21354:21642   */\n      pop\n        /* \"#utility.yul\":20995:21649   */\n      swap3\n      pop\n      swap3\n      swap1\n      pop\n      jump\t// out\n        /* \"#utility.yul\":21655:22634   */\n    tag_58:\n        /* \"#utility.yul\":21752:21758   */\n      0x00\n        /* \"#utility.yul\":21760:21766   */\n      dup1\n        /* \"#utility.yul\":21768:21774   */\n      0x00\n        /* \"#utility.yul\":21817:21819   */\n      0x60\n        /* \"#utility.yul\":21805:21814   */\n      dup5\n        /* \"#utility.yul\":21796:21803   */\n      dup7\n        /* \"#utility.yul\":21792:21815   */\n      sub\n        /* \"#utility.yul\":21788:21820   */\n      slt\n        /* \"#utility.yul\":21785:21904   */\n      iszero\n      tag_676\n      jumpi\n        /* \"#utility.yul\":21823:21902   */\n      tag_677\n      tag_376\n      jump\t// in\n    tag_677:\n        /* \"#utility.yul\":21785:21904   */\n    tag_676:\n        /* \"#utility.yul\":21943:21944   */\n      0x00\n        /* \"#utility.yul\":21968:22021   */\n      tag_678\n        /* \"#utility.yul\":22013:22020   */\n      dup7\n        /* \"#utility.yul\":22004:22010   */\n      dup3\n        /* \"#utility.yul\":21993:22002   */\n      dup8\n        /* \"#utility.yul\":21989:22011   */\n      add\n        /* \"#utility.yul\":21968:22021   */\n      tag_380\n      jump\t// in\n    tag_678:\n        /* \"#utility.yul\":21958:22021   */\n      swap4\n      pop\n        /* \"#utility.yul\":21914:22031   */\n      pop\n        /* \"#utility.yul\":22098:22100   */\n      0x20\n        /* \"#utility.yul\":22087:22096   */\n      dup5\n        /* \"#utility.yul\":22083:22101   */\n      add\n        /* \"#utility.yul\":22070:22102   */\n      calldataload\n        /* \"#utility.yul\":22129:22147   */\n      0xffffffffffffffff\n        /* \"#utility.yul\":22121:22127   */\n      dup2\n        /* \"#utility.yul\":22118:22148   */\n      gt\n        /* \"#utility.yul\":22115:22232   */\n      iszero\n      tag_679\n      jumpi\n        /* \"#utility.yul\":22151:22230   */\n      tag_680\n      tag_377\n      jump\t// in\n    tag_680:\n        /* \"#utility.yul\":22115:22232   */\n    tag_679:\n        /* \"#utility.yul\":22256:22319   */\n      tag_681\n        /* \"#utility.yul\":22311:22318   */\n      dup7\n        /* \"#utility.yul\":22302:22308   */\n      dup3\n        /* \"#utility.yul\":22291:22300   */\n      dup8\n        /* \"#utility.yul\":22287:22309   */\n      add\n        /* \"#utility.yul\":22256:22319   */\n      tag_424\n      jump\t// in\n    tag_681:\n        /* \"#utility.yul\":22246:22319   */\n      swap3\n      pop\n        /* \"#utility.yul\":22041:22329   */\n      pop\n        /* \"#utility.yul\":22396:22398   */\n      0x40\n        /* \"#utility.yul\":22385:22394   */\n      dup5\n        /* \"#utility.yul\":22381:22399   */\n      add\n        /* \"#utility.yul\":22368:22400   */\n      calldataload\n        /* \"#utility.yul\":22427:22445   */\n      0xffffffffffffffff\n        /* \"#utility.yul\":22419:22425   */\n      dup2\n        /* \"#utility.yul\":22416:22446   */\n      gt\n        /* \"#utility.yul\":22413:22530   */\n      iszero\n      tag_682\n      jumpi\n        /* \"#utility.yul\":22449:22528   */\n      tag_683\n      tag_377\n      jump\t// in\n    tag_683:\n        /* \"#utility.yul\":22413:22530   */\n    tag_682:\n        /* \"#utility.yul\":22554:22617   */\n      tag_684\n        /* \"#utility.yul\":22609:22616   */\n      dup7\n        /* \"#utility.yul\":22600:22606   */\n      dup3\n        /* \"#utility.yul\":22589:22598   */\n      dup8\n        /* \"#utility.yul\":22585:22607   */\n      add\n        /* \"#utility.yul\":22554:22617   */\n      tag_424\n      jump\t// in\n    tag_684:\n        /* \"#utility.yul\":22544:22617   */\n      swap2\n      pop\n        /* \"#utility.yul\":22339:22627   */\n      pop\n        /* \"#utility.yul\":21655:22634   */\n      swap3\n      pop\n      swap3\n      pop\n      swap3\n      jump\t// out\n        /* \"#utility.yul\":22640:22809   */\n    tag_438:\n        /* \"#utility.yul\":22780:22801   */\n      0x506f737420646f6573206e6f7420657869737400000000000000000000000000\n        /* \"#utility.yul\":22776:22777   */\n      0x00\n        /* \"#utility.yul\":22768:22774   */\n      dup3\n        /* \"#utility.yul\":22764:22778   */\n      add\n        /* \"#utility.yul\":22757:22802   */\n      mstore\n        /* \"#utility.yul\":22640:22809   */\n      pop\n      jump\t// out\n        /* \"#utility.yul\":22815:23181   */\n    tag_439:\n        /* \"#utility.yul\":22957:22960   */\n      0x00\n        /* \"#utility.yul\":22978:23045   */\n      tag_687\n        /* \"#utility.yul\":23042:23044   */\n      0x13\n        /* \"#utility.yul\":23037:23040   */\n      dup4\n        /* \"#utility.yul\":22978:23045   */\n      tag_425\n      jump\t// in\n    tag_687:\n        /* \"#utility.yul\":22971:23045   */\n      swap2\n      pop\n        /* \"#utility.yul\":23054:23147   */\n      tag_688\n        /* \"#utility.yul\":23143:23146   */\n      dup3\n        /* \"#utility.yul\":23054:23147   */\n      tag_438\n      jump\t// in\n    tag_688:\n        /* \"#utility.yul\":23172:23174   */\n      0x20\n        /* \"#utility.yul\":23167:23170   */\n      dup3\n        /* \"#utility.yul\":23163:23175   */\n      add\n        /* \"#utility.yul\":23156:23175   */\n      swap1\n      pop\n        /* \"#utility.yul\":22815:23181   */\n      swap2\n      swap1\n      pop\n      jump\t// out\n        /* \"#utility.yul\":23187:23606   */\n    tag_63:\n        /* \"#utility.yul\":23353:23357   */\n      0x00\n        /* \"#utility.yul\":23391:23393   */\n      0x20\n        /* \"#utility.yul\":23380:23389   */\n      dup3\n        /* \"#utility.yul\":23376:23394   */\n      add\n        /* \"#utility.yul\":23368:23394   */\n      swap1\n      pop\n        /* \"#utility.yul\":23440:23449   */\n      dup2\n        /* \"#utility.yul\":23434:23438   */\n      dup2\n        /* \"#utility.yul\":23430:23450   */\n      sub\n        /* \"#utility.yul\":23426:23427   */\n      0x00\n        /* \"#utility.yul\":23415:23424   */\n      dup4\n        /* \"#utility.yul\":23411:23428   */\n      add\n        /* \"#utility.yul\":23404:23451   */\n      mstore\n        /* \"#utility.yul\":23468:23599   */\n      tag_690\n        /* \"#utility.yul\":23594:23598   */\n      dup2\n        /* \"#utility.yul\":23468:23599   */\n      tag_439\n      jump\t// in\n    tag_690:\n        /* \"#utility.yul\":23460:23599   */\n      swap1\n      pop\n        /* \"#utility.yul\":23187:23606   */\n      swap2\n      swap1\n      pop\n      jump\t// out\n        /* \"#utility.yul\":23612:23792   */\n    tag_66:\n        /* \"#utility.yul\":23660:23737   */\n      0x4e487b7100000000000000000000000000000000000000000000000000000000\n        /* \"#utility.yul\":23657:23658   */\n      0x00\n        /* \"#utility.yul\":23650:23738   */\n      mstore\n        /* \"#utility.yul\":23757:23761   */\n      0x32\n        /* \"#utility.yul\":23754:23755   */\n      0x04\n        /* \"#utility.yul\":23747:23762   */\n      mstore\n        /* \"#utility.yul\":23781:23785   */\n      0x24\n        /* \"#utility.yul\":23778:23779   */\n      0x00\n        /* \"#utility.yul\":23771:23786   */\n      revert\n        /* \"#utility.yul\":23798:23969   */\n    tag_440:\n        /* \"#utility.yul\":23938:23961   */\n      0x506f737420686173206265656e2064656c657465640000000000000000000000\n        /* \"#utility.yul\":23934:23935   */\n      0x00\n        /* \"#utility.yul\":23926:23932   */\n      dup3\n        /* \"#utility.yul\":23922:23936   */\n      add\n        /* \"#utility.yul\":23915:23962   */\n      mstore\n        /* \"#utility.yul\":23798:23969   */\n      pop\n      jump\t// out\n        /* \"#utility.yul\":23975:24341   */\n    tag_441:\n        /* \"#utility.yul\":24117:24120   */\n      0x00\n        /* \"#utility.yul\":24138:24205   */\n      tag_694\n        /* \"#utility.yul\":24202:24204   */\n      0x15\n        /* \"#utility.yul\":24197:24200   */\n      dup4\n        /* \"#utility.yul\":24138:24205   */\n      tag_425\n      jump\t// in\n    tag_694:\n        /* \"#utility.yul\":24131:24205   */\n      swap2\n      pop\n        /* \"#utility.yul\":24214:24307   */\n      tag_695\n        /* \"#utility.yul\":24303:24306   */\n      dup3\n        /* \"#utility.yul\":24214:24307   */\n      tag_440\n      jump\t// in\n    tag_695:\n        /* \"#utility.yul\":24332:24334   */\n      0x20\n        /* \"#utility.yul\":24327:24330   */\n      dup3\n        /* \"#utility.yul\":24323:24335   */\n      add\n        /* \"#utility.yul\":24316:24335   */\n      swap1\n      pop\n        /* \"#utility.yul\":23975:24341   */\n      swap2\n      swap1\n      pop\n      jump\t// out\n        /* \"#utility.yul\":24347:24766   */\n    tag_70:\n        /* \"#utility.yul\":24513:24517   */\n      0x00\n        /* \"#utility.yul\":24551:24553   */\n      0x20\n        /* \"#utility.yul\":24540:24549   */\n      dup3\n        /* \"#utility.yul\":24536:24554   */\n      add\n        /* \"#utility.yul\":24528:24554   */\n      swap1\n      pop\n        /* \"#utility.yul\":24600:24609   */\n      dup2\n        /* \"#utility.yul\":24594:24598   */\n      dup2\n        /* \"#utility.yul\":24590:24610   */\n      sub\n        /* \"#utility.yul\":24586:24587   */\n      0x00\n        /* \"#utility.yul\":24575:24584   */\n      dup4\n        /* \"#utility.yul\":24571:24588   */\n      add\n        /* \"#utility.yul\":24564:24611   */\n      mstore\n        /* \"#utility.yul\":24628:24759   */\n      tag_697\n        /* \"#utility.yul\":24754:24758   */\n      dup2\n        /* \"#utility.yul\":24628:24759   */\n      tag_441\n      jump\t// in\n    tag_697:\n        /* \"#utility.yul\":24620:24759   */\n      swap1\n      pop\n        /* \"#utility.yul\":24347:24766   */\n      swap2\n      swap1\n      pop\n      jump\t// out\n        /* \"#utility.yul\":24772:24995   */\n    tag_442:\n        /* \"#utility.yul\":24912:24946   */\n      0x5365756c206c276175746575722070657574207375707072696d657220636520\n        /* \"#utility.yul\":24908:24909   */\n      0x00\n        /* \"#utility.yul\":24900:24906   */\n      dup3\n        /* \"#utility.yul\":24896:24910   */\n      add\n        /* \"#utility.yul\":24889:24947   */\n      mstore\n        /* \"#utility.yul\":24981:24987   */\n      0x706f737400000000000000000000000000000000000000000000000000000000\n        /* \"#utility.yul\":24976:24978   */\n      0x20\n        /* \"#utility.yul\":24968:24974   */\n      dup3\n        /* \"#utility.yul\":24964:24979   */\n      add\n        /* \"#utility.yul\":24957:24988   */\n      mstore\n        /* \"#utility.yul\":24772:24995   */\n      pop\n      jump\t// out\n        /* \"#utility.yul\":25001:25367   */\n    tag_443:\n        /* \"#utility.yul\":25143:25146   */\n      0x00\n        /* \"#utility.yul\":25164:25231   */\n      tag_700\n        /* \"#utility.yul\":25228:25230   */\n      0x24\n        /* \"#utility.yul\":25223:25226   */\n      dup4\n        /* \"#utility.yul\":25164:25231   */\n      tag_425\n      jump\t// in\n    tag_700:\n        /* \"#utility.yul\":25157:25231   */\n      swap2\n      pop\n        /* \"#utility.yul\":25240:25333   */\n      tag_701\n        /* \"#utility.yul\":25329:25332   */\n      dup3\n        /* \"#utility.yul\":25240:25333   */\n      tag_442\n      jump\t// in\n    tag_701:\n        /* \"#utility.yul\":25358:25360   */\n      0x40\n        /* \"#utility.yul\":25353:25356   */\n      dup3\n        /* \"#utility.yul\":25349:25361   */\n      add\n        /* \"#utility.yul\":25342:25361   */\n      swap1\n      pop\n        /* \"#utility.yul\":25001:25367   */\n      swap2\n      swap1\n      pop\n      jump\t// out\n        /* \"#utility.yul\":25373:25792   */\n    tag_77:\n        /* \"#utility.yul\":25539:25543   */\n      0x00\n        /* \"#utility.yul\":25577:25579   */\n      0x20\n        /* \"#utility.yul\":25566:25575   */\n      dup3\n        /* \"#utility.yul\":25562:25580   */\n      add\n        /* \"#utility.yul\":25554:25580   */\n      swap1\n      pop\n        /* \"#utility.yul\":25626:25635   */\n      dup2\n        /* \"#utility.yul\":25620:25624   */\n      dup2\n        /* \"#utility.yul\":25616:25636   */\n      sub\n        /* \"#utility.yul\":25612:25613   */\n      0x00\n        /* \"#utility.yul\":25601:25610   */\n      dup4\n        /* \"#utility.yul\":25597:25614   */\n      add\n        /* \"#utility.yul\":25590:25637   */\n      mstore\n        /* \"#utility.yul\":25654:25785   */\n      tag_703\n        /* \"#utility.yul\":25780:25784   */\n      dup2\n        /* \"#utility.yul\":25654:25785   */\n      tag_443\n      jump\t// in\n    tag_703:\n        /* \"#utility.yul\":25646:25785   */\n      swap1\n      pop\n        /* \"#utility.yul\":25373:25792   */\n      swap2\n      swap1\n      pop\n      jump\t// out\n        /* \"#utility.yul\":25798:25978   */\n    tag_444:\n        /* \"#utility.yul\":25846:25923   */\n      0x4e487b7100000000000000000000000000000000000000000000000000000000\n        /* \"#utility.yul\":25843:25844   */\n      0x00\n        /* \"#utility.yul\":25836:25924   */\n      mstore\n        /* \"#utility.yul\":25943:25947   */\n      0x11\n        /* \"#utility.yul\":25940:25941   */\n      0x04\n        /* \"#utility.yul\":25933:25948   */\n      mstore\n        /* \"#utility.yul\":25967:25971   */\n      0x24\n        /* \"#utility.yul\":25964:25965   */\n      0x00\n        /* \"#utility.yul\":25957:25972   */\n      revert\n        /* \"#utility.yul\":25984:26155   */\n    tag_82:\n        /* \"#utility.yul\":26023:26026   */\n      0x00\n        /* \"#utility.yul\":26046:26070   */\n      tag_706\n        /* \"#utility.yul\":26064:26069   */\n      dup3\n        /* \"#utility.yul\":26046:26070   */\n      tag_378\n      jump\t// in\n    tag_706:\n        /* \"#utility.yul\":26037:26070   */\n      swap2\n      pop\n        /* \"#utility.yul\":26092:26096   */\n      0x00\n        /* \"#utility.yul\":26085:26090   */\n      dup3\n        /* \"#utility.yul\":26082:26097   */\n      sub\n        /* \"#utility.yul\":26079:26120   */\n      tag_707\n      jumpi\n        /* \"#utility.yul\":26100:26118   */\n      tag_708\n      tag_444\n      jump\t// in\n    tag_708:\n        /* \"#utility.yul\":26079:26120   */\n    tag_707:\n        /* \"#utility.yul\":26147:26148   */\n      0x01\n        /* \"#utility.yul\":26140:26145   */\n      dup3\n        /* \"#utility.yul\":26136:26149   */\n      sub\n        /* \"#utility.yul\":26129:26149   */\n      swap1\n      pop\n        /* \"#utility.yul\":25984:26155   */\n      swap2\n      swap1\n      pop\n      jump\t// out\n        /* \"#utility.yul\":26161:26394   */\n    tag_92:\n        /* \"#utility.yul\":26200:26203   */\n      0x00\n        /* \"#utility.yul\":26223:26247   */\n      tag_710\n        /* \"#utility.yul\":26241:26246   */\n      dup3\n        /* \"#utility.yul\":26223:26247   */\n      tag_378\n      jump\t// in\n    tag_710:\n        /* \"#utility.yul\":26214:26247   */\n      swap2\n      pop\n        /* \"#utility.yul\":26269:26335   */\n      0xffffffffffffffffffffffffffffffffffffffffffffffffffffffffffffffff\n        /* \"#utility.yul\":26262:26267   */\n      dup3\n        /* \"#utility.yul\":26259:26336   */\n      sub\n        /* \"#utility.yul\":26256:26359   */\n      tag_711\n      jumpi\n        /* \"#utility.yul\":26339:26357   */\n      tag_712\n      tag_444\n      jump\t// in\n    tag_712:\n        /* \"#utility.yul\":26256:26359   */\n    tag_711:\n        /* \"#utility.yul\":26386:26387   */\n      0x01\n        /* \"#utility.yul\":26379:26384   */\n      dup3\n        /* \"#utility.yul\":26375:26388   */\n      add\n        /* \"#utility.yul\":26368:26388   */\n      swap1\n      pop\n        /* \"#utility.yul\":26161:26394   */\n      swap2\n      swap1\n      pop\n      jump\t// out\n        /* \"#utility.yul\":26400:26580   */\n    tag_445:\n        /* \"#utility.yul\":26448:26525   */\n      0x4e487b7100000000000000000000000000000000000000000000000000000000\n        /* \"#utility.yul\":26445:26446   */\n      0x00\n        /* \"#utility.yul\":26438:26526   */\n      mstore\n        /* \"#utility.yul\":26545:26549   */\n      0x22\n        /* \"#utility.yul\":26542:26543   */\n      0x04\n        /* \"#utility.yul\":26535:26550   */\n      mstore\n        /* \"#utility.yul\":26569:26573   */\n      0x24\n        /* \"#utility.yul\":26566:26567   */\n      0x00\n        /* \"#utility.yul\":26559:26574   */\n      revert\n        /* \"#utility.yul\":26586:26906   */\n    tag_139:\n        /* \"#utility.yul\":26630:26636   */\n      0x00\n        /* \"#utility.yul\":26667:26668   */\n      0x02\n        /* \"#utility.yul\":26661:26665   */\n      dup3\n        /* \"#utility.yul\":26657:26669   */\n      div\n        /* \"#utility.yul\":26647:26669   */\n      swap1\n      pop\n        /* \"#utility.yul\":26714:26715   */\n      0x01\n        /* \"#utility.yul\":26708:26712   */\n      dup3\n        /* \"#utility.yul\":26704:26716   */\n      and\n        /* \"#utility.yul\":26735:26753   */\n      dup1\n        /* \"#utility.yul\":26725:26806   */\n      tag_715\n      jumpi\n        /* \"#utility.yul\":26791:26795   */\n      0x7f\n        /* \"#utility.yul\":26783:26789   */\n      dup3\n        /* \"#utility.yul\":26779:26796   */\n      and\n        /* \"#utility.yul\":26769:26796   */\n      swap2\n      pop\n        /* \"#utility.yul\":26725:26806   */\n    tag_715:\n        /* \"#utility.yul\":26853:26855   */\n      0x20\n        /* \"#utility.yul\":26845:26851   */\n      dup3\n        /* \"#utility.yul\":26842:26856   */\n      lt\n        /* \"#utility.yul\":26822:26840   */\n      dup2\n        /* \"#utility.yul\":26819:26857   */\n      sub\n        /* \"#utility.yul\":26816:26900   */\n      tag_716\n      jumpi\n        /* \"#utility.yul\":26872:26890   */\n      tag_717\n      tag_445\n      jump\t// in\n    tag_717:\n        /* \"#utility.yul\":26816:26900   */\n    tag_716:\n        /* \"#utility.yul\":26637:26906   */\n      pop\n        /* \"#utility.yul\":26586:26906   */\n      swap2\n      swap1\n      pop\n      jump\t// out\n        /* \"#utility.yul\":26912:27083   */\n    tag_446:\n        /* \"#utility.yul\":27052:27075   */\n      0x5469746c652063616e6e6f7420626520656d7074790000000000000000000000\n        /* \"#utility.yul\":27048:27049   */\n      0x00\n        /* \"#utility.yul\":27040:27046   */\n      dup3\n        /* \"#utility.yul\":27036:27050   */\n      add\n        /* \"#utility.yul\":27029:27076   */\n      mstore\n        /* \"#utility.yul\":26912:27083   */\n      pop\n      jump\t// out\n        /* \"#utility.yul\":27089:27455   */\n    tag_447:\n        /* \"#utility.yul\":27231:27234   */\n      0x00\n        /* \"#utility.yul\":27252:27319   */\n      tag_720\n        /* \"#utility.yul\":27316:27318   */\n      0x15\n        /* \"#utility.yul\":27311:27314   */\n      dup4\n        /* \"#utility.yul\":27252:27319   */\n      tag_425\n      jump\t// in\n    tag_720:\n        /* \"#utility.yul\":27245:27319   */\n      swap2\n      pop\n        /* \"#utility.yul\":27328:27421   */\n      tag_721\n        /* \"#utility.yul\":27417:27420   */\n      dup3\n        /* \"#utility.yul\":27328:27421   */\n      tag_446\n      jump\t// in\n    tag_721:\n        /* \"#utility.yul\":27446:27448   */\n      0x20\n        /* \"#utility.yul\":27441:27444   */\n      dup3\n        /* \"#utility.yul\":27437:27449   */\n      add\n        /* \"#utility.yul\":27430:27449   */\n      swap1\n      pop\n        /* \"#utility.yul\":27089:27455   */\n      swap2\n      swap1\n      pop\n      jump\t// out\n        /* \"#utility.yul\":27461:27880   */\n    tag_190:\n        /* \"#utility.yul\":27627:27631   */\n      0x00\n        /* \"#utility.yul\":27665:27667   */\n      0x20\n        /* \"#utility.yul\":27654:27663   */\n      dup3\n        /* \"#utility.yul\":27650:27668   */\n      add\n        /* \"#utility.yul\":27642:27668   */\n      swap1\n      pop\n        /* \"#utility.yul\":27714:27723   */\n      dup2\n        /* \"#utility.yul\":27708:27712   */\n      dup2\n        /* \"#utility.yul\":27704:27724   */\n      sub\n        /* \"#utility.yul\":27700:27701   */\n      0x00\n        /* \"#utility.yul\":27689:27698   */\n      dup4\n        /* \"#utility.yul\":27685:27702   */\n      add\n        /* \"#utility.yul\":27678:27725   */\n      mstore\n        /* \"#utility.yul\":27742:27873   */\n      tag_723\n        /* \"#utility.yul\":27868:27872   */\n      dup2\n        /* \"#utility.yul\":27742:27873   */\n      tag_447\n      jump\t// in\n    tag_723:\n        /* \"#utility.yul\":27734:27873   */\n      swap1\n      pop\n        /* \"#utility.yul\":27461:27880   */\n      swap2\n      swap1\n      pop\n      jump\t// out\n        /* \"#utility.yul\":27886:28050   */\n    tag_448:\n        /* \"#utility.yul\":28026:28042   */\n      0x5469746c6520746f6f206c6f6e67000000000000000000000000000000000000\n        /* \"#utility.yul\":28022:28023   */\n      0x00\n        /* \"#utility.yul\":28014:28020   */\n      dup3\n        /* \"#utility.yul\":28010:28024   */\n      add\n        /* \"#utility.yul\":28003:28043   */\n      mstore\n        /* \"#utility.yul\":27886:28050   */\n      pop\n      jump\t// out\n        /* \"#utility.yul\":28056:28422   */\n    tag_449:\n        /* \"#utility.yul\":28198:28201   */\n      0x00\n        /* \"#utility.yul\":28219:28286   */\n      tag_726\n        /* \"#utility.yul\":28283:28285   */\n      0x0e\n        /* \"#utility.yul\":28278:28281   */\n      dup4\n        /* \"#utility.yul\":28219:28286   */\n      tag_425\n      jump\t// in\n    tag_726:\n        /* \"#utility.yul\":28212:28286   */\n      swap2\n      pop\n        /* \"#utility.yul\":28295:28388   */\n      tag_727\n        /* \"#utility.yul\":28384:28387   */\n      dup3\n        /* \"#utility.yul\":28295:28388   */\n      tag_448\n      jump\t// in\n    tag_727:\n        /* \"#utility.yul\":28413:28415   */\n      0x20\n        /* \"#utility.yul\":28408:28411   */\n      dup3\n        /* \"#utility.yul\":28404:28416   */\n      add\n        /* \"#utility.yul\":28397:28416   */\n      swap1\n      pop\n        /* \"#utility.yul\":28056:28422   */\n      swap2\n      swap1\n      pop\n      jump\t// out\n        /* \"#utility.yul\":28428:28847   */\n    tag_193:\n        /* \"#utility.yul\":28594:28598   */\n      0x00\n        /* \"#utility.yul\":28632:28634   */\n      0x20\n        /* \"#utility.yul\":28621:28630   */\n      dup3\n        /* \"#utility.yul\":28617:28635   */\n      add\n        /* \"#utility.yul\":28609:28635   */\n      swap1\n      pop\n        /* \"#utility.yul\":28681:28690   */\n      dup2\n        /* \"#utility.yul\":28675:28679   */\n      dup2\n        /* \"#utility.yul\":28671:28691   */\n      sub\n        /* \"#utility.yul\":28667:28668   */\n      0x00\n        /* \"#utility.yul\":28656:28665   */\n      dup4\n        /* \"#utility.yul\":28652:28669   */\n      add\n        /* \"#utility.yul\":28645:28692   */\n      mstore\n        /* \"#utility.yul\":28709:28840   */\n      tag_729\n        /* \"#utility.yul\":28835:28839   */\n      dup2\n        /* \"#utility.yul\":28709:28840   */\n      tag_449\n      jump\t// in\n    tag_729:\n        /* \"#utility.yul\":28701:28840   */\n      swap1\n      pop\n        /* \"#utility.yul\":28428:28847   */\n      swap2\n      swap1\n      pop\n      jump\t// out\n        /* \"#utility.yul\":28853:29026   */\n    tag_450:\n        /* \"#utility.yul\":28993:29018   */\n      0x436f6e74656e742063616e6e6f7420626520656d707479000000000000000000\n        /* \"#utility.yul\":28989:28990   */\n      0x00\n        /* \"#utility.yul\":28981:28987   */\n      dup3\n        /* \"#utility.yul\":28977:28991   */\n      add\n        /* \"#utility.yul\":28970:29019   */\n      mstore\n        /* \"#utility.yul\":28853:29026   */\n      pop\n      jump\t// out\n        /* \"#utility.yul\":29032:29398   */\n    tag_451:\n        /* \"#utility.yul\":29174:29177   */\n      0x00\n        /* \"#utility.yul\":29195:29262   */\n      tag_732\n        /* \"#utility.yul\":29259:29261   */\n      0x17\n        /* \"#utility.yul\":29254:29257   */\n      dup4\n        /* \"#utility.yul\":29195:29262   */\n      tag_425\n      jump\t// in\n    tag_732:\n        /* \"#utility.yul\":29188:29262   */\n      swap2\n      pop\n        /* \"#utility.yul\":29271:29364   */\n      tag_733\n        /* \"#utility.yul\":29360:29363   */\n      dup3\n        /* \"#utility.yul\":29271:29364   */\n      tag_450\n      jump\t// in\n    tag_733:\n        /* \"#utility.yul\":29389:29391   */\n      0x20\n        /* \"#utility.yul\":29384:29387   */\n      dup3\n        /* \"#utility.yul\":29380:29392   */\n      add\n        /* \"#utility.yul\":29373:29392   */\n      swap1\n      pop\n        /* \"#utility.yul\":29032:29398   */\n      swap2\n      swap1\n      pop\n      jump\t// out\n        /* \"#utility.yul\":29404:29823   */\n    tag_196:\n        /* \"#utility.yul\":29570:29574   */\n      0x00\n        /* \"#utility.yul\":29608:29610   */\n      0x20\n        /* \"#utility.yul\":29597:29606   */\n      dup3\n        /* \"#utility.yul\":29593:29611   */\n      add\n        /* \"#utility.yul\":29585:29611   */\n      swap1\n      pop\n        /* \"#utility.yul\":29657:29666   */\n      dup2\n        /* \"#utility.yul\":29651:29655   */\n      dup2\n        /* \"#utility.yul\":29647:29667   */\n      sub\n        /* \"#utility.yul\":29643:29644   */\n      0x00\n        /* \"#utility.yul\":29632:29641   */\n      dup4\n        /* \"#utility.yul\":29628:29645   */\n      add\n        /* \"#utility.yul\":29621:29668   */\n      mstore\n        /* \"#utility.yul\":29685:29816   */\n      tag_735\n        /* \"#utility.yul\":29811:29815   */\n      dup2\n        /* \"#utility.yul\":29685:29816   */\n      tag_451\n      jump\t// in\n    tag_735:\n        /* \"#utility.yul\":29677:29816   */\n      swap1\n      pop\n        /* \"#utility.yul\":29404:29823   */\n      swap2\n      swap1\n      pop\n      jump\t// out\n        /* \"#utility.yul\":29829:29995   */\n    tag_452:\n        /* \"#utility.yul\":29969:29987   */\n      0x436f6e74656e7420746f6f206c6f6e6700000000000000000000000000000000\n        /* \"#utility.yul\":29965:29966   */\n      0x00\n        /* \"#utility.yul\":29957:29963   */\n      dup3\n        /* \"#utility.yul\":29953:29967   */\n      add\n        /* \"#utility.yul\":29946:29988   */\n      mstore\n        /* \"#utility.yul\":29829:29995   */\n      pop\n      jump\t// out\n        /* \"#utility.yul\":30001:30367   */\n    tag_453:\n        /* \"#utility.yul\":30143:30146   */\n      0x00\n        /* \"#utility.yul\":30164:30231   */\n      tag_738\n        /* \"#utility.yul\":30228:30230   */\n      0x10\n        /* \"#utility.yul\":30223:30226   */\n      dup4\n        /* \"#utility.yul\":30164:30231   */\n      tag_425\n      jump\t// in\n    tag_738:\n        /* \"#utility.yul\":30157:30231   */\n      swap2\n      pop\n        /* \"#utility.yul\":30240:30333   */\n      tag_739\n        /* \"#utility.yul\":30329:30332   */\n      dup3\n        /* \"#utility.yul\":30240:30333   */\n      tag_452\n      jump\t// in\n    tag_739:\n        /* \"#utility.yul\":30358:30360   */\n      0x20\n        /* \"#utility.yul\":30353:30356   */\n      dup3\n        /* \"#utility.yul\":30349:30361   */\n      add\n        /* \"#utility.yul\":30342:30361   */\n      swap1\n      pop\n        /* \"#utility.yul\":30001:30367   */\n      swap2\n      swap1\n      pop\n      jump\t// out\n        /* \"#utility.yul\":30373:30792   */\n    tag_199:\n        /* \"#utility.yul\":30539:30543   */\n      0x00\n        /* \"#utility.yul\":30577:30579   */\n      0x20\n        /* \"#utility.yul\":30566:30575   */\n      dup3\n        /* \"#utility.yul\":30562:30580   */\n      add\n        /* \"#utility.yul\":30554:30580   */\n      swap1\n      pop\n        /* \"#utility.yul\":30626:30635   */\n      dup2\n        /* \"#utility.yul\":30620:30624   */\n      dup2\n        /* \"#utility.yul\":30616:30636   */\n      sub\n        /* \"#utility.yul\":30612:30613   */\n      0x00\n        /* \"#utility.yul\":30601:30610   */\n      dup4\n        /* \"#utility.yul\":30597:30614   */\n      add\n        /* \"#utility.yul\":30590:30637   */\n      mstore\n        /* \"#utility.yul\":30654:30785   */\n      tag_741\n        /* \"#utility.yul\":30780:30784   */\n      dup2\n        /* \"#utility.yul\":30654:30785   */\n      tag_453\n      jump\t// in\n    tag_741:\n        /* \"#utility.yul\":30646:30785   */\n      swap1\n      pop\n        /* \"#utility.yul\":30373:30792   */\n      swap2\n      swap1\n      pop\n      jump\t// out\n        /* \"#utility.yul\":30798:30939   */\n    tag_454:\n        /* \"#utility.yul\":30847:30851   */\n      0x00\n        /* \"#utility.yul\":30870:30873   */\n      dup2\n        /* \"#utility.yul\":30862:30873   */\n      swap1\n      pop\n        /* \"#utility.yul\":30893:30896   */\n      dup2\n        /* \"#utility.yul\":30890:30891   */\n      0x00\n        /* \"#utility.yul\":30883:30897   */\n      mstore\n        /* \"#utility.yul\":30927:30931   */\n      0x20\n        /* \"#utility.yul\":30924:30925   */\n      0x00\n        /* \"#utility.yul\":30914:30932   */\n      keccak256\n        /* \"#utility.yul\":30906:30932   */\n      swap1\n      pop\n        /* \"#utility.yul\":30798:30939   */\n      swap2\n      swap1\n      pop\n      jump\t// out\n        /* \"#utility.yul\":30945:31038   */\n    tag_455:\n        /* \"#utility.yul\":30982:30988   */\n      0x00\n        /* \"#utility.yul\":31029:31031   */\n      0x20\n        /* \"#utility.yul\":31024:31026   */\n      0x1f\n        /* \"#utility.yul\":31017:31022   */\n      dup4\n        /* \"#utility.yul\":31013:31027   */\n      add\n        /* \"#utility.yul\":31009:31032   */\n      div\n        /* \"#utility.yul\":30999:31032   */\n      swap1\n      pop\n        /* \"#utility.yul\":30945:31038   */\n      swap2\n      swap1\n      pop\n      jump\t// out\n        /* \"#utility.yul\":31044:31151   */\n    tag_456:\n        /* \"#utility.yul\":31088:31096   */\n      0x00\n        /* \"#utility.yul\":31138:31143   */\n      dup3\n        /* \"#utility.yul\":31132:31136   */\n      dup3\n        /* \"#utility.yul\":31128:31144   */\n      shl\n        /* \"#utility.yul\":31107:31144   */\n      swap1\n      pop\n        /* \"#utility.yul\":31044:31151   */\n      swap3\n      swap2\n      pop\n      pop\n      jump\t// out\n        /* \"#utility.yul\":31157:31550   */\n    tag_457:\n        /* \"#utility.yul\":31226:31232   */\n      0x00\n        /* \"#utility.yul\":31276:31277   */\n      0x08\n        /* \"#utility.yul\":31264:31274   */\n      dup4\n        /* \"#utility.yul\":31260:31278   */\n      mul\n        /* \"#utility.yul\":31299:31396   */\n      tag_746\n        /* \"#utility.yul\":31329:31395   */\n      0xffffffffffffffffffffffffffffffffffffffffffffffffffffffffffffffff\n        /* \"#utility.yul\":31318:31327   */\n      dup3\n        /* \"#utility.yul\":31299:31396   */\n      tag_456\n      jump\t// in\n    tag_746:\n        /* \"#utility.yul\":31417:31456   */\n      tag_747\n        /* \"#utility.yul\":31447:31455   */\n      dup7\n        /* \"#utility.yul\":31436:31445   */\n      dup4\n        /* \"#utility.yul\":31417:31456   */\n      tag_456\n      jump\t// in\n    tag_747:\n        /* \"#utility.yul\":31405:31456   */\n      swap6\n      pop\n        /* \"#utility.yul\":31489:31493   */\n      dup1\n        /* \"#utility.yul\":31485:31494   */\n      not\n        /* \"#utility.yul\":31478:31483   */\n      dup5\n        /* \"#utility.yul\":31474:31495   */\n      and\n        /* \"#utility.yul\":31465:31495   */\n      swap4\n      pop\n        /* \"#utility.yul\":31538:31542   */\n      dup1\n        /* \"#utility.yul\":31528:31536   */\n      dup7\n        /* \"#utility.yul\":31524:31543   */\n      and\n        /* \"#utility.yul\":31517:31522   */\n      dup5\n        /* \"#utility.yul\":31514:31544   */\n      or\n        /* \"#utility.yul\":31504:31544   */\n      swap3\n      pop\n        /* \"#utility.yul\":31233:31550   */\n      pop\n      pop\n        /* \"#utility.yul\":31157:31550   */\n      swap4\n      swap3\n      pop\n      pop\n      pop\n      jump\t// out\n        /* \"#utility.yul\":31556:31616   */\n    tag_458:\n        /* \"#utility.yul\":31584:31587   */\n      0x00\n        /* \"#utility.yul\":31605:31610   */\n      dup2\n        /* \"#utility.yul\":31598:31610   */\n      swap1\n      pop\n        /* \"#utility.yul\":31556:31616   */\n      swap2\n      swap1\n      pop\n      jump\t// out\n        /* \"#utility.yul\":31622:31764   */\n    tag_459:\n        /* \"#utility.yul\":31672:31681   */\n      0x00\n        /* \"#utility.yul\":31705:31758   */\n      tag_750\n        /* \"#utility.yul\":31723:31757   */\n      tag_751\n        /* \"#utility.yul\":31732:31756   */\n      tag_752\n        /* \"#utility.yul\":31750:31755   */\n      dup5\n        /* \"#utility.yul\":31732:31756   */\n      tag_378\n      jump\t// in\n    tag_752:\n        /* \"#utility.yul\":31723:31757   */\n      tag_458\n      jump\t// in\n    tag_751:\n        /* \"#utility.yul\":31705:31758   */\n      tag_378\n      jump\t// in\n    tag_750:\n        /* \"#utility.yul\":31692:31758   */\n      swap1\n      pop\n        /* \"#utility.yul\":31622:31764   */\n      swap2\n      swap1\n      pop\n      jump\t// out\n        /* \"#utility.yul\":31770:31845   */\n    tag_460:\n        /* \"#utility.yul\":31813:31816   */\n      0x00\n        /* \"#utility.yul\":31834:31839   */\n      dup2\n        /* \"#utility.yul\":31827:31839   */\n      swap1\n      pop\n        /* \"#utility.yul\":31770:31845   */\n      swap2\n      swap1\n      pop\n      jump\t// out\n        /* \"#utility.yul\":31851:32120   */\n    tag_461:\n        /* \"#utility.yul\":31961:32000   */\n      tag_755\n        /* \"#utility.yul\":31992:31999   */\n      dup4\n        /* \"#utility.yul\":31961:32000   */\n      tag_459\n      jump\t// in\n    tag_755:\n        /* \"#utility.yul\":32022:32113   */\n      tag_756\n        /* \"#utility.yul\":32071:32112   */\n      tag_757\n        /* \"#utility.yul\":32095:32111   */\n      dup3\n        /* \"#utility.yul\":32071:32112   */\n      tag_460\n      jump\t// in\n    tag_757:\n        /* \"#utility.yul\":32063:32069   */\n      dup5\n        /* \"#utility.yul\":32056:32060   */\n      dup5\n        /* \"#utility.yul\":32050:32061   */\n      sload\n        /* \"#utility.yul\":32022:32113   */\n      tag_457\n      jump\t// in\n    tag_756:\n        /* \"#utility.yul\":32016:32020   */\n      dup3\n        /* \"#utility.yul\":32009:32114   */\n      sstore\n        /* \"#utility.yul\":31927:32120   */\n      pop\n        /* \"#utility.yul\":31851:32120   */\n      pop\n      pop\n      pop\n      jump\t// out\n        /* \"#utility.yul\":32126:32199   */\n    tag_462:\n        /* \"#utility.yul\":32171:32174   */\n      0x00\n        /* \"#utility.yul\":32126:32199   */\n      swap1\n      jump\t// out\n        /* \"#utility.yul\":32205:32394   */\n    tag_463:\n        /* \"#utility.yul\":32282:32314   */\n      tag_760\n      tag_462\n      jump\t// in\n    tag_760:\n        /* \"#utility.yul\":32323:32388   */\n      tag_761\n        /* \"#utility.yul\":32381:32387   */\n      dup2\n        /* \"#utility.yul\":32373:32379   */\n      dup5\n        /* \"#utility.yul\":32367:32371   */\n      dup5\n        /* \"#utility.yul\":32323:32388   */\n      tag_461\n      jump\t// in\n    tag_761:\n        /* \"#utility.yul\":32258:32394   */\n      pop\n        /* \"#utility.yul\":32205:32394   */\n      pop\n      pop\n      jump\t// out\n        /* \"#utility.yul\":32400:32586   */\n    tag_464:\n        /* \"#utility.yul\":32460:32580   */\n    tag_763:\n        /* \"#utility.yul\":32477:32480   */\n      dup2\n        /* \"#utility.yul\":32470:32475   */\n      dup2\n        /* \"#utility.yul\":32467:32481   */\n      lt\n        /* \"#utility.yul\":32460:32580   */\n      iszero\n      tag_765\n      jumpi\n        /* \"#utility.yul\":32531:32570   */\n      tag_766\n        /* \"#utility.yul\":32568:32569   */\n      0x00\n        /* \"#utility.yul\":32561:32566   */\n      dup3\n        /* \"#utility.yul\":32531:32570   */\n      tag_463\n      jump\t// in\n    tag_766:\n        /* \"#utility.yul\":32504:32505   */\n      0x01\n        /* \"#utility.yul\":32497:32502   */\n      dup2\n        /* \"#utility.yul\":32493:32506   */\n      add\n        /* \"#utility.yul\":32484:32506   */\n      swap1\n      pop\n        /* \"#utility.yul\":32460:32580   */\n      jump(tag_763)\n    tag_765:\n        /* \"#utility.yul\":32400:32586   */\n      pop\n      pop\n      jump\t// out\n        /* \"#utility.yul\":32592:33135   */\n    tag_465:\n        /* \"#utility.yul\":32693:32695   */\n      0x1f\n        /* \"#utility.yul\":32688:32691   */\n      dup3\n        /* \"#utility.yul\":32685:32696   */\n      gt\n        /* \"#utility.yul\":32682:33128   */\n      iszero\n      tag_768\n      jumpi\n        /* \"#utility.yul\":32727:32765   */\n      tag_769\n        /* \"#utility.yul\":32759:32764   */\n      dup2\n        /* \"#utility.yul\":32727:32765   */\n      tag_454\n      jump\t// in\n    tag_769:\n        /* \"#utility.yul\":32811:32840   */\n      tag_770\n        /* \"#utility.yul\":32829:32839   */\n      dup5\n        /* \"#utility.yul\":32811:32840   */\n      tag_455\n      jump\t// in\n    tag_770:\n        /* \"#utility.yul\":32801:32809   */\n      dup2\n        /* \"#utility.yul\":32797:32841   */\n      add\n        /* \"#utility.yul\":32994:32996   */\n      0x20\n        /* \"#utility.yul\":32982:32992   */\n      dup6\n        /* \"#utility.yul\":32979:32997   */\n      lt\n        /* \"#utility.yul\":32976:33025   */\n      iszero\n      tag_771\n      jumpi\n        /* \"#utility.yul\":33015:33023   */\n      dup2\n        /* \"#utility.yul\":33000:33023   */\n      swap1\n      pop\n        /* \"#utility.yul\":32976:33025   */\n    tag_771:\n        /* \"#utility.yul\":33038:33118   */\n      tag_772\n        /* \"#utility.yul\":33094:33116   */\n      tag_773\n        /* \"#utility.yul\":33112:33115   */\n      dup6\n        /* \"#utility.yul\":33094:33116   */\n      tag_455\n      jump\t// in\n    tag_773:\n        /* \"#utility.yul\":33084:33092   */\n      dup4\n        /* \"#utility.yul\":33080:33117   */\n      add\n        /* \"#utility.yul\":33067:33078   */\n      dup3\n        /* \"#utility.yul\":33038:33118   */\n      tag_464\n      jump\t// in\n    tag_772:\n        /* \"#utility.yul\":32697:33128   */\n      pop\n      pop\n        /* \"#utility.yul\":32682:33128   */\n    tag_768:\n        /* \"#utility.yul\":32592:33135   */\n      pop\n      pop\n      pop\n      jump\t// out\n        /* \"#utility.yul\":33141:33258   */\n    tag_466:\n        /* \"#utility.yul\":33195:33203   */\n      0x00\n        /* \"#utility.yul\":33245:33250   */\n      dup3\n        /* \"#utility.yul\":33239:33243   */\n      dup3\n        /* \"#utility.yul\":33235:33251   */\n      shr\n        /* \"#utility.yul\":33214:33251   */\n      swap1\n      pop\n        /* \"#utility.yul\":33141:33258   */\n      swap3\n      swap2\n      pop\n      pop\n      jump\t// out\n        /* \"#utility.yul\":33264:33433   */\n    tag_467:\n        /* \"#utility.yul\":33308:33314   */\n      0x00\n        /* \"#utility.yul\":33341:33392   */\n      tag_776\n        /* \"#utility.yul\":33389:33390   */\n      0x00\n        /* \"#utility.yul\":33385:33391   */\n      not\n        /* \"#utility.yul\":33377:33382   */\n      dup5\n        /* \"#utility.yul\":33374:33375   */\n      0x08\n        /* \"#utility.yul\":33370:33383   */\n      mul\n        /* \"#utility.yul\":33341:33392   */\n      tag_466\n      jump\t// in\n    tag_776:\n        /* \"#utility.yul\":33337:33393   */\n      not\n        /* \"#utility.yul\":33422:33426   */\n      dup1\n        /* \"#utility.yul\":33416:33420   */\n      dup4\n        /* \"#utility.yul\":33412:33427   */\n      and\n        /* \"#utility.yul\":33402:33427   */\n      swap2\n      pop\n        /* \"#utility.yul\":33315:33433   */\n      pop\n        /* \"#utility.yul\":33264:33433   */\n      swap3\n      swap2\n      pop\n      pop\n      jump\t// out\n        /* \"#utility.yul\":33438:33733   */\n    tag_468:\n        /* \"#utility.yul\":33514:33518   */\n      0x00\n        /* \"#utility.yul\":33660:33689   */\n      tag_778\n        /* \"#utility.yul\":33685:33688   */\n      dup4\n        /* \"#utility.yul\":33679:33683   */\n      dup4\n        /* \"#utility.yul\":33660:33689   */\n      tag_467\n      jump\t// in\n    tag_778:\n        /* \"#utility.yul\":33652:33689   */\n      swap2\n      pop\n        /* \"#utility.yul\":33722:33725   */\n      dup3\n        /* \"#utility.yul\":33719:33720   */\n      0x02\n        /* \"#utility.yul\":33715:33726   */\n      mul\n        /* \"#utility.yul\":33709:33713   */\n      dup3\n        /* \"#utility.yul\":33706:33727   */\n      or\n        /* \"#utility.yul\":33698:33727   */\n      swap1\n      pop\n        /* \"#utility.yul\":33438:33733   */\n      swap3\n      swap2\n      pop\n      pop\n      jump\t// out\n        /* \"#utility.yul\":33738:35133   */\n    tag_202:\n        /* \"#utility.yul\":33855:33892   */\n      tag_780\n        /* \"#utility.yul\":33888:33891   */\n      dup3\n        /* \"#utility.yul\":33855:33892   */\n      tag_392\n      jump\t// in\n    tag_780:\n        /* \"#utility.yul\":33957:33975   */\n      0xffffffffffffffff\n        /* \"#utility.yul\":33949:33955   */\n      dup2\n        /* \"#utility.yul\":33946:33976   */\n      gt\n        /* \"#utility.yul\":33943:33999   */\n      iszero\n      tag_781\n      jumpi\n        /* \"#utility.yul\":33979:33997   */\n      tag_782\n      tag_95\n      jump\t// in\n    tag_782:\n        /* \"#utility.yul\":33943:33999   */\n    tag_781:\n        /* \"#utility.yul\":34023:34061   */\n      tag_783\n        /* \"#utility.yul\":34055:34059   */\n      dup3\n        /* \"#utility.yul\":34049:34060   */\n      sload\n        /* \"#utility.yul\":34023:34061   */\n      tag_139\n      jump\t// in\n    tag_783:\n        /* \"#utility.yul\":34108:34175   */\n      tag_784\n        /* \"#utility.yul\":34168:34174   */\n      dup3\n        /* \"#utility.yul\":34160:34166   */\n      dup3\n        /* \"#utility.yul\":34154:34158   */\n      dup6\n        /* \"#utility.yul\":34108:34175   */\n      tag_465\n      jump\t// in\n    tag_784:\n        /* \"#utility.yul\":34202:34203   */\n      0x00\n        /* \"#utility.yul\":34226:34230   */\n      0x20\n        /* \"#utility.yul\":34213:34230   */\n      swap1\n      pop\n        /* \"#utility.yul\":34258:34260   */\n      0x1f\n        /* \"#utility.yul\":34250:34256   */\n      dup4\n        /* \"#utility.yul\":34247:34261   */\n      gt\n        /* \"#utility.yul\":34275:34276   */\n      0x01\n        /* \"#utility.yul\":34270:34888   */\n      dup2\n      eq\n      tag_786\n      jumpi\n        /* \"#utility.yul\":34932:34933   */\n      0x00\n        /* \"#utility.yul\":34949:34955   */\n      dup5\n        /* \"#utility.yul\":34946:35023   */\n      iszero\n      tag_787\n      jumpi\n        /* \"#utility.yul\":34998:35007   */\n      dup3\n        /* \"#utility.yul\":34993:34996   */\n      dup8\n        /* \"#utility.yul\":34989:35008   */\n      add\n        /* \"#utility.yul\":34983:35009   */\n      mload\n        /* \"#utility.yul\":34974:35009   */\n      swap1\n      pop\n        /* \"#utility.yul\":34946:35023   */\n    tag_787:\n        /* \"#utility.yul\":35049:35116   */\n      tag_788\n        /* \"#utility.yul\":35109:35115   */\n      dup6\n        /* \"#utility.yul\":35102:35107   */\n      dup3\n        /* \"#utility.yul\":35049:35116   */\n      tag_468\n      jump\t// in\n    tag_788:\n        /* \"#utility.yul\":35043:35047   */\n      dup7\n        /* \"#utility.yul\":35036:35117   */\n      sstore\n        /* \"#utility.yul\":34905:35127   */\n      pop\n        /* \"#utility.yul\":34240:35127   */\n      jump(tag_785)\n        /* \"#utility.yul\":34270:34888   */\n    tag_786:\n        /* \"#utility.yul\":34322:34326   */\n      0x1f\n        /* \"#utility.yul\":34318:34327   */\n      not\n        /* \"#utility.yul\":34310:34316   */\n      dup5\n        /* \"#utility.yul\":34306:34328   */\n      and\n        /* \"#utility.yul\":34356:34393   */\n      tag_789\n        /* \"#utility.yul\":34388:34392   */\n      dup7\n        /* \"#utility.yul\":34356:34393   */\n      tag_454\n      jump\t// in\n    tag_789:\n        /* \"#utility.yul\":34415:34416   */\n      0x00\n        /* \"#utility.yul\":34429:34637   */\n    tag_790:\n        /* \"#utility.yul\":34443:34450   */\n      dup3\n        /* \"#utility.yul\":34440:34441   */\n      dup2\n        /* \"#utility.yul\":34437:34451   */\n      lt\n        /* \"#utility.yul\":34429:34637   */\n      iszero\n      tag_792\n      jumpi\n        /* \"#utility.yul\":34522:34531   */\n      dup5\n        /* \"#utility.yul\":34517:34520   */\n      dup10\n        /* \"#utility.yul\":34513:34532   */\n      add\n        /* \"#utility.yul\":34507:34533   */\n      mload\n        /* \"#utility.yul\":34499:34505   */\n      dup3\n        /* \"#utility.yul\":34492:34534   */\n      sstore\n        /* \"#utility.yul\":34573:34574   */\n      0x01\n        /* \"#utility.yul\":34565:34571   */\n      dup3\n        /* \"#utility.yul\":34561:34575   */\n      add\n        /* \"#utility.yul\":34551:34575   */\n      swap2\n      pop\n        /* \"#utility.yul\":34620:34622   */\n      0x20\n        /* \"#utility.yul\":34609:34618   */\n      dup6\n        /* \"#utility.yul\":34605:34623   */\n      add\n        /* \"#utility.yul\":34592:34623   */\n      swap5\n      pop\n        /* \"#utility.yul\":34466:34470   */\n      0x20\n        /* \"#utility.yul\":34463:34464   */\n      dup2\n        /* \"#utility.yul\":34459:34471   */\n      add\n        /* \"#utility.yul\":34454:34471   */\n      swap1\n      pop\n        /* \"#utility.yul\":34429:34637   */\n      jump(tag_790)\n    tag_792:\n        /* \"#utility.yul\":34665:34671   */\n      dup7\n        /* \"#utility.yul\":34656:34663   */\n      dup4\n        /* \"#utility.yul\":34653:34672   */\n      lt\n        /* \"#utility.yul\":34650:34829   */\n      iszero\n      tag_793\n      jumpi\n        /* \"#utility.yul\":34723:34732   */\n      dup5\n        /* \"#utility.yul\":34718:34721   */\n      dup10\n        /* \"#utility.yul\":34714:34733   */\n      add\n        /* \"#utility.yul\":34708:34734   */\n      mload\n        /* \"#utility.yul\":34766:34814   */\n      tag_794\n        /* \"#utility.yul\":34808:34812   */\n      0x1f\n        /* \"#utility.yul\":34800:34806   */\n      dup10\n        /* \"#utility.yul\":34796:34813   */\n      and\n        /* \"#utility.yul\":34785:34794   */\n      dup3\n        /* \"#utility.yul\":34766:34814   */\n      tag_467\n      jump\t// in\n    tag_794:\n        /* \"#utility.yul\":34758:34764   */\n      dup4\n        /* \"#utility.yul\":34751:34815   */\n      sstore\n        /* \"#utility.yul\":34673:34829   */\n      pop\n        /* \"#utility.yul\":34650:34829   */\n    tag_793:\n        /* \"#utility.yul\":34875:34876   */\n      0x01\n        /* \"#utility.yul\":34871:34872   */\n      0x02\n        /* \"#utility.yul\":34863:34869   */\n      dup9\n        /* \"#utility.yul\":34859:34873   */\n      mul\n        /* \"#utility.yul\":34855:34877   */\n      add\n        /* \"#utility.yul\":34849:34853   */\n      dup9\n        /* \"#utility.yul\":34842:34878   */\n      sstore\n        /* \"#utility.yul\":34277:34888   */\n      pop\n      pop\n      pop\n        /* \"#utility.yul\":34240:35127   */\n    tag_785:\n      pop\n        /* \"#utility.yul\":33830:35133   */\n      pop\n      pop\n      pop\n        /* \"#utility.yul\":33738:35133   */\n      pop\n      pop\n      jump\t// out\n        /* \"#utility.yul\":35139:35562   */\n    tag_207:\n        /* \"#utility.yul\":35280:35284   */\n      0x00\n        /* \"#utility.yul\":35318:35320   */\n      0x40\n        /* \"#utility.yul\":35307:35316   */\n      dup3\n        /* \"#utility.yul\":35303:35321   */\n      add\n        /* \"#utility.yul\":35295:35321   */\n      swap1\n      pop\n        /* \"#utility.yul\":35367:35376   */\n      dup2\n        /* \"#utility.yul\":35361:35365   */\n      dup2\n        /* \"#utility.yul\":35357:35377   */\n      sub\n        /* \"#utility.yul\":35353:35354   */\n      0x00\n        /* \"#utility.yul\":35342:35351   */\n      dup4\n        /* \"#utility.yul\":35338:35355   */\n      add\n        /* \"#utility.yul\":35331:35378   */\n      mstore\n        /* \"#utility.yul\":35395:35473   */\n      tag_796\n        /* \"#utility.yul\":35468:35472   */\n      dup2\n        /* \"#utility.yul\":35459:35465   */\n      dup6\n        /* \"#utility.yul\":35395:35473   */\n      tag_426\n      jump\t// in\n    tag_796:\n        /* \"#utility.yul\":35387:35473   */\n      swap1\n      pop\n        /* \"#utility.yul\":35483:35555   */\n      tag_797\n        /* \"#utility.yul\":35551:35553   */\n      0x20\n        /* \"#utility.yul\":35540:35549   */\n      dup4\n        /* \"#utility.yul\":35536:35554   */\n      add\n        /* \"#utility.yul\":35527:35533   */\n      dup5\n        /* \"#utility.yul\":35483:35555   */\n      tag_381\n      jump\t// in\n    tag_797:\n        /* \"#utility.yul\":35139:35562   */\n      swap4\n      swap3\n      pop\n      pop\n      pop\n      jump\t// out\n        /* \"#utility.yul\":35568:35797   */\n    tag_469:\n        /* \"#utility.yul\":35708:35742   */\n      0x566f7573206e6520706f7576657a20706173206c696b657220766f7472652070\n        /* \"#utility.yul\":35704:35705   */\n      0x00\n        /* \"#utility.yul\":35696:35702   */\n      dup3\n        /* \"#utility.yul\":35692:35706   */\n      add\n        /* \"#utility.yul\":35685:35743   */\n      mstore\n        /* \"#utility.yul\":35777:35789   */\n      0x726f70726520706f737400000000000000000000000000000000000000000000\n        /* \"#utility.yul\":35772:35774   */\n      0x20\n        /* \"#utility.yul\":35764:35770   */\n      dup3\n        /* \"#utility.yul\":35760:35775   */\n      add\n        /* \"#utility.yul\":35753:35790   */\n      mstore\n        /* \"#utility.yul\":35568:35797   */\n      pop\n      jump\t// out\n        /* \"#utility.yul\":35803:36169   */\n    tag_470:\n        /* \"#utility.yul\":35945:35948   */\n      0x00\n        /* \"#utility.yul\":35966:36033   */\n      tag_800\n        /* \"#utility.yul\":36030:36032   */\n      0x2a\n        /* \"#utility.yul\":36025:36028   */\n      dup4\n        /* \"#utility.yul\":35966:36033   */\n      tag_425\n      jump\t// in\n    tag_800:\n        /* \"#utility.yul\":35959:36033   */\n      swap2\n      pop\n        /* \"#utility.yul\":36042:36135   */\n      tag_801\n        /* \"#utility.yul\":36131:36134   */\n      dup3\n        /* \"#utility.yul\":36042:36135   */\n      tag_469\n      jump\t// in\n    tag_801:\n        /* \"#utility.yul\":36160:36162   */\n      0x40\n        /* \"#utility.yul\":36155:36158   */\n      dup3\n        /* \"#utility.yul\":36151:36163   */\n      add\n        /* \"#utility.yul\":36144:36163   */\n      swap1\n      pop\n        /* \"#utility.yul\":35803:36169   */\n      swap2\n      swap1\n      pop\n      jump\t// out\n        /* \"#utility.yul\":36175:36594   */\n    tag_263:\n        /* \"#utility.yul\":36341:36345   */\n      0x00\n        /* \"#utility.yul\":36379:36381   */\n      0x20\n        /* \"#utility.yul\":36368:36377   */\n      dup3\n        /* \"#utility.yul\":36364:36382   */\n      add\n        /* \"#utility.yul\":36356:36382   */\n      swap1\n      pop\n        /* \"#utility.yul\":36428:36437   */\n      dup2\n        /* \"#utility.yul\":36422:36426   */\n      dup2\n        /* \"#utility.yul\":36418:36438   */\n      sub\n        /* \"#utility.yul\":36414:36415   */\n      0x00\n        /* \"#utility.yul\":36403:36412   */\n      dup4\n        /* \"#utility.yul\":36399:36416   */\n      add\n        /* \"#utility.yul\":36392:36439   */\n      mstore\n        /* \"#utility.yul\":36456:36587   */\n      tag_803\n        /* \"#utility.yul\":36582:36586   */\n      dup2\n        /* \"#utility.yul\":36456:36587   */\n      tag_470\n      jump\t// in\n    tag_803:\n        /* \"#utility.yul\":36448:36587   */\n      swap1\n      pop\n        /* \"#utility.yul\":36175:36594   */\n      swap2\n      swap1\n      pop\n      jump\t// out\n        /* \"#utility.yul\":36600:36794   */\n    tag_298:\n        /* \"#utility.yul\":36640:36644   */\n      0x00\n        /* \"#utility.yul\":36660:36680   */\n      tag_805\n        /* \"#utility.yul\":36678:36679   */\n      dup3\n        /* \"#utility.yul\":36660:36680   */\n      tag_378\n      jump\t// in\n    tag_805:\n        /* \"#utility.yul\":36655:36680   */\n      swap2\n      pop\n        /* \"#utility.yul\":36694:36714   */\n      tag_806\n        /* \"#utility.yul\":36712:36713   */\n      dup4\n        /* \"#utility.yul\":36694:36714   */\n      tag_378\n      jump\t// in\n    tag_806:\n        /* \"#utility.yul\":36689:36714   */\n      swap3\n      pop\n        /* \"#utility.yul\":36738:36739   */\n      dup3\n        /* \"#utility.yul\":36735:36736   */\n      dup3\n        /* \"#utility.yul\":36731:36740   */\n      sub\n        /* \"#utility.yul\":36723:36740   */\n      swap1\n      pop\n        /* \"#utility.yul\":36762:36763   */\n      dup2\n        /* \"#utility.yul\":36756:36760   */\n      dup2\n        /* \"#utility.yul\":36753:36764   */\n      gt\n        /* \"#utility.yul\":36750:36787   */\n      iszero\n      tag_807\n      jumpi\n        /* \"#utility.yul\":36767:36785   */\n      tag_808\n      tag_444\n      jump\t// in\n    tag_808:\n        /* \"#utility.yul\":36750:36787   */\n    tag_807:\n        /* \"#utility.yul\":36600:36794   */\n      swap3\n      swap2\n      pop\n      pop\n      jump\t// out\n        /* \"#utility.yul\":36800:36980   */\n    tag_313:\n        /* \"#utility.yul\":36848:36925   */\n      0x4e487b7100000000000000000000000000000000000000000000000000000000\n        /* \"#utility.yul\":36845:36846   */\n      0x00\n        /* \"#utility.yul\":36838:36926   */\n      mstore\n        /* \"#utility.yul\":36945:36949   */\n      0x31\n        /* \"#utility.yul\":36942:36943   */\n      0x04\n        /* \"#utility.yul\":36935:36950   */\n      mstore\n        /* \"#utility.yul\":36969:36973   */\n      0x24\n        /* \"#utility.yul\":36966:36967   */\n      0x00\n        /* \"#utility.yul\":36959:36974   */\n      revert\n        /* \"#utility.yul\":36986:37209   */\n    tag_471:\n        /* \"#utility.yul\":37126:37160   */\n      0x4c6520636f6d6d656e7461697265206e65207065757420706173206574726520\n        /* \"#utility.yul\":37122:37123   */\n      0x00\n        /* \"#utility.yul\":37114:37120   */\n      dup3\n        /* \"#utility.yul\":37110:37124   */\n      add\n        /* \"#utility.yul\":37103:37161   */\n      mstore\n        /* \"#utility.yul\":37195:37201   */\n      0x7669646500000000000000000000000000000000000000000000000000000000\n        /* \"#utility.yul\":37190:37192   */\n      0x20\n        /* \"#utility.yul\":37182:37188   */\n      dup3\n        /* \"#utility.yul\":37178:37193   */\n      add\n        /* \"#utility.yul\":37171:37202   */\n      mstore\n        /* \"#utility.yul\":36986:37209   */\n      pop\n      jump\t// out\n        /* \"#utility.yul\":37215:37581   */\n    tag_472:\n        /* \"#utility.yul\":37357:37360   */\n      0x00\n        /* \"#utility.yul\":37378:37445   */\n      tag_812\n        /* \"#utility.yul\":37442:37444   */\n      0x24\n        /* \"#utility.yul\":37437:37440   */\n      dup4\n        /* \"#utility.yul\":37378:37445   */\n      tag_425\n      jump\t// in\n    tag_812:\n        /* \"#utility.yul\":37371:37445   */\n      swap2\n      pop\n        /* \"#utility.yul\":37454:37547   */\n      tag_813\n        /* \"#utility.yul\":37543:37546   */\n      dup3\n        /* \"#utility.yul\":37454:37547   */\n      tag_471\n      jump\t// in\n    tag_813:\n        /* \"#utility.yul\":37572:37574   */\n      0x40\n        /* \"#utility.yul\":37567:37570   */\n      dup3\n        /* \"#utility.yul\":37563:37575   */\n      add\n        /* \"#utility.yul\":37556:37575   */\n      swap1\n      pop\n        /* \"#utility.yul\":37215:37581   */\n      swap2\n      swap1\n      pop\n      jump\t// out\n        /* \"#utility.yul\":37587:38006   */\n    tag_336:\n        /* \"#utility.yul\":37753:37757   */\n      0x00\n        /* \"#utility.yul\":37791:37793   */\n      0x20\n        /* \"#utility.yul\":37780:37789   */\n      dup3\n        /* \"#utility.yul\":37776:37794   */\n      add\n        /* \"#utility.yul\":37768:37794   */\n      swap1\n      pop\n        /* \"#utility.yul\":37840:37849   */\n      dup2\n        /* \"#utility.yul\":37834:37838   */\n      dup2\n        /* \"#utility.yul\":37830:37850   */\n      sub\n        /* \"#utility.yul\":37826:37827   */\n      0x00\n        /* \"#utility.yul\":37815:37824   */\n      dup4\n        /* \"#utility.yul\":37811:37828   */\n      add\n        /* \"#utility.yul\":37804:37851   */\n      mstore\n        /* \"#utility.yul\":37868:37999   */\n      tag_815\n        /* \"#utility.yul\":37994:37998   */\n      dup2\n        /* \"#utility.yul\":37868:37999   */\n      tag_472\n      jump\t// in\n    tag_815:\n        /* \"#utility.yul\":37860:37999   */\n      swap1\n      pop\n        /* \"#utility.yul\":37587:38006   */\n      swap2\n      swap1\n      pop\n      jump\t// out\n        /* \"#utility.yul\":38012:38190   */\n    tag_473:\n        /* \"#utility.yul\":38152:38182   */\n      0x4c6520636f6d6d656e7461697265206573742074726f70206c6f6e6700000000\n        /* \"#utility.yul\":38148:38149   */\n      0x00\n        /* \"#utility.yul\":38140:38146   */\n      dup3\n        /* \"#utility.yul\":38136:38150   */\n      add\n        /* \"#utility.yul\":38129:38183   */\n      mstore\n        /* \"#utility.yul\":38012:38190   */\n      pop\n      jump\t// out\n        /* \"#utility.yul\":38196:38562   */\n    tag_474:\n        /* \"#utility.yul\":38338:38341   */\n      0x00\n        /* \"#utility.yul\":38359:38426   */\n      tag_818\n        /* \"#utility.yul\":38423:38425   */\n      0x1c\n        /* \"#utility.yul\":38418:38421   */\n      dup4\n        /* \"#utility.yul\":38359:38426   */\n      tag_425\n      jump\t// in\n    tag_818:\n        /* \"#utility.yul\":38352:38426   */\n      swap2\n      pop\n        /* \"#utility.yul\":38435:38528   */\n      tag_819\n        /* \"#utility.yul\":38524:38527   */\n      dup3\n        /* \"#utility.yul\":38435:38528   */\n      tag_473\n      jump\t// in\n    tag_819:\n        /* \"#utility.yul\":38553:38555   */\n      0x20\n        /* \"#utility.yul\":38548:38551   */\n      dup3\n        /* \"#utility.yul\":38544:38556   */\n      add\n        /* \"#utility.yul\":38537:38556   */\n      swap1\n      pop\n        /* \"#utility.yul\":38196:38562   */\n      swap2\n      swap1\n      pop\n      jump\t// out\n        /* \"#utility.yul\":38568:38987   */\n    tag_339:\n        /* \"#utility.yul\":38734:38738   */\n      0x00\n        /* \"#utility.yul\":38772:38774   */\n      0x20\n        /* \"#utility.yul\":38761:38770   */\n      dup3\n        /* \"#utility.yul\":38757:38775   */\n      add\n        /* \"#utility.yul\":38749:38775   */\n      swap1\n      pop\n        /* \"#utility.yul\":38821:38830   */\n      dup2\n        /* \"#utility.yul\":38815:38819   */\n      dup2\n        /* \"#utility.yul\":38811:38831   */\n      sub\n        /* \"#utility.yul\":38807:38808   */\n      0x00\n        /* \"#utility.yul\":38796:38805   */\n      dup4\n        /* \"#utility.yul\":38792:38809   */\n      add\n        /* \"#utility.yul\":38785:38832   */\n      mstore\n        /* \"#utility.yul\":38849:38980   */\n      tag_821\n        /* \"#utility.yul\":38975:38979   */\n      dup2\n        /* \"#utility.yul\":38849:38980   */\n      tag_474\n      jump\t// in\n    tag_821:\n        /* \"#utility.yul\":38841:38980   */\n      swap1\n      pop\n        /* \"#utility.yul\":38568:38987   */\n      swap2\n      swap1\n      pop\n      jump\t// out\n        /* \"#utility.yul\":38993:39306   */\n    tag_346:\n        /* \"#utility.yul\":39106:39110   */\n      0x00\n        /* \"#utility.yul\":39144:39146   */\n      0x20\n        /* \"#utility.yul\":39133:39142   */\n      dup3\n        /* \"#utility.yul\":39129:39147   */\n      add\n        /* \"#utility.yul\":39121:39147   */\n      swap1\n      pop\n        /* \"#utility.yul\":39193:39202   */\n      dup2\n        /* \"#utility.yul\":39187:39191   */\n      dup2\n        /* \"#utility.yul\":39183:39203   */\n      sub\n        /* \"#utility.yul\":39179:39180   */\n      0x00\n        /* \"#utility.yul\":39168:39177   */\n      dup4\n        /* \"#utility.yul\":39164:39181   */\n      add\n        /* \"#utility.yul\":39157:39204   */\n      mstore\n        /* \"#utility.yul\":39221:39299   */\n      tag_823\n        /* \"#utility.yul\":39294:39298   */\n      dup2\n        /* \"#utility.yul\":39285:39291   */\n      dup5\n        /* \"#utility.yul\":39221:39299   */\n      tag_426\n      jump\t// in\n    tag_823:\n        /* \"#utility.yul\":39213:39299   */\n      swap1\n      pop\n        /* \"#utility.yul\":38993:39306   */\n      swap3\n      swap2\n      pop\n      pop\n      jump\t// out\n        /* \"#utility.yul\":39312:39533   */\n    tag_475:\n        /* \"#utility.yul\":39452:39486   */\n      0x4f6e6c792074686520617574686f722063616e2065646974207468697320706f\n        /* \"#utility.yul\":39448:39449   */\n      0x00\n        /* \"#utility.yul\":39440:39446   */\n      dup3\n        /* \"#utility.yul\":39436:39450   */\n      add\n        /* \"#utility.yul\":39429:39487   */\n      mstore\n        /* \"#utility.yul\":39521:39525   */\n      0x7374000000000000000000000000000000000000000000000000000000000000\n        /* \"#utility.yul\":39516:39518   */\n      0x20\n        /* \"#utility.yul\":39508:39514   */\n      dup3\n        /* \"#utility.yul\":39504:39519   */\n      add\n        /* \"#utility.yul\":39497:39526   */\n      mstore\n        /* \"#utility.yul\":39312:39533   */\n      pop\n      jump\t// out\n        /* \"#utility.yul\":39539:39905   */\n    tag_476:\n        /* \"#utility.yul\":39681:39684   */\n      0x00\n        /* \"#utility.yul\":39702:39769   */\n      tag_826\n        /* \"#utility.yul\":39766:39768   */\n      0x22\n        /* \"#utility.yul\":39761:39764   */\n      dup4\n        /* \"#utility.yul\":39702:39769   */\n      tag_425\n      jump\t// in\n    tag_826:\n        /* \"#utility.yul\":39695:39769   */\n      swap2\n      pop\n        /* \"#utility.yul\":39778:39871   */\n      tag_827\n        /* \"#utility.yul\":39867:39870   */\n      dup3\n        /* \"#utility.yul\":39778:39871   */\n      tag_475\n      jump\t// in\n    tag_827:\n        /* \"#utility.yul\":39896:39898   */\n      0x40\n        /* \"#utility.yul\":39891:39894   */\n      dup3\n        /* \"#utility.yul\":39887:39899   */\n      add\n        /* \"#utility.yul\":39880:39899   */\n      swap1\n      pop\n        /* \"#utility.yul\":39539:39905   */\n      swap2\n      swap1\n      pop\n      jump\t// out\n        /* \"#utility.yul\":39911:40330   */\n    tag_361:\n        /* \"#utility.yul\":40077:40081   */\n      0x00\n        /* \"#utility.yul\":40115:40117   */\n      0x20\n        /* \"#utility.yul\":40104:40113   */\n      dup3\n        /* \"#utility.yul\":40100:40118   */\n      add\n        /* \"#utility.yul\":40092:40118   */\n      swap1\n      pop\n        /* \"#utility.yul\":40164:40173   */\n      dup2\n        /* \"#utility.yul\":40158:40162   */\n      dup2\n        /* \"#utility.yul\":40154:40174   */\n      sub\n        /* \"#utility.yul\":40150:40151   */\n      0x00\n        /* \"#utility.yul\":40139:40148   */\n      dup4\n        /* \"#utility.yul\":40135:40152   */\n      add\n        /* \"#utility.yul\":40128:40175   */\n      mstore\n        /* \"#utility.yul\":40192:40323   */\n      tag_829\n        /* \"#utility.yul\":40318:40322   */\n      dup2\n        /* \"#utility.yul\":40192:40323   */\n      tag_476\n      jump\t// in\n    tag_829:\n        /* \"#utility.yul\":40184:40323   */\n      swap1\n      pop\n        /* \"#utility.yul\":39911:40330   */\n      swap2\n      swap1\n      pop\n      jump\t// out\n\n    auxdata: 0xa26469706673582212205a7bf10224ca60a07c636a1b46442fec7a90b39eca13a3787a9f2116223ce93264736f6c634300081a0033\n}\n",
				"bytecode": {
					"linkReferences": {},
					"object": "6080604052348015600e575f80fd5b506132da8061001c5f395ff3fe608060405234801561000f575f80fd5b50600436106100a7575f3560e01c806354398d181161006f57806354398d18146101725780635fe226b41461018e5780638e53fb41146101ac5780638fb7092c146101ca578063aa7e5683146101fa578063bf0ac63c14610216576100a7565b8063094cd5ee146100ab5780630fbbbfc3146100c757806330561100146100e5578063392338f51461010b57806340731c241461013b575b5f80fd5b6100c560048036038101906100c09190611fa2565b610232565b005b6100cf6103ea565b6040516100dc9190611fdc565b60405180910390f35b6100ed6103f0565b60405161010299989796959493929190612380565b60405180910390f35b61012560048036038101906101209190612576565b610b44565b6040516101329190611fdc565b60405180910390f35b61015560048036038101906101509190611fa2565b610dcf565b60405161016998979695949392919061274b565b60405180910390f35b61018c60048036038101906101879190611fa2565b611257565b005b610196611898565b6040516101a39190611fdc565b60405180910390f35b6101b46118a1565b6040516101c19190611fdc565b60405180910390f35b6101e460048036038101906101df919061280d565b6118a7565b6040516101f1919061285a565b60405180910390f35b610214600480360381019061020f9190612873565b6119bf565b005b610230600480360381019061022b91906128cd565b611c42565b005b805f805490508110610279576040517f08c379a00000000000000000000000000000000000000000000000000000000081526004016102709061299f565b60405180910390fd5b5f818154811061028c5761028b6129bd565b5b905f5260205f2090600c0201600b015f9054906101000a900460ff166102e7576040517f08c379a00000000000000000000000000000000000000000000000000000000081526004016102de90612a34565b60405180910390fd5b5f82815481106102fa576102f96129bd565b5b905f5260205f2090600c02016003015f9054906101000a900473ffffffffffffffffffffffffffffffffffffffff1673ffffffffffffffffffffffffffffffffffffffff163373ffffffffffffffffffffffffffffffffffffffff1614610396576040517f08c379a000000000000000000000000000000000000000000000000000000000815260040161038d90612ac2565b60405180910390fd5b5f8083815481106103aa576103a96129bd565b5b905f5260205f2090600c0201600b015f6101000a81548160ff02191690831515021790555060035f8154809291906103e190612b0d565b91905055505050565b60035481565b60608060608060608060608060605f805b5f8054905081101561045d575f81815481106104205761041f6129bd565b5b905f5260205f2090600c0201600b015f9054906101000a900460ff161561045057818061044c90612b34565b9250505b8080600101915050610401565b508067ffffffffffffffff81111561047857610477612452565b5b6040519080825280602002602001820160405280156104a65781602001602082028036833780820191505090505b5099508067ffffffffffffffff8111156104c3576104c2612452565b5b6040519080825280602002602001820160405280156104f657816020015b60608152602001906001900390816104e15790505b5098508067ffffffffffffffff81111561051357610512612452565b5b60405190808252806020026020018201604052801561054657816020015b60608152602001906001900390816105315790505b5097508067ffffffffffffffff81111561056357610562612452565b5b6040519080825280602002602001820160405280156105915781602001602082028036833780820191505090505b5096508067ffffffffffffffff8111156105ae576105ad612452565b5b6040519080825280602002602001820160405280156105dc5781602001602082028036833780820191505090505b5095508067ffffffffffffffff8111156105f9576105f8612452565b5b6040519080825280602002602001820160405280156106275781602001602082028036833780820191505090505b5094508067ffffffffffffffff81111561064457610643612452565b5b6040519080825280602002602001820160405280156106725781602001602082028036833780820191505090505b5093508067ffffffffffffffff81111561068f5761068e612452565b5b6040519080825280602002602001820160405280156106bd5781602001602082028036833780820191505090505b5092508067ffffffffffffffff8111156106da576106d9612452565b5b6040519080825280602002602001820160405280156107085781602001602082028036833780820191505090505b5091505f805b5f80549050811015610b36575f818154811061072d5761072c6129bd565b5b905f5260205f2090600c0201600b015f9054906101000a900460ff1615610b29575f8181548110610761576107606129bd565b5b905f5260205f2090600c02015f01548c8381518110610783576107826129bd565b5b6020026020010181815250505f81815481106107a2576107a16129bd565b5b905f5260205f2090600c020160010180546107bc90612ba8565b80601f01602080910402602001604051908101604052809291908181526020018280546107e890612ba8565b80156108335780601f1061080a57610100808354040283529160200191610833565b820191905f5260205f20905b81548152906001019060200180831161081657829003601f168201915b50505050508b838151811061084b5761084a6129bd565b5b60200260200101819052505f8181548110610869576108686129bd565b5b905f5260205f2090600c0201600201805461088390612ba8565b80601f01602080910402602001604051908101604052809291908181526020018280546108af90612ba8565b80156108fa5780601f106108d1576101008083540402835291602001916108fa565b820191905f5260205f20905b8154815290600101906020018083116108dd57829003601f168201915b50505050508a8381518110610912576109116129bd565b5b60200260200101819052505f81815481106109305761092f6129bd565b5b905f5260205f2090600c02016003015f9054906101000a900473ffffffffffffffffffffffffffffffffffffffff16898381518110610972576109716129bd565b5b602002602001019073ffffffffffffffffffffffffffffffffffffffff16908173ffffffffffffffffffffffffffffffffffffffff16815250505f81815481106109bf576109be6129bd565b5b905f5260205f2090600c0201600401548883815181106109e2576109e16129bd565b5b6020026020010181815250505f8181548110610a0157610a006129bd565b5b905f5260205f2090600c020160050154878381518110610a2457610a236129bd565b5b6020026020010181815250505f8181548110610a4357610a426129bd565b5b905f5260205f2090600c020160080154868381518110610a6657610a656129bd565b5b6020026020010181815250505f8181548110610a8557610a846129bd565b5b905f5260205f2090600c02016009015f9054906101000a900460ff16858381518110610ab457610ab36129bd565b5b6020026020010190151590811515815250505f8181548110610ad957610ad86129bd565b5b905f5260205f2090600c0201600b015f9054906101000a900460ff16848381518110610b0857610b076129bd565b5b6020026020010190151590811515815250508180610b2590612b34565b9250505b808060010191505061070e565b505050909192939495969798565b5f80835111610b88576040517f08c379a0000000000000000000000000000000000000000000000000000000008152600401610b7f90612c22565b60405180910390fd5b606483511115610bcd576040517f08c379a0000000000000000000000000000000000000000000000000000000008152600401610bc490612c8a565b60405180910390fd5b5f825111610c10576040517f08c379a0000000000000000000000000000000000000000000000000000000008152600401610c0790612cf2565b60405180910390fd5b61138882511115610c56576040517f08c379a0000000000000000000000000000000000000000000000000000000008152600401610c4d90612d5a565b60405180910390fd5b5f60025490505f8060018160018154018082558091505003905f5260205f2090600c0201905081815f018190555084816001019081610c959190612f15565b5083816002019081610ca79190612f15565b5033816003015f6101000a81548173ffffffffffffffffffffffffffffffffffffffff021916908373ffffffffffffffffffffffffffffffffffffffff1602179055504281600401819055505f81600501819055505f81600801819055505f816009015f6101000a81548160ff0219169083151502179055504281600a0181905550600181600b015f6101000a81548160ff02191690831515021790555060025f815480929190610d5790612b34565b919050555060035f815480929190610d6e90612b34565b91905055503373ffffffffffffffffffffffffffffffffffffffff16827f285db98a4632176385795ddf0d2b67cef1a21f47eb2f5d06f786ab6b5147e2008742604051610dbc929190612fe4565b60405180910390a3819250505092915050565b6060805f805f60605f6060885f805490508110610e21576040517f08c379a0000000000000000000000000000000000000000000000000000000008152600401610e189061299f565b60405180910390fd5b5f8181548110610e3457610e336129bd565b5b905f5260205f2090600c0201600b015f9054906101000a900460ff16610e8f576040517f08c379a0000000000000000000000000000000000000000000000000000000008152600401610e8690612a34565b60405180910390fd5b5f808b81548110610ea357610ea26129bd565b5b905f5260205f2090600c020190505f816008015467ffffffffffffffff811115610ed057610ecf612452565b5b604051908082528060200260200182016040528015610f0957816020015b610ef6611f29565b815260200190600190039081610eee5790505b5090505f805b836008015481101561105e57836007015f8281526020019081526020015f206040518060600160405290815f82018054610f4890612ba8565b80601f0160208091040260200160405190810160405280929190818152602001828054610f7490612ba8565b8015610fbf5780601f10610f9657610100808354040283529160200191610fbf565b820191905f5260205f20905b815481529060010190602001808311610fa257829003601f168201915b50505050508152602001600182015f9054906101000a900473ffffffffffffffffffffffffffffffffffffffff1673ffffffffffffffffffffffffffffffffffffffff1673ffffffffffffffffffffffffffffffffffffffff16815260200160028201548152505083838061103390612b34565b945081518110611046576110456129bd565b5b60200260200101819052508080600101915050610f0f565b508260010183600201846003015f9054906101000a900473ffffffffffffffffffffffffffffffffffffffff1685600401548660050154876006018860080154888780546110ab90612ba8565b80601f01602080910402602001604051908101604052809291908181526020018280546110d790612ba8565b80156111225780601f106110f957610100808354040283529160200191611122565b820191905f5260205f20905b81548152906001019060200180831161110557829003601f168201915b5050505050975086805461113590612ba8565b80601f016020809104026020016040519081016040528092919081815260200182805461116190612ba8565b80156111ac5780601f10611183576101008083540402835291602001916111ac565b820191905f5260205f20905b81548152906001019060200180831161118f57829003601f168201915b505050505096508280548060200260200160405190810160405280929190818152602001828054801561123157602002820191905f5260205f20905b815f9054906101000a900473ffffffffffffffffffffffffffffffffffffffff1673ffffffffffffffffffffffffffffffffffffffff16815260200190600101908083116111e8575b505050505092509b509b509b509b509b509b509b509b5050505050919395975091939597565b805f80549050811061129e576040517f08c379a00000000000000000000000000000000000000000000000000000000081526004016112959061299f565b60405180910390fd5b5f81815481106112b1576112b06129bd565b5b905f5260205f2090600c0201600b015f9054906101000a900460ff1661130c576040517f08c379a000000000000000000000000000000000000000000000000000000000815260040161130390612a34565b60405180910390fd5b5f828154811061131f5761131e6129bd565b5b905f5260205f2090600c02016003015f9054906101000a900473ffffffffffffffffffffffffffffffffffffffff1673ffffffffffffffffffffffffffffffffffffffff163373ffffffffffffffffffffffffffffffffffffffff16036113bb576040517f08c379a00000000000000000000000000000000000000000000000000000000081526004016113b290613082565b60405180910390fd5b60015f8381526020019081526020015f205f3373ffffffffffffffffffffffffffffffffffffffff1673ffffffffffffffffffffffffffffffffffffffff1681526020019081526020015f205f9054906101000a900460ff1661157b576001805f8481526020019081526020015f205f3373ffffffffffffffffffffffffffffffffffffffff1673ffffffffffffffffffffffffffffffffffffffff1681526020019081526020015f205f6101000a81548160ff0219169083151502179055505f828154811061148e5761148d6129bd565b5b905f5260205f2090600c02016005015f8154809291906114ad90612b34565b91905055505f82815481106114c5576114c46129bd565b5b905f5260205f2090600c020160060133908060018154018082558091505060019003905f5260205f20015f9091909190916101000a81548173ffffffffffffffffffffffffffffffffffffffff021916908373ffffffffffffffffffffffffffffffffffffffff1602179055503373ffffffffffffffffffffffffffffffffffffffff16827fcf765d6f163c9b0d832e2a94f4c8e9bffd32a2c3ca5fdbb8cc67b5fe1441f41360405160405180910390a3611894565b5f60015f8481526020019081526020015f205f3373ffffffffffffffffffffffffffffffffffffffff1673ffffffffffffffffffffffffffffffffffffffff1681526020019081526020015f205f6101000a81548160ff0219169083151502179055505f82815481106115f1576115f06129bd565b5b905f5260205f2090600c02016005015f81548092919061161090612b0d565b91905055505f5b5f838154811061162a576116296129bd565b5b905f5260205f2090600c02016006018054905081101561184e573373ffffffffffffffffffffffffffffffffffffffff165f848154811061166e5761166d6129bd565b5b905f5260205f2090600c0201600601828154811061168f5761168e6129bd565b5b905f5260205f20015f9054906101000a900473ffffffffffffffffffffffffffffffffffffffff1673ffffffffffffffffffffffffffffffffffffffff1603611841575f83815481106116e5576116e46129bd565b5b905f5260205f2090600c020160060160015f8581548110611709576117086129bd565b5b905f5260205f2090600c02016006018054905061172691906130a0565b81548110611737576117366129bd565b5b905f5260205f20015f9054906101000a900473ffffffffffffffffffffffffffffffffffffffff165f8481548110611772576117716129bd565b5b905f5260205f2090600c02016006018281548110611793576117926129bd565b5b905f5260205f20015f6101000a81548173ffffffffffffffffffffffffffffffffffffffff021916908373ffffffffffffffffffffffffffffffffffffffff1602179055505f83815481106117eb576117ea6129bd565b5b905f5260205f2090600c020160060180548061180a576118096130d3565b5b600190038181905f5260205f20015f6101000a81549073ffffffffffffffffffffffffffffffffffffffff0219169055905561184e565b8080600101915050611617565b503373ffffffffffffffffffffffffffffffffffffffff16827f82092d1196022c48d901e5dc4b17451dbce942b8a9ded42fc6f2a4a5e8fd89b960405160405180910390a35b5050565b5f600354905090565b60025481565b5f825f8054905081106118ef576040517f08c379a00000000000000000000000000000000000000000000000000000000081526004016118e69061299f565b60405180910390fd5b5f8181548110611902576119016129bd565b5b905f5260205f2090600c0201600b015f9054906101000a900460ff1661195d576040517f08c379a000000000000000000000000000000000000000000000000000000000815260040161195490612a34565b60405180910390fd5b60015f8581526020019081526020015f205f8473ffffffffffffffffffffffffffffffffffffffff1673ffffffffffffffffffffffffffffffffffffffff1681526020019081526020015f205f9054906101000a900460ff1691505092915050565b815f805490508110611a06576040517f08c379a00000000000000000000000000000000000000000000000000000000081526004016119fd9061299f565b60405180910390fd5b5f8181548110611a1957611a186129bd565b5b905f5260205f2090600c0201600b015f9054906101000a900460ff16611a74576040517f08c379a0000000000000000000000000000000000000000000000000000000008152600401611a6b90612a34565b60405180910390fd5b5f825111611ab7576040517f08c379a0000000000000000000000000000000000000000000000000000000008152600401611aae90613170565b60405180910390fd5b61011882511115611afd576040517f08c379a0000000000000000000000000000000000000000000000000000000008152600401611af4906131d8565b60405180910390fd5b5f808481548110611b1157611b106129bd565b5b905f5260205f2090600c020190505f8160080154905060405180606001604052808581526020013373ffffffffffffffffffffffffffffffffffffffff16815260200142815250826007015f8381526020019081526020015f205f820151815f019081611b7e9190612f15565b506020820151816001015f6101000a81548173ffffffffffffffffffffffffffffffffffffffff021916908373ffffffffffffffffffffffffffffffffffffffff16021790555060408201518160020155905050816008015f815480929190611be690612b34565b91905055503373ffffffffffffffffffffffffffffffffffffffff1681867f96d81cac001a263174d42d42cfad470fec9d863bcf6d52ba8b93d47c7ee00de387604051611c3391906131f6565b60405180910390a45050505050565b825f805490508110611c89576040517f08c379a0000000000000000000000000000000000000000000000000000000008152600401611c809061299f565b60405180910390fd5b5f8181548110611c9c57611c9b6129bd565b5b905f5260205f2090600c0201600b015f9054906101000a900460ff16611cf7576040517f08c379a0000000000000000000000000000000000000000000000000000000008152600401611cee90612a34565b60405180910390fd5b5f8481548110611d0a57611d096129bd565b5b905f5260205f2090600c02016003015f9054906101000a900473ffffffffffffffffffffffffffffffffffffffff1673ffffffffffffffffffffffffffffffffffffffff163373ffffffffffffffffffffffffffffffffffffffff1614611da6576040517f08c379a0000000000000000000000000000000000000000000000000000000008152600401611d9d90613286565b60405180910390fd5b5f835111611de9576040517f08c379a0000000000000000000000000000000000000000000000000000000008152600401611de090612c22565b60405180910390fd5b5f825111611e2c576040517f08c379a0000000000000000000000000000000000000000000000000000000008152600401611e2390612cf2565b60405180910390fd5b606483511115611e71576040517f08c379a0000000000000000000000000000000000000000000000000000000008152600401611e6890612c8a565b60405180910390fd5b61138882511115611eb7576040517f08c379a0000000000000000000000000000000000000000000000000000000008152600401611eae90612d5a565b60405180910390fd5b5f808581548110611ecb57611eca6129bd565b5b905f5260205f2090600c0201905083816001019081611eea9190612f15565b5082816002019081611efc9190612f15565b506001816009015f6101000a81548160ff0219169083151502179055504281600a01819055505050505050565b6040518060600160405280606081526020015f73ffffffffffffffffffffffffffffffffffffffff1681526020015f81525090565b5f604051905090565b5f80fd5b5f80fd5b5f819050919050565b611f8181611f6f565b8114611f8b575f80fd5b50565b5f81359050611f9c81611f78565b92915050565b5f60208284031215611fb757611fb6611f67565b5b5f611fc484828501611f8e565b91505092915050565b611fd681611f6f565b82525050565b5f602082019050611fef5f830184611fcd565b92915050565b5f81519050919050565b5f82825260208201905092915050565b5f819050602082019050919050565b61202781611f6f565b82525050565b5f612038838361201e565b60208301905092915050565b5f602082019050919050565b5f61205a82611ff5565b6120648185611fff565b935061206f8361200f565b805f5b8381101561209f578151612086888261202d565b975061209183612044565b925050600181019050612072565b5085935050505092915050565b5f81519050919050565b5f82825260208201905092915050565b5f819050602082019050919050565b5f81519050919050565b5f82825260208201905092915050565b8281835e5f83830152505050565b5f601f19601f8301169050919050565b5f612117826120d5565b61212181856120df565b93506121318185602086016120ef565b61213a816120fd565b840191505092915050565b5f612150838361210d565b905092915050565b5f602082019050919050565b5f61216e826120ac565b61217881856120b6565b93508360208202850161218a856120c6565b805f5b858110156121c557848403895281516121a68582612145565b94506121b183612158565b925060208a0199505060018101905061218d565b50829750879550505050505092915050565b5f81519050919050565b5f82825260208201905092915050565b5f819050602082019050919050565b5f73ffffffffffffffffffffffffffffffffffffffff82169050919050565b5f61222982612200565b9050919050565b6122398161221f565b82525050565b5f61224a8383612230565b60208301905092915050565b5f602082019050919050565b5f61226c826121d7565b61227681856121e1565b9350612281836121f1565b805f5b838110156122b1578151612298888261223f565b97506122a383612256565b925050600181019050612284565b5085935050505092915050565b5f81519050919050565b5f82825260208201905092915050565b5f819050602082019050919050565b5f8115159050919050565b6122fb816122e7565b82525050565b5f61230c83836122f2565b60208301905092915050565b5f602082019050919050565b5f61232e826122be565b61233881856122c8565b9350612343836122d8565b805f5b8381101561237357815161235a8882612301565b975061236583612318565b925050600181019050612346565b5085935050505092915050565b5f610120820190508181035f830152612399818c612050565b905081810360208301526123ad818b612164565b905081810360408301526123c1818a612164565b905081810360608301526123d58189612262565b905081810360808301526123e98188612050565b905081810360a08301526123fd8187612050565b905081810360c08301526124118186612050565b905081810360e08301526124258185612324565b905081810361010083015261243a8184612324565b90509a9950505050505050505050565b5f80fd5b5f80fd5b7f4e487b71000000000000000000000000000000000000000000000000000000005f52604160045260245ffd5b612488826120fd565b810181811067ffffffffffffffff821117156124a7576124a6612452565b5b80604052505050565b5f6124b9611f5e565b90506124c5828261247f565b919050565b5f67ffffffffffffffff8211156124e4576124e3612452565b5b6124ed826120fd565b9050602081019050919050565b828183375f83830152505050565b5f61251a612515846124ca565b6124b0565b9050828152602081018484840111156125365761253561244e565b5b6125418482856124fa565b509392505050565b5f82601f83011261255d5761255c61244a565b5b813561256d848260208601612508565b91505092915050565b5f806040838503121561258c5761258b611f67565b5b5f83013567ffffffffffffffff8111156125a9576125a8611f6b565b5b6125b585828601612549565b925050602083013567ffffffffffffffff8111156125d6576125d5611f6b565b5b6125e285828601612549565b9150509250929050565b5f82825260208201905092915050565b5f612606826120d5565b61261081856125ec565b93506126208185602086016120ef565b612629816120fd565b840191505092915050565b61263d8161221f565b82525050565b5f81519050919050565b5f82825260208201905092915050565b5f819050602082019050919050565b5f606083015f8301518482035f860152612686828261210d565b915050602083015161269b6020860182612230565b5060408301516126ae604086018261201e565b508091505092915050565b5f6126c4838361266c565b905092915050565b5f602082019050919050565b5f6126e282612643565b6126ec818561264d565b9350836020820285016126fe8561265d565b805f5b85811015612739578484038952815161271a85826126b9565b9450612725836126cc565b925060208a01995050600181019050612701565b50829750879550505050505092915050565b5f610100820190508181035f830152612764818b6125fc565b90508181036020830152612778818a6125fc565b90506127876040830189612634565b6127946060830188611fcd565b6127a16080830187611fcd565b81810360a08301526127b38186612262565b90506127c260c0830185611fcd565b81810360e08301526127d481846126d8565b90509998505050505050505050565b6127ec8161221f565b81146127f6575f80fd5b50565b5f81359050612807816127e3565b92915050565b5f806040838503121561282357612822611f67565b5b5f61283085828601611f8e565b9250506020612841858286016127f9565b9150509250929050565b612854816122e7565b82525050565b5f60208201905061286d5f83018461284b565b92915050565b5f806040838503121561288957612888611f67565b5b5f61289685828601611f8e565b925050602083013567ffffffffffffffff8111156128b7576128b6611f6b565b5b6128c385828601612549565b9150509250929050565b5f805f606084860312156128e4576128e3611f67565b5b5f6128f186828701611f8e565b935050602084013567ffffffffffffffff81111561291257612911611f6b565b5b61291e86828701612549565b925050604084013567ffffffffffffffff81111561293f5761293e611f6b565b5b61294b86828701612549565b9150509250925092565b7f506f737420646f6573206e6f74206578697374000000000000000000000000005f82015250565b5f6129896013836125ec565b915061299482612955565b602082019050919050565b5f6020820190508181035f8301526129b68161297d565b9050919050565b7f4e487b71000000000000000000000000000000000000000000000000000000005f52603260045260245ffd5b7f506f737420686173206265656e2064656c6574656400000000000000000000005f82015250565b5f612a1e6015836125ec565b9150612a29826129ea565b602082019050919050565b5f6020820190508181035f830152612a4b81612a12565b9050919050565b7f5365756c206c276175746575722070657574207375707072696d6572206365205f8201527f706f737400000000000000000000000000000000000000000000000000000000602082015250565b5f612aac6024836125ec565b9150612ab782612a52565b604082019050919050565b5f6020820190508181035f830152612ad981612aa0565b9050919050565b7f4e487b71000000000000000000000000000000000000000000000000000000005f52601160045260245ffd5b5f612b1782611f6f565b91505f8203612b2957612b28612ae0565b5b600182039050919050565b5f612b3e82611f6f565b91507fffffffffffffffffffffffffffffffffffffffffffffffffffffffffffffffff8203612b7057612b6f612ae0565b5b600182019050919050565b7f4e487b71000000000000000000000000000000000000000000000000000000005f52602260045260245ffd5b5f6002820490506001821680612bbf57607f821691505b602082108103612bd257612bd1612b7b565b5b50919050565b7f5469746c652063616e6e6f7420626520656d70747900000000000000000000005f82015250565b5f612c0c6015836125ec565b9150612c1782612bd8565b602082019050919050565b5f6020820190508181035f830152612c3981612c00565b9050919050565b7f5469746c6520746f6f206c6f6e670000000000000000000000000000000000005f82015250565b5f612c74600e836125ec565b9150612c7f82612c40565b602082019050919050565b5f6020820190508181035f830152612ca181612c68565b9050919050565b7f436f6e74656e742063616e6e6f7420626520656d7074790000000000000000005f82015250565b5f612cdc6017836125ec565b9150612ce782612ca8565b602082019050919050565b5f6020820190508181035f830152612d0981612cd0565b9050919050565b7f436f6e74656e7420746f6f206c6f6e67000000000000000000000000000000005f82015250565b5f612d446010836125ec565b9150612d4f82612d10565b602082019050919050565b5f6020820190508181035f830152612d7181612d38565b9050919050565b5f819050815f5260205f209050919050565b5f6020601f8301049050919050565b5f82821b905092915050565b5f60088302612dd47fffffffffffffffffffffffffffffffffffffffffffffffffffffffffffffffff82612d99565b612dde8683612d99565b95508019841693508086168417925050509392505050565b5f819050919050565b5f612e19612e14612e0f84611f6f565b612df6565b611f6f565b9050919050565b5f819050919050565b612e3283612dff565b612e46612e3e82612e20565b848454612da5565b825550505050565b5f90565b612e5a612e4e565b612e65818484612e29565b505050565b5b81811015612e8857612e7d5f82612e52565b600181019050612e6b565b5050565b601f821115612ecd57612e9e81612d78565b612ea784612d8a565b81016020851015612eb6578190505b612eca612ec285612d8a565b830182612e6a565b50505b505050565b5f82821c905092915050565b5f612eed5f1984600802612ed2565b1980831691505092915050565b5f612f058383612ede565b9150826002028217905092915050565b612f1e826120d5565b67ffffffffffffffff811115612f3757612f36612452565b5b612f418254612ba8565b612f4c828285612e8c565b5f60209050601f831160018114612f7d575f8415612f6b578287015190505b612f758582612efa565b865550612fdc565b601f198416612f8b86612d78565b5f5b82811015612fb257848901518255600182019150602085019450602081019050612f8d565b86831015612fcf5784890151612fcb601f891682612ede565b8355505b6001600288020188555050505b505050505050565b5f6040820190508181035f830152612ffc81856125fc565b905061300b6020830184611fcd565b9392505050565b7f566f7573206e6520706f7576657a20706173206c696b657220766f74726520705f8201527f726f70726520706f737400000000000000000000000000000000000000000000602082015250565b5f61306c602a836125ec565b915061307782613012565b604082019050919050565b5f6020820190508181035f83015261309981613060565b9050919050565b5f6130aa82611f6f565b91506130b583611f6f565b92508282039050818111156130cd576130cc612ae0565b5b92915050565b7f4e487b71000000000000000000000000000000000000000000000000000000005f52603160045260245ffd5b7f4c6520636f6d6d656e7461697265206e652070657574207061732065747265205f8201527f7669646500000000000000000000000000000000000000000000000000000000602082015250565b5f61315a6024836125ec565b915061316582613100565b604082019050919050565b5f6020820190508181035f8301526131878161314e565b9050919050565b7f4c6520636f6d6d656e7461697265206573742074726f70206c6f6e67000000005f82015250565b5f6131c2601c836125ec565b91506131cd8261318e565b602082019050919050565b5f6020820190508181035f8301526131ef816131b6565b9050919050565b5f6020820190508181035f83015261320e81846125fc565b905092915050565b7f4f6e6c792074686520617574686f722063616e2065646974207468697320706f5f8201527f7374000000000000000000000000000000000000000000000000000000000000602082015250565b5f6132706022836125ec565b915061327b82613216565b604082019050919050565b5f6020820190508181035f83015261329d81613264565b905091905056fea26469706673582212205a7bf10224ca60a07c636a1b46442fec7a90b39eca13a3787a9f2116223ce93264736f6c634300081a0033",
					"opcodes": "PUSH1 0x80 PUSH1 0x40 MSTORE CALLVALUE DUP1 ISZERO PUSH1 0xE JUMPI PUSH0 DUP1 REVERT JUMPDEST POP PUSH2 0x32DA DUP1 PUSH2 0x1C PUSH0 CODECOPY PUSH0 RETURN INVALID PUSH1 0x80 PUSH1 0x40 MSTORE CALLVALUE DUP1 ISZERO PUSH2 0xF JUMPI PUSH0 DUP1 REVERT JUMPDEST POP PUSH1 0x4 CALLDATASIZE LT PUSH2 0xA7 JUMPI PUSH0 CALLDATALOAD PUSH1 0xE0 SHR DUP1 PUSH4 0x54398D18 GT PUSH2 0x6F JUMPI DUP1 PUSH4 0x54398D18 EQ PUSH2 0x172 JUMPI DUP1 PUSH4 0x5FE226B4 EQ PUSH2 0x18E JUMPI DUP1 PUSH4 0x8E53FB41 EQ PUSH2 0x1AC JUMPI DUP1 PUSH4 0x8FB7092C EQ PUSH2 0x1CA JUMPI DUP1 PUSH4 0xAA7E5683 EQ PUSH2 0x1FA JUMPI DUP1 PUSH4 0xBF0AC63C EQ PUSH2 0x216 JUMPI PUSH2 0xA7 JUMP JUMPDEST DUP1 PUSH4 0x94CD5EE EQ PUSH2 0xAB JUMPI DUP1 PUSH4 0xFBBBFC3 EQ PUSH2 0xC7 JUMPI DUP1 PUSH4 0x30561100 EQ PUSH2 0xE5 JUMPI DUP1 PUSH4 0x392338F5 EQ PUSH2 0x10B JUMPI DUP1 PUSH4 0x40731C24 EQ PUSH2 0x13B JUMPI JUMPDEST PUSH0 DUP1 REVERT JUMPDEST PUSH2 0xC5 PUSH1 0x4 DUP1 CALLDATASIZE SUB DUP2 ADD SWAP1 PUSH2 0xC0 SWAP2 SWAP1 PUSH2 0x1FA2 JUMP JUMPDEST PUSH2 0x232 JUMP JUMPDEST STOP JUMPDEST PUSH2 0xCF PUSH2 0x3EA JUMP JUMPDEST PUSH1 0x40 MLOAD PUSH2 0xDC SWAP2 SWAP1 PUSH2 0x1FDC JUMP JUMPDEST PUSH1 0x40 MLOAD DUP1 SWAP2 SUB SWAP1 RETURN JUMPDEST PUSH2 0xED PUSH2 0x3F0 JUMP JUMPDEST PUSH1 0x40 MLOAD PUSH2 0x102 SWAP10 SWAP9 SWAP8 SWAP7 SWAP6 SWAP5 SWAP4 SWAP3 SWAP2 SWAP1 PUSH2 0x2380 JUMP JUMPDEST PUSH1 0x40 MLOAD DUP1 SWAP2 SUB SWAP1 RETURN JUMPDEST PUSH2 0x125 PUSH1 0x4 DUP1 CALLDATASIZE SUB DUP2 ADD SWAP1 PUSH2 0x120 SWAP2 SWAP1 PUSH2 0x2576 JUMP JUMPDEST PUSH2 0xB44 JUMP JUMPDEST PUSH1 0x40 MLOAD PUSH2 0x132 SWAP2 SWAP1 PUSH2 0x1FDC JUMP JUMPDEST PUSH1 0x40 MLOAD DUP1 SWAP2 SUB SWAP1 RETURN JUMPDEST PUSH2 0x155 PUSH1 0x4 DUP1 CALLDATASIZE SUB DUP2 ADD SWAP1 PUSH2 0x150 SWAP2 SWAP1 PUSH2 0x1FA2 JUMP JUMPDEST PUSH2 0xDCF JUMP JUMPDEST PUSH1 0x40 MLOAD PUSH2 0x169 SWAP9 SWAP8 SWAP7 SWAP6 SWAP5 SWAP4 SWAP3 SWAP2 SWAP1 PUSH2 0x274B JUMP JUMPDEST PUSH1 0x40 MLOAD DUP1 SWAP2 SUB SWAP1 RETURN JUMPDEST PUSH2 0x18C PUSH1 0x4 DUP1 CALLDATASIZE SUB DUP2 ADD SWAP1 PUSH2 0x187 SWAP2 SWAP1 PUSH2 0x1FA2 JUMP JUMPDEST PUSH2 0x1257 JUMP JUMPDEST STOP JUMPDEST PUSH2 0x196 PUSH2 0x1898 JUMP JUMPDEST PUSH1 0x40 MLOAD PUSH2 0x1A3 SWAP2 SWAP1 PUSH2 0x1FDC JUMP JUMPDEST PUSH1 0x40 MLOAD DUP1 SWAP2 SUB SWAP1 RETURN JUMPDEST PUSH2 0x1B4 PUSH2 0x18A1 JUMP JUMPDEST PUSH1 0x40 MLOAD PUSH2 0x1C1 SWAP2 SWAP1 PUSH2 0x1FDC JUMP JUMPDEST PUSH1 0x40 MLOAD DUP1 SWAP2 SUB SWAP1 RETURN JUMPDEST PUSH2 0x1E4 PUSH1 0x4 DUP1 CALLDATASIZE SUB DUP2 ADD SWAP1 PUSH2 0x1DF SWAP2 SWAP1 PUSH2 0x280D JUMP JUMPDEST PUSH2 0x18A7 JUMP JUMPDEST PUSH1 0x40 MLOAD PUSH2 0x1F1 SWAP2 SWAP1 PUSH2 0x285A JUMP JUMPDEST PUSH1 0x40 MLOAD DUP1 SWAP2 SUB SWAP1 RETURN JUMPDEST PUSH2 0x214 PUSH1 0x4 DUP1 CALLDATASIZE SUB DUP2 ADD SWAP1 PUSH2 0x20F SWAP2 SWAP1 PUSH2 0x2873 JUMP JUMPDEST PUSH2 0x19BF JUMP JUMPDEST STOP JUMPDEST PUSH2 0x230 PUSH1 0x4 DUP1 CALLDATASIZE SUB DUP2 ADD SWAP1 PUSH2 0x22B SWAP2 SWAP1 PUSH2 0x28CD JUMP JUMPDEST PUSH2 0x1C42 JUMP JUMPDEST STOP JUMPDEST DUP1 PUSH0 DUP1 SLOAD SWAP1 POP DUP2 LT PUSH2 0x279 JUMPI PUSH1 0x40 MLOAD PUSH32 0x8C379A000000000000000000000000000000000000000000000000000000000 DUP2 MSTORE PUSH1 0x4 ADD PUSH2 0x270 SWAP1 PUSH2 0x299F JUMP JUMPDEST PUSH1 0x40 MLOAD DUP1 SWAP2 SUB SWAP1 REVERT JUMPDEST PUSH0 DUP2 DUP2 SLOAD DUP2 LT PUSH2 0x28C JUMPI PUSH2 0x28B PUSH2 0x29BD JUMP JUMPDEST JUMPDEST SWAP1 PUSH0 MSTORE PUSH1 0x20 PUSH0 KECCAK256 SWAP1 PUSH1 0xC MUL ADD PUSH1 0xB ADD PUSH0 SWAP1 SLOAD SWAP1 PUSH2 0x100 EXP SWAP1 DIV PUSH1 0xFF AND PUSH2 0x2E7 JUMPI PUSH1 0x40 MLOAD PUSH32 0x8C379A000000000000000000000000000000000000000000000000000000000 DUP2 MSTORE PUSH1 0x4 ADD PUSH2 0x2DE SWAP1 PUSH2 0x2A34 JUMP JUMPDEST PUSH1 0x40 MLOAD DUP1 SWAP2 SUB SWAP1 REVERT JUMPDEST PUSH0 DUP3 DUP2 SLOAD DUP2 LT PUSH2 0x2FA JUMPI PUSH2 0x2F9 PUSH2 0x29BD JUMP JUMPDEST JUMPDEST SWAP1 PUSH0 MSTORE PUSH1 0x20 PUSH0 KECCAK256 SWAP1 PUSH1 0xC MUL ADD PUSH1 0x3 ADD PUSH0 SWAP1 SLOAD SWAP1 PUSH2 0x100 EXP SWAP1 DIV PUSH20 0xFFFFFFFFFFFFFFFFFFFFFFFFFFFFFFFFFFFFFFFF AND PUSH20 0xFFFFFFFFFFFFFFFFFFFFFFFFFFFFFFFFFFFFFFFF AND CALLER PUSH20 0xFFFFFFFFFFFFFFFFFFFFFFFFFFFFFFFFFFFFFFFF AND EQ PUSH2 0x396 JUMPI PUSH1 0x40 MLOAD PUSH32 0x8C379A000000000000000000000000000000000000000000000000000000000 DUP2 MSTORE PUSH1 0x4 ADD PUSH2 0x38D SWAP1 PUSH2 0x2AC2 JUMP JUMPDEST PUSH1 0x40 MLOAD DUP1 SWAP2 SUB SWAP1 REVERT JUMPDEST PUSH0 DUP1 DUP4 DUP2 SLOAD DUP2 LT PUSH2 0x3AA JUMPI PUSH2 0x3A9 PUSH2 0x29BD JUMP JUMPDEST JUMPDEST SWAP1 PUSH0 MSTORE PUSH1 0x20 PUSH0 KECCAK256 SWAP1 PUSH1 0xC MUL ADD PUSH1 0xB ADD PUSH0 PUSH2 0x100 EXP DUP2 SLOAD DUP2 PUSH1 0xFF MUL NOT AND SWAP1 DUP4 ISZERO ISZERO MUL OR SWAP1 SSTORE POP PUSH1 0x3 PUSH0 DUP2 SLOAD DUP1 SWAP3 SWAP2 SWAP1 PUSH2 0x3E1 SWAP1 PUSH2 0x2B0D JUMP JUMPDEST SWAP2 SWAP1 POP SSTORE POP POP POP JUMP JUMPDEST PUSH1 0x3 SLOAD DUP2 JUMP JUMPDEST PUSH1 0x60 DUP1 PUSH1 0x60 DUP1 PUSH1 0x60 DUP1 PUSH1 0x60 DUP1 PUSH1 0x60 PUSH0 DUP1 JUMPDEST PUSH0 DUP1 SLOAD SWAP1 POP DUP2 LT ISZERO PUSH2 0x45D JUMPI PUSH0 DUP2 DUP2 SLOAD DUP2 LT PUSH2 0x420 JUMPI PUSH2 0x41F PUSH2 0x29BD JUMP JUMPDEST JUMPDEST SWAP1 PUSH0 MSTORE PUSH1 0x20 PUSH0 KECCAK256 SWAP1 PUSH1 0xC MUL ADD PUSH1 0xB ADD PUSH0 SWAP1 SLOAD SWAP1 PUSH2 0x100 EXP SWAP1 DIV PUSH1 0xFF AND ISZERO PUSH2 0x450 JUMPI DUP2 DUP1 PUSH2 0x44C SWAP1 PUSH2 0x2B34 JUMP JUMPDEST SWAP3 POP POP JUMPDEST DUP1 DUP1 PUSH1 0x1 ADD SWAP2 POP POP PUSH2 0x401 JUMP JUMPDEST POP DUP1 PUSH8 0xFFFFFFFFFFFFFFFF DUP2 GT ISZERO PUSH2 0x478 JUMPI PUSH2 0x477 PUSH2 0x2452 JUMP JUMPDEST JUMPDEST PUSH1 0x40 MLOAD SWAP1 DUP1 DUP3 MSTORE DUP1 PUSH1 0x20 MUL PUSH1 0x20 ADD DUP3 ADD PUSH1 0x40 MSTORE DUP1 ISZERO PUSH2 0x4A6 JUMPI DUP2 PUSH1 0x20 ADD PUSH1 0x20 DUP3 MUL DUP1 CALLDATASIZE DUP4 CALLDATACOPY DUP1 DUP3 ADD SWAP2 POP POP SWAP1 POP JUMPDEST POP SWAP10 POP DUP1 PUSH8 0xFFFFFFFFFFFFFFFF DUP2 GT ISZERO PUSH2 0x4C3 JUMPI PUSH2 0x4C2 PUSH2 0x2452 JUMP JUMPDEST JUMPDEST PUSH1 0x40 MLOAD SWAP1 DUP1 DUP3 MSTORE DUP1 PUSH1 0x20 MUL PUSH1 0x20 ADD DUP3 ADD PUSH1 0x40 MSTORE DUP1 ISZERO PUSH2 0x4F6 JUMPI DUP2 PUSH1 0x20 ADD JUMPDEST PUSH1 0x60 DUP2 MSTORE PUSH1 0x20 ADD SWAP1 PUSH1 0x1 SWAP1 SUB SWAP1 DUP2 PUSH2 0x4E1 JUMPI SWAP1 POP JUMPDEST POP SWAP9 POP DUP1 PUSH8 0xFFFFFFFFFFFFFFFF DUP2 GT ISZERO PUSH2 0x513 JUMPI PUSH2 0x512 PUSH2 0x2452 JUMP JUMPDEST JUMPDEST PUSH1 0x40 MLOAD SWAP1 DUP1 DUP3 MSTORE DUP1 PUSH1 0x20 MUL PUSH1 0x20 ADD DUP3 ADD PUSH1 0x40 MSTORE DUP1 ISZERO PUSH2 0x546 JUMPI DUP2 PUSH1 0x20 ADD JUMPDEST PUSH1 0x60 DUP2 MSTORE PUSH1 0x20 ADD SWAP1 PUSH1 0x1 SWAP1 SUB SWAP1 DUP2 PUSH2 0x531 JUMPI SWAP1 POP JUMPDEST POP SWAP8 POP DUP1 PUSH8 0xFFFFFFFFFFFFFFFF DUP2 GT ISZERO PUSH2 0x563 JUMPI PUSH2 0x562 PUSH2 0x2452 JUMP JUMPDEST JUMPDEST PUSH1 0x40 MLOAD SWAP1 DUP1 DUP3 MSTORE DUP1 PUSH1 0x20 MUL PUSH1 0x20 ADD DUP3 ADD PUSH1 0x40 MSTORE DUP1 ISZERO PUSH2 0x591 JUMPI DUP2 PUSH1 0x20 ADD PUSH1 0x20 DUP3 MUL DUP1 CALLDATASIZE DUP4 CALLDATACOPY DUP1 DUP3 ADD SWAP2 POP POP SWAP1 POP JUMPDEST POP SWAP7 POP DUP1 PUSH8 0xFFFFFFFFFFFFFFFF DUP2 GT ISZERO PUSH2 0x5AE JUMPI PUSH2 0x5AD PUSH2 0x2452 JUMP JUMPDEST JUMPDEST PUSH1 0x40 MLOAD SWAP1 DUP1 DUP3 MSTORE DUP1 PUSH1 0x20 MUL PUSH1 0x20 ADD DUP3 ADD PUSH1 0x40 MSTORE DUP1 ISZERO PUSH2 0x5DC JUMPI DUP2 PUSH1 0x20 ADD PUSH1 0x20 DUP3 MUL DUP1 CALLDATASIZE DUP4 CALLDATACOPY DUP1 DUP3 ADD SWAP2 POP POP SWAP1 POP JUMPDEST POP SWAP6 POP DUP1 PUSH8 0xFFFFFFFFFFFFFFFF DUP2 GT ISZERO PUSH2 0x5F9 JUMPI PUSH2 0x5F8 PUSH2 0x2452 JUMP JUMPDEST JUMPDEST PUSH1 0x40 MLOAD SWAP1 DUP1 DUP3 MSTORE DUP1 PUSH1 0x20 MUL PUSH1 0x20 ADD DUP3 ADD PUSH1 0x40 MSTORE DUP1 ISZERO PUSH2 0x627 JUMPI DUP2 PUSH1 0x20 ADD PUSH1 0x20 DUP3 MUL DUP1 CALLDATASIZE DUP4 CALLDATACOPY DUP1 DUP3 ADD SWAP2 POP POP SWAP1 POP JUMPDEST POP SWAP5 POP DUP1 PUSH8 0xFFFFFFFFFFFFFFFF DUP2 GT ISZERO PUSH2 0x644 JUMPI PUSH2 0x643 PUSH2 0x2452 JUMP JUMPDEST JUMPDEST PUSH1 0x40 MLOAD SWAP1 DUP1 DUP3 MSTORE DUP1 PUSH1 0x20 MUL PUSH1 0x20 ADD DUP3 ADD PUSH1 0x40 MSTORE DUP1 ISZERO PUSH2 0x672 JUMPI DUP2 PUSH1 0x20 ADD PUSH1 0x20 DUP3 MUL DUP1 CALLDATASIZE DUP4 CALLDATACOPY DUP1 DUP3 ADD SWAP2 POP POP SWAP1 POP JUMPDEST POP SWAP4 POP DUP1 PUSH8 0xFFFFFFFFFFFFFFFF DUP2 GT ISZERO PUSH2 0x68F JUMPI PUSH2 0x68E PUSH2 0x2452 JUMP JUMPDEST JUMPDEST PUSH1 0x40 MLOAD SWAP1 DUP1 DUP3 MSTORE DUP1 PUSH1 0x20 MUL PUSH1 0x20 ADD DUP3 ADD PUSH1 0x40 MSTORE DUP1 ISZERO PUSH2 0x6BD JUMPI DUP2 PUSH1 0x20 ADD PUSH1 0x20 DUP3 MUL DUP1 CALLDATASIZE DUP4 CALLDATACOPY DUP1 DUP3 ADD SWAP2 POP POP SWAP1 POP JUMPDEST POP SWAP3 POP DUP1 PUSH8 0xFFFFFFFFFFFFFFFF DUP2 GT ISZERO PUSH2 0x6DA JUMPI PUSH2 0x6D9 PUSH2 0x2452 JUMP JUMPDEST JUMPDEST PUSH1 0x40 MLOAD SWAP1 DUP1 DUP3 MSTORE DUP1 PUSH1 0x20 MUL PUSH1 0x20 ADD DUP3 ADD PUSH1 0x40 MSTORE DUP1 ISZERO PUSH2 0x708 JUMPI DUP2 PUSH1 0x20 ADD PUSH1 0x20 DUP3 MUL DUP1 CALLDATASIZE DUP4 CALLDATACOPY DUP1 DUP3 ADD SWAP2 POP POP SWAP1 POP JUMPDEST POP SWAP2 POP PUSH0 DUP1 JUMPDEST PUSH0 DUP1 SLOAD SWAP1 POP DUP2 LT ISZERO PUSH2 0xB36 JUMPI PUSH0 DUP2 DUP2 SLOAD DUP2 LT PUSH2 0x72D JUMPI PUSH2 0x72C PUSH2 0x29BD JUMP JUMPDEST JUMPDEST SWAP1 PUSH0 MSTORE PUSH1 0x20 PUSH0 KECCAK256 SWAP1 PUSH1 0xC MUL ADD PUSH1 0xB ADD PUSH0 SWAP1 SLOAD SWAP1 PUSH2 0x100 EXP SWAP1 DIV PUSH1 0xFF AND ISZERO PUSH2 0xB29 JUMPI PUSH0 DUP2 DUP2 SLOAD DUP2 LT PUSH2 0x761 JUMPI PUSH2 0x760 PUSH2 0x29BD JUMP JUMPDEST JUMPDEST SWAP1 PUSH0 MSTORE PUSH1 0x20 PUSH0 KECCAK256 SWAP1 PUSH1 0xC MUL ADD PUSH0 ADD SLOAD DUP13 DUP4 DUP2 MLOAD DUP2 LT PUSH2 0x783 JUMPI PUSH2 0x782 PUSH2 0x29BD JUMP JUMPDEST JUMPDEST PUSH1 0x20 MUL PUSH1 0x20 ADD ADD DUP2 DUP2 MSTORE POP POP PUSH0 DUP2 DUP2 SLOAD DUP2 LT PUSH2 0x7A2 JUMPI PUSH2 0x7A1 PUSH2 0x29BD JUMP JUMPDEST JUMPDEST SWAP1 PUSH0 MSTORE PUSH1 0x20 PUSH0 KECCAK256 SWAP1 PUSH1 0xC MUL ADD PUSH1 0x1 ADD DUP1 SLOAD PUSH2 0x7BC SWAP1 PUSH2 0x2BA8 JUMP JUMPDEST DUP1 PUSH1 0x1F ADD PUSH1 0x20 DUP1 SWAP2 DIV MUL PUSH1 0x20 ADD PUSH1 0x40 MLOAD SWAP1 DUP2 ADD PUSH1 0x40 MSTORE DUP1 SWAP3 SWAP2 SWAP1 DUP2 DUP2 MSTORE PUSH1 0x20 ADD DUP3 DUP1 SLOAD PUSH2 0x7E8 SWAP1 PUSH2 0x2BA8 JUMP JUMPDEST DUP1 ISZERO PUSH2 0x833 JUMPI DUP1 PUSH1 0x1F LT PUSH2 0x80A JUMPI PUSH2 0x100 DUP1 DUP4 SLOAD DIV MUL DUP4 MSTORE SWAP2 PUSH1 0x20 ADD SWAP2 PUSH2 0x833 JUMP JUMPDEST DUP3 ADD SWAP2 SWAP1 PUSH0 MSTORE PUSH1 0x20 PUSH0 KECCAK256 SWAP1 JUMPDEST DUP2 SLOAD DUP2 MSTORE SWAP1 PUSH1 0x1 ADD SWAP1 PUSH1 0x20 ADD DUP1 DUP4 GT PUSH2 0x816 JUMPI DUP3 SWAP1 SUB PUSH1 0x1F AND DUP3 ADD SWAP2 JUMPDEST POP POP POP POP POP DUP12 DUP4 DUP2 MLOAD DUP2 LT PUSH2 0x84B JUMPI PUSH2 0x84A PUSH2 0x29BD JUMP JUMPDEST JUMPDEST PUSH1 0x20 MUL PUSH1 0x20 ADD ADD DUP2 SWAP1 MSTORE POP PUSH0 DUP2 DUP2 SLOAD DUP2 LT PUSH2 0x869 JUMPI PUSH2 0x868 PUSH2 0x29BD JUMP JUMPDEST JUMPDEST SWAP1 PUSH0 MSTORE PUSH1 0x20 PUSH0 KECCAK256 SWAP1 PUSH1 0xC MUL ADD PUSH1 0x2 ADD DUP1 SLOAD PUSH2 0x883 SWAP1 PUSH2 0x2BA8 JUMP JUMPDEST DUP1 PUSH1 0x1F ADD PUSH1 0x20 DUP1 SWAP2 DIV MUL PUSH1 0x20 ADD PUSH1 0x40 MLOAD SWAP1 DUP2 ADD PUSH1 0x40 MSTORE DUP1 SWAP3 SWAP2 SWAP1 DUP2 DUP2 MSTORE PUSH1 0x20 ADD DUP3 DUP1 SLOAD PUSH2 0x8AF SWAP1 PUSH2 0x2BA8 JUMP JUMPDEST DUP1 ISZERO PUSH2 0x8FA JUMPI DUP1 PUSH1 0x1F LT PUSH2 0x8D1 JUMPI PUSH2 0x100 DUP1 DUP4 SLOAD DIV MUL DUP4 MSTORE SWAP2 PUSH1 0x20 ADD SWAP2 PUSH2 0x8FA JUMP JUMPDEST DUP3 ADD SWAP2 SWAP1 PUSH0 MSTORE PUSH1 0x20 PUSH0 KECCAK256 SWAP1 JUMPDEST DUP2 SLOAD DUP2 MSTORE SWAP1 PUSH1 0x1 ADD SWAP1 PUSH1 0x20 ADD DUP1 DUP4 GT PUSH2 0x8DD JUMPI DUP3 SWAP1 SUB PUSH1 0x1F AND DUP3 ADD SWAP2 JUMPDEST POP POP POP POP POP DUP11 DUP4 DUP2 MLOAD DUP2 LT PUSH2 0x912 JUMPI PUSH2 0x911 PUSH2 0x29BD JUMP JUMPDEST JUMPDEST PUSH1 0x20 MUL PUSH1 0x20 ADD ADD DUP2 SWAP1 MSTORE POP PUSH0 DUP2 DUP2 SLOAD DUP2 LT PUSH2 0x930 JUMPI PUSH2 0x92F PUSH2 0x29BD JUMP JUMPDEST JUMPDEST SWAP1 PUSH0 MSTORE PUSH1 0x20 PUSH0 KECCAK256 SWAP1 PUSH1 0xC MUL ADD PUSH1 0x3 ADD PUSH0 SWAP1 SLOAD SWAP1 PUSH2 0x100 EXP SWAP1 DIV PUSH20 0xFFFFFFFFFFFFFFFFFFFFFFFFFFFFFFFFFFFFFFFF AND DUP10 DUP4 DUP2 MLOAD DUP2 LT PUSH2 0x972 JUMPI PUSH2 0x971 PUSH2 0x29BD JUMP JUMPDEST JUMPDEST PUSH1 0x20 MUL PUSH1 0x20 ADD ADD SWAP1 PUSH20 0xFFFFFFFFFFFFFFFFFFFFFFFFFFFFFFFFFFFFFFFF AND SWAP1 DUP2 PUSH20 0xFFFFFFFFFFFFFFFFFFFFFFFFFFFFFFFFFFFFFFFF AND DUP2 MSTORE POP POP PUSH0 DUP2 DUP2 SLOAD DUP2 LT PUSH2 0x9BF JUMPI PUSH2 0x9BE PUSH2 0x29BD JUMP JUMPDEST JUMPDEST SWAP1 PUSH0 MSTORE PUSH1 0x20 PUSH0 KECCAK256 SWAP1 PUSH1 0xC MUL ADD PUSH1 0x4 ADD SLOAD DUP9 DUP4 DUP2 MLOAD DUP2 LT PUSH2 0x9E2 JUMPI PUSH2 0x9E1 PUSH2 0x29BD JUMP JUMPDEST JUMPDEST PUSH1 0x20 MUL PUSH1 0x20 ADD ADD DUP2 DUP2 MSTORE POP POP PUSH0 DUP2 DUP2 SLOAD DUP2 LT PUSH2 0xA01 JUMPI PUSH2 0xA00 PUSH2 0x29BD JUMP JUMPDEST JUMPDEST SWAP1 PUSH0 MSTORE PUSH1 0x20 PUSH0 KECCAK256 SWAP1 PUSH1 0xC MUL ADD PUSH1 0x5 ADD SLOAD DUP8 DUP4 DUP2 MLOAD DUP2 LT PUSH2 0xA24 JUMPI PUSH2 0xA23 PUSH2 0x29BD JUMP JUMPDEST JUMPDEST PUSH1 0x20 MUL PUSH1 0x20 ADD ADD DUP2 DUP2 MSTORE POP POP PUSH0 DUP2 DUP2 SLOAD DUP2 LT PUSH2 0xA43 JUMPI PUSH2 0xA42 PUSH2 0x29BD JUMP JUMPDEST JUMPDEST SWAP1 PUSH0 MSTORE PUSH1 0x20 PUSH0 KECCAK256 SWAP1 PUSH1 0xC MUL ADD PUSH1 0x8 ADD SLOAD DUP7 DUP4 DUP2 MLOAD DUP2 LT PUSH2 0xA66 JUMPI PUSH2 0xA65 PUSH2 0x29BD JUMP JUMPDEST JUMPDEST PUSH1 0x20 MUL PUSH1 0x20 ADD ADD DUP2 DUP2 MSTORE POP POP PUSH0 DUP2 DUP2 SLOAD DUP2 LT PUSH2 0xA85 JUMPI PUSH2 0xA84 PUSH2 0x29BD JUMP JUMPDEST JUMPDEST SWAP1 PUSH0 MSTORE PUSH1 0x20 PUSH0 KECCAK256 SWAP1 PUSH1 0xC MUL ADD PUSH1 0x9 ADD PUSH0 SWAP1 SLOAD SWAP1 PUSH2 0x100 EXP SWAP1 DIV PUSH1 0xFF AND DUP6 DUP4 DUP2 MLOAD DUP2 LT PUSH2 0xAB4 JUMPI PUSH2 0xAB3 PUSH2 0x29BD JUMP JUMPDEST JUMPDEST PUSH1 0x20 MUL PUSH1 0x20 ADD ADD SWAP1 ISZERO ISZERO SWAP1 DUP2 ISZERO ISZERO DUP2 MSTORE POP POP PUSH0 DUP2 DUP2 SLOAD DUP2 LT PUSH2 0xAD9 JUMPI PUSH2 0xAD8 PUSH2 0x29BD JUMP JUMPDEST JUMPDEST SWAP1 PUSH0 MSTORE PUSH1 0x20 PUSH0 KECCAK256 SWAP1 PUSH1 0xC MUL ADD PUSH1 0xB ADD PUSH0 SWAP1 SLOAD SWAP1 PUSH2 0x100 EXP SWAP1 DIV PUSH1 0xFF AND DUP5 DUP4 DUP2 MLOAD DUP2 LT PUSH2 0xB08 JUMPI PUSH2 0xB07 PUSH2 0x29BD JUMP JUMPDEST JUMPDEST PUSH1 0x20 MUL PUSH1 0x20 ADD ADD SWAP1 ISZERO ISZERO SWAP1 DUP2 ISZERO ISZERO DUP2 MSTORE POP POP DUP2 DUP1 PUSH2 0xB25 SWAP1 PUSH2 0x2B34 JUMP JUMPDEST SWAP3 POP POP JUMPDEST DUP1 DUP1 PUSH1 0x1 ADD SWAP2 POP POP PUSH2 0x70E JUMP JUMPDEST POP POP POP SWAP1 SWAP2 SWAP3 SWAP4 SWAP5 SWAP6 SWAP7 SWAP8 SWAP9 JUMP JUMPDEST PUSH0 DUP1 DUP4 MLOAD GT PUSH2 0xB88 JUMPI PUSH1 0x40 MLOAD PUSH32 0x8C379A000000000000000000000000000000000000000000000000000000000 DUP2 MSTORE PUSH1 0x4 ADD PUSH2 0xB7F SWAP1 PUSH2 0x2C22 JUMP JUMPDEST PUSH1 0x40 MLOAD DUP1 SWAP2 SUB SWAP1 REVERT JUMPDEST PUSH1 0x64 DUP4 MLOAD GT ISZERO PUSH2 0xBCD JUMPI PUSH1 0x40 MLOAD PUSH32 0x8C379A000000000000000000000000000000000000000000000000000000000 DUP2 MSTORE PUSH1 0x4 ADD PUSH2 0xBC4 SWAP1 PUSH2 0x2C8A JUMP JUMPDEST PUSH1 0x40 MLOAD DUP1 SWAP2 SUB SWAP1 REVERT JUMPDEST PUSH0 DUP3 MLOAD GT PUSH2 0xC10 JUMPI PUSH1 0x40 MLOAD PUSH32 0x8C379A000000000000000000000000000000000000000000000000000000000 DUP2 MSTORE PUSH1 0x4 ADD PUSH2 0xC07 SWAP1 PUSH2 0x2CF2 JUMP JUMPDEST PUSH1 0x40 MLOAD DUP1 SWAP2 SUB SWAP1 REVERT JUMPDEST PUSH2 0x1388 DUP3 MLOAD GT ISZERO PUSH2 0xC56 JUMPI PUSH1 0x40 MLOAD PUSH32 0x8C379A000000000000000000000000000000000000000000000000000000000 DUP2 MSTORE PUSH1 0x4 ADD PUSH2 0xC4D SWAP1 PUSH2 0x2D5A JUMP JUMPDEST PUSH1 0x40 MLOAD DUP1 SWAP2 SUB SWAP1 REVERT JUMPDEST PUSH0 PUSH1 0x2 SLOAD SWAP1 POP PUSH0 DUP1 PUSH1 0x1 DUP2 PUSH1 0x1 DUP2 SLOAD ADD DUP1 DUP3 SSTORE DUP1 SWAP2 POP POP SUB SWAP1 PUSH0 MSTORE PUSH1 0x20 PUSH0 KECCAK256 SWAP1 PUSH1 0xC MUL ADD SWAP1 POP DUP2 DUP2 PUSH0 ADD DUP2 SWAP1 SSTORE POP DUP5 DUP2 PUSH1 0x1 ADD SWAP1 DUP2 PUSH2 0xC95 SWAP2 SWAP1 PUSH2 0x2F15 JUMP JUMPDEST POP DUP4 DUP2 PUSH1 0x2 ADD SWAP1 DUP2 PUSH2 0xCA7 SWAP2 SWAP1 PUSH2 0x2F15 JUMP JUMPDEST POP CALLER DUP2 PUSH1 0x3 ADD PUSH0 PUSH2 0x100 EXP DUP2 SLOAD DUP2 PUSH20 0xFFFFFFFFFFFFFFFFFFFFFFFFFFFFFFFFFFFFFFFF MUL NOT AND SWAP1 DUP4 PUSH20 0xFFFFFFFFFFFFFFFFFFFFFFFFFFFFFFFFFFFFFFFF AND MUL OR SWAP1 SSTORE POP TIMESTAMP DUP2 PUSH1 0x4 ADD DUP2 SWAP1 SSTORE POP PUSH0 DUP2 PUSH1 0x5 ADD DUP2 SWAP1 SSTORE POP PUSH0 DUP2 PUSH1 0x8 ADD DUP2 SWAP1 SSTORE POP PUSH0 DUP2 PUSH1 0x9 ADD PUSH0 PUSH2 0x100 EXP DUP2 SLOAD DUP2 PUSH1 0xFF MUL NOT AND SWAP1 DUP4 ISZERO ISZERO MUL OR SWAP1 SSTORE POP TIMESTAMP DUP2 PUSH1 0xA ADD DUP2 SWAP1 SSTORE POP PUSH1 0x1 DUP2 PUSH1 0xB ADD PUSH0 PUSH2 0x100 EXP DUP2 SLOAD DUP2 PUSH1 0xFF MUL NOT AND SWAP1 DUP4 ISZERO ISZERO MUL OR SWAP1 SSTORE POP PUSH1 0x2 PUSH0 DUP2 SLOAD DUP1 SWAP3 SWAP2 SWAP1 PUSH2 0xD57 SWAP1 PUSH2 0x2B34 JUMP JUMPDEST SWAP2 SWAP1 POP SSTORE POP PUSH1 0x3 PUSH0 DUP2 SLOAD DUP1 SWAP3 SWAP2 SWAP1 PUSH2 0xD6E SWAP1 PUSH2 0x2B34 JUMP JUMPDEST SWAP2 SWAP1 POP SSTORE POP CALLER PUSH20 0xFFFFFFFFFFFFFFFFFFFFFFFFFFFFFFFFFFFFFFFF AND DUP3 PUSH32 0x285DB98A4632176385795DDF0D2B67CEF1A21F47EB2F5D06F786AB6B5147E200 DUP8 TIMESTAMP PUSH1 0x40 MLOAD PUSH2 0xDBC SWAP3 SWAP2 SWAP1 PUSH2 0x2FE4 JUMP JUMPDEST PUSH1 0x40 MLOAD DUP1 SWAP2 SUB SWAP1 LOG3 DUP2 SWAP3 POP POP POP SWAP3 SWAP2 POP POP JUMP JUMPDEST PUSH1 0x60 DUP1 PUSH0 DUP1 PUSH0 PUSH1 0x60 PUSH0 PUSH1 0x60 DUP9 PUSH0 DUP1 SLOAD SWAP1 POP DUP2 LT PUSH2 0xE21 JUMPI PUSH1 0x40 MLOAD PUSH32 0x8C379A000000000000000000000000000000000000000000000000000000000 DUP2 MSTORE PUSH1 0x4 ADD PUSH2 0xE18 SWAP1 PUSH2 0x299F JUMP JUMPDEST PUSH1 0x40 MLOAD DUP1 SWAP2 SUB SWAP1 REVERT JUMPDEST PUSH0 DUP2 DUP2 SLOAD DUP2 LT PUSH2 0xE34 JUMPI PUSH2 0xE33 PUSH2 0x29BD JUMP JUMPDEST JUMPDEST SWAP1 PUSH0 MSTORE PUSH1 0x20 PUSH0 KECCAK256 SWAP1 PUSH1 0xC MUL ADD PUSH1 0xB ADD PUSH0 SWAP1 SLOAD SWAP1 PUSH2 0x100 EXP SWAP1 DIV PUSH1 0xFF AND PUSH2 0xE8F JUMPI PUSH1 0x40 MLOAD PUSH32 0x8C379A000000000000000000000000000000000000000000000000000000000 DUP2 MSTORE PUSH1 0x4 ADD PUSH2 0xE86 SWAP1 PUSH2 0x2A34 JUMP JUMPDEST PUSH1 0x40 MLOAD DUP1 SWAP2 SUB SWAP1 REVERT JUMPDEST PUSH0 DUP1 DUP12 DUP2 SLOAD DUP2 LT PUSH2 0xEA3 JUMPI PUSH2 0xEA2 PUSH2 0x29BD JUMP JUMPDEST JUMPDEST SWAP1 PUSH0 MSTORE PUSH1 0x20 PUSH0 KECCAK256 SWAP1 PUSH1 0xC MUL ADD SWAP1 POP PUSH0 DUP2 PUSH1 0x8 ADD SLOAD PUSH8 0xFFFFFFFFFFFFFFFF DUP2 GT ISZERO PUSH2 0xED0 JUMPI PUSH2 0xECF PUSH2 0x2452 JUMP JUMPDEST JUMPDEST PUSH1 0x40 MLOAD SWAP1 DUP1 DUP3 MSTORE DUP1 PUSH1 0x20 MUL PUSH1 0x20 ADD DUP3 ADD PUSH1 0x40 MSTORE DUP1 ISZERO PUSH2 0xF09 JUMPI DUP2 PUSH1 0x20 ADD JUMPDEST PUSH2 0xEF6 PUSH2 0x1F29 JUMP JUMPDEST DUP2 MSTORE PUSH1 0x20 ADD SWAP1 PUSH1 0x1 SWAP1 SUB SWAP1 DUP2 PUSH2 0xEEE JUMPI SWAP1 POP JUMPDEST POP SWAP1 POP PUSH0 DUP1 JUMPDEST DUP4 PUSH1 0x8 ADD SLOAD DUP2 LT ISZERO PUSH2 0x105E JUMPI DUP4 PUSH1 0x7 ADD PUSH0 DUP3 DUP2 MSTORE PUSH1 0x20 ADD SWAP1 DUP2 MSTORE PUSH1 0x20 ADD PUSH0 KECCAK256 PUSH1 0x40 MLOAD DUP1 PUSH1 0x60 ADD PUSH1 0x40 MSTORE SWAP1 DUP2 PUSH0 DUP3 ADD DUP1 SLOAD PUSH2 0xF48 SWAP1 PUSH2 0x2BA8 JUMP JUMPDEST DUP1 PUSH1 0x1F ADD PUSH1 0x20 DUP1 SWAP2 DIV MUL PUSH1 0x20 ADD PUSH1 0x40 MLOAD SWAP1 DUP2 ADD PUSH1 0x40 MSTORE DUP1 SWAP3 SWAP2 SWAP1 DUP2 DUP2 MSTORE PUSH1 0x20 ADD DUP3 DUP1 SLOAD PUSH2 0xF74 SWAP1 PUSH2 0x2BA8 JUMP JUMPDEST DUP1 ISZERO PUSH2 0xFBF JUMPI DUP1 PUSH1 0x1F LT PUSH2 0xF96 JUMPI PUSH2 0x100 DUP1 DUP4 SLOAD DIV MUL DUP4 MSTORE SWAP2 PUSH1 0x20 ADD SWAP2 PUSH2 0xFBF JUMP JUMPDEST DUP3 ADD SWAP2 SWAP1 PUSH0 MSTORE PUSH1 0x20 PUSH0 KECCAK256 SWAP1 JUMPDEST DUP2 SLOAD DUP2 MSTORE SWAP1 PUSH1 0x1 ADD SWAP1 PUSH1 0x20 ADD DUP1 DUP4 GT PUSH2 0xFA2 JUMPI DUP3 SWAP1 SUB PUSH1 0x1F AND DUP3 ADD SWAP2 JUMPDEST POP POP POP POP POP DUP2 MSTORE PUSH1 0x20 ADD PUSH1 0x1 DUP3 ADD PUSH0 SWAP1 SLOAD SWAP1 PUSH2 0x100 EXP SWAP1 DIV PUSH20 0xFFFFFFFFFFFFFFFFFFFFFFFFFFFFFFFFFFFFFFFF AND PUSH20 0xFFFFFFFFFFFFFFFFFFFFFFFFFFFFFFFFFFFFFFFF AND PUSH20 0xFFFFFFFFFFFFFFFFFFFFFFFFFFFFFFFFFFFFFFFF AND DUP2 MSTORE PUSH1 0x20 ADD PUSH1 0x2 DUP3 ADD SLOAD DUP2 MSTORE POP POP DUP4 DUP4 DUP1 PUSH2 0x1033 SWAP1 PUSH2 0x2B34 JUMP JUMPDEST SWAP5 POP DUP2 MLOAD DUP2 LT PUSH2 0x1046 JUMPI PUSH2 0x1045 PUSH2 0x29BD JUMP JUMPDEST JUMPDEST PUSH1 0x20 MUL PUSH1 0x20 ADD ADD DUP2 SWAP1 MSTORE POP DUP1 DUP1 PUSH1 0x1 ADD SWAP2 POP POP PUSH2 0xF0F JUMP JUMPDEST POP DUP3 PUSH1 0x1 ADD DUP4 PUSH1 0x2 ADD DUP5 PUSH1 0x3 ADD PUSH0 SWAP1 SLOAD SWAP1 PUSH2 0x100 EXP SWAP1 DIV PUSH20 0xFFFFFFFFFFFFFFFFFFFFFFFFFFFFFFFFFFFFFFFF AND DUP6 PUSH1 0x4 ADD SLOAD DUP7 PUSH1 0x5 ADD SLOAD DUP8 PUSH1 0x6 ADD DUP9 PUSH1 0x8 ADD SLOAD DUP9 DUP8 DUP1 SLOAD PUSH2 0x10AB SWAP1 PUSH2 0x2BA8 JUMP JUMPDEST DUP1 PUSH1 0x1F ADD PUSH1 0x20 DUP1 SWAP2 DIV MUL PUSH1 0x20 ADD PUSH1 0x40 MLOAD SWAP1 DUP2 ADD PUSH1 0x40 MSTORE DUP1 SWAP3 SWAP2 SWAP1 DUP2 DUP2 MSTORE PUSH1 0x20 ADD DUP3 DUP1 SLOAD PUSH2 0x10D7 SWAP1 PUSH2 0x2BA8 JUMP JUMPDEST DUP1 ISZERO PUSH2 0x1122 JUMPI DUP1 PUSH1 0x1F LT PUSH2 0x10F9 JUMPI PUSH2 0x100 DUP1 DUP4 SLOAD DIV MUL DUP4 MSTORE SWAP2 PUSH1 0x20 ADD SWAP2 PUSH2 0x1122 JUMP JUMPDEST DUP3 ADD SWAP2 SWAP1 PUSH0 MSTORE PUSH1 0x20 PUSH0 KECCAK256 SWAP1 JUMPDEST DUP2 SLOAD DUP2 MSTORE SWAP1 PUSH1 0x1 ADD SWAP1 PUSH1 0x20 ADD DUP1 DUP4 GT PUSH2 0x1105 JUMPI DUP3 SWAP1 SUB PUSH1 0x1F AND DUP3 ADD SWAP2 JUMPDEST POP POP POP POP POP SWAP8 POP DUP7 DUP1 SLOAD PUSH2 0x1135 SWAP1 PUSH2 0x2BA8 JUMP JUMPDEST DUP1 PUSH1 0x1F ADD PUSH1 0x20 DUP1 SWAP2 DIV MUL PUSH1 0x20 ADD PUSH1 0x40 MLOAD SWAP1 DUP2 ADD PUSH1 0x40 MSTORE DUP1 SWAP3 SWAP2 SWAP1 DUP2 DUP2 MSTORE PUSH1 0x20 ADD DUP3 DUP1 SLOAD PUSH2 0x1161 SWAP1 PUSH2 0x2BA8 JUMP JUMPDEST DUP1 ISZERO PUSH2 0x11AC JUMPI DUP1 PUSH1 0x1F LT PUSH2 0x1183 JUMPI PUSH2 0x100 DUP1 DUP4 SLOAD DIV MUL DUP4 MSTORE SWAP2 PUSH1 0x20 ADD SWAP2 PUSH2 0x11AC JUMP JUMPDEST DUP3 ADD SWAP2 SWAP1 PUSH0 MSTORE PUSH1 0x20 PUSH0 KECCAK256 SWAP1 JUMPDEST DUP2 SLOAD DUP2 MSTORE SWAP1 PUSH1 0x1 ADD SWAP1 PUSH1 0x20 ADD DUP1 DUP4 GT PUSH2 0x118F JUMPI DUP3 SWAP1 SUB PUSH1 0x1F AND DUP3 ADD SWAP2 JUMPDEST POP POP POP POP POP SWAP7 POP DUP3 DUP1 SLOAD DUP1 PUSH1 0x20 MUL PUSH1 0x20 ADD PUSH1 0x40 MLOAD SWAP1 DUP2 ADD PUSH1 0x40 MSTORE DUP1 SWAP3 SWAP2 SWAP1 DUP2 DUP2 MSTORE PUSH1 0x20 ADD DUP3 DUP1 SLOAD DUP1 ISZERO PUSH2 0x1231 JUMPI PUSH1 0x20 MUL DUP3 ADD SWAP2 SWAP1 PUSH0 MSTORE PUSH1 0x20 PUSH0 KECCAK256 SWAP1 JUMPDEST DUP2 PUSH0 SWAP1 SLOAD SWAP1 PUSH2 0x100 EXP SWAP1 DIV PUSH20 0xFFFFFFFFFFFFFFFFFFFFFFFFFFFFFFFFFFFFFFFF AND PUSH20 0xFFFFFFFFFFFFFFFFFFFFFFFFFFFFFFFFFFFFFFFF AND DUP2 MSTORE PUSH1 0x20 ADD SWAP1 PUSH1 0x1 ADD SWAP1 DUP1 DUP4 GT PUSH2 0x11E8 JUMPI JUMPDEST POP POP POP POP POP SWAP3 POP SWAP12 POP SWAP12 POP SWAP12 POP SWAP12 POP SWAP12 POP SWAP12 POP SWAP12 POP SWAP12 POP POP POP POP POP SWAP2 SWAP4 SWAP6 SWAP8 POP SWAP2 SWAP4 SWAP6 SWAP8 JUMP JUMPDEST DUP1 PUSH0 DUP1 SLOAD SWAP1 POP DUP2 LT PUSH2 0x129E JUMPI PUSH1 0x40 MLOAD PUSH32 0x8C379A000000000000000000000000000000000000000000000000000000000 DUP2 MSTORE PUSH1 0x4 ADD PUSH2 0x1295 SWAP1 PUSH2 0x299F JUMP JUMPDEST PUSH1 0x40 MLOAD DUP1 SWAP2 SUB SWAP1 REVERT JUMPDEST PUSH0 DUP2 DUP2 SLOAD DUP2 LT PUSH2 0x12B1 JUMPI PUSH2 0x12B0 PUSH2 0x29BD JUMP JUMPDEST JUMPDEST SWAP1 PUSH0 MSTORE PUSH1 0x20 PUSH0 KECCAK256 SWAP1 PUSH1 0xC MUL ADD PUSH1 0xB ADD PUSH0 SWAP1 SLOAD SWAP1 PUSH2 0x100 EXP SWAP1 DIV PUSH1 0xFF AND PUSH2 0x130C JUMPI PUSH1 0x40 MLOAD PUSH32 0x8C379A000000000000000000000000000000000000000000000000000000000 DUP2 MSTORE PUSH1 0x4 ADD PUSH2 0x1303 SWAP1 PUSH2 0x2A34 JUMP JUMPDEST PUSH1 0x40 MLOAD DUP1 SWAP2 SUB SWAP1 REVERT JUMPDEST PUSH0 DUP3 DUP2 SLOAD DUP2 LT PUSH2 0x131F JUMPI PUSH2 0x131E PUSH2 0x29BD JUMP JUMPDEST JUMPDEST SWAP1 PUSH0 MSTORE PUSH1 0x20 PUSH0 KECCAK256 SWAP1 PUSH1 0xC MUL ADD PUSH1 0x3 ADD PUSH0 SWAP1 SLOAD SWAP1 PUSH2 0x100 EXP SWAP1 DIV PUSH20 0xFFFFFFFFFFFFFFFFFFFFFFFFFFFFFFFFFFFFFFFF AND PUSH20 0xFFFFFFFFFFFFFFFFFFFFFFFFFFFFFFFFFFFFFFFF AND CALLER PUSH20 0xFFFFFFFFFFFFFFFFFFFFFFFFFFFFFFFFFFFFFFFF AND SUB PUSH2 0x13BB JUMPI PUSH1 0x40 MLOAD PUSH32 0x8C379A000000000000000000000000000000000000000000000000000000000 DUP2 MSTORE PUSH1 0x4 ADD PUSH2 0x13B2 SWAP1 PUSH2 0x3082 JUMP JUMPDEST PUSH1 0x40 MLOAD DUP1 SWAP2 SUB SWAP1 REVERT JUMPDEST PUSH1 0x1 PUSH0 DUP4 DUP2 MSTORE PUSH1 0x20 ADD SWAP1 DUP2 MSTORE PUSH1 0x20 ADD PUSH0 KECCAK256 PUSH0 CALLER PUSH20 0xFFFFFFFFFFFFFFFFFFFFFFFFFFFFFFFFFFFFFFFF AND PUSH20 0xFFFFFFFFFFFFFFFFFFFFFFFFFFFFFFFFFFFFFFFF AND DUP2 MSTORE PUSH1 0x20 ADD SWAP1 DUP2 MSTORE PUSH1 0x20 ADD PUSH0 KECCAK256 PUSH0 SWAP1 SLOAD SWAP1 PUSH2 0x100 EXP SWAP1 DIV PUSH1 0xFF AND PUSH2 0x157B JUMPI PUSH1 0x1 DUP1 PUSH0 DUP5 DUP2 MSTORE PUSH1 0x20 ADD SWAP1 DUP2 MSTORE PUSH1 0x20 ADD PUSH0 KECCAK256 PUSH0 CALLER PUSH20 0xFFFFFFFFFFFFFFFFFFFFFFFFFFFFFFFFFFFFFFFF AND PUSH20 0xFFFFFFFFFFFFFFFFFFFFFFFFFFFFFFFFFFFFFFFF AND DUP2 MSTORE PUSH1 0x20 ADD SWAP1 DUP2 MSTORE PUSH1 0x20 ADD PUSH0 KECCAK256 PUSH0 PUSH2 0x100 EXP DUP2 SLOAD DUP2 PUSH1 0xFF MUL NOT AND SWAP1 DUP4 ISZERO ISZERO MUL OR SWAP1 SSTORE POP PUSH0 DUP3 DUP2 SLOAD DUP2 LT PUSH2 0x148E JUMPI PUSH2 0x148D PUSH2 0x29BD JUMP JUMPDEST JUMPDEST SWAP1 PUSH0 MSTORE PUSH1 0x20 PUSH0 KECCAK256 SWAP1 PUSH1 0xC MUL ADD PUSH1 0x5 ADD PUSH0 DUP2 SLOAD DUP1 SWAP3 SWAP2 SWAP1 PUSH2 0x14AD SWAP1 PUSH2 0x2B34 JUMP JUMPDEST SWAP2 SWAP1 POP SSTORE POP PUSH0 DUP3 DUP2 SLOAD DUP2 LT PUSH2 0x14C5 JUMPI PUSH2 0x14C4 PUSH2 0x29BD JUMP JUMPDEST JUMPDEST SWAP1 PUSH0 MSTORE PUSH1 0x20 PUSH0 KECCAK256 SWAP1 PUSH1 0xC MUL ADD PUSH1 0x6 ADD CALLER SWAP1 DUP1 PUSH1 0x1 DUP2 SLOAD ADD DUP1 DUP3 SSTORE DUP1 SWAP2 POP POP PUSH1 0x1 SWAP1 SUB SWAP1 PUSH0 MSTORE PUSH1 0x20 PUSH0 KECCAK256 ADD PUSH0 SWAP1 SWAP2 SWAP1 SWAP2 SWAP1 SWAP2 PUSH2 0x100 EXP DUP2 SLOAD DUP2 PUSH20 0xFFFFFFFFFFFFFFFFFFFFFFFFFFFFFFFFFFFFFFFF MUL NOT AND SWAP1 DUP4 PUSH20 0xFFFFFFFFFFFFFFFFFFFFFFFFFFFFFFFFFFFFFFFF AND MUL OR SWAP1 SSTORE POP CALLER PUSH20 0xFFFFFFFFFFFFFFFFFFFFFFFFFFFFFFFFFFFFFFFF AND DUP3 PUSH32 0xCF765D6F163C9B0D832E2A94F4C8E9BFFD32A2C3CA5FDBB8CC67B5FE1441F413 PUSH1 0x40 MLOAD PUSH1 0x40 MLOAD DUP1 SWAP2 SUB SWAP1 LOG3 PUSH2 0x1894 JUMP JUMPDEST PUSH0 PUSH1 0x1 PUSH0 DUP5 DUP2 MSTORE PUSH1 0x20 ADD SWAP1 DUP2 MSTORE PUSH1 0x20 ADD PUSH0 KECCAK256 PUSH0 CALLER PUSH20 0xFFFFFFFFFFFFFFFFFFFFFFFFFFFFFFFFFFFFFFFF AND PUSH20 0xFFFFFFFFFFFFFFFFFFFFFFFFFFFFFFFFFFFFFFFF AND DUP2 MSTORE PUSH1 0x20 ADD SWAP1 DUP2 MSTORE PUSH1 0x20 ADD PUSH0 KECCAK256 PUSH0 PUSH2 0x100 EXP DUP2 SLOAD DUP2 PUSH1 0xFF MUL NOT AND SWAP1 DUP4 ISZERO ISZERO MUL OR SWAP1 SSTORE POP PUSH0 DUP3 DUP2 SLOAD DUP2 LT PUSH2 0x15F1 JUMPI PUSH2 0x15F0 PUSH2 0x29BD JUMP JUMPDEST JUMPDEST SWAP1 PUSH0 MSTORE PUSH1 0x20 PUSH0 KECCAK256 SWAP1 PUSH1 0xC MUL ADD PUSH1 0x5 ADD PUSH0 DUP2 SLOAD DUP1 SWAP3 SWAP2 SWAP1 PUSH2 0x1610 SWAP1 PUSH2 0x2B0D JUMP JUMPDEST SWAP2 SWAP1 POP SSTORE POP PUSH0 JUMPDEST PUSH0 DUP4 DUP2 SLOAD DUP2 LT PUSH2 0x162A JUMPI PUSH2 0x1629 PUSH2 0x29BD JUMP JUMPDEST JUMPDEST SWAP1 PUSH0 MSTORE PUSH1 0x20 PUSH0 KECCAK256 SWAP1 PUSH1 0xC MUL ADD PUSH1 0x6 ADD DUP1 SLOAD SWAP1 POP DUP2 LT ISZERO PUSH2 0x184E JUMPI CALLER PUSH20 0xFFFFFFFFFFFFFFFFFFFFFFFFFFFFFFFFFFFFFFFF AND PUSH0 DUP5 DUP2 SLOAD DUP2 LT PUSH2 0x166E JUMPI PUSH2 0x166D PUSH2 0x29BD JUMP JUMPDEST JUMPDEST SWAP1 PUSH0 MSTORE PUSH1 0x20 PUSH0 KECCAK256 SWAP1 PUSH1 0xC MUL ADD PUSH1 0x6 ADD DUP3 DUP2 SLOAD DUP2 LT PUSH2 0x168F JUMPI PUSH2 0x168E PUSH2 0x29BD JUMP JUMPDEST JUMPDEST SWAP1 PUSH0 MSTORE PUSH1 0x20 PUSH0 KECCAK256 ADD PUSH0 SWAP1 SLOAD SWAP1 PUSH2 0x100 EXP SWAP1 DIV PUSH20 0xFFFFFFFFFFFFFFFFFFFFFFFFFFFFFFFFFFFFFFFF AND PUSH20 0xFFFFFFFFFFFFFFFFFFFFFFFFFFFFFFFFFFFFFFFF AND SUB PUSH2 0x1841 JUMPI PUSH0 DUP4 DUP2 SLOAD DUP2 LT PUSH2 0x16E5 JUMPI PUSH2 0x16E4 PUSH2 0x29BD JUMP JUMPDEST JUMPDEST SWAP1 PUSH0 MSTORE PUSH1 0x20 PUSH0 KECCAK256 SWAP1 PUSH1 0xC MUL ADD PUSH1 0x6 ADD PUSH1 0x1 PUSH0 DUP6 DUP2 SLOAD DUP2 LT PUSH2 0x1709 JUMPI PUSH2 0x1708 PUSH2 0x29BD JUMP JUMPDEST JUMPDEST SWAP1 PUSH0 MSTORE PUSH1 0x20 PUSH0 KECCAK256 SWAP1 PUSH1 0xC MUL ADD PUSH1 0x6 ADD DUP1 SLOAD SWAP1 POP PUSH2 0x1726 SWAP2 SWAP1 PUSH2 0x30A0 JUMP JUMPDEST DUP2 SLOAD DUP2 LT PUSH2 0x1737 JUMPI PUSH2 0x1736 PUSH2 0x29BD JUMP JUMPDEST JUMPDEST SWAP1 PUSH0 MSTORE PUSH1 0x20 PUSH0 KECCAK256 ADD PUSH0 SWAP1 SLOAD SWAP1 PUSH2 0x100 EXP SWAP1 DIV PUSH20 0xFFFFFFFFFFFFFFFFFFFFFFFFFFFFFFFFFFFFFFFF AND PUSH0 DUP5 DUP2 SLOAD DUP2 LT PUSH2 0x1772 JUMPI PUSH2 0x1771 PUSH2 0x29BD JUMP JUMPDEST JUMPDEST SWAP1 PUSH0 MSTORE PUSH1 0x20 PUSH0 KECCAK256 SWAP1 PUSH1 0xC MUL ADD PUSH1 0x6 ADD DUP3 DUP2 SLOAD DUP2 LT PUSH2 0x1793 JUMPI PUSH2 0x1792 PUSH2 0x29BD JUMP JUMPDEST JUMPDEST SWAP1 PUSH0 MSTORE PUSH1 0x20 PUSH0 KECCAK256 ADD PUSH0 PUSH2 0x100 EXP DUP2 SLOAD DUP2 PUSH20 0xFFFFFFFFFFFFFFFFFFFFFFFFFFFFFFFFFFFFFFFF MUL NOT AND SWAP1 DUP4 PUSH20 0xFFFFFFFFFFFFFFFFFFFFFFFFFFFFFFFFFFFFFFFF AND MUL OR SWAP1 SSTORE POP PUSH0 DUP4 DUP2 SLOAD DUP2 LT PUSH2 0x17EB JUMPI PUSH2 0x17EA PUSH2 0x29BD JUMP JUMPDEST JUMPDEST SWAP1 PUSH0 MSTORE PUSH1 0x20 PUSH0 KECCAK256 SWAP1 PUSH1 0xC MUL ADD PUSH1 0x6 ADD DUP1 SLOAD DUP1 PUSH2 0x180A JUMPI PUSH2 0x1809 PUSH2 0x30D3 JUMP JUMPDEST JUMPDEST PUSH1 0x1 SWAP1 SUB DUP2 DUP2 SWAP1 PUSH0 MSTORE PUSH1 0x20 PUSH0 KECCAK256 ADD PUSH0 PUSH2 0x100 EXP DUP2 SLOAD SWAP1 PUSH20 0xFFFFFFFFFFFFFFFFFFFFFFFFFFFFFFFFFFFFFFFF MUL NOT AND SWAP1 SSTORE SWAP1 SSTORE PUSH2 0x184E JUMP JUMPDEST DUP1 DUP1 PUSH1 0x1 ADD SWAP2 POP POP PUSH2 0x1617 JUMP JUMPDEST POP CALLER PUSH20 0xFFFFFFFFFFFFFFFFFFFFFFFFFFFFFFFFFFFFFFFF AND DUP3 PUSH32 0x82092D1196022C48D901E5DC4B17451DBCE942B8A9DED42FC6F2A4A5E8FD89B9 PUSH1 0x40 MLOAD PUSH1 0x40 MLOAD DUP1 SWAP2 SUB SWAP1 LOG3 JUMPDEST POP POP JUMP JUMPDEST PUSH0 PUSH1 0x3 SLOAD SWAP1 POP SWAP1 JUMP JUMPDEST PUSH1 0x2 SLOAD DUP2 JUMP JUMPDEST PUSH0 DUP3 PUSH0 DUP1 SLOAD SWAP1 POP DUP2 LT PUSH2 0x18EF JUMPI PUSH1 0x40 MLOAD PUSH32 0x8C379A000000000000000000000000000000000000000000000000000000000 DUP2 MSTORE PUSH1 0x4 ADD PUSH2 0x18E6 SWAP1 PUSH2 0x299F JUMP JUMPDEST PUSH1 0x40 MLOAD DUP1 SWAP2 SUB SWAP1 REVERT JUMPDEST PUSH0 DUP2 DUP2 SLOAD DUP2 LT PUSH2 0x1902 JUMPI PUSH2 0x1901 PUSH2 0x29BD JUMP JUMPDEST JUMPDEST SWAP1 PUSH0 MSTORE PUSH1 0x20 PUSH0 KECCAK256 SWAP1 PUSH1 0xC MUL ADD PUSH1 0xB ADD PUSH0 SWAP1 SLOAD SWAP1 PUSH2 0x100 EXP SWAP1 DIV PUSH1 0xFF AND PUSH2 0x195D JUMPI PUSH1 0x40 MLOAD PUSH32 0x8C379A000000000000000000000000000000000000000000000000000000000 DUP2 MSTORE PUSH1 0x4 ADD PUSH2 0x1954 SWAP1 PUSH2 0x2A34 JUMP JUMPDEST PUSH1 0x40 MLOAD DUP1 SWAP2 SUB SWAP1 REVERT JUMPDEST PUSH1 0x1 PUSH0 DUP6 DUP2 MSTORE PUSH1 0x20 ADD SWAP1 DUP2 MSTORE PUSH1 0x20 ADD PUSH0 KECCAK256 PUSH0 DUP5 PUSH20 0xFFFFFFFFFFFFFFFFFFFFFFFFFFFFFFFFFFFFFFFF AND PUSH20 0xFFFFFFFFFFFFFFFFFFFFFFFFFFFFFFFFFFFFFFFF AND DUP2 MSTORE PUSH1 0x20 ADD SWAP1 DUP2 MSTORE PUSH1 0x20 ADD PUSH0 KECCAK256 PUSH0 SWAP1 SLOAD SWAP1 PUSH2 0x100 EXP SWAP1 DIV PUSH1 0xFF AND SWAP2 POP POP SWAP3 SWAP2 POP POP JUMP JUMPDEST DUP2 PUSH0 DUP1 SLOAD SWAP1 POP DUP2 LT PUSH2 0x1A06 JUMPI PUSH1 0x40 MLOAD PUSH32 0x8C379A000000000000000000000000000000000000000000000000000000000 DUP2 MSTORE PUSH1 0x4 ADD PUSH2 0x19FD SWAP1 PUSH2 0x299F JUMP JUMPDEST PUSH1 0x40 MLOAD DUP1 SWAP2 SUB SWAP1 REVERT JUMPDEST PUSH0 DUP2 DUP2 SLOAD DUP2 LT PUSH2 0x1A19 JUMPI PUSH2 0x1A18 PUSH2 0x29BD JUMP JUMPDEST JUMPDEST SWAP1 PUSH0 MSTORE PUSH1 0x20 PUSH0 KECCAK256 SWAP1 PUSH1 0xC MUL ADD PUSH1 0xB ADD PUSH0 SWAP1 SLOAD SWAP1 PUSH2 0x100 EXP SWAP1 DIV PUSH1 0xFF AND PUSH2 0x1A74 JUMPI PUSH1 0x40 MLOAD PUSH32 0x8C379A000000000000000000000000000000000000000000000000000000000 DUP2 MSTORE PUSH1 0x4 ADD PUSH2 0x1A6B SWAP1 PUSH2 0x2A34 JUMP JUMPDEST PUSH1 0x40 MLOAD DUP1 SWAP2 SUB SWAP1 REVERT JUMPDEST PUSH0 DUP3 MLOAD GT PUSH2 0x1AB7 JUMPI PUSH1 0x40 MLOAD PUSH32 0x8C379A000000000000000000000000000000000000000000000000000000000 DUP2 MSTORE PUSH1 0x4 ADD PUSH2 0x1AAE SWAP1 PUSH2 0x3170 JUMP JUMPDEST PUSH1 0x40 MLOAD DUP1 SWAP2 SUB SWAP1 REVERT JUMPDEST PUSH2 0x118 DUP3 MLOAD GT ISZERO PUSH2 0x1AFD JUMPI PUSH1 0x40 MLOAD PUSH32 0x8C379A000000000000000000000000000000000000000000000000000000000 DUP2 MSTORE PUSH1 0x4 ADD PUSH2 0x1AF4 SWAP1 PUSH2 0x31D8 JUMP JUMPDEST PUSH1 0x40 MLOAD DUP1 SWAP2 SUB SWAP1 REVERT JUMPDEST PUSH0 DUP1 DUP5 DUP2 SLOAD DUP2 LT PUSH2 0x1B11 JUMPI PUSH2 0x1B10 PUSH2 0x29BD JUMP JUMPDEST JUMPDEST SWAP1 PUSH0 MSTORE PUSH1 0x20 PUSH0 KECCAK256 SWAP1 PUSH1 0xC MUL ADD SWAP1 POP PUSH0 DUP2 PUSH1 0x8 ADD SLOAD SWAP1 POP PUSH1 0x40 MLOAD DUP1 PUSH1 0x60 ADD PUSH1 0x40 MSTORE DUP1 DUP6 DUP2 MSTORE PUSH1 0x20 ADD CALLER PUSH20 0xFFFFFFFFFFFFFFFFFFFFFFFFFFFFFFFFFFFFFFFF AND DUP2 MSTORE PUSH1 0x20 ADD TIMESTAMP DUP2 MSTORE POP DUP3 PUSH1 0x7 ADD PUSH0 DUP4 DUP2 MSTORE PUSH1 0x20 ADD SWAP1 DUP2 MSTORE PUSH1 0x20 ADD PUSH0 KECCAK256 PUSH0 DUP3 ADD MLOAD DUP2 PUSH0 ADD SWAP1 DUP2 PUSH2 0x1B7E SWAP2 SWAP1 PUSH2 0x2F15 JUMP JUMPDEST POP PUSH1 0x20 DUP3 ADD MLOAD DUP2 PUSH1 0x1 ADD PUSH0 PUSH2 0x100 EXP DUP2 SLOAD DUP2 PUSH20 0xFFFFFFFFFFFFFFFFFFFFFFFFFFFFFFFFFFFFFFFF MUL NOT AND SWAP1 DUP4 PUSH20 0xFFFFFFFFFFFFFFFFFFFFFFFFFFFFFFFFFFFFFFFF AND MUL OR SWAP1 SSTORE POP PUSH1 0x40 DUP3 ADD MLOAD DUP2 PUSH1 0x2 ADD SSTORE SWAP1 POP POP DUP2 PUSH1 0x8 ADD PUSH0 DUP2 SLOAD DUP1 SWAP3 SWAP2 SWAP1 PUSH2 0x1BE6 SWAP1 PUSH2 0x2B34 JUMP JUMPDEST SWAP2 SWAP1 POP SSTORE POP CALLER PUSH20 0xFFFFFFFFFFFFFFFFFFFFFFFFFFFFFFFFFFFFFFFF AND DUP2 DUP7 PUSH32 0x96D81CAC001A263174D42D42CFAD470FEC9D863BCF6D52BA8B93D47C7EE00DE3 DUP8 PUSH1 0x40 MLOAD PUSH2 0x1C33 SWAP2 SWAP1 PUSH2 0x31F6 JUMP JUMPDEST PUSH1 0x40 MLOAD DUP1 SWAP2 SUB SWAP1 LOG4 POP POP POP POP POP JUMP JUMPDEST DUP3 PUSH0 DUP1 SLOAD SWAP1 POP DUP2 LT PUSH2 0x1C89 JUMPI PUSH1 0x40 MLOAD PUSH32 0x8C379A000000000000000000000000000000000000000000000000000000000 DUP2 MSTORE PUSH1 0x4 ADD PUSH2 0x1C80 SWAP1 PUSH2 0x299F JUMP JUMPDEST PUSH1 0x40 MLOAD DUP1 SWAP2 SUB SWAP1 REVERT JUMPDEST PUSH0 DUP2 DUP2 SLOAD DUP2 LT PUSH2 0x1C9C JUMPI PUSH2 0x1C9B PUSH2 0x29BD JUMP JUMPDEST JUMPDEST SWAP1 PUSH0 MSTORE PUSH1 0x20 PUSH0 KECCAK256 SWAP1 PUSH1 0xC MUL ADD PUSH1 0xB ADD PUSH0 SWAP1 SLOAD SWAP1 PUSH2 0x100 EXP SWAP1 DIV PUSH1 0xFF AND PUSH2 0x1CF7 JUMPI PUSH1 0x40 MLOAD PUSH32 0x8C379A000000000000000000000000000000000000000000000000000000000 DUP2 MSTORE PUSH1 0x4 ADD PUSH2 0x1CEE SWAP1 PUSH2 0x2A34 JUMP JUMPDEST PUSH1 0x40 MLOAD DUP1 SWAP2 SUB SWAP1 REVERT JUMPDEST PUSH0 DUP5 DUP2 SLOAD DUP2 LT PUSH2 0x1D0A JUMPI PUSH2 0x1D09 PUSH2 0x29BD JUMP JUMPDEST JUMPDEST SWAP1 PUSH0 MSTORE PUSH1 0x20 PUSH0 KECCAK256 SWAP1 PUSH1 0xC MUL ADD PUSH1 0x3 ADD PUSH0 SWAP1 SLOAD SWAP1 PUSH2 0x100 EXP SWAP1 DIV PUSH20 0xFFFFFFFFFFFFFFFFFFFFFFFFFFFFFFFFFFFFFFFF AND PUSH20 0xFFFFFFFFFFFFFFFFFFFFFFFFFFFFFFFFFFFFFFFF AND CALLER PUSH20 0xFFFFFFFFFFFFFFFFFFFFFFFFFFFFFFFFFFFFFFFF AND EQ PUSH2 0x1DA6 JUMPI PUSH1 0x40 MLOAD PUSH32 0x8C379A000000000000000000000000000000000000000000000000000000000 DUP2 MSTORE PUSH1 0x4 ADD PUSH2 0x1D9D SWAP1 PUSH2 0x3286 JUMP JUMPDEST PUSH1 0x40 MLOAD DUP1 SWAP2 SUB SWAP1 REVERT JUMPDEST PUSH0 DUP4 MLOAD GT PUSH2 0x1DE9 JUMPI PUSH1 0x40 MLOAD PUSH32 0x8C379A000000000000000000000000000000000000000000000000000000000 DUP2 MSTORE PUSH1 0x4 ADD PUSH2 0x1DE0 SWAP1 PUSH2 0x2C22 JUMP JUMPDEST PUSH1 0x40 MLOAD DUP1 SWAP2 SUB SWAP1 REVERT JUMPDEST PUSH0 DUP3 MLOAD GT PUSH2 0x1E2C JUMPI PUSH1 0x40 MLOAD PUSH32 0x8C379A000000000000000000000000000000000000000000000000000000000 DUP2 MSTORE PUSH1 0x4 ADD PUSH2 0x1E23 SWAP1 PUSH2 0x2CF2 JUMP JUMPDEST PUSH1 0x40 MLOAD DUP1 SWAP2 SUB SWAP1 REVERT JUMPDEST PUSH1 0x64 DUP4 MLOAD GT ISZERO PUSH2 0x1E71 JUMPI PUSH1 0x40 MLOAD PUSH32 0x8C379A000000000000000000000000000000000000000000000000000000000 DUP2 MSTORE PUSH1 0x4 ADD PUSH2 0x1E68 SWAP1 PUSH2 0x2C8A JUMP JUMPDEST PUSH1 0x40 MLOAD DUP1 SWAP2 SUB SWAP1 REVERT JUMPDEST PUSH2 0x1388 DUP3 MLOAD GT ISZERO PUSH2 0x1EB7 JUMPI PUSH1 0x40 MLOAD PUSH32 0x8C379A000000000000000000000000000000000000000000000000000000000 DUP2 MSTORE PUSH1 0x4 ADD PUSH2 0x1EAE SWAP1 PUSH2 0x2D5A JUMP JUMPDEST PUSH1 0x40 MLOAD DUP1 SWAP2 SUB SWAP1 REVERT JUMPDEST PUSH0 DUP1 DUP6 DUP2 SLOAD DUP2 LT PUSH2 0x1ECB JUMPI PUSH2 0x1ECA PUSH2 0x29BD JUMP JUMPDEST JUMPDEST SWAP1 PUSH0 MSTORE PUSH1 0x20 PUSH0 KECCAK256 SWAP1 PUSH1 0xC MUL ADD SWAP1 POP DUP4 DUP2 PUSH1 0x1 ADD SWAP1 DUP2 PUSH2 0x1EEA SWAP2 SWAP1 PUSH2 0x2F15 JUMP JUMPDEST POP DUP3 DUP2 PUSH1 0x2 ADD SWAP1 DUP2 PUSH2 0x1EFC SWAP2 SWAP1 PUSH2 0x2F15 JUMP JUMPDEST POP PUSH1 0x1 DUP2 PUSH1 0x9 ADD PUSH0 PUSH2 0x100 EXP DUP2 SLOAD DUP2 PUSH1 0xFF MUL NOT AND SWAP1 DUP4 ISZERO ISZERO MUL OR SWAP1 SSTORE POP TIMESTAMP DUP2 PUSH1 0xA ADD DUP2 SWAP1 SSTORE POP POP POP POP POP POP JUMP JUMPDEST PUSH1 0x40 MLOAD DUP1 PUSH1 0x60 ADD PUSH1 0x40 MSTORE DUP1 PUSH1 0x60 DUP2 MSTORE PUSH1 0x20 ADD PUSH0 PUSH20 0xFFFFFFFFFFFFFFFFFFFFFFFFFFFFFFFFFFFFFFFF AND DUP2 MSTORE PUSH1 0x20 ADD PUSH0 DUP2 MSTORE POP SWAP1 JUMP JUMPDEST PUSH0 PUSH1 0x40 MLOAD SWAP1 POP SWAP1 JUMP JUMPDEST PUSH0 DUP1 REVERT JUMPDEST PUSH0 DUP1 REVERT JUMPDEST PUSH0 DUP2 SWAP1 POP SWAP2 SWAP1 POP JUMP JUMPDEST PUSH2 0x1F81 DUP2 PUSH2 0x1F6F JUMP JUMPDEST DUP2 EQ PUSH2 0x1F8B JUMPI PUSH0 DUP1 REVERT JUMPDEST POP JUMP JUMPDEST PUSH0 DUP2 CALLDATALOAD SWAP1 POP PUSH2 0x1F9C DUP2 PUSH2 0x1F78 JUMP JUMPDEST SWAP3 SWAP2 POP POP JUMP JUMPDEST PUSH0 PUSH1 0x20 DUP3 DUP5 SUB SLT ISZERO PUSH2 0x1FB7 JUMPI PUSH2 0x1FB6 PUSH2 0x1F67 JUMP JUMPDEST JUMPDEST PUSH0 PUSH2 0x1FC4 DUP5 DUP3 DUP6 ADD PUSH2 0x1F8E JUMP JUMPDEST SWAP2 POP POP SWAP3 SWAP2 POP POP JUMP JUMPDEST PUSH2 0x1FD6 DUP2 PUSH2 0x1F6F JUMP JUMPDEST DUP3 MSTORE POP POP JUMP JUMPDEST PUSH0 PUSH1 0x20 DUP3 ADD SWAP1 POP PUSH2 0x1FEF PUSH0 DUP4 ADD DUP5 PUSH2 0x1FCD JUMP JUMPDEST SWAP3 SWAP2 POP POP JUMP JUMPDEST PUSH0 DUP2 MLOAD SWAP1 POP SWAP2 SWAP1 POP JUMP JUMPDEST PUSH0 DUP3 DUP3 MSTORE PUSH1 0x20 DUP3 ADD SWAP1 POP SWAP3 SWAP2 POP POP JUMP JUMPDEST PUSH0 DUP2 SWAP1 POP PUSH1 0x20 DUP3 ADD SWAP1 POP SWAP2 SWAP1 POP JUMP JUMPDEST PUSH2 0x2027 DUP2 PUSH2 0x1F6F JUMP JUMPDEST DUP3 MSTORE POP POP JUMP JUMPDEST PUSH0 PUSH2 0x2038 DUP4 DUP4 PUSH2 0x201E JUMP JUMPDEST PUSH1 0x20 DUP4 ADD SWAP1 POP SWAP3 SWAP2 POP POP JUMP JUMPDEST PUSH0 PUSH1 0x20 DUP3 ADD SWAP1 POP SWAP2 SWAP1 POP JUMP JUMPDEST PUSH0 PUSH2 0x205A DUP3 PUSH2 0x1FF5 JUMP JUMPDEST PUSH2 0x2064 DUP2 DUP6 PUSH2 0x1FFF JUMP JUMPDEST SWAP4 POP PUSH2 0x206F DUP4 PUSH2 0x200F JUMP JUMPDEST DUP1 PUSH0 JUMPDEST DUP4 DUP2 LT ISZERO PUSH2 0x209F JUMPI DUP2 MLOAD PUSH2 0x2086 DUP9 DUP3 PUSH2 0x202D JUMP JUMPDEST SWAP8 POP PUSH2 0x2091 DUP4 PUSH2 0x2044 JUMP JUMPDEST SWAP3 POP POP PUSH1 0x1 DUP2 ADD SWAP1 POP PUSH2 0x2072 JUMP JUMPDEST POP DUP6 SWAP4 POP POP POP POP SWAP3 SWAP2 POP POP JUMP JUMPDEST PUSH0 DUP2 MLOAD SWAP1 POP SWAP2 SWAP1 POP JUMP JUMPDEST PUSH0 DUP3 DUP3 MSTORE PUSH1 0x20 DUP3 ADD SWAP1 POP SWAP3 SWAP2 POP POP JUMP JUMPDEST PUSH0 DUP2 SWAP1 POP PUSH1 0x20 DUP3 ADD SWAP1 POP SWAP2 SWAP1 POP JUMP JUMPDEST PUSH0 DUP2 MLOAD SWAP1 POP SWAP2 SWAP1 POP JUMP JUMPDEST PUSH0 DUP3 DUP3 MSTORE PUSH1 0x20 DUP3 ADD SWAP1 POP SWAP3 SWAP2 POP POP JUMP JUMPDEST DUP3 DUP2 DUP4 MCOPY PUSH0 DUP4 DUP4 ADD MSTORE POP POP POP JUMP JUMPDEST PUSH0 PUSH1 0x1F NOT PUSH1 0x1F DUP4 ADD AND SWAP1 POP SWAP2 SWAP1 POP JUMP JUMPDEST PUSH0 PUSH2 0x2117 DUP3 PUSH2 0x20D5 JUMP JUMPDEST PUSH2 0x2121 DUP2 DUP6 PUSH2 0x20DF JUMP JUMPDEST SWAP4 POP PUSH2 0x2131 DUP2 DUP6 PUSH1 0x20 DUP7 ADD PUSH2 0x20EF JUMP JUMPDEST PUSH2 0x213A DUP2 PUSH2 0x20FD JUMP JUMPDEST DUP5 ADD SWAP2 POP POP SWAP3 SWAP2 POP POP JUMP JUMPDEST PUSH0 PUSH2 0x2150 DUP4 DUP4 PUSH2 0x210D JUMP JUMPDEST SWAP1 POP SWAP3 SWAP2 POP POP JUMP JUMPDEST PUSH0 PUSH1 0x20 DUP3 ADD SWAP1 POP SWAP2 SWAP1 POP JUMP JUMPDEST PUSH0 PUSH2 0x216E DUP3 PUSH2 0x20AC JUMP JUMPDEST PUSH2 0x2178 DUP2 DUP6 PUSH2 0x20B6 JUMP JUMPDEST SWAP4 POP DUP4 PUSH1 0x20 DUP3 MUL DUP6 ADD PUSH2 0x218A DUP6 PUSH2 0x20C6 JUMP JUMPDEST DUP1 PUSH0 JUMPDEST DUP6 DUP2 LT ISZERO PUSH2 0x21C5 JUMPI DUP5 DUP5 SUB DUP10 MSTORE DUP2 MLOAD PUSH2 0x21A6 DUP6 DUP3 PUSH2 0x2145 JUMP JUMPDEST SWAP5 POP PUSH2 0x21B1 DUP4 PUSH2 0x2158 JUMP JUMPDEST SWAP3 POP PUSH1 0x20 DUP11 ADD SWAP10 POP POP PUSH1 0x1 DUP2 ADD SWAP1 POP PUSH2 0x218D JUMP JUMPDEST POP DUP3 SWAP8 POP DUP8 SWAP6 POP POP POP POP POP POP SWAP3 SWAP2 POP POP JUMP JUMPDEST PUSH0 DUP2 MLOAD SWAP1 POP SWAP2 SWAP1 POP JUMP JUMPDEST PUSH0 DUP3 DUP3 MSTORE PUSH1 0x20 DUP3 ADD SWAP1 POP SWAP3 SWAP2 POP POP JUMP JUMPDEST PUSH0 DUP2 SWAP1 POP PUSH1 0x20 DUP3 ADD SWAP1 POP SWAP2 SWAP1 POP JUMP JUMPDEST PUSH0 PUSH20 0xFFFFFFFFFFFFFFFFFFFFFFFFFFFFFFFFFFFFFFFF DUP3 AND SWAP1 POP SWAP2 SWAP1 POP JUMP JUMPDEST PUSH0 PUSH2 0x2229 DUP3 PUSH2 0x2200 JUMP JUMPDEST SWAP1 POP SWAP2 SWAP1 POP JUMP JUMPDEST PUSH2 0x2239 DUP2 PUSH2 0x221F JUMP JUMPDEST DUP3 MSTORE POP POP JUMP JUMPDEST PUSH0 PUSH2 0x224A DUP4 DUP4 PUSH2 0x2230 JUMP JUMPDEST PUSH1 0x20 DUP4 ADD SWAP1 POP SWAP3 SWAP2 POP POP JUMP JUMPDEST PUSH0 PUSH1 0x20 DUP3 ADD SWAP1 POP SWAP2 SWAP1 POP JUMP JUMPDEST PUSH0 PUSH2 0x226C DUP3 PUSH2 0x21D7 JUMP JUMPDEST PUSH2 0x2276 DUP2 DUP6 PUSH2 0x21E1 JUMP JUMPDEST SWAP4 POP PUSH2 0x2281 DUP4 PUSH2 0x21F1 JUMP JUMPDEST DUP1 PUSH0 JUMPDEST DUP4 DUP2 LT ISZERO PUSH2 0x22B1 JUMPI DUP2 MLOAD PUSH2 0x2298 DUP9 DUP3 PUSH2 0x223F JUMP JUMPDEST SWAP8 POP PUSH2 0x22A3 DUP4 PUSH2 0x2256 JUMP JUMPDEST SWAP3 POP POP PUSH1 0x1 DUP2 ADD SWAP1 POP PUSH2 0x2284 JUMP JUMPDEST POP DUP6 SWAP4 POP POP POP POP SWAP3 SWAP2 POP POP JUMP JUMPDEST PUSH0 DUP2 MLOAD SWAP1 POP SWAP2 SWAP1 POP JUMP JUMPDEST PUSH0 DUP3 DUP3 MSTORE PUSH1 0x20 DUP3 ADD SWAP1 POP SWAP3 SWAP2 POP POP JUMP JUMPDEST PUSH0 DUP2 SWAP1 POP PUSH1 0x20 DUP3 ADD SWAP1 POP SWAP2 SWAP1 POP JUMP JUMPDEST PUSH0 DUP2 ISZERO ISZERO SWAP1 POP SWAP2 SWAP1 POP JUMP JUMPDEST PUSH2 0x22FB DUP2 PUSH2 0x22E7 JUMP JUMPDEST DUP3 MSTORE POP POP JUMP JUMPDEST PUSH0 PUSH2 0x230C DUP4 DUP4 PUSH2 0x22F2 JUMP JUMPDEST PUSH1 0x20 DUP4 ADD SWAP1 POP SWAP3 SWAP2 POP POP JUMP JUMPDEST PUSH0 PUSH1 0x20 DUP3 ADD SWAP1 POP SWAP2 SWAP1 POP JUMP JUMPDEST PUSH0 PUSH2 0x232E DUP3 PUSH2 0x22BE JUMP JUMPDEST PUSH2 0x2338 DUP2 DUP6 PUSH2 0x22C8 JUMP JUMPDEST SWAP4 POP PUSH2 0x2343 DUP4 PUSH2 0x22D8 JUMP JUMPDEST DUP1 PUSH0 JUMPDEST DUP4 DUP2 LT ISZERO PUSH2 0x2373 JUMPI DUP2 MLOAD PUSH2 0x235A DUP9 DUP3 PUSH2 0x2301 JUMP JUMPDEST SWAP8 POP PUSH2 0x2365 DUP4 PUSH2 0x2318 JUMP JUMPDEST SWAP3 POP POP PUSH1 0x1 DUP2 ADD SWAP1 POP PUSH2 0x2346 JUMP JUMPDEST POP DUP6 SWAP4 POP POP POP POP SWAP3 SWAP2 POP POP JUMP JUMPDEST PUSH0 PUSH2 0x120 DUP3 ADD SWAP1 POP DUP2 DUP2 SUB PUSH0 DUP4 ADD MSTORE PUSH2 0x2399 DUP2 DUP13 PUSH2 0x2050 JUMP JUMPDEST SWAP1 POP DUP2 DUP2 SUB PUSH1 0x20 DUP4 ADD MSTORE PUSH2 0x23AD DUP2 DUP12 PUSH2 0x2164 JUMP JUMPDEST SWAP1 POP DUP2 DUP2 SUB PUSH1 0x40 DUP4 ADD MSTORE PUSH2 0x23C1 DUP2 DUP11 PUSH2 0x2164 JUMP JUMPDEST SWAP1 POP DUP2 DUP2 SUB PUSH1 0x60 DUP4 ADD MSTORE PUSH2 0x23D5 DUP2 DUP10 PUSH2 0x2262 JUMP JUMPDEST SWAP1 POP DUP2 DUP2 SUB PUSH1 0x80 DUP4 ADD MSTORE PUSH2 0x23E9 DUP2 DUP9 PUSH2 0x2050 JUMP JUMPDEST SWAP1 POP DUP2 DUP2 SUB PUSH1 0xA0 DUP4 ADD MSTORE PUSH2 0x23FD DUP2 DUP8 PUSH2 0x2050 JUMP JUMPDEST SWAP1 POP DUP2 DUP2 SUB PUSH1 0xC0 DUP4 ADD MSTORE PUSH2 0x2411 DUP2 DUP7 PUSH2 0x2050 JUMP JUMPDEST SWAP1 POP DUP2 DUP2 SUB PUSH1 0xE0 DUP4 ADD MSTORE PUSH2 0x2425 DUP2 DUP6 PUSH2 0x2324 JUMP JUMPDEST SWAP1 POP DUP2 DUP2 SUB PUSH2 0x100 DUP4 ADD MSTORE PUSH2 0x243A DUP2 DUP5 PUSH2 0x2324 JUMP JUMPDEST SWAP1 POP SWAP11 SWAP10 POP POP POP POP POP POP POP POP POP POP JUMP JUMPDEST PUSH0 DUP1 REVERT JUMPDEST PUSH0 DUP1 REVERT JUMPDEST PUSH32 0x4E487B7100000000000000000000000000000000000000000000000000000000 PUSH0 MSTORE PUSH1 0x41 PUSH1 0x4 MSTORE PUSH1 0x24 PUSH0 REVERT JUMPDEST PUSH2 0x2488 DUP3 PUSH2 0x20FD JUMP JUMPDEST DUP2 ADD DUP2 DUP2 LT PUSH8 0xFFFFFFFFFFFFFFFF DUP3 GT OR ISZERO PUSH2 0x24A7 JUMPI PUSH2 0x24A6 PUSH2 0x2452 JUMP JUMPDEST JUMPDEST DUP1 PUSH1 0x40 MSTORE POP POP POP JUMP JUMPDEST PUSH0 PUSH2 0x24B9 PUSH2 0x1F5E JUMP JUMPDEST SWAP1 POP PUSH2 0x24C5 DUP3 DUP3 PUSH2 0x247F JUMP JUMPDEST SWAP2 SWAP1 POP JUMP JUMPDEST PUSH0 PUSH8 0xFFFFFFFFFFFFFFFF DUP3 GT ISZERO PUSH2 0x24E4 JUMPI PUSH2 0x24E3 PUSH2 0x2452 JUMP JUMPDEST JUMPDEST PUSH2 0x24ED DUP3 PUSH2 0x20FD JUMP JUMPDEST SWAP1 POP PUSH1 0x20 DUP2 ADD SWAP1 POP SWAP2 SWAP1 POP JUMP JUMPDEST DUP3 DUP2 DUP4 CALLDATACOPY PUSH0 DUP4 DUP4 ADD MSTORE POP POP POP JUMP JUMPDEST PUSH0 PUSH2 0x251A PUSH2 0x2515 DUP5 PUSH2 0x24CA JUMP JUMPDEST PUSH2 0x24B0 JUMP JUMPDEST SWAP1 POP DUP3 DUP2 MSTORE PUSH1 0x20 DUP2 ADD DUP5 DUP5 DUP5 ADD GT ISZERO PUSH2 0x2536 JUMPI PUSH2 0x2535 PUSH2 0x244E JUMP JUMPDEST JUMPDEST PUSH2 0x2541 DUP5 DUP3 DUP6 PUSH2 0x24FA JUMP JUMPDEST POP SWAP4 SWAP3 POP POP POP JUMP JUMPDEST PUSH0 DUP3 PUSH1 0x1F DUP4 ADD SLT PUSH2 0x255D JUMPI PUSH2 0x255C PUSH2 0x244A JUMP JUMPDEST JUMPDEST DUP2 CALLDATALOAD PUSH2 0x256D DUP5 DUP3 PUSH1 0x20 DUP7 ADD PUSH2 0x2508 JUMP JUMPDEST SWAP2 POP POP SWAP3 SWAP2 POP POP JUMP JUMPDEST PUSH0 DUP1 PUSH1 0x40 DUP4 DUP6 SUB SLT ISZERO PUSH2 0x258C JUMPI PUSH2 0x258B PUSH2 0x1F67 JUMP JUMPDEST JUMPDEST PUSH0 DUP4 ADD CALLDATALOAD PUSH8 0xFFFFFFFFFFFFFFFF DUP2 GT ISZERO PUSH2 0x25A9 JUMPI PUSH2 0x25A8 PUSH2 0x1F6B JUMP JUMPDEST JUMPDEST PUSH2 0x25B5 DUP6 DUP3 DUP7 ADD PUSH2 0x2549 JUMP JUMPDEST SWAP3 POP POP PUSH1 0x20 DUP4 ADD CALLDATALOAD PUSH8 0xFFFFFFFFFFFFFFFF DUP2 GT ISZERO PUSH2 0x25D6 JUMPI PUSH2 0x25D5 PUSH2 0x1F6B JUMP JUMPDEST JUMPDEST PUSH2 0x25E2 DUP6 DUP3 DUP7 ADD PUSH2 0x2549 JUMP JUMPDEST SWAP2 POP POP SWAP3 POP SWAP3 SWAP1 POP JUMP JUMPDEST PUSH0 DUP3 DUP3 MSTORE PUSH1 0x20 DUP3 ADD SWAP1 POP SWAP3 SWAP2 POP POP JUMP JUMPDEST PUSH0 PUSH2 0x2606 DUP3 PUSH2 0x20D5 JUMP JUMPDEST PUSH2 0x2610 DUP2 DUP6 PUSH2 0x25EC JUMP JUMPDEST SWAP4 POP PUSH2 0x2620 DUP2 DUP6 PUSH1 0x20 DUP7 ADD PUSH2 0x20EF JUMP JUMPDEST PUSH2 0x2629 DUP2 PUSH2 0x20FD JUMP JUMPDEST DUP5 ADD SWAP2 POP POP SWAP3 SWAP2 POP POP JUMP JUMPDEST PUSH2 0x263D DUP2 PUSH2 0x221F JUMP JUMPDEST DUP3 MSTORE POP POP JUMP JUMPDEST PUSH0 DUP2 MLOAD SWAP1 POP SWAP2 SWAP1 POP JUMP JUMPDEST PUSH0 DUP3 DUP3 MSTORE PUSH1 0x20 DUP3 ADD SWAP1 POP SWAP3 SWAP2 POP POP JUMP JUMPDEST PUSH0 DUP2 SWAP1 POP PUSH1 0x20 DUP3 ADD SWAP1 POP SWAP2 SWAP1 POP JUMP JUMPDEST PUSH0 PUSH1 0x60 DUP4 ADD PUSH0 DUP4 ADD MLOAD DUP5 DUP3 SUB PUSH0 DUP7 ADD MSTORE PUSH2 0x2686 DUP3 DUP3 PUSH2 0x210D JUMP JUMPDEST SWAP2 POP POP PUSH1 0x20 DUP4 ADD MLOAD PUSH2 0x269B PUSH1 0x20 DUP7 ADD DUP3 PUSH2 0x2230 JUMP JUMPDEST POP PUSH1 0x40 DUP4 ADD MLOAD PUSH2 0x26AE PUSH1 0x40 DUP7 ADD DUP3 PUSH2 0x201E JUMP JUMPDEST POP DUP1 SWAP2 POP POP SWAP3 SWAP2 POP POP JUMP JUMPDEST PUSH0 PUSH2 0x26C4 DUP4 DUP4 PUSH2 0x266C JUMP JUMPDEST SWAP1 POP SWAP3 SWAP2 POP POP JUMP JUMPDEST PUSH0 PUSH1 0x20 DUP3 ADD SWAP1 POP SWAP2 SWAP1 POP JUMP JUMPDEST PUSH0 PUSH2 0x26E2 DUP3 PUSH2 0x2643 JUMP JUMPDEST PUSH2 0x26EC DUP2 DUP6 PUSH2 0x264D JUMP JUMPDEST SWAP4 POP DUP4 PUSH1 0x20 DUP3 MUL DUP6 ADD PUSH2 0x26FE DUP6 PUSH2 0x265D JUMP JUMPDEST DUP1 PUSH0 JUMPDEST DUP6 DUP2 LT ISZERO PUSH2 0x2739 JUMPI DUP5 DUP5 SUB DUP10 MSTORE DUP2 MLOAD PUSH2 0x271A DUP6 DUP3 PUSH2 0x26B9 JUMP JUMPDEST SWAP5 POP PUSH2 0x2725 DUP4 PUSH2 0x26CC JUMP JUMPDEST SWAP3 POP PUSH1 0x20 DUP11 ADD SWAP10 POP POP PUSH1 0x1 DUP2 ADD SWAP1 POP PUSH2 0x2701 JUMP JUMPDEST POP DUP3 SWAP8 POP DUP8 SWAP6 POP POP POP POP POP POP SWAP3 SWAP2 POP POP JUMP JUMPDEST PUSH0 PUSH2 0x100 DUP3 ADD SWAP1 POP DUP2 DUP2 SUB PUSH0 DUP4 ADD MSTORE PUSH2 0x2764 DUP2 DUP12 PUSH2 0x25FC JUMP JUMPDEST SWAP1 POP DUP2 DUP2 SUB PUSH1 0x20 DUP4 ADD MSTORE PUSH2 0x2778 DUP2 DUP11 PUSH2 0x25FC JUMP JUMPDEST SWAP1 POP PUSH2 0x2787 PUSH1 0x40 DUP4 ADD DUP10 PUSH2 0x2634 JUMP JUMPDEST PUSH2 0x2794 PUSH1 0x60 DUP4 ADD DUP9 PUSH2 0x1FCD JUMP JUMPDEST PUSH2 0x27A1 PUSH1 0x80 DUP4 ADD DUP8 PUSH2 0x1FCD JUMP JUMPDEST DUP2 DUP2 SUB PUSH1 0xA0 DUP4 ADD MSTORE PUSH2 0x27B3 DUP2 DUP7 PUSH2 0x2262 JUMP JUMPDEST SWAP1 POP PUSH2 0x27C2 PUSH1 0xC0 DUP4 ADD DUP6 PUSH2 0x1FCD JUMP JUMPDEST DUP2 DUP2 SUB PUSH1 0xE0 DUP4 ADD MSTORE PUSH2 0x27D4 DUP2 DUP5 PUSH2 0x26D8 JUMP JUMPDEST SWAP1 POP SWAP10 SWAP9 POP POP POP POP POP POP POP POP POP JUMP JUMPDEST PUSH2 0x27EC DUP2 PUSH2 0x221F JUMP JUMPDEST DUP2 EQ PUSH2 0x27F6 JUMPI PUSH0 DUP1 REVERT JUMPDEST POP JUMP JUMPDEST PUSH0 DUP2 CALLDATALOAD SWAP1 POP PUSH2 0x2807 DUP2 PUSH2 0x27E3 JUMP JUMPDEST SWAP3 SWAP2 POP POP JUMP JUMPDEST PUSH0 DUP1 PUSH1 0x40 DUP4 DUP6 SUB SLT ISZERO PUSH2 0x2823 JUMPI PUSH2 0x2822 PUSH2 0x1F67 JUMP JUMPDEST JUMPDEST PUSH0 PUSH2 0x2830 DUP6 DUP3 DUP7 ADD PUSH2 0x1F8E JUMP JUMPDEST SWAP3 POP POP PUSH1 0x20 PUSH2 0x2841 DUP6 DUP3 DUP7 ADD PUSH2 0x27F9 JUMP JUMPDEST SWAP2 POP POP SWAP3 POP SWAP3 SWAP1 POP JUMP JUMPDEST PUSH2 0x2854 DUP2 PUSH2 0x22E7 JUMP JUMPDEST DUP3 MSTORE POP POP JUMP JUMPDEST PUSH0 PUSH1 0x20 DUP3 ADD SWAP1 POP PUSH2 0x286D PUSH0 DUP4 ADD DUP5 PUSH2 0x284B JUMP JUMPDEST SWAP3 SWAP2 POP POP JUMP JUMPDEST PUSH0 DUP1 PUSH1 0x40 DUP4 DUP6 SUB SLT ISZERO PUSH2 0x2889 JUMPI PUSH2 0x2888 PUSH2 0x1F67 JUMP JUMPDEST JUMPDEST PUSH0 PUSH2 0x2896 DUP6 DUP3 DUP7 ADD PUSH2 0x1F8E JUMP JUMPDEST SWAP3 POP POP PUSH1 0x20 DUP4 ADD CALLDATALOAD PUSH8 0xFFFFFFFFFFFFFFFF DUP2 GT ISZERO PUSH2 0x28B7 JUMPI PUSH2 0x28B6 PUSH2 0x1F6B JUMP JUMPDEST JUMPDEST PUSH2 0x28C3 DUP6 DUP3 DUP7 ADD PUSH2 0x2549 JUMP JUMPDEST SWAP2 POP POP SWAP3 POP SWAP3 SWAP1 POP JUMP JUMPDEST PUSH0 DUP1 PUSH0 PUSH1 0x60 DUP5 DUP7 SUB SLT ISZERO PUSH2 0x28E4 JUMPI PUSH2 0x28E3 PUSH2 0x1F67 JUMP JUMPDEST JUMPDEST PUSH0 PUSH2 0x28F1 DUP7 DUP3 DUP8 ADD PUSH2 0x1F8E JUMP JUMPDEST SWAP4 POP POP PUSH1 0x20 DUP5 ADD CALLDATALOAD PUSH8 0xFFFFFFFFFFFFFFFF DUP2 GT ISZERO PUSH2 0x2912 JUMPI PUSH2 0x2911 PUSH2 0x1F6B JUMP JUMPDEST JUMPDEST PUSH2 0x291E DUP7 DUP3 DUP8 ADD PUSH2 0x2549 JUMP JUMPDEST SWAP3 POP POP PUSH1 0x40 DUP5 ADD CALLDATALOAD PUSH8 0xFFFFFFFFFFFFFFFF DUP2 GT ISZERO PUSH2 0x293F JUMPI PUSH2 0x293E PUSH2 0x1F6B JUMP JUMPDEST JUMPDEST PUSH2 0x294B DUP7 DUP3 DUP8 ADD PUSH2 0x2549 JUMP JUMPDEST SWAP2 POP POP SWAP3 POP SWAP3 POP SWAP3 JUMP JUMPDEST PUSH32 0x506F737420646F6573206E6F7420657869737400000000000000000000000000 PUSH0 DUP3 ADD MSTORE POP JUMP JUMPDEST PUSH0 PUSH2 0x2989 PUSH1 0x13 DUP4 PUSH2 0x25EC JUMP JUMPDEST SWAP2 POP PUSH2 0x2994 DUP3 PUSH2 0x2955 JUMP JUMPDEST PUSH1 0x20 DUP3 ADD SWAP1 POP SWAP2 SWAP1 POP JUMP JUMPDEST PUSH0 PUSH1 0x20 DUP3 ADD SWAP1 POP DUP2 DUP2 SUB PUSH0 DUP4 ADD MSTORE PUSH2 0x29B6 DUP2 PUSH2 0x297D JUMP JUMPDEST SWAP1 POP SWAP2 SWAP1 POP JUMP JUMPDEST PUSH32 0x4E487B7100000000000000000000000000000000000000000000000000000000 PUSH0 MSTORE PUSH1 0x32 PUSH1 0x4 MSTORE PUSH1 0x24 PUSH0 REVERT JUMPDEST PUSH32 0x506F737420686173206265656E2064656C657465640000000000000000000000 PUSH0 DUP3 ADD MSTORE POP JUMP JUMPDEST PUSH0 PUSH2 0x2A1E PUSH1 0x15 DUP4 PUSH2 0x25EC JUMP JUMPDEST SWAP2 POP PUSH2 0x2A29 DUP3 PUSH2 0x29EA JUMP JUMPDEST PUSH1 0x20 DUP3 ADD SWAP1 POP SWAP2 SWAP1 POP JUMP JUMPDEST PUSH0 PUSH1 0x20 DUP3 ADD SWAP1 POP DUP2 DUP2 SUB PUSH0 DUP4 ADD MSTORE PUSH2 0x2A4B DUP2 PUSH2 0x2A12 JUMP JUMPDEST SWAP1 POP SWAP2 SWAP1 POP JUMP JUMPDEST PUSH32 0x5365756C206C276175746575722070657574207375707072696D657220636520 PUSH0 DUP3 ADD MSTORE PUSH32 0x706F737400000000000000000000000000000000000000000000000000000000 PUSH1 0x20 DUP3 ADD MSTORE POP JUMP JUMPDEST PUSH0 PUSH2 0x2AAC PUSH1 0x24 DUP4 PUSH2 0x25EC JUMP JUMPDEST SWAP2 POP PUSH2 0x2AB7 DUP3 PUSH2 0x2A52 JUMP JUMPDEST PUSH1 0x40 DUP3 ADD SWAP1 POP SWAP2 SWAP1 POP JUMP JUMPDEST PUSH0 PUSH1 0x20 DUP3 ADD SWAP1 POP DUP2 DUP2 SUB PUSH0 DUP4 ADD MSTORE PUSH2 0x2AD9 DUP2 PUSH2 0x2AA0 JUMP JUMPDEST SWAP1 POP SWAP2 SWAP1 POP JUMP JUMPDEST PUSH32 0x4E487B7100000000000000000000000000000000000000000000000000000000 PUSH0 MSTORE PUSH1 0x11 PUSH1 0x4 MSTORE PUSH1 0x24 PUSH0 REVERT JUMPDEST PUSH0 PUSH2 0x2B17 DUP3 PUSH2 0x1F6F JUMP JUMPDEST SWAP2 POP PUSH0 DUP3 SUB PUSH2 0x2B29 JUMPI PUSH2 0x2B28 PUSH2 0x2AE0 JUMP JUMPDEST JUMPDEST PUSH1 0x1 DUP3 SUB SWAP1 POP SWAP2 SWAP1 POP JUMP JUMPDEST PUSH0 PUSH2 0x2B3E DUP3 PUSH2 0x1F6F JUMP JUMPDEST SWAP2 POP PUSH32 0xFFFFFFFFFFFFFFFFFFFFFFFFFFFFFFFFFFFFFFFFFFFFFFFFFFFFFFFFFFFFFFFF DUP3 SUB PUSH2 0x2B70 JUMPI PUSH2 0x2B6F PUSH2 0x2AE0 JUMP JUMPDEST JUMPDEST PUSH1 0x1 DUP3 ADD SWAP1 POP SWAP2 SWAP1 POP JUMP JUMPDEST PUSH32 0x4E487B7100000000000000000000000000000000000000000000000000000000 PUSH0 MSTORE PUSH1 0x22 PUSH1 0x4 MSTORE PUSH1 0x24 PUSH0 REVERT JUMPDEST PUSH0 PUSH1 0x2 DUP3 DIV SWAP1 POP PUSH1 0x1 DUP3 AND DUP1 PUSH2 0x2BBF JUMPI PUSH1 0x7F DUP3 AND SWAP2 POP JUMPDEST PUSH1 0x20 DUP3 LT DUP2 SUB PUSH2 0x2BD2 JUMPI PUSH2 0x2BD1 PUSH2 0x2B7B JUMP JUMPDEST JUMPDEST POP SWAP2 SWAP1 POP JUMP JUMPDEST PUSH32 0x5469746C652063616E6E6F7420626520656D7074790000000000000000000000 PUSH0 DUP3 ADD MSTORE POP JUMP JUMPDEST PUSH0 PUSH2 0x2C0C PUSH1 0x15 DUP4 PUSH2 0x25EC JUMP JUMPDEST SWAP2 POP PUSH2 0x2C17 DUP3 PUSH2 0x2BD8 JUMP JUMPDEST PUSH1 0x20 DUP3 ADD SWAP1 POP SWAP2 SWAP1 POP JUMP JUMPDEST PUSH0 PUSH1 0x20 DUP3 ADD SWAP1 POP DUP2 DUP2 SUB PUSH0 DUP4 ADD MSTORE PUSH2 0x2C39 DUP2 PUSH2 0x2C00 JUMP JUMPDEST SWAP1 POP SWAP2 SWAP1 POP JUMP JUMPDEST PUSH32 0x5469746C6520746F6F206C6F6E67000000000000000000000000000000000000 PUSH0 DUP3 ADD MSTORE POP JUMP JUMPDEST PUSH0 PUSH2 0x2C74 PUSH1 0xE DUP4 PUSH2 0x25EC JUMP JUMPDEST SWAP2 POP PUSH2 0x2C7F DUP3 PUSH2 0x2C40 JUMP JUMPDEST PUSH1 0x20 DUP3 ADD SWAP1 POP SWAP2 SWAP1 POP JUMP JUMPDEST PUSH0 PUSH1 0x20 DUP3 ADD SWAP1 POP DUP2 DUP2 SUB PUSH0 DUP4 ADD MSTORE PUSH2 0x2CA1 DUP2 PUSH2 0x2C68 JUMP JUMPDEST SWAP1 POP SWAP2 SWAP1 POP JUMP JUMPDEST PUSH32 0x436F6E74656E742063616E6E6F7420626520656D707479000000000000000000 PUSH0 DUP3 ADD MSTORE POP JUMP JUMPDEST PUSH0 PUSH2 0x2CDC PUSH1 0x17 DUP4 PUSH2 0x25EC JUMP JUMPDEST SWAP2 POP PUSH2 0x2CE7 DUP3 PUSH2 0x2CA8 JUMP JUMPDEST PUSH1 0x20 DUP3 ADD SWAP1 POP SWAP2 SWAP1 POP JUMP JUMPDEST PUSH0 PUSH1 0x20 DUP3 ADD SWAP1 POP DUP2 DUP2 SUB PUSH0 DUP4 ADD MSTORE PUSH2 0x2D09 DUP2 PUSH2 0x2CD0 JUMP JUMPDEST SWAP1 POP SWAP2 SWAP1 POP JUMP JUMPDEST PUSH32 0x436F6E74656E7420746F6F206C6F6E6700000000000000000000000000000000 PUSH0 DUP3 ADD MSTORE POP JUMP JUMPDEST PUSH0 PUSH2 0x2D44 PUSH1 0x10 DUP4 PUSH2 0x25EC JUMP JUMPDEST SWAP2 POP PUSH2 0x2D4F DUP3 PUSH2 0x2D10 JUMP JUMPDEST PUSH1 0x20 DUP3 ADD SWAP1 POP SWAP2 SWAP1 POP JUMP JUMPDEST PUSH0 PUSH1 0x20 DUP3 ADD SWAP1 POP DUP2 DUP2 SUB PUSH0 DUP4 ADD MSTORE PUSH2 0x2D71 DUP2 PUSH2 0x2D38 JUMP JUMPDEST SWAP1 POP SWAP2 SWAP1 POP JUMP JUMPDEST PUSH0 DUP2 SWAP1 POP DUP2 PUSH0 MSTORE PUSH1 0x20 PUSH0 KECCAK256 SWAP1 POP SWAP2 SWAP1 POP JUMP JUMPDEST PUSH0 PUSH1 0x20 PUSH1 0x1F DUP4 ADD DIV SWAP1 POP SWAP2 SWAP1 POP JUMP JUMPDEST PUSH0 DUP3 DUP3 SHL SWAP1 POP SWAP3 SWAP2 POP POP JUMP JUMPDEST PUSH0 PUSH1 0x8 DUP4 MUL PUSH2 0x2DD4 PUSH32 0xFFFFFFFFFFFFFFFFFFFFFFFFFFFFFFFFFFFFFFFFFFFFFFFFFFFFFFFFFFFFFFFF DUP3 PUSH2 0x2D99 JUMP JUMPDEST PUSH2 0x2DDE DUP7 DUP4 PUSH2 0x2D99 JUMP JUMPDEST SWAP6 POP DUP1 NOT DUP5 AND SWAP4 POP DUP1 DUP7 AND DUP5 OR SWAP3 POP POP POP SWAP4 SWAP3 POP POP POP JUMP JUMPDEST PUSH0 DUP2 SWAP1 POP SWAP2 SWAP1 POP JUMP JUMPDEST PUSH0 PUSH2 0x2E19 PUSH2 0x2E14 PUSH2 0x2E0F DUP5 PUSH2 0x1F6F JUMP JUMPDEST PUSH2 0x2DF6 JUMP JUMPDEST PUSH2 0x1F6F JUMP JUMPDEST SWAP1 POP SWAP2 SWAP1 POP JUMP JUMPDEST PUSH0 DUP2 SWAP1 POP SWAP2 SWAP1 POP JUMP JUMPDEST PUSH2 0x2E32 DUP4 PUSH2 0x2DFF JUMP JUMPDEST PUSH2 0x2E46 PUSH2 0x2E3E DUP3 PUSH2 0x2E20 JUMP JUMPDEST DUP5 DUP5 SLOAD PUSH2 0x2DA5 JUMP JUMPDEST DUP3 SSTORE POP POP POP POP JUMP JUMPDEST PUSH0 SWAP1 JUMP JUMPDEST PUSH2 0x2E5A PUSH2 0x2E4E JUMP JUMPDEST PUSH2 0x2E65 DUP2 DUP5 DUP5 PUSH2 0x2E29 JUMP JUMPDEST POP POP POP JUMP JUMPDEST JUMPDEST DUP2 DUP2 LT ISZERO PUSH2 0x2E88 JUMPI PUSH2 0x2E7D PUSH0 DUP3 PUSH2 0x2E52 JUMP JUMPDEST PUSH1 0x1 DUP2 ADD SWAP1 POP PUSH2 0x2E6B JUMP JUMPDEST POP POP JUMP JUMPDEST PUSH1 0x1F DUP3 GT ISZERO PUSH2 0x2ECD JUMPI PUSH2 0x2E9E DUP2 PUSH2 0x2D78 JUMP JUMPDEST PUSH2 0x2EA7 DUP5 PUSH2 0x2D8A JUMP JUMPDEST DUP2 ADD PUSH1 0x20 DUP6 LT ISZERO PUSH2 0x2EB6 JUMPI DUP2 SWAP1 POP JUMPDEST PUSH2 0x2ECA PUSH2 0x2EC2 DUP6 PUSH2 0x2D8A JUMP JUMPDEST DUP4 ADD DUP3 PUSH2 0x2E6A JUMP JUMPDEST POP POP JUMPDEST POP POP POP JUMP JUMPDEST PUSH0 DUP3 DUP3 SHR SWAP1 POP SWAP3 SWAP2 POP POP JUMP JUMPDEST PUSH0 PUSH2 0x2EED PUSH0 NOT DUP5 PUSH1 0x8 MUL PUSH2 0x2ED2 JUMP JUMPDEST NOT DUP1 DUP4 AND SWAP2 POP POP SWAP3 SWAP2 POP POP JUMP JUMPDEST PUSH0 PUSH2 0x2F05 DUP4 DUP4 PUSH2 0x2EDE JUMP JUMPDEST SWAP2 POP DUP3 PUSH1 0x2 MUL DUP3 OR SWAP1 POP SWAP3 SWAP2 POP POP JUMP JUMPDEST PUSH2 0x2F1E DUP3 PUSH2 0x20D5 JUMP JUMPDEST PUSH8 0xFFFFFFFFFFFFFFFF DUP2 GT ISZERO PUSH2 0x2F37 JUMPI PUSH2 0x2F36 PUSH2 0x2452 JUMP JUMPDEST JUMPDEST PUSH2 0x2F41 DUP3 SLOAD PUSH2 0x2BA8 JUMP JUMPDEST PUSH2 0x2F4C DUP3 DUP3 DUP6 PUSH2 0x2E8C JUMP JUMPDEST PUSH0 PUSH1 0x20 SWAP1 POP PUSH1 0x1F DUP4 GT PUSH1 0x1 DUP2 EQ PUSH2 0x2F7D JUMPI PUSH0 DUP5 ISZERO PUSH2 0x2F6B JUMPI DUP3 DUP8 ADD MLOAD SWAP1 POP JUMPDEST PUSH2 0x2F75 DUP6 DUP3 PUSH2 0x2EFA JUMP JUMPDEST DUP7 SSTORE POP PUSH2 0x2FDC JUMP JUMPDEST PUSH1 0x1F NOT DUP5 AND PUSH2 0x2F8B DUP7 PUSH2 0x2D78 JUMP JUMPDEST PUSH0 JUMPDEST DUP3 DUP2 LT ISZERO PUSH2 0x2FB2 JUMPI DUP5 DUP10 ADD MLOAD DUP3 SSTORE PUSH1 0x1 DUP3 ADD SWAP2 POP PUSH1 0x20 DUP6 ADD SWAP5 POP PUSH1 0x20 DUP2 ADD SWAP1 POP PUSH2 0x2F8D JUMP JUMPDEST DUP7 DUP4 LT ISZERO PUSH2 0x2FCF JUMPI DUP5 DUP10 ADD MLOAD PUSH2 0x2FCB PUSH1 0x1F DUP10 AND DUP3 PUSH2 0x2EDE JUMP JUMPDEST DUP4 SSTORE POP JUMPDEST PUSH1 0x1 PUSH1 0x2 DUP9 MUL ADD DUP9 SSTORE POP POP POP JUMPDEST POP POP POP POP POP POP JUMP JUMPDEST PUSH0 PUSH1 0x40 DUP3 ADD SWAP1 POP DUP2 DUP2 SUB PUSH0 DUP4 ADD MSTORE PUSH2 0x2FFC DUP2 DUP6 PUSH2 0x25FC JUMP JUMPDEST SWAP1 POP PUSH2 0x300B PUSH1 0x20 DUP4 ADD DUP5 PUSH2 0x1FCD JUMP JUMPDEST SWAP4 SWAP3 POP POP POP JUMP JUMPDEST PUSH32 0x566F7573206E6520706F7576657A20706173206C696B657220766F7472652070 PUSH0 DUP3 ADD MSTORE PUSH32 0x726F70726520706F737400000000000000000000000000000000000000000000 PUSH1 0x20 DUP3 ADD MSTORE POP JUMP JUMPDEST PUSH0 PUSH2 0x306C PUSH1 0x2A DUP4 PUSH2 0x25EC JUMP JUMPDEST SWAP2 POP PUSH2 0x3077 DUP3 PUSH2 0x3012 JUMP JUMPDEST PUSH1 0x40 DUP3 ADD SWAP1 POP SWAP2 SWAP1 POP JUMP JUMPDEST PUSH0 PUSH1 0x20 DUP3 ADD SWAP1 POP DUP2 DUP2 SUB PUSH0 DUP4 ADD MSTORE PUSH2 0x3099 DUP2 PUSH2 0x3060 JUMP JUMPDEST SWAP1 POP SWAP2 SWAP1 POP JUMP JUMPDEST PUSH0 PUSH2 0x30AA DUP3 PUSH2 0x1F6F JUMP JUMPDEST SWAP2 POP PUSH2 0x30B5 DUP4 PUSH2 0x1F6F JUMP JUMPDEST SWAP3 POP DUP3 DUP3 SUB SWAP1 POP DUP2 DUP2 GT ISZERO PUSH2 0x30CD JUMPI PUSH2 0x30CC PUSH2 0x2AE0 JUMP JUMPDEST JUMPDEST SWAP3 SWAP2 POP POP JUMP JUMPDEST PUSH32 0x4E487B7100000000000000000000000000000000000000000000000000000000 PUSH0 MSTORE PUSH1 0x31 PUSH1 0x4 MSTORE PUSH1 0x24 PUSH0 REVERT JUMPDEST PUSH32 0x4C6520636F6D6D656E7461697265206E65207065757420706173206574726520 PUSH0 DUP3 ADD MSTORE PUSH32 0x7669646500000000000000000000000000000000000000000000000000000000 PUSH1 0x20 DUP3 ADD MSTORE POP JUMP JUMPDEST PUSH0 PUSH2 0x315A PUSH1 0x24 DUP4 PUSH2 0x25EC JUMP JUMPDEST SWAP2 POP PUSH2 0x3165 DUP3 PUSH2 0x3100 JUMP JUMPDEST PUSH1 0x40 DUP3 ADD SWAP1 POP SWAP2 SWAP1 POP JUMP JUMPDEST PUSH0 PUSH1 0x20 DUP3 ADD SWAP1 POP DUP2 DUP2 SUB PUSH0 DUP4 ADD MSTORE PUSH2 0x3187 DUP2 PUSH2 0x314E JUMP JUMPDEST SWAP1 POP SWAP2 SWAP1 POP JUMP JUMPDEST PUSH32 0x4C6520636F6D6D656E7461697265206573742074726F70206C6F6E6700000000 PUSH0 DUP3 ADD MSTORE POP JUMP JUMPDEST PUSH0 PUSH2 0x31C2 PUSH1 0x1C DUP4 PUSH2 0x25EC JUMP JUMPDEST SWAP2 POP PUSH2 0x31CD DUP3 PUSH2 0x318E JUMP JUMPDEST PUSH1 0x20 DUP3 ADD SWAP1 POP SWAP2 SWAP1 POP JUMP JUMPDEST PUSH0 PUSH1 0x20 DUP3 ADD SWAP1 POP DUP2 DUP2 SUB PUSH0 DUP4 ADD MSTORE PUSH2 0x31EF DUP2 PUSH2 0x31B6 JUMP JUMPDEST SWAP1 POP SWAP2 SWAP1 POP JUMP JUMPDEST PUSH0 PUSH1 0x20 DUP3 ADD SWAP1 POP DUP2 DUP2 SUB PUSH0 DUP4 ADD MSTORE PUSH2 0x320E DUP2 DUP5 PUSH2 0x25FC JUMP JUMPDEST SWAP1 POP SWAP3 SWAP2 POP POP JUMP JUMPDEST PUSH32 0x4F6E6C792074686520617574686F722063616E2065646974207468697320706F PUSH0 DUP3 ADD MSTORE PUSH32 0x7374000000000000000000000000000000000000000000000000000000000000 PUSH1 0x20 DUP3 ADD MSTORE POP JUMP JUMPDEST PUSH0 PUSH2 0x3270 PUSH1 0x22 DUP4 PUSH2 0x25EC JUMP JUMPDEST SWAP2 POP PUSH2 0x327B DUP3 PUSH2 0x3216 JUMP JUMPDEST PUSH1 0x40 DUP3 ADD SWAP1 POP SWAP2 SWAP1 POP JUMP JUMPDEST PUSH0 PUSH1 0x20 DUP3 ADD SWAP1 POP DUP2 DUP2 SUB PUSH0 DUP4 ADD MSTORE PUSH2 0x329D DUP2 PUSH2 0x3264 JUMP JUMPDEST SWAP1 POP SWAP2 SWAP1 POP JUMP INVALID LOG2 PUSH5 0x6970667358 0x22 SLT KECCAK256 GAS PUSH28 0xF10224CA60A07C636A1B46442FEC7A90B39ECA13A3787A9F2116223C 0xE9 ORIGIN PUSH5 0x736F6C6343 STOP ADDMOD BYTE STOP CALLER "
				},
				"gasEstimates": {
					"creation": {
						"codeDepositCost": "2603600",
						"executionCost": "2814",
						"totalCost": "2606414"
					},
					"external": {
						"activePostsCount()": "2448",
						"addComment(uint256,string)": "infinite",
						"createPost(string,string)": "infinite",
						"deletePost(uint256)": "infinite",
						"editPost(uint256,string,string)": "infinite",
						"getAllPosts()": "infinite",
						"getPost(uint256)": "infinite",
						"getTotalPosts()": "2454",
						"hasLiked(uint256,address)": "9664",
						"toggleLike(uint256)": "infinite",
						"totalPosts()": "2469"
					}
				},
				"methodIdentifiers": {
					"activePostsCount()": "0fbbbfc3",
					"addComment(uint256,string)": "aa7e5683",
					"createPost(string,string)": "392338f5",
					"deletePost(uint256)": "094cd5ee",
					"editPost(uint256,string,string)": "bf0ac63c",
					"getAllPosts()": "30561100",
					"getPost(uint256)": "40731c24",
					"getTotalPosts()": "5fe226b4",
					"hasLiked(uint256,address)": "8fb7092c",
					"toggleLike(uint256)": "54398d18",
					"totalPosts()": "8e53fb41"
				}
			},
			"storageLayout": {
				"storage": [
					{
						"astId": 41,
						"contract": "contracts/MiniSocial.sol:MiniSocial",
						"label": "posts",
						"offset": 0,
						"slot": "0",
						"type": "t_array(t_struct(Post)37_storage)dyn_storage"
					},
					{
						"astId": 47,
						"contract": "contracts/MiniSocial.sol:MiniSocial",
						"label": "postLikes",
						"offset": 0,
						"slot": "1",
						"type": "t_mapping(t_uint256,t_mapping(t_address,t_bool))"
					},
					{
						"astId": 49,
						"contract": "contracts/MiniSocial.sol:MiniSocial",
						"label": "totalPosts",
						"offset": 0,
						"slot": "2",
						"type": "t_uint256"
					},
					{
						"astId": 51,
						"contract": "contracts/MiniSocial.sol:MiniSocial",
						"label": "activePostsCount",
						"offset": 0,
						"slot": "3",
						"type": "t_uint256"
					}
				],
				"types": {
					"t_address": {
						"encoding": "inplace",
						"label": "address",
						"numberOfBytes": "20"
					},
					"t_array(t_address)dyn_storage": {
						"base": "t_address",
						"encoding": "dynamic_array",
						"label": "address[]",
						"numberOfBytes": "32"
					},
					"t_array(t_struct(Post)37_storage)dyn_storage": {
						"base": "t_struct(Post)37_storage",
						"encoding": "dynamic_array",
						"label": "struct MiniSocial.Post[]",
						"numberOfBytes": "32"
					},
					"t_bool": {
						"encoding": "inplace",
						"label": "bool",
						"numberOfBytes": "1"
					},
					"t_mapping(t_address,t_bool)": {
						"encoding": "mapping",
						"key": "t_address",
						"label": "mapping(address => bool)",
						"numberOfBytes": "32",
						"value": "t_bool"
					},
					"t_mapping(t_uint256,t_mapping(t_address,t_bool))": {
						"encoding": "mapping",
						"key": "t_uint256",
						"label": "mapping(uint256 => mapping(address => bool))",
						"numberOfBytes": "32",
						"value": "t_mapping(t_address,t_bool)"
					},
					"t_mapping(t_uint256,t_struct(Comment)8_storage)": {
						"encoding": "mapping",
						"key": "t_uint256",
						"label": "mapping(uint256 => struct MiniSocial.Comment)",
						"numberOfBytes": "32",
						"value": "t_struct(Comment)8_storage"
					},
					"t_string_storage": {
						"encoding": "bytes",
						"label": "string",
						"numberOfBytes": "32"
					},
					"t_struct(Comment)8_storage": {
						"encoding": "inplace",
						"label": "struct MiniSocial.Comment",
						"members": [
							{
								"astId": 3,
								"contract": "contracts/MiniSocial.sol:MiniSocial",
								"label": "content",
								"offset": 0,
								"slot": "0",
								"type": "t_string_storage"
							},
							{
								"astId": 5,
								"contract": "contracts/MiniSocial.sol:MiniSocial",
								"label": "author",
								"offset": 0,
								"slot": "1",
								"type": "t_address"
							},
							{
								"astId": 7,
								"contract": "contracts/MiniSocial.sol:MiniSocial",
								"label": "timestamp",
								"offset": 0,
								"slot": "2",
								"type": "t_uint256"
							}
						],
						"numberOfBytes": "96"
					},
					"t_struct(Post)37_storage": {
						"encoding": "inplace",
						"label": "struct MiniSocial.Post",
						"members": [
							{
								"astId": 10,
								"contract": "contracts/MiniSocial.sol:MiniSocial",
								"label": "postId",
								"offset": 0,
								"slot": "0",
								"type": "t_uint256"
							},
							{
								"astId": 12,
								"contract": "contracts/MiniSocial.sol:MiniSocial",
								"label": "title",
								"offset": 0,
								"slot": "1",
								"type": "t_string_storage"
							},
							{
								"astId": 14,
								"contract": "contracts/MiniSocial.sol:MiniSocial",
								"label": "content",
								"offset": 0,
								"slot": "2",
								"type": "t_string_storage"
							},
							{
								"astId": 16,
								"contract": "contracts/MiniSocial.sol:MiniSocial",
								"label": "author",
								"offset": 0,
								"slot": "3",
								"type": "t_address"
							},
							{
								"astId": 18,
								"contract": "contracts/MiniSocial.sol:MiniSocial",
								"label": "timestamp",
								"offset": 0,
								"slot": "4",
								"type": "t_uint256"
							},
							{
								"astId": 20,
								"contract": "contracts/MiniSocial.sol:MiniSocial",
								"label": "likesCount",
								"offset": 0,
								"slot": "5",
								"type": "t_uint256"
							},
							{
								"astId": 23,
								"contract": "contracts/MiniSocial.sol:MiniSocial",
								"label": "likedBy",
								"offset": 0,
								"slot": "6",
								"type": "t_array(t_address)dyn_storage"
							},
							{
								"astId": 28,
								"contract": "contracts/MiniSocial.sol:MiniSocial",
								"label": "comments",
								"offset": 0,
								"slot": "7",
								"type": "t_mapping(t_uint256,t_struct(Comment)8_storage)"
							},
							{
								"astId": 30,
								"contract": "contracts/MiniSocial.sol:MiniSocial",
								"label": "commentCount",
								"offset": 0,
								"slot": "8",
								"type": "t_uint256"
							},
							{
								"astId": 32,
								"contract": "contracts/MiniSocial.sol:MiniSocial",
								"label": "isEdited",
								"offset": 0,
								"slot": "9",
								"type": "t_bool"
							},
							{
								"astId": 34,
								"contract": "contracts/MiniSocial.sol:MiniSocial",
								"label": "lastEditTime",
								"offset": 0,
								"slot": "10",
								"type": "t_uint256"
							},
							{
								"astId": 36,
								"contract": "contracts/MiniSocial.sol:MiniSocial",
								"label": "isActive",
								"offset": 0,
								"slot": "11",
								"type": "t_bool"
							}
						],
						"numberOfBytes": "384"
					},
					"t_uint256": {
						"encoding": "inplace",
						"label": "uint256",
						"numberOfBytes": "32"
					}
				}
			},
			"userdoc": {
				"kind": "user",
				"methods": {},
				"version": 1
			}
		}
	}
}